:020000040800F2
:1000000030070020890100089101000893010008D1
:100010009501000897010008990100080000000000
:100020000000000000000000000000009B0100082C
:100030009D010008000000009F010008A1010008C8
:10004000A3010008A3010008A3010008A301000800
:10005000A3010008A3010008A3010008A3010008F0
:10006000A3010008A3010008A3010008A3010008E0
:10007000A3010008A3010008A3010008A3010008D0
:10008000A3010008A3010008A3010008A3010008C0
:10009000A3010008A3010008A3010008A3010008B0
:1000A000A3010008C1020008A3010008A301000881
:1000B000A3010008A3010008A3010008A301000890
:1000C000A3010008A3010008A3010008A301000880
:1000D000A3010008ED020008F70200080103000870
:1000E000A3010008A3010008A301000800F002F822
:1000F00000F03AF80AA090E8000C82448344AAF188
:100100000107DA4501D100F02FF8AFF2090EBAE885
:100110000F0013F0010F18BFFB1A43F0010318473B
:1001200088270000A8270000103A24BF78C878C1AB
:10013000FAD8520724BF30C830C144BF04680C60ED
:10014000704700000023002400250026103A28BF35
:1001500078C1FBD8520728BF30C148BF0B60704739
:100160001FB51FBD10B510BD00F044F81146FFF7D4
:10017000F7FF00F0B9FE00F062F803B4FFF7F2FFFA
:1001800003BC00F065F800000948804709480047B3
:10019000FEE7FEE7FEE7FEE7FEE7FEE7FEE7FEE737
:1001A000FEE7FEE704480549054A064B7047000094
:1001B00061020008ED000008300100203007002037
:1001C000300300203003002070477047704710B59F
:1001D00000F008F8006810BD10B5044600F002F801
:1001E000046010BD00487047D000002000487047F0
:1001F000D00000207546FFF7F9FFAE4605006946BE
:10020000534620F00700854618B020B5FFF7CAFF17
:10021000BDE820404FF000064FF000074FF0000807
:100220004FF0000B21F00701AC46ACE8C009ACE888
:10023000C009ACE8C009ACE8C0098D46704710B5EC
:100240000446AFF300802046BDE81040FFF795BF9D
:1002500001491820ABBEFEE72600020070470000EF
:1002600010B51348006840F00100114908600846C5
:100270004068104908400E494860084600680E4929
:1002800008400B4908600846006820F48020086098
:100290000846406820F4FE0048604FF41F00886064
:1002A00000F033F84FF000600449086010BD000012
:1002B000001002400000FFF8FFFFF6FE08ED00E02E
:1002C0000848008800F0010050B10648008820F07E
:1002D00001000449088004480068401C0249086085
:1002E00070470000102C01400000002000B50020E5
:1002F00000F0F2F800BD00B5012000F0EDF800BDFF
:1003000000B5022000F0E8F800BD10B500F074F868
:1003100010BD000010B50146012903D0022903D009
:10032000174803E0174801E0174800BF00BF00BFAF
:10033000028802F08002002AFAD0144A02EB41122D
:10034000134B5B5CD25C8280114B5B5C5A1CD317F5
:1003500002EBD3635B11A2EB43130D4C63540D4AC4
:10036000525C23465B5C9A4204D1828922F080026F
:10037000828103E0828942F08002828110BD000008
:100380000038014000440040004800407000002058
:100390000D0000200A00002070B506460C4600251E
:1003A00006E028466A1CD5B2215C304600F0E6FC27
:1003B000605D0028F5D170BD01460748405C2030E3
:1003C000064B5B5CC01AC2B2D01702EBD060401182
:1003D000A2EB4010C0B270470400002007000020CC
:1003E00000F01F02012191404209920002F1E02237
:1003F000C2F80011704700000CB500200190009079
:100400003348006840F480303149086000BF30480C
:10041000006800F4003000900198401C01900098A2
:1004200018B90198B0F5A06FF1D12948006800F41F
:10043000003010B10120009001E0002000900098F1
:10044000012843D12348006840F01000214908608A
:100450000846006820F0030008600846006840F085
:10046000020008601A484068194948600846406818
:1004700048600846406840F480604860084640682C
:1004800020F47C1048600846406840F4E81048605A
:100490000846006840F08070086000BF0C480068A3
:1004A00000F000700028F9D00948406820F00300EF
:1004B000074948600846406840F00200486000BFB5
:1004C0000348406800F00C000828F9D10CBD00007A
:1004D000001002400020024030B50546012D03D037
:1004E000022D03D01C4C03E01C4C01E01C4C00BF4F
:1004F00000BF208800F0200030B3208800F0010009
:10050000A8B9208800F0020088B9A088154901EB3D
:100510004511154A525D88541349495D481CC1175D
:1005200000EBD1614911A0EB41110F4A51552088D0
:1005300020F002002080208820F001002080208808
:1005400020F02000208006E0208800F0800010B11C
:100550002846FFF7DFFE30BD003801400044004070
:1005600000480040100000200400002000B50146B3
:1005700000F008F8024600BF00F004F8801A884234
:10058000FAD300BD01480068704700000000002059
:1005900030B5034633B1012B06D0022B06D0032B16
:1005A00008D105E00A4805E00A4803E00A4801E0EE
:1005B0000A4800BF00BF2AB1C46801258D402C4302
:1005C000C46004E0C46801258D40AC43C46030BD04
:1005D00000080140000C01400010014000140140DF
:1005E0002DE9F04782460E469146BAF1000F09D038
:1005F000BAF1010F0ED0BAF1020F13D0BAF1030F06
:1006000020D117E0A94CAA48806940F00400A8490D
:10061000886117E0A74CA648806940F00800A4490B
:1006200088610FE0A44CA248806940F01000A04906
:10063000886107E0A14C9E48806940F020009C49F9
:10064000886100BF00BF3546072D7DD9083D2A4689
:1006500000209B4900F0AEFB074601F0D9FB0546A0
:10066000B9F1080F71D2DFE809F004101E324450CE
:100670005E74606805EB450120EA81006060606897
:1006800005EB45010843606077E0606820EAC5003B
:100690006060606840EA85006060606805EB450165
:1006A0000843606069E08248806940F00100804949
:1006B0008861606840EAC5006060606820EA850083
:1006C0006060606805EB45010843606055E078486C
:1006D000806940F0010076498861606805EB45015A
:1006E00040EA81006060606805EB45010843606096
:1006F00043E0606805EB450120EA810060606068C6
:1007000005EB45018843606037E0606820EAC5007A
:100710006060606840EA85006060606805EB4501E4
:100720008843606029E0606840EAC50060606068F6
:1007300020EA85006060606805EB450188436060E1
:10074000E0680121B14001E018E015E08843E06075
:1007500013E0606840EAC5006060606820EA8500D8
:100760006060606805EB450188436060E0680121D6
:10077000B1400843E06000E000BF94E02A4600205A
:100780004F4900F017FB074601F042FB0546B9F15F
:10079000080F72D2DFE809F004101E3244505E7276
:1007A000206805EB450120EA81002060206805EB08
:1007B00045010843206075E0206820EAC5002060FC
:1007C000206840EA85002060206805EB4501084369
:1007D000206067E03648806940F001003449886154
:1007E000206840EAC5002060206820EA850020607B
:1007F000206805EB45010843206053E02C488069E0
:1008000040F001002A498861206805EB450140EA73
:1008100081002060206805EB45010843206041E02D
:10082000206805EB450120EA81002060206805EB87
:1008300045018843206035E0206820EAC50020603B
:10084000206840EA85002060206805EB4501884368
:10085000206027E0206840EAC5002060206820EA88
:1008600085002060206805EB450188432060E16831
:100870000120B0408143E16014E012E0206840EACA
:10088000C5002060206820EA85002060206805EB14
:10089000450188432060E1680120B0400143E160E8
:1008A00000E000BF00BFBDE8F08700000008014085
:1008B00000100240000C01400010014000140140F3
:1008C000000030404348406820F003004149486040
:1008D00008464068486000BF3E48406800F00C0091
:1008E0000028F9D13B48006880F0807039490860E1
:1008F00000BF3848006800F000700028F9D1354882
:10090000006880F48030334908600846006840F48D
:100910008030086000BF2F48006800F400300028D5
:10092000F9D013202C4908602A48406820F0F000D4
:10093000284948600846406820F4E060486008465E
:10094000406820F4605048600846406848600846A7
:10095000406840F480604860084640684860084647
:10096000406820F4701048600846406820F48030E9
:1009700048600846406820F40030486008464068F7
:1009800040F4803048600846406848600846406847
:1009900040F4E01048600846006840F0807008604D
:1009A00000BF0C48006800F000700028F9D009482A
:1009B000406820F00300074948600846406840F05E
:1009C0000200486000BF0348406800F00C0008289F
:1009D000F9D1704700100240002002402DE9F84F85
:1009E00006460D4691469A46DDE90A7B00207E497F
:1009F00088557E4988557E4988557E49885500BF6F
:100A000009E000217C4A02EB461211547B4A02EBBA
:100A100046121154401C2028F3DB79480BFB00F0F0
:100A200000EB5500B0FBF5F5012E26D0022E4AD082
:100A3000744C7548806940F4804073498861022293
:100A400009210020FFF7CCFD05220A210020FFF735
:100A5000C7FD41F64C50854209D14010854206D170
:100A60004010854203D140F27120854201D040F20E
:100A700071252520FFF7B4FC4BE0644C6248C06947
:100A800040F400306049C861022211460020FFF79F
:100A9000A7FD052203210020FFF7A2FD40F6A66076
:100AA00085420AD14010854207D140F2AA308542E2
:100AB00003D140F23910854201D040F23915262089
:100AC000FFF78EFC25E0524C4F48C06940F480206F
:100AD0004D49C86102220A210120FFF781FD05224C
:100AE0000B210120FFF77CFD40F6A66085420AD16C
:100AF0004010854207D140F2AA30854203D140F22E
:100B00003910854201D040F239152720FFF768FCE3
:100B100000BF00BFA08940F40050A081B9F1090FC7
:100B200004D1A08940F48050A08103E0A08920F482
:100B30008050A0813749504601F02AFD009001F015
:100B40000BFD80464046B8F1050F0BD00A2804D0B3
:100B50000F2819D014281CD10DE0208A20F4405011
:100B6000208216E0208A20F400502082208A40F45F
:100B7000805020820DE0208A40F400502082208A9C
:100B800020F48050208204E0208A40F440502082EB
:100B900000BF00BF8FB1A08940F48060A081012F09
:100BA00004D1A08920F40070A0810AE0022F08D1AE
:100BB000A08940F40070A08103E0A08920F4806047
:100BC000A0812581A08940F00800A081A08940F083
:100BD0000400A081A08940F02000A081A08940F0FD
:100BE0008000A081BDE8F88F0D0000200A000020E1
:100BF00007000020040000201000002070000020EA
:100C000040420F0000380140001002400044004004
:100C1000004800400000204110B501460D48405CEE
:100C20000D4A525C904201D1002010BD0B4800EBF0
:100C30004110084B5B5CC25C064B5B5C581CC317E5
:100C400000EBD3635B11A0EB4313024C63541046DB
:100C5000EBE7000007000020040000201000002047
:100C600000B5FFF72FFE1D48806940F400601B4966
:100C7000886147201A4908804FF47A70091D08805E
:100C800017482838008840F0800015492839088026
:100C90000846008820F0600008800846008820F0A0
:100CA000100008800E481C38008840F001000C49F4
:100CB0001C3908801920012181404209920002F16B
:100CC000E022C2F8001100BF05482838008840F033
:100CD000010003492839088000BD000000100240CF
:100CE000282C014070B504460D462946204600F0E8
:100CF00001F870BD2DE9F34F87B00D46284601F08D
:100D0000CBF8064601F084F804464FF0000804E0F2
:100D100008F101080A20B4FBF0F40A2CF8D22C46A2
:100D20004FF0000922E00026134FA8EB09000390C2
:100D3000039801F09AF802460B46CDE900013046CF
:100D4000394600F03FF9CDE9040101F061F882462F
:100D5000B4FBFAF000F0FF0B0BF13000C1B20798C2
:100D600000F00CF80BFB1A4409F10109C145DAD96E
:100D700009B0BDE8F08F00000000244030B5044603
:100D80000D460A4800EB44100949095D45540849DD
:100D9000095D481CC11700EBD1614911A0EB41115D
:100DA000034A11552046FFF7B5FA30BD7000002008
:100DB0000A0000202DE9F04105460E461446204663
:100DC00001F053F807463A460B462846314600F0F4
:100DD000F9F8BDE8F081490050EAC12018BF0420AD
:100DE0004A0D18BF40F0010040F2FF72B2EB515FB4
:100DF00008BF40F00200012808BF052070472DE918
:100E0000F0414F1E00EBC7010446D1E90001154631
:100E10001E4637F006020DD02A46334601F08CF804
:100E20007F1E04EBC703D3E9002300F0DDFD37F09C
:100E30000602F1D1022F25D0042F13D0062F18BFA0
:100E4000BDE8F0812A46334601F076F8D4E90A235A
:100E500000F0CAFD2A46334601F06EF8D4E90823B3
:100E600000F0C2FD2A46334601F066F8D4E90623B5
:100E700000F0BAFD2A46334601F05EF8D4E90423B7
:100E800000F0B2FD2A46334601F056F8D4E90223B9
:100E900000F0AAFD2A46334601F04EF8D4E90023BB
:100EA000BDE8F04100F0A0BD002213461046014904
:100EB00000F056BE0000F03F00F096BD0022134641
:100EC0001046114600F04CBE40F2013200204FF0B7
:100ED000E04101F05BBC0000024A0020110701F074
:100EE00055BC000001FDFFFF1CB5FFF7B9FE48200F
:100EF00000214FF07E530822CDE900104FF4E1317C
:100F00000020FFF76BFD482000214FF07E530822A0
:100F1000CDE900104FF4E1310220FFF75FFD002220
:100F20000D210220FFF75CFB6420FFF71FFB21A1CE
:100F30000020FFF731FA3CE000240220FFF73CFAE2
:100F4000002817DD10E000220D210220FFF720FB12
:100F50000220FFF761FE044621460020FFF7C2FE93
:100F600017A10020FFF718FA0220FFF725FA002842
:100F7000E9DC1DE00020FFF71FFA002813DD0CE07C
:100F800000220D210220FFF703FB0020FFF744FEA3
:100F9000044621460220FFF7A5FE0020FFF70CFAC9
:100FA0000028EDDC04E001220D210220FFF7F0FA19
:100FB00000BFC1E70D0A53746172740D0A0000008E
:100FC0000D0A00002DE9F04D1D460C4698B017465D
:100FD00021F0004123F00043002814BF4FF0010C22
:100FE0004FF0000C0CEB440CFE4A0CEB02064FEAEF
:100FF000620C66452BD33E0018BF012606EB450662
:101000001644F94A964222D3F84A53EA070C02D012
:10101000944205D148B918B000201146BDE8F08DC2
:10102000002808BF4FF0000C01D04FF0010C0CEB72
:10103000440212F5001F0AD8002F14BF4FF0010C14
:101040004FF0000C0CEB450212F5001F07D918B049
:101050003A462B462146BDE8F04DFFF72DBF002252
:10106000DFF88CA3002CB8BF534526DADFF884C321
:101070006345A8BF022220DADFF870C39C451CDC60
:10108000DFF874C30CEB235CBCF1140F08DDCCF16A
:10109000340627FA06FC0CFA06F6BE420DD108E02B
:1010A0005FB9CCF1140623FA06FC0CFA06F69E4250
:1010B00003D10CF00102C2F1020251EA000C19D175
:1010C000002D17DA002C18BF022A01D0012A07D000
:1010D0000220FFF781F818B0BDE8F04DFFF7E4BE3D
:1010E0000220FFF779F8FFF7DFFE18B081F000412A
:1010F000BDE8F08DB7F1000C6CD1534525D104F15A
:10110000804212F5801201BF00280020B74918B0B4
:1011100008BFBDE8F08DB548884207DC002DA1BFAF
:101120006046294618B0BDE8F08D07E0281E05DAB4
:1011300080F0004118B06046BDE8F08DAF497944B9
:10114000D1E9000118B0BDE8F08DDFF8A0C2634519
:1011500025D1002D1FDA19B1514512D1D8B909E0B6
:10116000002840F0EC82A24A214618B062F31E012A
:10117000BDE8F08D0020214618B060F31E01BDE8E7
:10118000F08D08DA18B02346BDE8F04D0246002085
:10119000614600F0E5BC18B02146BDE8F08D514530
:1011A00018DAB5F1804F0DD0A5F1005CBCF1FF5C01
:1011B00010D1B4F1000C0DDB18B06146BDE8F04D64
:1011C00000F0ECBB234618B00246BDE8F04D1946CE
:1011D00000F0B2BE060024F0004C3BD1D9B151451D
:1011E00033D1002C06DD002DA1BF0020514618B0E0
:1011F000BDE8F08D002C01DD002D1BDB002C13DA87
:10120000002D11DB012A4FF0000014BF78497C4902
:1012100018B0BDE8F08D022A18BF002C0AD0012AB0
:1012200008D1002C06DA0AE0002CB8BF002D11DA34
:10123000012A04D0002018B00146BDE8F08D18B096
:1012400000204FF00041BDE8F08DA1F14050B0F119
:101250007F601AD0012000EBE47050EA020421D034
:10126000624C521E4FF0000B104304BF4FF0000BB6
:10127000644C654883427CDD644A654893421FDDC7
:10128000884217DB002D25DB37E0002C00DA4AB15D
:10129000022A0CBF01204FF0FF3018B0BDE8F04D1E
:1012A00000F0E3BD0120FEF797FF18B0BDE8F04D58
:1012B000FFF704BE4D4A8A4202DC002D0ADC1CE026
:1012C000814202DA002D18DA04E0484B994220DD11
:1012D000002D12DD0220FEF77FFFFFF7F5FD05462A
:1012E0000E46002253465846214600F025FE18B00F
:1012F00066F31E012846BDE8F08D0220FEF76CFF64
:10130000FFF7EAFD0A46214618B062F31E01BDE868
:10131000F08D00223046614601F034F880460E46DA
:101320006FF0010201F032FA4FF05532394B00F004
:1013300037FF4246334600F0FFFD0022364B00F0F7
:101340002FFF82464246334604911046194600F06C
:10135000F3FD5246049B00F0EFFD8A4600904FF0EB
:10136000C0422E4B4046314600F0E6FD2C4A2B4B46
:1013700000E027E0CDE906015146009800F0DCFDD1
:1013800082460191274A284B4046314600F0D4FD61
:101390005246019B00F0F6FF82460B46024605913D
:1013A000DDE9060100F020FBDDE906230026884682
:1013B000304600F0E7FF5246059B00F0F1FE024682
:1013C00000F07EB90020B1F5801F07DA35223046E3
:1013D000614601F0DBF906466FF0340000EB215066
:1013E00024E00000FFFF1F00FFFF0F000000F03FA0
:1013F0000000F07F0000404301FCFFFF5E1700008B
:101400000000F0FF0000F0BF0000E0410000F043EA
:10141000FFFFEF3F5555D53F0000E03F4715F73F31
:10142000FE822B6544DF5DF80BAE543EA0F2FF3028
:101430000190C1F3130040F07F6141F040510291EF
:10144000FE498842D8BF002004DDFD498142C8BF63
:10145000012001DD0D9008E000200D900198401C56
:1014600001900298A0F5801002900299F548784406
:101470000B910D9900EBC100D0E900230F9330468A
:101480000A920B9900F07EFFCDE90601DDE90A2101
:1014900030460F9B00F0A8FA02460B460020EA49AE
:1014A00000F05EFB059102460B460090DDE9060167
:1014B00000F042FD1490E5488A464FF00008784459
:1014C0000299006812904FF0005040EA61010D98B7
:1014D0000F9B01EB804000F5002109910A9A1298B8
:1014E00000F050FF32460B9B00F05AFE4246534636
:1014F00000F022FD0646029140465146099B129A91
:1015000000F01AFDDDE9062300F04AFE3246029B98
:1015100000F038FF059B009A00F00EFD0091149A30
:10152000049053461046194600F006FD0646024652
:10153000C7480B46029106217844FFF760FCCDE9CD
:101540000510029B32461046194600F0F5FCDDE915
:10155000053200F0F1FC0591064653464046194617
:10156000149A00F041FA009B049A00F0E5FC324620
:10157000059B00F039FACDE9051042465346104666
:10158000194600F0D9FC0022B24B02910A9000F0FB
:101590002BFADDE9053200F027FA0E464246AD4B44
:1015A000404600F0EFFE029B0A9A00F0EBFEDDE9F8
:1015B000053200F0F5FD424602910A90334610468E
:1015C000514600F0B9FCCDE906015346149A029940
:1015D0000A9800F0B1FC8A460290334642460099D0
:1015E000049800F0A9FC5346029A00F0FDF98246E7
:1015F0000B4602460591DDE9060100F0F5F9DDE94B
:10160000062300208846064600F0BCFE5246059B95
:1016100000F0C6FD824609914FF060428E4B304685
:10162000414600F089FC049006918C4A8A4B504652
:10163000099900F081FC82460291894A894B304623
:10164000414600F079FC5246029B00F0CDF9864BF2
:101650007B440D9A03EBC203D3E9002300F0C4F9E5
:101660000E900791019800F000FC0591DDE906134A
:1016700082460E9A049800F0B7F97C4A7A440D9B92
:1016800002EBC303D3E900230093029200F0ACF90C
:101690005246059B00F0A8F900268846524630467F
:1016A000059B00F06FFE009B029A00F06BFE069B0C
:1016B000049A00F067FE079B0E9A00F071FD024647
:1016C00000200B4602903846294600F035FC824641
:1016D00001912B4638461946029A00F053FE3246D5
:1016E000434600F029FC5246019B00F07DF9074675
:1016F0008A46324643462946029800F01DFC0546BC
:101700000E463A46534600F06FF9594A88469142D0
:1017100021DBA8EB020353EA000210D12A4633462C
:1017200000F030FECDE90401524A534B3846514691
:1017300000F05AF9DDE9042300F0FCFC21D202207C
:10174000FEF74AFDFFF7C0FB0A46214618B062F3D8
:101750001E01BDE8F08D494B28F000429A4210D39B
:10176000474A08EB020353EA00027FF4C6AD2A465B
:10177000334600F007FE3A46534600F0DBFC7FF6A6
:10178000BCAD0022019228F000403E493E4A01EBE8
:101790002051824223DA481C4FF4801121FA00F0D4
:1017A00040443A4AC0F30A517A44394BA1F2FF311E
:1017B000CB4020EA0303C0F3130040F48010C1F1D2
:1017C0001401C84012680190B8F1000FBCBF40423C
:1017D00001902846314600F0D5FD05460E462A46C2
:1017E00033463846514600F0FFF84FF000084246B5
:1017F000284B4046059100F09FFBCDE90601264AA3
:10180000264B4046059900F097FB009102902A462E
:1018100033464046059900F0B5FD3A46534600F080
:10182000BFFC1F4A1F4B00F087FB009B029A00F091
:10183000DBF80746884602460B4635E08E980300E3
:101840007AB60B00A61300000000F03FDE13000084
:101850000C1300000000084009C7EE3FFD033ADC0E
:10186000F5015B14E02F3EBEE4110000A81100005A
:1018700000009040FE822B654715973C00CC9040BD
:1018800000346F3F01FCFFFF0000E03FF410000058
:10189000FFFF0F00432EE63F396CA80C615C20BEB1
:1018A000EF39FAFE422EE63FDDE9060100F09CF832
:1018B000DDE9062305460E4600F064FD3A46434640
:1018C00000F06EFC0F462A4633460090104619463B
:1018D00000F032FB824602462E4888460B46052120
:1018E0007844FFF78CFA5246434600F025FB2A461F
:1018F000334600F055FC80468A463B462846314632
:10190000009A00F019FB3B46009A00F06DF8069132
:10191000009000224FF080434046514600F032FDD7
:101920000F460C90424653462846314600F004FBD1
:101930003B460C9A00F014F9069B009A00F022FD39
:101940002A46334600F01EFD0022134B00F028FC0F
:10195000054601980E4601EB00510815002810DCE1
:1019600028463146019A00F011FFFFF734FA0428A7
:1019700008BFFFF7B1FA28463146019A00F006FF8A
:1019800005460B4618B02A4658462146BDE8F04D9C
:1019900000F0D2BA940F00000000F03F2DE9F041B2
:1019A00006460F4600F008FC041E0D4618BF012035
:1019B000284320F00040C0F17F6000F1E040C00FFC
:1019C0000ED0301C18BF0120384320F00040C0F179
:1019D0007F6000F1E040C00F04BF0120FEF7FCFB78
:1019E00020462946BDE8F08110B591EA030F48BFB3
:1019F00083F0004300F1CE84841A71EB030C05D20E
:101A0000121943EB0C03001B61EB0C01DFF824E11E
:101A10004FEA1154A4EB135C1EEA430F18BF9EEA71
:101A2000445F73D023EA0E03DCF1200E21EA045157
:101A300043F4801332D322FA0CFE10EB0E0023FA8B
:101A40000CFE41EB0E01CCF1200E03FA0EFE10EB62
:101A50000E0051F10001B1F5801FCCF1200E32D201
:101A600001EB045112FA0EF2BDE8104058BF704766
:101A7000401C38BF5FEA420218BF7047002814BFFD
:101A800020F0010041F100014FEA410313F5001F6E
:101A900038BF7047A1F1C04100F046BB012A43EBBB
:101AA0000302ACF1200CDCF11F0E32BF4FF0000E30
:101AB00023FA0CF310EB030041EB0451B4EB115F7C
:101AC000D0D0A1EB045101F5801149085FEA300044
:101AD00001EB04510ED350F1000038BF12FA0EFE94
:101AE00008D1BDE81040C9E7401C38BF5FEA420298
:101AF000CAD1C3E7BDE810404FEA410313F5001F08
:101B000038BF7047A1F1C04100F00EBB9EEA445FB0
:101B100008D011EA5E0FBDE8104004BF01F000419B
:101B200000207047BDE8104070B500F0AFFA00BF6C
:101B300064FBBE3E0000E0FF02494FF0000000F0F1
:101B4000F3BD00BF0000F87F491058BFC1F140410C
:101B50005B1058BFC3F140438B42EFF300807047E6
:101B60002DE9C04130B4DFF8A0C23CEA111418BF1F
:101B70003CEA131400F0EC8081EA03051CEA11141E
:101B800044EAD57418BF1CEA131500F0C780A4EB13
:101B900005044FF0004545EAC12145EAC32341EA67
:101BA000505143EA525304F17F74994204F50034D2
:101BB0004FEAC0204FEAC22208BF904200F09C804A
:101BC0004FEA13650FF24016765D4FEA134506FBA8
:101BD00005F7C7F1807706FB07F74FEAD737A7FB72
:101BE00003687642C8F58038A7FB06CE38BFA8F157
:101BF000010807FB08E64FF0000EA6FB028CE6FB8F
:101C000003CEDCF1000CCEF1004E38BFAEF1010E78
:101C1000A6FB0C584FF000074FF00005E6FB0E87BF
:101C2000A1FB08C6A0FB07CE16EB0E0645F100058A
:101C3000E1FB076515F1E04E7EBFA4F580345FEA55
:101C400046066D4116F1800745F100054FEA17275A
:101C50004FEA066647EA0567A6F1DE46B6F1805F01
:101C60004FEA15251FD9384624F0010C05EBC47145
:101C7000BCF1FE6F01EB0C1102D8F0BCBDE8008195
:101C800024425CBF01F5801E9EEAC47F02D4F0BCF2
:101C9000BDE80081244238D4F0BCA1F1C041BDE8C8
:101CA000004100F041BA4FEAD22242EA43524FEAE1
:101CB000D323A7FB02864FEAD02040EA415007FB1E
:101CC00003661EEA0E0F4FEAD12105FB026658BFDC
:101CD000A6EB0056B6EB00564FEA520E4EEAC37E14
:101CE00018EB0E0E56EB530EBDD518EB02085E41F5
:101CF0007F1C55F10005B6E74FF480154FF0000743
:101D00004FF000064FF00008ADE7F0BC4FF00000C8
:101D100001F1C04101F00041BDE8008111EA0C1F52
:101D20000CEA131500D00CE013EA0C1F00F025801C
:101D30004FF00000F0BC81EA030101F00041BDE872
:101D40000081F0BCBDE8004181EA030100F0ECB97C
:101D5000F0BCBDE8004170B500F098F9097EFC3E8A
:101D600000F007B881EA03014FF0000001F00041E4
:101D7000704781EA030100F0D7B9F0BCBDE800412B
:101D80004FF0000021497047FFFDFBF9F7F5F4F231
:101D9000F0EEEDEBE9E8E6E4E3E1E0DEDDDBDAD806
:101DA000D7D5D4D3D1D0CFCDCCCBCAC8C7C6C5C464
:101DB000C2C1C0BFBEBDBCBBBAB9B8B7B6B5B4B37B
:101DC000B2B1B0AFAEADACABAAA9A8A8A7A6A5A466
:101DD000A3A3A2A1A09F9F9E9D9C9C9B9A9999982A
:101DE0009797969595949393929191908F8F8E8ECD
:101DF0008D8C8C8B8B8A898988888787868585845A
:101E000084838382828181800000FF070000F87F45
:101E10004FEA1153A3F58063D3F11E03A8BFD3F19A
:101E2000200C08DB4FF0004242EAC12252EA505235
:101E300032FA03F0704709420BD4102BC4BF0020C4
:101E4000704703F5787CBCF1FF3F05D04FF0FF30C1
:101E500070474FF00000704770B500F017F900BFF1
:101E60004992248000207047F0E710F0004248BFFC
:101E70004042B0FA80F310FA03F10AD0C3F11D0317
:101E800003F580634FEA415002EB035202EBD1218C
:101E900070474FF000007047B0FA80F310FA03F17A
:101EA0000AD0C3F11D0303F580634FEA41504FEAA6
:101EB000035202EBD12170474FF000007047000041
:101EC00051EA030C17D41CF5801F58BFBCF5801FC6
:101ED00000F10680994218BF704708BF90427047D2
:101EE00007D711F5801F58BF13F5801F19D49942E9
:101EF0007047894270471CF5801F08D5BCF5801FCC
:101F0000F7D58B4218BF704708BF824270474FF425
:101F1000001C1CEB410F38BF1CEB430F01D28B425E
:101F2000704770B500F0B2F8922449004FF00051AC
:101F30004FF08053FFF708BEDFF848C170B51CEAC8
:101F4000111E1EBF1CEA13159EEA0C0F95EA0C0F1A
:101F500000F06F8081EA030423EA4C134EEAD47E3A
:101F600021EA4C1141F4801143F48013AE44A1FBEB
:101F7000024CA0FB0365AEF17F7E361955EB0C05D4
:101F8000A1FB034C4CF10003A0FB021C16EB0C065A
:101F9000654153F10003094218BF46F0010613F4EE
:101FA000007F0BD14FEA03314FEA0530340341EA99
:101FB000155140EA16506FF003020AE04FEAC321C0
:101FC0004FEAC520F40241EA555140EA56506FF0FD
:101FD000020202EB2E4201EB025585EACE710AD0D5
:101FE0005FEA440C18BF24F0004450F1000041F1B6
:101FF000000120EAD47040F2FE7C624500D270BD40
:10200000A84214BF4FF080444FF04044002E08BF58
:102010000024BEF1806FA8BFA1F1C041BDE87040AF
:1020200080F282804FF0000001F1C04101F00041D8
:1020300070479EEA0C0F0CEA131518BF95EA0C0FB7
:1020400006D04FF0000081EA030E0EF0004170BD93
:1020500000F01CF88900013E00F007B800F009B854
:102060004FEA430C5FEA5C5C08D081EA030100F0B0
:102070005BB84FEA410C5FEA5C5CF6D14FF00000C0
:10208000014970470000FF070000F87F0EF1020EC3
:102090002EF0030E5EF8046B364205D4012A43EBA2
:1020A000030515F5001F12D8012841EB010C1CF5A2
:1020B000001F0CD80ED14FEAD17C15F5001F0CEB98
:1020C0004C0C0CF1020C08BF4CEBD37C04E04FF03D
:1020D000080C01E04FEAD37C0CEB4C0526FA05F620
:1020E00006F00706B6F1040C06D20EEB860CBDE82E
:1020F00070404CF0010C6047DFE80CF0090B020265
:102100004FF000414FF00000A1F5002170BD1946CD
:102110001046012851EB010418BFD4F5001484BF08
:10212000002001F0004170BD0808A0F500114FEA41
:102130003101704753EA010C17D41CF5801F58BFBA
:10214000BCF5801F00F106808B4218BF704708BFA6
:102150008242704707D713F5801F58BF11F5801FC3
:1021600019D48B4270479B4270471CF5801F08D5DD
:10217000BCF5801FF7D5994218BF704708BF904241
:1021800070474FF4001C1CEB430F38BF1CEB410F92
:1021900001D2994270470FB40CBC03BCFFF7C1BE1B
:1021A00091EA030F10B581F000413FF525AC83F0B3
:1021B000004300F0EFB800002DE9F04101F5801C6C
:1021C000BCF5001FC0F2C3804FEA115C21EA0C513C
:1021D0000CF1FD0C41F480115FEA5C0C0CF5C07C45
:1021E00001D3400049413DA4890241EA9051870250
:1021F0008E0E0A0CA45D04FB04F602FB06F6C6F183
:102200004046A4FB0662F60D46EA422606FB06F4AB
:10221000A4FB01235242C3F1404338BF5B1EA6FB1F
:1022200002420024E6FB0324D20B42EA4446A6FB0A
:102230000623A1FB02E2A3FB07E4A4184FF000026F
:1022400052F10002E3FB01426442C2F1404E38BF4A
:10225000AEF1010EA6FB04234FF00002E6FB0E32A6
:10226000A2FB03464FF00004B61954F10004E2FB50
:102270000264A1FB06E6A4FB07E816EB08064FF094
:10228000000858F10008E4FB01687642C8F14058A4
:1022900038BFA8F10108A2FB06E4A3FB08E52D194D
:1022A0004FF0000454F10004E2FB0854A1FB05E6E2
:1022B000A7FB04E818EB06084FF0000656F10006ED
:1022C000E1FB048618F1200556F10006A809A8F1E3
:1022D0001B08B10908F03F08B8F10A0F40EA866010
:1022E0001CD901EB0C51BDE8F08100BFFCF5EEE814
:1022F000E2DDD8D3CFCBC7C3C0BDB9B6B4B1AEACA5
:10230000A9A7A5A3A19F9D9B9A9896959392908F1C
:102310008D8C8B898887868584838281A0FB006869
:1023200000FB01F208EB4208B8EB872807D5341808
:1023300058EB0104D5D5401C51F10001D1E7341A06
:1023400078EB0104CDD4401E71F10001C9E75FEACA
:102350004C0C5FEA9C5C0DD105D34FF0000001F0FE
:102360000041BDE8F081BDE8F04170B5FFF78EFE99
:102370006DDBFFBEBDE8F0414FF000000049704743
:102380000000F87F10B591EA030F48BF83F00043C7
:102390003FF532AB841A71EB030C07D212198CF0A3
:1023A000004C43EB0C03001B61EB0C01DFF8A4E1D4
:1023B0004FEA1154A4EB135C1EEA430F18BF9EEAC8
:1023C000445F00F0B08023EA6E03524221EA0451D8
:1023D000C3EB6E0338BF5B1EDCF1200E25D322FA5F
:1023E0000CFE10EB0E0043FA0CFE41EB0E01CCF19B
:1023F000200E03FA0EFE10EB0E0051F10001CCF19D
:10240000200E29D412FA0EF201EB0451BDE810405F
:1024100058BF7047401C1CBFB2F1004F70470028E6
:102420000CBF491C20F00100704712EB020E43EB79
:10243000030218BF4FF0010E4EEA4202ACF1200C2D
:10244000DCF11E0E54D943FA0CFE10EB0E0051F1D4
:10245000FF31CCF11E0ED5D50EF1010E12FA0EFE93
:10246000404141EB010101EB445C5FEA5C5C10D947
:1024700010EBDE7001EB045138BFBEF1004FBDE838
:10248000104018BF704700280CBF491C20F0010005
:10249000704730D24FEAD42C11F5001124F40064B7
:1024A0001BD0B1FA81F20B3AA41AA41ED2F1200378
:1024B000914030FA03F31943904001EBCC71002CAA
:1024C00001EB0451BDE81040A8BF704701F1C041C5
:1024D0004FF0000001F000417047B0FA80F310FAAD
:1024E00003F100D110BDE41A173C4805C90AE4E71E
:1024F00001EB045110BD491001EB0451BDE810403F
:102500004FEA300002E04FF0000170474A0008BF78
:102510000042F8D0B2F5001F28BF704701F000411B
:102520004FF0000070479EEA445F07D011EA5E0F4B
:10253000BDE8104004BF002100207047BDE81040F6
:1025400070B5FFF7A3FD00BF40DFF63E83F000410A
:10255000104670470000E0FF41000B0ED3F19E02D1
:1025600008D950F400034FEA032323FA02F048BFCE
:102570004042704710B500F08CF800BF49922480AB
:10258000002070476FF0004282EA20007047000090
:102590004FF47F0C1CEAD0121EBF1CEAD11392EA42
:1025A0000C0F93EA0C0F00F0478090EA010F48BF30
:1025B00042F480724FF0004C4CEA00204CEA0121BA
:1025C00002EB0302A0FB0113A2F50002002918BFD1
:1025D00043F001035B0028BF4FEA330342EB224282
:1025E0005FEA132C4CEBC2502EBFBCEB436FB2F52D
:1025F0007C0F70474FEA036CBCF1004F08BF20F01E
:102600000100B2F57C0F38BF70470BD582F0FF0296
:1026100012F5803FC8BF704700F1C040D8BF00F03E
:102620000040704700F5000C5FEA4C0C48BF704753
:10263000B0F1C04000F073B890EA010F0CEAD1137A
:1026400048BF42F48072624538BF634504D280EAD5
:10265000010000F00040704710B500F01AF800BF0C
:102660008900013E00F007B800F009B85FEA410CAC
:102670005FEA1C6C08D080EA010000F050B85FEA05
:10268000400C5FEA1C6CF6D14FF00040A0F58000D2
:1026900070470EF1020E2EF0030E5EF8044B24423A
:1026A00004D44FEA4102B2F17F4F11D84FEA400300
:1026B000B3F17F4F0CD80ED14FEAD07CB2F17F4FEF
:1026C0000CEB4C0C0CF1020C08BF4CEBD17C04E081
:1026D0004FF0080C01E04FEAD17C0CEB4C0324FADC
:1026E00003F404F00704B4F1040C06D20EEB840CDE
:1026F000BDE810404CF0010C6047DFE80CF0070823
:1027000002024FF00040A0F5800010BD08464200D4
:1027100018BFD2F1807288BF00F0004010BDFF21C9
:1027200041EAD050C00570470CF00F03092B08BFD9
:10273000082000F059800A2B0BD0082B18BF7047D7
:1027400008BF1CF0400F0AD04FF000004FF000010E
:1027500070471CF0400F18BF4FF0004070471CF04E
:10276000100F08D020F0704300F07F4242EAD301FE
:102770004FEA4370704700F0604021F07F4242EA28
:10278000000201F07F4040EA727070474FF0FF0C8A
:102790004CF4E06C1CEA11531CBF9CEA030C9445FA
:1027A000C2BFDA4201EB02517047002B0DD0BCF1E1
:1027B000000F0FD0002A01F00041A4BF41F0E0411A
:1027C00041F07F614FF00000704701F000414FF091
:1027D0000000704750EA01334FF09B0C18BF4CF0DB
:1027E000806C7FF4A9A970471CF4801F11D01CF4E1
:1027F000E02F03D06FEACC31490070474FF04050D2
:10280000EFF3008222F0704242EA000282F3008875
:1028100070474FF000007047000000000000F03FDC
:10282000000000000000F83F000000000000000071
:102830000000004003B8E23F00000000000000007C
:1028400006D0CF43EBFD4C3E033333333333E33F0A
:10285000FFAB6FDBB66DDB3F4D268F515555D53F36
:1028600001411DA96074D13F65DBC9934A86CD3F04
:10287000EF4E454A287ECA3F3E5555555555C53FF2
:1028800093BDBE166CC166BF2CDE25AF6A56113FE4
:10289000F16BD2C541BDBBBED0A4BE726937663EE6
:1028A0000000000000000000C82800080000002010
:1028B0001000000028010008D8280008100000209F
:1028C0002007000044010008000000000000000094
:0828D000000000000000000000
:040000050800018965
:00000001FF
