:020000040800F2
:10000000600600200D020008150200081702000813
:10001000190200081B0200081D0200080000000071
:100020000000000000000000000000001F020008A7
:100030002102000800000000230200082502000839
:1000400027020008270200082702000827020008EC
:1000500027020008270200082702000827020008DC
:1000600027020008270200082702000827020008CC
:1000700027020008270200082702000827020008BC
:1000800027020008270200082702000827020008AC
:10009000270200082702000827020008270200089C
:1000A000270200082702000827020008270200088C
:1000B000270200082702000827020008270200087C
:1000C000270200082702000827020008270200086C
:1000D000270200082702000827020008270200085C
:1000E000270200082702000827020008270200084C
:1000F000270200082702000827020008270200083C
:10010000270200082702000827020008270200082B
:10011000270200082702000827020008270200081B
:10012000270200082702000827020008270200080B
:1001300027020008270200082702000827020008FB
:1001400027020008270200082702000827020008EB
:1001500027020008270200082702000827020008DB
:1001600027020008270200082702000827020008CB
:1001700027020008270200082702000827020008BB
:10018000270200082702000800F002F800F02EF80D
:100190000AA090E8000C82448344AAF10107DA45E2
:1001A00001D100F023F8AFF2090EBAE80F0013F006
:1001B000010F18BFFB1A43F001031847DC020000CF
:1001C000EC0200000023002400250026103A28BF7E
:1001D00078C1FBD8520728BF30C148BF0B607047B9
:1001E0001FB500F053F91FBD10B510BD00F031F878
:1001F0001146FFF7F5FF00F017F900F04FF803B4D0
:10020000FFF7F2FF03BC00F057F8000009488047F1
:1002100009480047FEE7FEE7FEE7FEE7FEE7FEE7E8
:10022000FEE7FEE7FEE7FEE704480549054A064B00
:1002300070470000C9020008890100086000002022
:1002400060060020600200206002002070477047B6
:100250007047754600F02CF8AE46050069465346D7
:1002600020F00700854618B020B5FFF7DDFFBDE898
:1002700020404FF000064FF000074FF000084FF00D
:10028000000B21F00701AC46ACE8C009ACE8C0099E
:10029000ACE8C009ACE8C0098D46704710B504460B
:1002A000AFF300802046BDE81040FFF7A8BF000074
:1002B000004870470000002001491820ABBEFEE74F
:1002C000260002007047000010B51548006840F491
:1002D0007000134908601348006840F0010011499C
:1002E000086000200F49083108600E4800680E4978
:1002F00008400C4908600D48091D0860081F006887
:1003000020F48020091F0860002006490C31086095
:1003100000F00EF84FF0006001498039086010BD10
:1003200088ED00E000380240FFFFF6FE10300024A8
:100330000CB50020019000903448006840F48030F3
:100340003249086000BF3148006800F40030009076
:100350000198401C0190009818B90198B0F5A04F81
:10036000F1D12A48006800F4003010B1012000905B
:1003700001E0002000900098012846D12348403039
:10038000006840F0805021494031086020480068F2
:1003900040F440401E4908601C48083000681B4972
:1003A000083108600846006840F4004008600846CC
:1003B000006840F4A05008601648091F0860081F34
:1003C000006840F08070091F086000BF0F48006897
:1003D00000F000700028F9D040F205700E49086066
:1003E0000A480830006820F0030008490831086016
:1003F0000846006840F00200086000BF034808306B
:10040000006800F00C000828F8D10CBD003802404C
:100410000070004019544007003C0240002100E0F9
:10042000491C8142FCD370471548006840F0010028
:10043000134908601348006820F40050114908600F
:100440000846006840F4805008600846406820F084
:10045000400048600846806840F480508860084644
:10046000806820F40050886008E00648406980F009
:100470004000044948610448FFF7D0FFF5E7000059
:100480003038024000000240C0C62D004FF04070DE
:10049000E1EE100A70470000A804000800000020E8
:0804A00060060000C401000821
:040000050800020DE0
:00000001FF
