:020000040800F2
:10000000000800202902000831020008330200081D
:10001000350200083702000839020008000000001D
:100020000000000000000000000000003B0200088B
:100030003D020008000000003F02000841020008E5
:10004000430200084302000843020008430200087C
:10005000430200084302000843020008430200086C
:10006000430200084302000843020008430200085C
:10007000430200084302000843020008430200084C
:10008000430200084302000843020008430200083C
:10009000430200084302000843020008430200082C
:1000A000430200084302000843020008430200081C
:1000B000430200084302000843020008430200080C
:1000C00043020008430200084302000843020008FC
:1000D00043020008A9030008B3030008BD03000899
:1000E00043020008430200084302000843020008DC
:1000F00043020008430200084302000843020008CC
:1001000043020008430200084302000843020008BB
:10011000950300089F0300084302000869030008D4
:10012000430200084302000843020008430200089B
:10013000430200084302000843020008430200088B
:10014000430200084302000843020008430200087B
:10015000430200084302000843020008C7030008E6
:10016000430200084302000843020008430200085B
:10017000430200084302000843020008430200084B
:10018000430200084302000800F002F800F03CF8C7
:100190000AA090E8000C82448344AAF10107DA45E2
:1001A00001D100F031F8AFF2090EBAE80F0013F0F8
:1001B000010F18BFFB1A43F001031847BC280000C9
:1001C000DC280000103A24BF78C878C1FAD852075A
:1001D00024BF30C830C144BF04680C6070470000C1
:1001E0000023002400250026103A28BF78C1FBD840
:1001F000520728BF30C148BF0B6070471FB502F0DF
:1002000073FB1FBD10B510BD00F044F81146FFF799
:10021000F5FF01F01DFD00F062F803B4FFF7F2FFF7
:1002200003BC00F065F80000094880470948004712
:10023000FEE7FEE7FEE7FEE7FEE7FEE7FEE7FEE796
:10024000FEE7FEE704480549054A064B70470000F3
:1002500001030008890100080002002000080020B6
:10026000000400200004002070477047704710B55C
:1002700000F008F8006810BD10B5044600F002F860
:10028000046010BD004870479C0100200048704782
:100290009C0100207546FFF7F9FFAE460500694650
:1002A000534620F00700854618B020B5FFF7CAFF77
:1002B000BDE820404FF000064FF000074FF0000867
:1002C0004FF0000B21F00701AC46ACE8C009ACE8E8
:1002D000C009ACE8C009ACE8C0098D46704710B54C
:1002E0000446AFF300802046BDE81040FFF795BFFD
:1002F00001491820ABBEFEE726000200704700004F
:1003000010B51548006840F47000134908601348A0
:10031000006840F001001149086000200F490831D1
:1003200008600E4800680E4908400C4908600D48F6
:10033000091D0860081F006820F48020091F08605C
:10034000002006490C31086000F042F84FF00060D0
:1003500001498039086010BD88ED00E00038024096
:10036000FFFFF6FE103000240848008800F001006E
:1003700050B10648008820F0010004490880044874
:100380000068401C024908607047000010140040DB
:100390000000002000B5032000F008F900BD00B502
:1003A000042000F003F900BD00B5002000F0FEF8C5
:1003B00000BD00B5012000F0F9F800BD00B5022035
:1003C00000F0F4F800BD00B5052000F0EFF800BD26
:1003D0000CB50020019000903448006840F4803053
:1003E0003249086000BF3148006800F400300090D6
:1003F0000198401C0190009818B90198B0F5A04FE1
:10040000F1D12A48006800F4003010B101200090BA
:1004100001E0002000900098012846D12348403098
:10042000006840F080502149403108602048006851
:1004300040F440401E4908601C48083000681B49D1
:10044000083108600846006840F40040086008462B
:10045000006840F4A05008601648091F0860081F93
:10046000006840F08070091F086000BF0F480068F6
:1004700000F000700028F9D040F205700E490860C5
:100480000A480830006820F0030008490831086075
:100490000846006840F00200086000BF03480830CA
:1004A000006800F00C000828F8D10CBD00380240AC
:1004B0000070004019544007003C024010B501464E
:1004C000062904D2DFE801F0030507090B0D2048D7
:1004D00009E0204807E0204805E0204803E02048E4
:1004E00001E0204800BF00BF1F4A525C1F4B5B5C0D
:1004F0009A4204D1828922F08002828110BD00BF1D
:10050000028802F08002002AFAD0194A02EB411256
:10051000164B5B5CD25C8280144B5B5C5A1CD3171D
:1005200002EBD3635B11A2EB4313104C63540E4AEE
:10053000525C23465B5C9A4204D1828922F080029D
:10054000828103E0828942F08002828100BFD5E788
:10055000001001400044004000480040004C0040B2
:100560000050004000140140100000201600002040
:10057000DC00002070B506460C46002506E0284643
:100580006A1CD5B2215C304600F028FC605D002872
:10059000F5D170BD00F01F02012191404209920087
:1005A00002F1E022C2F800117047000030B50546A4
:1005B000062D04D2DFE805F0030507090B0D204CDA
:1005C00009E0204C07E0204C05E0204C03E0204CE3
:1005D00001E0204C00BF00BF208800F0200030B3B5
:1005E000208800F00100A8B9208800F0020088B936
:1005F000A088194901EB4511184A525D88541749E2
:10060000495D481CC11700EBD1614911A0EB4111B4
:10061000124A5155208820F002002080208820F0C6
:1006200001002080208820F02000208006E0208823
:1006300000F0800010B12846FFF740FF30BD0000F9
:10064000001001400044004000480040004C0040C1
:1006500000500040001401401C0000200400002055
:1006600000B5014600F008F8024600BF00F004F8AB
:10067000801A8842FAD300BD014800687047000024
:10068000000000202DE9F0472DED048B04460E46B6
:1006900017469846DDF830907348844206D1734877
:1006A000006840F001007149086026E0704884420B
:1006B00006D16E48006840F002006C4908601CE0FA
:1006C0006C48844206D16948006840F004006749DC
:1006D000086012E06848844206D16448006840F02F
:1006E00008006249086008E06448844205D15F4818
:1006F000006840F010005D490860304601F0AEFD32
:1007000041EC190BB0EE491AF0EE691A9FED5C0B43
:1007100000F09AFBB0EE408AF0EE608A51EC180BC4
:1007200001F058FD0546062F49D2DFE807F0031017
:100730001D2A3742206828432060206820EA4500AF
:10074000206061680120B0408143616038E020682A
:1007500028432060206820EA45002060606801216D
:10076000B140084360602BE02068A8432060206807
:1007700040EA4500206060680121B1408843606024
:100780001EE02068A8432060206840EA4500206001
:1007900060680121B1408843606011E0206805EB8A
:1007A000450108432060E06805EB45018843E060AF
:1007B00006E0206805EB45018843206000E000BFAB
:1007C00000BF032F01D0022F24D1072E01DDA6F197
:1007D0000805284601F042FD41EC190BB0EE491A1C
:1007E000F0EE691A9FED280B00F02EFBB0EE408A68
:1007F000F0EE608A51EC180B01F0ECFC054609FBA9
:1008000005F13046F21706EB5272D31004F12002C4
:1008100042F82310B8F1000F17D0042F15D0B8F10B
:10082000010F07D1E0682843E060E06820EA450056
:10083000E0600FE0B8F1020F0CD1E068A843E0607F
:10084000E06840EA4500E06004E0E06805EB45014F
:100850008843E060A06805EB45010843A060BDEC5B
:10086000048BBDE8F08700000000024030380240F1
:100870000004024000080240000C02400010024048
:1008800000000000000010400000000000003040A8
:100890005148006820F003004F490860084600688E
:1008A000086000BF4C48006800F00C000028F9D137
:1008B00049480838006820F08070474908390860C6
:1008C00000BF45480838006800F000700028F8D1E3
:1008D00041480838006840F480303F4908390860D2
:1008E00000BF3D480838006800F400300028F8D008
:1008F0003948006820F0F000374908600846006871
:1009000020F4E05008600846006820F46040086069
:100910000846006808600846006840F4A050086077
:100920000846006840F400400860081F006820F096
:100930007060091F08600846006820F440300860B5
:100940000846006847F6C07188432349091F0860BC
:100950000846006820F03F0008600846006820F460
:10096000800008600846006840F48000086008467F
:10097000006840F0806008600846006840F00400AD
:1009800008600846006840F428500860084600687F
:1009900020F440300860081F006840F08070091F94
:1009A000086000BF0C480838006800F0007000289C
:1009B000F8D00948006820F003000749086008469D
:1009C000006840F00200086000BF0348006800F0C3
:1009D0000C000228F9D0704708380240024610691E
:1009E00001238B40184008B1012070470020FCE72C
:1009F0002DE9FF4F2DED020B2DED028B81B0054649
:100A00008946B0EE408A9846DDF848B00020C049DB
:100A10004855C0494855C0494855C049485500BF88
:100A200009E00021BE4A02EB45121154BD4A02EB17
:100A300045121154401C2028F3DB062D04D2DFE8B8
:100A400005F0031E3B587592B74CB848006840F05B
:100A50001000B649086007200023022209210090F7
:100A6000B348FFF70FFE0720002305220A2100905C
:100A7000AF48FFF707FE2520FFF78CFD8EE0AD4C59
:100A8000AA48001F006840F40030A849091F086008
:100A900007200023022211460090A548FFF7F2FD2F
:100AA00000200346052203210090A148FFF7EAFD3C
:100AB0002620FFF76FFD71E09F4C9C48001F0068E7
:100AC00040F480209949091F086007200023022272
:100AD0000A2100909948FFF7D5FD00200346052222
:100AE0000B2100909548FFF7CDFD2720FFF752FD21
:100AF00054E0934C8D48001F006840F400208B495F
:100B0000091F086008200023022219460090884827
:100B1000FFF7B8FD0020034605220121009084481C
:100B2000FFF7B0FD3420FFF735FD37E0854C7F48F7
:100B3000001F006840F480107C49091F08600820ED
:100B4000002302220C2100907F48FFF79BFD00202C
:100B500003460522022100907C48FFF793FD3520D3
:100B6000FFF718FD1AE07A4C7048006840F020004A
:100B70006E49086008200023022206210090724876
:100B8000FFF780FD002003460522072100906E48F4
:100B9000FFF778FD4720FFF7FDFC00BF00BFA089ED
:100BA00040F40050A0810798092804D1A08940F49E
:100BB0008050A08103E0A08920F48050A081B2EE93
:100BC000040A28EE000ABDEEC00A10EE10AABAF11F
:100BD000050F0ED0BAF10A0F06D0BAF10F0F1AD0D6
:100BE000BAF1140F1CD10DE0208A20F4405020826D
:100BF00016E0208A20F400502082208A40F48050A1
:100C000020820DE0208A40F400502082208A20F4C7
:100C10008050208204E0208A40F44050208200BFAF
:100C200000BFB8F1000F13D0A08940F48060A0810C
:100C3000B8F1010F04D1A08920F40070A0810BE06D
:100C4000B8F1020F08D1A08940F40070A08103E040
:100C5000A08920F48060A081A08940F40040A08198
:100C6000BBF12A0F1AD1B9F5165F09D0B9F5164FA5
:100C70000AD0B9F5614F0AD0B9F5E13F0DD109E0CD
:100C800040F22226072708E08826062705E05B2693
:100C9000012702E02D26052700BF1EE0BBF1540FFF
:100CA0001BD1B9F5165F09D0B9F5164F0AD0B9F5C1
:100CB000614F0BD0B9F5E13F0ED10AE040F2454655
:100CC000062709E040F21116042705E0B6260227A0
:100CD00002E05B26012700BF00BF0020208107EB58
:100CE00006102081A08940F00800A081A08940F072
:100CF0000400A081A08940F02000A081A08940F0DC
:100D00008000A08101B0BDEC028B06B0BDE8F08F81
:100D100016000020100000200A000020040000201F
:100D20001C000020DC00002000100140443802407C
:100D3000000002400044004000480040000402401F
:100D4000004C00400050004000080240000C0240EF
:100D50000014014000B5FFF79BFD1E48006840F0FD
:100D600020001C49086053201B4908804FF47A700A
:100D7000091D086018482838008840F0800016498E
:100D8000283908800846008820F06000088008465E
:100D9000008820F0100008800F481C38008840F0C0
:100DA00001000D491C390880372000F01F02012185
:100DB00091404209920002F1E022C2F8001100BF06
:100DC00005482838008840F0010003492839088088
:100DD00000BD0000403802402814004030B50446F1
:100DE0000D460A4800EB44100949095D455408497D
:100DF000095D481CC11700EBD1614911A0EB4111FD
:100E0000034A11552046FFF759FB30BDDC00002096
:100E10001000002003B401984100009850EAC1205E
:100E200018BF04204A0D18BF40F0010040F2FF72C5
:100E3000B2EB515F08BF40F00200012808BF052057
:100E400002B07047000000002DE9F04D2DED040BBD
:100E50002DED0E8B96B0DDE92550279CDDF890A096
:100E600025F0004624F00048BAF1000F14BF01211C
:100E7000002101EB4502FC4953184A1093422AD342
:100E8000002814BF0123002303EB44030B44F7495C
:100E90008B4220D358EA00019FEDF59B76D0DFF816
:100EA000D8B35D4503D1BAF1000F05D188E0BAF19E
:100EB000000F08BF002100D0012101EB450111F511
:100EC000001F08D8002814BF0121002101EB4401B4
:100ED00011F5001F0BD99DED261B9DED240B16B0BF
:100EE000BDEC0E8B04B0BDE8F04D00F069BE0027EC
:100EF000002DBCBFE149884521DAE1498845A8BFFA
:100F000002271CDAC3451ADCDE4901EB28511429FB
:100F100008DDC1F1340220FA02F101FA02F2824244
:100F20000DD108E058B9C1F1140228FA02F101FA12
:100F300002F2424503D101F00101C1F1020756EA74
:100F40000A0124D1002C22DA002D18BF022F01D073
:100F5000012F0AD00220FFF78FF916B0BDEC0E8BDF
:100F600004B0BDE8F04D00F013BE0220FFF784F995
:100F700000F00EFE51EC100B00F00BFF41EC100BDB
:100F800016B0BDEC0E8B04B0BDE8F08D18E09FEDFF
:100F9000BEAB9FEDBF8B002871D1B848804522D1F0
:100FA00005F1804010F5801008BFBAF1000F07D09E
:100FB000B3450ADC002CA8BF9DED260BE0DA0DE05E
:100FC000B0EE490AF0EE690ADAE7002C06DA9DED88
:100FD000260B51EC100B00F0DCFE6FE0AE487844BD
:100FE00090ED000BCCE7D8454DD1002C48DA2EB15E
:100FF00086423AD1BAF1000F42D126E0BAF1000F91
:1010000013D00220FFF738F900F0F6FD8DED020B4A
:101010009DED240B8DED000B10EE900A039961F30A
:101020001E0003909DED020BAAE78DED02AB9DED36
:10103000240B1AEE901A10EE900A8DED000B61F35E
:101040001E0003909DED020B9AE78DED028B9DED46
:10105000240B18EE901A10EE900A8DED000B61F340
:101060001E0003909DED020B8AE709DA9DED240B2B
:1010700051EC190B53EC102B00F054FF1EE020E054
:101080009DED240B7CE786421BDAB4F1804F0DD036
:10109000A4F10050B0F1FF5013D1002D11DB9DEDF4
:1010A000240B51EC100B00F03DFE07E09DED240BEE
:1010B00053EC102B51EC100B00F0C2BC41EC100BA8
:1010C0005EE79DED240B51EC100B00F0B5FDBAF17D
:1010D000000FCDE90E0142D19FED710B46B3A6F191
:1010E000E040B0F17F600CD05E4538D1002D00DAD1
:1010F000A7B3022F0CBF01204FF0FF3001F097F88B
:10110000DCE7002D01DD002C0DDA002D01DD002CC7
:101110001FDB002D16DA002C14DB012F08BF9FED1A
:10112000620B3FF42DAFB0EE4A0AF0EE6A0A27E7F1
:10113000022F18BF002D0CD0012F0AD1002DFFF671
:101140001FAF06E0002DB8BF002C08DA012F3FF4D6
:1011500017AFB0EE480AF0EE680A11E71BE0012075
:1011600000EBE57050EA070115D0791EB0EE498A10
:10117000F0EE698A084308BF9FED4D8B4E4800256D
:10118000804570DD4D494E48884514DDB0420DDB89
:10119000002C19DB2FE00120FFF76EF816B0BDEC34
:1011A0000E8B04B0BDE8F04D00F016BDB34502DC77
:1011B000002C09DC1FE0864202DA002C1BDA03E077
:1011C0005E452BDD002C16DD0220FFF755F800F000
:1011D00013FD8DED020B53EC1A2B51EC180B01F0A3
:1011E0008DF8CDE900010399019861F31E00039089
:1011F0009DED020BC4E60220FFF73EF800F00CFD67
:1012000010EE901A18EE900A8DED020B8DED008B0A
:1012100061F31E0003909DED020BB1E69DED0E0BF8
:1012200053EC192B51EC100B01F074FA9FED260BC7
:10123000CDE9080153EC102B9DED080B51EC100B80
:1012400001F05CF89FED221B53EC112B01F08AF9A1
:101250009DED081B53EC112B01F050F89FED1E1B68
:1012600053EC112B3CE08CE0FFFF1F00FFFF0F0051
:10127000000000000000F03F0000F03F0000F07FA1
:101280000000404301FCFFFF000000000000F07F71
:1012900000000000000000008E1A000000000000A6
:1012A0000000000000000080000000000000F0FFCF
:1012B000000000000000F0BF0000E0410000F0432B
:1012C000FFFFEF3F00000000000000000000D03FE3
:1012D000555555555555D53F000000000000E03FDD
:1012E00001F040F99DED080B41EC1A0B53EC102B6B
:1012F00051EC100B01F002F853EC1A2B00F0FEFF3A
:1013000041EC1A0B9FEDFE0B53EC102B9DED080BDF
:1013100051EC100B00F0F2FF41EC1B0B9FEDFA0BB0
:1013200051EC1A0B53EC102B00F0E8FF41EC1A0BB8
:101330009FEDF70B53EC102B9DED080B51EC100BB0
:1013400000F0DCFF53EC1A2B01F0E4F941EC1A0B2E
:1013500051EC1B0B53EC1A2B00F028FD0690CDE945
:1013600006519DED060B53EC1B2B51EC100B01F0BD
:10137000D1F953EC1A2B01F0F5F841EC100B00F009
:10138000A1B90020B6F5801F0EDA9FEDE30B53ECF8
:10139000102B9DED0E0B51EC100B00F0AFFFCDE9C3
:1013A0000E016FF034000E4600EB2650A0F2FF371E
:1013B000C6F31300DA4940F07F6646F04056884293
:1013C000D8BF002408DDD7498142C8BF012403DC0F
:1013D0000024A6F580167F1CD348784400EBC40097
:1013E0000F9690ED00CB9DED0E0B53EC1C2B51ECAA
:1013F000100B01F08FF99DED0E0B41EC1B0B53EC24
:101400001C2B51EC100B00F0D1FC41EC100B51ECFB
:10141000190B53EC102B00F085FD41EC1D0B51EC2A
:101420001B0B53EC1D2B00F069FF41EC1A0BBF485E
:101430008DED10AB7844109590ED000B4FF00050FF
:1014400040EA660000EB84408DED080B00F50020BB
:1014500009909DED080B53EC1C2B51EC100B01F087
:1014600059F99DED0E1B53EC112B01F07BF841EC6B
:10147000100B53EC102B9DED100B51EC100B00F0EA
:101480003DFF9DED080B41EC1C0B53EC102B9DED2B
:10149000100B51EC100B00F031FF53EC1B2B01F043
:1014A00061F853EC1C2B01F035F953EC1D2B00F0C7
:1014B00025FF41EC1C0B53EC1A2B51EC1A0B00F0DE
:1014C0001DFF41EC1B0B9A480621B0EE4B0AF0EED3
:1014D0006B0A784400F0E0FAB0EE401AF0EE601AC1
:1014E000B0EE41DAF0EE61DA53EC1B2B51EC1B0B42
:1014F00000F004FF53EC1D2B00F000FF9DED100BDE
:1015000041EC1B0B53EC1A2B51EC100B00F04EFC72
:1015100053EC1C2B00F0F2FE53EC1B2B00F046FCAE
:101520009DED100B41EC1B0B53EC102B51EC100BF1
:1015300000F0E4FE41EC1D0B9FED7FEB53EC1E2B06
:1015400000F034FC53EC1B2B00F030FC0890CDE98C
:1015500008519DED080B53EC1E2B51EC100B01F0C4
:10156000D9F853EC1D2B01F0D5F853EC1B2B00F0F0
:10157000F9FF9DED080B41EC1D0B53EC102B9DED7D
:10158000100B51EC100B00F0B9FE41EC1B0B53ECAF
:101590001A2B51EC1D0B00F0B1FE9DED080B41EC38
:1015A0001A0B53EC102B51EC1C0B00F0A7FE53EC64
:1015B0001A2B00F0FBFB41EC1A0B51EC1B0B53EC0C
:1015C0001A2B00F0F3FB0C90CDE90C519DED0C0BA8
:1015D00053EC1B2B51EC100B01F09CF853EC1A2B25
:1015E00000F0C0FF41EC1B0B9FED550B53EC102B93
:1015F0009DED0C0B51EC100B00F080FE41EC1A0B32
:101600009FED510B51EC1B0B53EC102B00F076FEB1
:1016100041EC1B0B9FED4E0B53EC102B9DED0C0B77
:1016200051EC100B00F06AFE53EC1B2B00F0BEFBDC
:1016300041EC100B4848784400EBC40090ED001BCF
:1016400051EC100B53EC112B00F0B0FB41EC1B0BD9
:10165000384600F0ECFDCDE9080153EC1B2B51ECB2
:101660001A0B00F0A3FB41EC100B3C48784400EB54
:10167000C40090ED00CB51EC100B53EC1C2B00F090
:1016800095FB9DED081B53EC112B00F08FFB069092
:10169000CDE906519DED080B53EC102B9DED060B8B
:1016A00051EC100B01F036F853EC1C2B01F032F822
:1016B00053EC1A2B01F02EF853EC1B2B00F052FFC9
:1016C00041EC100B9DED261B53EC102B8DED001BF8
:1016D00000959DED260B51EC100B00F00FFE9DEDDB
:1016E000000B41EC1A0B53EC102B9DED260B51EC2B
:1016F000100B01F00FF89DED061B53EC112B2FE0A2
:10170000000000604715F73FFE822B654715F73F45
:1017100044DF5DF80BAE543E000000000000404383
:101720008E9803007AB60B000A16000038160000E7
:10173000421500000000000000000000000008400A
:10174000000000E009C7EE3FFD033ADC09C7EE3FA9
:10175000F5015B14E02F3EBECE130000881300009D
:1017600000F0CCFD53EC1A2B00F020FB9DED060B96
:1017700041EC1A0B53EC102B9DED000B51EC100BB0
:1017800000F0BCFDCDE90C019DED0C0B51EC1A0BEA
:1017900053EC102B00F00AFBCDE902010C46AA49DC
:1017A0008C422FDB611A084318D19DED0C0B53ECD2
:1017B000102B9DED020B51EC100B00F0ABFF41EC38
:1017C0001B0B9FEDA30B51EC1A0B53EC102B00F0ED
:1017D000EDFA53EC1B2B00F08FFE2DD20220FEF70A
:1017E0004BFD00F009FA10EE901A18EE900A8DEDFC
:1017F000020B8DED008B61F31E0003909DED020B3B
:10180000FFF7BEBB944A24F00041914214D39349A0
:10181000214408437FF4EFAC9DED0C0B53EC102BEF
:101820009DED020B51EC100B00F074FF53EC1A2BE2
:1018300000F062FE7FF6DFAC24F000408849894A60
:10184000002601EB205182422BDA481C4FF4801114
:1018500021FA00F02044844AC0F30A517A44A1F2EC
:10186000FF3192ED000B814A8DED080BCA4020EA52
:101870000202C0F3130040F48010C1F1140120FAF9
:1018800001F60992002CB8BF76429DED080B53EC8F
:10189000102B9DED0C0B51EC100B00F03BFFCDE934
:1018A0000C019DED0C0B51EC1A0B53EC102B00F0BE
:1018B0007DFA9FED6F0B0890CDE9085153EC102B8A
:1018C0009DED080B51EC100B00F018FD41EC1B0BCB
:1018D0009FED690B53EC102B9DED080B51EC100B99
:1018E00000F00CFD9DED0C0B41EC1C0B53EC102B90
:1018F0009DED080B51EC100B00F00CFF53EC1A2B74
:1019000000F030FE9FED5E1B53EC112B00F0F6FC57
:1019100053EC1C2B00F04AFA41EC1A0B51EC1B0B58
:1019200053EC1A2B00F042FACDE902019DED020BB7
:1019300053EC1B2B51EC100B00F0ECFE53EC1A2B6C
:1019400000F010FE9DED020B41EC1A0B53EC102B36
:1019500051EC100B00F0D2FCCDE908014A489DED96
:10196000080B0521784400F097F89DED081B51EC19
:10197000100B53EC112B00F0C1FC9DED021B53EC3E
:10198000112B00F0EFFDCDE906019DED020B53ECAC
:101990001A2B51EC100B00F0B1FC53EC1A2B00F099
:1019A00005FA9FED3B0B41EC1A0B53EC102B9DED10
:1019B000060B51EC100B00F0ADFE9DED060B41EC5B
:1019C0001B0B53EC102B9DED020B51EC100B00F098
:1019D00095FC53EC1B2B00F0A5FA53EC1A2B00F0EE
:1019E00099FE9DED021B53EC112B00F093FE53EC7E
:1019F000192B00F0B7FDCDE9020101EB06500115EE
:101A00000029C8BF039015DC9DED020B324651EC56
:101A1000100B00F0A0FFFFF7FDF9042808BF00F04D
:101A2000FBF832469DED020B51EC100B00F093FFDA
:101A3000CDE902019DED020B51EC180B53EC102B7C
:101A400000F05CFCFFF73ABB000090400000000093
:101A5000FE822B654715973C00CC904000346F3FC9
:101A600001FCFFFF0000E03F10120000FFFF0F002D
:101A700000000000432EE63F396CA80C615C20BEDC
:101A8000EF39FAFE422EE63FE010000000000000B1
:101A9000000000000000004070B504462DED028BF0
:101AA0004D1E00EBC500B0EE408AF0EE608A90ED6E
:101AB000000B35F0060017D053EC182B51EC100B2F
:101AC00000F01CFC41EC100B6D1E04EBC50090ED0A
:101AD000001B51EC100B53EC112B00F067F941EC9B
:101AE000100B35F00600E7D1022D36D0042D1CD0A6
:101AF000062D1CBFBDEC028B70BD53EC182B51ECB6
:101B0000100B00F0FBFB94ED0A1B53EC112B00F0C3
:101B10004DF953EC182B00F0F1FB94ED081B53EC3E
:101B2000112B00F043F941EC100B53EC182B51EC46
:101B3000100B00F0E3FB94ED061B53EC112B00F0AF
:101B400035F953EC182B00F0D9FB94ED040B53EC52
:101B5000102B00F02BF941EC100B53EC182B51EC2F
:101B6000100B00F0CBFB94ED021B53EC112B00F09B
:101B70001DF953EC182B00F0C1FB94ED001B53EC46
:101B8000112B00F013F9BDEC028B41EC100B70BD72
:101B90009FED070B10B553EC102B9FED070B51EC8D
:101BA000100B00F0BFF941EC100B10BD000000005D
:101BB0000000000000000000000000000000F03FF6
:101BC00010B553EC112B51EC100B00F0EFF841EC79
:101BD000100B10BD000000009FED050B10B553EC7D
:101BE000102B51EC100B00F09DF941EC100B10BDC7
:101BF00000000000000000009FED050B10B553EC45
:101C0000102B51EC100B00F079FB41EC100B10BDC8
:101C100000000000000000709FED050B10B553ECB4
:101C2000102B51EC100B00F069FB41EC100B10BDB8
:101C3000000000000000001082B0CDE9000121F09A
:101C4000004001909DED000B02B051EC100B70476D
:101C500008B5FFF77FF854200023B7EE000A0822EA
:101C60004FF4E13100901846FEF7C2FE0020034613
:101C70000246062100902648FEF704FD0020034698
:101C80000246072100902248FEF7FCFC00200123B9
:101C90000522032100901F48FEF7F4FC00200223D8
:101CA0000522014600901A48FEF7ECFC6420FEF77E
:101CB000D7FC19A10020FEF75DFC28E006240021D6
:101CC0001348FEF78BFE05463DB1114840690121DE
:101CD000A14008430E49486106E00D4841690120D2
:101CE000A04081430A48416100BF03210948FEF733
:101CF00075FE60B9072006494969012282405140BA
:101D0000034A516100BF4FF49670FEF7A9FCD5E776
:101D100000000240001002400D0A53746172740DFD
:101D20000A00000000B52DED048B83B041EC190BC7
:101D300000F024FC41EC180B18EE100A18EE901A73
:101D40008DED008B002818BF0120084320F00040D3
:101D5000C0F17F6000F1E040C00F14D019EE101AFE
:101D600019EE900A8DED009B002918BF0121084350
:101D700020F00040C0F17F6000F1E040C00F04BFE0
:101D80000120FEF779FA51EC180B03B0BDEC048B7F
:101D900000BD81F00041704780F00040704721F0A5
:101DA0000041704720F000407047000010B591EAF4
:101DB000030F48BF83F0004300F1B484841A71EB31
:101DC000030C05D2121943EB0C03001B61EB0C0151
:101DD000DFF824E14FEA1154A4EB135C1EEA430F31
:101DE00018BF9EEA445F73D023EA0E03DCF1200E95
:101DF00021EA045143F4801332D322FA0CFE10EB93
:101E00000E0023FA0CFE41EB0E01CCF1200E03FA7A
:101E10000EFE10EB0E0051F10001B1F5801FCCF168
:101E2000200E32D201EB045112FA0EF2BDE810403E
:101E300058BF7047401C38BF5FEA420218BF704766
:101E4000002814BF20F0010041F100014FEA4103D6
:101E500013F5001F38BF7047A1F1C04100F046BB29
:101E6000012A43EB0302ACF1200CDCF11F0E32BF60
:101E70004FF0000E23FA0CF310EB030041EB04517A
:101E8000B4EB115FD0D0A1EB045101F580114908EA
:101E90005FEA300001EB04510ED350F1000038BF6F
:101EA00012FA0EFE08D1BDE81040C9E7401C38BF49
:101EB0005FEA4202CAD1C3E7BDE810404FEA4103DE
:101EC00013F5001F38BF7047A1F1C04100F00EBBF1
:101ED0009EEA445F08D011EA5E0FBDE8104004BFDF
:101EE00001F0004100207047BDE8104070B500F0DF
:101EF000AFFA00BF64FBBE3E0000E0FF02494FF0B6
:101F0000000000F0F6BC00BF0000F87F491058BF89
:101F1000C1F140415B1058BFC3F140438B42EFF326
:101F2000008070472DE9C04130B4DFF8A0C23CEA20
:101F3000111418BF3CEA131400F0EC8081EA030589
:101F40001CEA111444EAD57418BF1CEA131500F0FA
:101F5000C780A4EB05044FF0004545EAC12145EADE
:101F6000C32341EA505143EA525304F17F7499422A
:101F700004F500344FEAC0204FEAC22208BF904265
:101F800000F09C804FEA13650FF24016765D4FEA31
:101F9000134506FB05F7C7F1807706FB07F74FEA05
:101FA000D737A7FB03687642C8F58038A7FB06CE73
:101FB00038BFA8F1010807FB08E64FF0000EA6FBAA
:101FC000028CE6FB03CEDCF1000CCEF1004E38BFF4
:101FD000AEF1010EA6FB0C584FF000074FF00005C4
:101FE000E6FB0E87A1FB08C6A0FB07CE16EB0E068C
:101FF00045F10005E1FB076515F1E04E7EBFA4F554
:1020000080345FEA46066D4116F1800745F1000510
:102010004FEA17274FEA066647EA0567A6F1DE464C
:10202000B6F1805F4FEA15251FD9384624F0010C20
:1020300005EBC471BCF1FE6F01EB0C1102D8F0BCD2
:10204000BDE8008124425CBF01F5801E9EEAC47F8A
:1020500002D4F0BCBDE80081244238D4F0BCA1F128
:10206000C041BDE8004100F041BA4FEAD22242EA45
:1020700043524FEAD323A7FB02864FEAD02040EA1F
:10208000415007FB03661EEA0E0F4FEAD12105FB04
:10209000026658BFA6EB0056B6EB00564FEA520E4A
:1020A0004EEAC37E18EB0E0E56EB530EBDD518EB61
:1020B00002085E417F1C55F10005B6E74FF480151C
:1020C0004FF000074FF000064FF00008ADE7F0BCFE
:1020D0004FF0000001F1C04101F00041BDE8008176
:1020E00011EA0C1F0CEA131500D00CE013EA0C1FC8
:1020F00000F025804FF00000F0BC81EA030101F000
:102100000041BDE80081F0BCBDE8004181EA030167
:1021100000F0ECB9F0BCBDE8004170B500F098F9F2
:10212000097EFC3E00F007B881EA03014FF0000091
:1021300001F00041704781EA030100F0D7B9F0BC1B
:10214000BDE800414FF0000021497047FFFDFBF959
:10215000F7F5F4F2F0EEEDEBE9E8E6E4E3E1E0DEDA
:10216000DDDBDAD8D7D5D4D3D1D0CFCDCCCBCAC84C
:10217000C7C6C5C4C2C1C0BFBEBDBCBBBAB9B8B773
:10218000B6B5B4B3B2B1B0AFAEADACABAAA9A8A866
:10219000A7A6A5A4A3A3A2A1A09F9F9E9D9C9C9B34
:1021A0009A999998979796959594939392919190DF
:1021B0008F8F8E8E8D8C8C8B8B8A89898888878770
:1021C0008685858484838382828181800000FF07E5
:1021D0000000F87F4FEA1153A3F58063D3F11E038B
:1021E000A8BFD3F1200C08DB4FF0004242EAC12225
:1021F00052EA505232FA03F0704709420BD4102BC6
:10220000C4BF0020704703F5787CBCF1FF3F05D0C8
:102210004FF0FF3070474FF00000704770B500F08E
:1022200017F900BF4992248000207047F0E710F0B2
:10223000004248BF4042B0FA80F310FA03F10AD0DE
:10224000C3F11D0303F580634FEA415002EB0352D3
:1022500002EBD12170474FF000007047B0FA80F3D5
:1022600010FA03F10AD0C3F11D0303F580634FEAAE
:1022700041504FEA035202EBD12170474FF000006A
:102280007047000051EA030C17D41CF5801F58BF9B
:10229000BCF5801F00F10680994218BF704708BF47
:1022A0009042704707D711F5801F58BF13F5801F64
:1022B00019D499427047894270471CF5801F08D590
:1022C000BCF5801FF7D58B4218BF704708BF82420C
:1022D00070474FF4001C1CEB410F38BF1CEB430F41
:1022E00001D28B42704770B500F0B2F892244900D9
:1022F0004FF000514FF08053FFF708BEDFF848C1A0
:1023000070B51CEA111E1EBF1CEA13159EEA0C0FC5
:1023100095EA0C0F00F06F8081EA030423EA4C1366
:102320004EEAD47E21EA4C1141F4801143F480132B
:10233000AE44A1FB024CA0FB0365AEF17F7E3619D3
:1023400055EB0C05A1FB034C4CF10003A0FB021C58
:1023500016EB0C06654153F10003094218BF46F025
:10236000010613F4007F0BD14FEA03314FEA053029
:10237000340341EA155140EA16506FF003020AE0B7
:102380004FEAC3214FEAC520F40241EA555140EA21
:1023900056506FF0020202EB2E4201EB025585EA25
:1023A000CE710AD05FEA440C18BF24F0004450F10B
:1023B000000041F1000120EAD47040F2FE7C624549
:1023C00000D270BDA84214BF4FF080444FF040448B
:1023D000002E08BF0024BEF1806FA8BFA1F1C0414C
:1023E000BDE8704080F282804FF0000001F1C041F2
:1023F00001F0004170479EEA0C0F0CEA131518BF5C
:1024000095EA0C0F06D04FF0000081EA030E0EF0A3
:10241000004170BD00F01CF88900013E00F007B8D3
:1024200000F009B84FEA430C5FEA5C5C08D081EA2F
:10243000030100F05BB84FEA410C5FEA5C5CF6D147
:102440004FF00000014970470000FF070000F87FCF
:102450000EF1020E2EF0030E5EF8046B364205D428
:10246000012A43EB030515F5001F12D8012841EBA3
:10247000010C1CF5001F0CD80ED14FEAD17C15F5CC
:10248000001F0CEB4C0C0CF1020C08BF4CEBD37C86
:1024900004E04FF0080C01E04FEAD37C0CEB4C0554
:1024A00026FA05F606F00706B6F1040C06D20EEB86
:1024B000860CBDE870404CF0010C6047DFE80CF082
:1024C000090B02024FF000414FF00000A1F500217E
:1024D00070BD19461046012851EB010418BFD4F510
:1024E000001484BF002001F0004170BD0808A0F571
:1024F00000114FEA3101704753EA010C17D41CF563
:10250000801F58BFBCF5801F00F106808B4218BFAA
:10251000704708BF8242704707D713F5801F58BF26
:1025200011F5801F19D48B4270479B4270471CF5F0
:10253000801F08D5BCF5801FF7D5994218BF70479A
:1025400008BF904270474FF4001C1CEB430F38BF8C
:102550001CEB410F01D2994270470FB40CBC03BC75
:10256000FFF7C1BE91EA030F10B581F000413FF5BE
:1025700025AC83F0004300F0D5B800002DE9F04110
:1025800001F5801CBCF5001FC0F2A9804FEA115C68
:1025900021EA0C510CF1FD0C41F480115FEA5C0C56
:1025A0000CF5C07C01D34000494130A4890241EAC6
:1025B000905187028E0E0A0CA45D04FB04F602FB08
:1025C00006F6C6F14046A4FB0662F60D46EA422630
:1025D00006FB06F4A4FB01235242C3F1404338BF7B
:1025E0005B1EA6FB02420024E6FB0324D20B42EA58
:1025F0004446A6FB0623A1FB02E2A3FB07E4E3FBA0
:1026000061426442C2F1404E38BFAEF1010EA6FBFA
:1026100004234FF00002E6FB0E32A2FB0346340017
:10262000E2FB6264A1FB06E6A4FB07E8E4FB616849
:102630007642C8F1405838BFA8F10108A2FB06E471
:10264000A3FB08E5E2FB6854A1FB05E6A7FB04E851
:10265000E1FB648618F1200556F10006A809A8F1EF
:102660001B08B10908F03F08B8F10A0F40EA86607C
:102670001CD901EB0C51BDE8F08100BFFCF5EEE880
:10268000E2DDD8D3CFCBC7C3C0BDB9B6B4B1AEAC11
:10269000A9A7A5A3A19F9D9B9A9896959392908F89
:1026A0008D8C8B898887868584838281A0FB0068D6
:1026B00000FB01F208EB4208B8EB872807D5341875
:1026C00058EB0104D5D5401C51F10001D1E7341A73
:1026D00078EB0104CDD4401E71F10001C9E75FEA37
:1026E0004C0C5FEA9C5C0DD105D34FF0000001F06B
:1026F0000041BDE8F081BDE8F04170B5FFF7A8FEEC
:102700006DDBFFBEBDE8F0414FF0000000497047AF
:102710000000F87F10B591EA030F48BF83F0004333
:102720003FF54CAB841A71EB030C07D212198CF0F5
:10273000004C43EB0C03001B61EB0C01DFF8A4E140
:102740004FEA1154A4EB135C1EEA430F18BF9EEA34
:10275000445F00F0B08023EA6E03524221EA045144
:10276000C3EB6E0338BF5B1EDCF1200E25D322FACB
:102770000CFE10EB0E0043FA0CFE41EB0E01CCF107
:10278000200E03FA0EFE10EB0E0051F10001CCF109
:10279000200E29D412FA0EF201EB0451BDE81040CC
:1027A00058BF7047401C1CBFB2F1004F7047002853
:1027B0000CBF491C20F00100704712EB020E43EBE6
:1027C000030218BF4FF0010E4EEA4202ACF1200C9A
:1027D000DCF11E0E54D943FA0CFE10EB0E0051F141
:1027E000FF31CCF11E0ED5D50EF1010E12FA0EFE00
:1027F000404141EB010101EB445C5FEA5C5C10D9B4
:1028000010EBDE7001EB045138BFBEF1004FBDE8A4
:10281000104018BF704700280CBF491C20F0010071
:10282000704730D24FEAD42C11F5001124F4006423
:102830001BD0B1FA81F20B3AA41AA41ED2F12003E4
:10284000914030FA03F31943904001EBCC71002C16
:1028500001EB0451BDE81040A8BF704701F1C04131
:102860004FF0000001F000417047B0FA80F310FA19
:1028700003F100D110BDE41A173C4805C90AE4E78A
:1028800001EB045110BD491001EB0451BDE81040AB
:102890004FEA300002E04FF0000170474A0008BFE5
:1028A0000042F8D0B2F5001F28BF704701F0004188
:1028B0004FF0000070479EEA445F07D011EA5E0FB8
:1028C000BDE8104004BF002100207047BDE8104063
:1028D00070B5FFF7BDFD00BF40DFF63E83F000415D
:1028E000104670470000E0FF4FF04070E1EE100A24
:1028F00070470CF00F03092B08BF082000F0598027
:102900000A2B0BD0082B18BF704708BF1CF0400FD4
:102910000AD04FF000004FF0000170471CF0400F4C
:1029200018BF4FF0004070471CF0100F08D020F087
:10293000704300F07F4242EAD3014FEA4370704790
:1029400000F0604021F07F4242EA000201F07F4047
:1029500040EA727070474FF0FF0C4CF4E06C1CEAD8
:1029600011531CBF9CEA030C9445C2BFDA4201EB31
:1029700002517047002B0DD0BCF1000F0FD0002A80
:1029800001F00041A4BF41F0E04141F07F614FF010
:102990000000704701F000414FF00000704750EA1E
:1029A00001334FF09B0C18BF4CF0806C7FF4A6AA4B
:1029B00070471CF4801F11D01CF4E02F03D06FEA85
:1029C000CC31490070474FF04050EFF3008222F0C5
:1029D000704242EA000282F3008870474FF0000024
:1029E0007047000000000000000000000000F03F01
:1029F000000000000000F83F0000000000000000A0
:102A00000000004003B8E23F0000000000000000AA
:102A100006D0CF43EBFD4C3E033333333333E33F38
:102A2000FFAB6FDBB66DDB3F4D268F515555D53F64
:102A300001411DA96074D13F65DBC9934A86CD3F32
:102A4000EF4E454A287ECA3F3E5555555555C53F20
:102A500093BDBE166CC166BF2CDE25AF6A56113F12
:102A6000F16BD2C541BDBBBED0A4BE726937663E14
:102A70000000000000000000982A0008000000206C
:102A80001C000000C4010008B42A00081C0000203B
:102A9000E4070000E0010008000000000000000062
:102AA0000000000000000000000000000000000026
:042AB0000000000022
:0400000508000229C4
:00000001FF
