:020000040800F2
:10000000E86800207D0200088502000887020008D9
:10001000890200088B0200088D0200080000000021
:100020000000000000000000000000008F02000837
:1000300091020008000000009302000895020008E9
:10004000970200089702000897020008970200082C
:10005000970200089702000897020008970200081C
:10006000970200089702000897020008970200080C
:1000700097020008970200089702000897020008FC
:1000800097020008970200089702000897020008EC
:1000900097020008970200089702000897020008DC
:1000A00097020008970200089702000897020008CC
:1000B00097020008970200089702000897020008BC
:1000C000970200089702000897020008E708000856
:1000D000F1080008AD090008B7090008C1090008C7
:1000E000970200089702000897020008970200088C
:1000F000970200089702000897020008970200087C
:10010000970200089702000897020008FB08000801
:1001100099090008A3090008970200086D09000862
:10012000970200089702000897020008970200084B
:10013000970200089702000897020008970200083B
:10014000970200089702000897020008970200082B
:10015000970200089702000897020008CB090008E0
:10016000970200089702000897020008970200080B
:1001700097020008970200089702000897020008FB
:10018000970200089702000800F002F800F066F8F5
:100190000AA090E8000C82448344AAF10107DA45E2
:1001A00001D100F05BF8AFF2090EBAE80F0013F0CE
:1001B000010F18BFFB1A43F00103184770810000BC
:1001C0009081000010F8013B0A4413F0030408BFBB
:1001D00010F8014B1D1108BF10F8015B641E05D01B
:1001E00010F8016B641E01F8016BF9D1002D15D0D8
:1001F00010F8014B03F00C030C2BA1EB04040ABF15
:1002000010F8013BA4EB8314A4EB032405F10103D4
:1002100014F8016B5B1E01F8016BF9D5914238BFF0
:1002200010F8013BD1D3704700230024002500269D
:10023000103A28BF78C1FBD8520728BF30C148BF49
:100240000B6070471FB507F06FFB9DE8030000F0DF
:10025000EBF900F025F91FBD10B510BD00F050FA04
:100260001146FFF7EFFF05F0D5FD00F08DFA03B45E
:10027000FFF7F2FF03BC00F0C1FA00000948804715
:1002800009480047FEE7FEE7FEE7FEE7FEE7FEE778
:10029000FEE7FEE7FEE7FEE704480549054A064B90
:1002A000704700000509000889010008E862002085
:1002B000E8680020E8640020E864002053EA020CAB
:1002C00000F069802DE9F04B4FF00006002B1FBFB6
:1002D000B3FA83F503FA05F424FA05F65E4012BF7B
:1002E0001643B2FA82F502FA05F4C5F120051EBFE5
:1002F00022FA05FC44EA0C04203556EA044C4FEA85
:10030000144418BF641C4FF000084FF000099042DD
:1003100071EB030C39D3002919BFB1FA81F701FA47
:1003200007F6B0FA80F700FA07F6C7F120071EBFFC
:1003300020FA07FC46EA0C062037B6FBF4FCA7EBD4
:100340000507103F07F01F0BCBF120060CFA0BFB43
:100350002CFA06F644BFB3460026202FA4BF5E4603
:100360004FF0000B5BEA060C08BF4FF0010B19EBD6
:100370000B09ABFB027C48EB0608C01B06FB02CC5A
:100380000BFB03CC71EB0C01C1E70B460246414667
:100390004846BDE8F08B13B54FF000004FF0000168
:1003A000AFF30080BDE81C40704710B54C1084EAE4
:1003B000530404D54042C1F1000138BF491E1B421D
:1003C00004D55242C3F1000338BF5B1EFFF776FF2E
:1003D00014F0804F04D04042C1F1000138BF491EE3
:1003E00014F0004F04D05242C3F1000338BF5B1E2B
:1003F00010BD10B5203AC0F00B80B1E81850203A7B
:10040000A0E81850B1E81850A0E81850BFF4F5AFB4
:100410005FEA027C24BFB1E81850A0E8185044BF3E
:1004200018C918C0BDE810405FEA827C24BF51F8AB
:10043000043B40F8043B08BF7047D20728BF31F89F
:10044000023B48BF11F8012B28BF20F8023B48BFF0
:1004500000F8012B70474FF000020429C0F0128011
:1004600010F0030C00F09580CCF1040CBCF1020FED
:1004700018BF00F8012BA8BF20F8022BA1EB0C013C
:1004800000F087B85FEAC17C24BF00F8012B00F8B8
:10049000012B48BF00F8012B704770477047704729
:1004A00070B5064C7C44064D7D4403E02068204432
:1004B0008047241DAC42F9D170BD0000A47E00002D
:1004C000A47E000000487047B862002070B5064660
:1004D00000F08AF8056806F10B0020F00704B4422A
:1004E0009CBF002070BD2B466A68BAB11068A0425C
:1004F00010D304F1080188423CBF5068586007D30C
:100500005168101941601168091B0160586014603E
:10051000101D70BD13465268002AE7D121462846B7
:1005200000F06EF80028DED170BD70B50446051FDE
:1005300000F05AF80068002C14BF446870BD002C0D
:1005400018BFAC423CBF20466468F8D301680A1863
:10055000AA4218BF456003D12A68054611440160CC
:1005600028684119A1421CBF6C6070BD6168696058
:1005700021680844286070BD10B500F039F80068A3
:1005800010BD10B5044600F033F8046010BD4FF004
:10059000000200B5134694469646203922BFA0E8D3
:1005A0000C50A0E80C50B1F12001BFF4F7AF0907DF
:1005B00028BFA0E80C5048BF0CC05DF804EB8900D0
:1005C00028BF40F8042B08BF704748BF20F8022B13
:1005D00011F0804F18BF00F8012B704700F05AB897
:1005E0000048704784620020004870478C620020F9
:1005F000004870478462002070477047704770471A
:1006000038B504460A4600206946AFF3008000284A
:1006100008BF38BD02460099204600F09BF8012033
:1006200038BD012000F0C4B8F8B5AFF3008005462E
:1006300000200C46102000BF0646A819A0420DD984
:10064000324669460020AFF30080070008BF00F083
:10065000AFF80098A04218BF0546C419FFF7C4FFC1
:1006600005600746F01D20F007004619284600F0F7
:100670000AF8B44208BFF8BDA21B31463868BDE88D
:10068000F84000F067B800210160C0E90110704730
:100690001020704710B500F00EF8016919B1002262
:1006A0000261884701E08068804700F076F800002A
:1006B00010B500F072F870B500F048F8046805460F
:1006C000A4B92020FFF702FF040011D0094900203F
:1006D0002C60C4E900010849A160207320616061B9
:1006E0000649A06109B100F06AF8E061204670BDDA
:1006F00000F053F800000000B10600080000000000
:100700007546FFF76DFFAE4605006946534620F07B
:100710000700854618B020B5FFF7BEFDBDE82040B4
:100720004FF000064FF000074FF000084FF0000BAD
:1007300021F00701AC46ACE8C009ACE8C009ACE860
:10074000C009ACE8C0098D467047000000487047FA
:10075000C0620020034640688C46002818BF8842CB
:100760003CBF03464068F8D318681844884207D055
:100770000CF1030020F00700001D411A521A014637
:10078000081D0A60FFF7D1BE10B50446AFF3008024
:100790002046BDE81040FFF76ABD10B5002000F00C
:1007A00039F8FFF759FDBDE81040012000F026B8E8
:1007B00010B500F037F8BDE8104000F026B810B5CD
:1007C0008820FFF783FE002801D00021017010BDB2
:1007D000802902D808B1017809B1002070470121B1
:1007E00000F8081B704718B100F10802914201D0CF
:1007F0000020704700210170704700000149182057
:10080000ABBEFEE7260002007047002801D0FFF7CC
:10081000F5BF704710B500F047F8BDE81040FFF78E
:10082000F4BF000010B5012805D0002103A000F09E
:1008300021F8012010BD09A1F8E7000053494752F3
:10084000544D454D3A204F7574206F6620686561A0
:1008500070206D656D6F7279000000003A20486568
:100860006170206D656D6F727920636F7272757043
:100870007465640070B505460C460A2000E06D1CE6
:1008800000F02AF835B128780028F8D102E0641C7D
:1008900000F022F814B120780028F8D1BDE87040AB
:1008A0000A2000F019B8000010B5002102A0FFF7DF
:1008B000E1FF012010BD0000534947414252543A24
:1008C0002041626E6F726D616C207465726D696E2D
:1008D0006174696F6E00000008B569468DF800000C
:1008E0000320ABBE08BD00B5002000F089FD00BDAF
:1008F00000B5012000F084FD00BD00B5022000F02D
:100900007FFD00BD10B51548006840F47000134924
:1009100008601348006840F0010011490860002099
:100920000F49083108600E4800680E4908400C491C
:1009300008600D48091D0860081F006820F4802029
:10094000091F0860002006490C31086000F062F8B9
:100950004FF0006001498039086010BD88ED00E06B
:1009600000380240FFFFF6FE1030002408480088DF
:1009700000F0010050B10648008820F00100044951
:10098000088004480068401C024908607047000065
:10099000101400400859002000B5042000F05EFD4E
:1009A00000BD00B5052000F059FD00BD00B50020D8
:1009B00000F054FD00BD00B5022000F04FFD00BD69
:1009C00000B5032000F04AFD00BD00B5062000F090
:1009D00045FD00BD2DE9F04781460E461746984675
:1009E000C8EBC8054FF0000A10E050460AF1010AB2
:1009F000345C04B90BE0202C01D16D1D06E03B46B0
:100A00002A462146484601F0CFFB0544EDE700BFEA
:100A1000BDE8F0870CB500200190009034480068D4
:100A200040F480303249086000BF3148006800F46B
:100A3000003000900198401C0190009818B901986E
:100A4000B0F5A04FF1D12A48006800F4003010B191
:100A50000120009001E0002000900098012846D17C
:100A600023484030006840F0805021494031086000
:100A70002048006840F440401E4908601C48083087
:100A800000681B49083108600846006840F40040CF
:100A900008600846006840F4A05008601648091F26
:100AA0000860081F006840F08070091F086000BFE0
:100AB0000F48006800F000700028F9D040F205707F
:100AC0000E4908600A480830006820F00300084911
:100AD000083108600846006840F00200086000BF66
:100AE00003480830006800F00C000828F8D10CBD5D
:100AF000003802400070004019544007003C02409A
:100B000010B5142300220521452001F055F81423C7
:100B100000220521442001F04FF814230022052172
:100B2000432001F049F810BD10B50146072911D244
:100B3000DFE801F00E100406080A0C0021480BE063
:100B4000214809E0214807E0214805E0214803E069
:100B5000214801E0204800BF00BF204A525C204BE2
:100B60005B5C9A4204D1828922F08002828110BDAE
:100B700000BF028802F08002002AFAD0194A02EB74
:100B80004112174B5B5CD25C8280154B5B5C5A1C3C
:100B9000D31702EBD3635B11A2EB4313104C6354E6
:100BA0000E4A525C23465B5C9A4204D1828922F051
:100BB0008002828103E0828942F08002828100BF4C
:100BC000D5E700000044004000480040004C0040D1
:100BD0000050004000140140001001401A5900204C
:100BE000215900209461002010B544F6206102488C
:100BF00004F03AF810BD00002859002010B500F0AC
:100C0000D1FC0021034A02F59E6203C2014803F0B1
:100C1000FBF810BD2859002070B50021F64803F0FC
:100C200053FD082004F068F9041E06D0F34AF4A12D
:100C3000204603F0ADFC044600E00020054606C84F
:100C4000ED4803F0AFFC0121EB4803F03DFD082027
:100C500004F052F9041E06D0EC4AEDA1204603F040
:100C600097FC044600E00020054606C8E24803F071
:100C700099FC082004F040F9041E06D0E64AE7A1DA
:100C8000204603F085FC044600E00020054606C827
:100C9000D94803F087FC082004F02EF9041E06D082
:100CA000E24AE3A1204603F073FC044600E0002082
:100CB000054606C8D04803F075FC082004F01CF96E
:100CC000041E06D0DD4ADEA1204603F061FC044686
:100CD00000E00020054606C8C74803F063FC082072
:100CE00004F00AF9041E06D0D84AD9A1204603F020
:100CF0004FFC044600E00020054606C8BE4803F04D
:100D000051FC082004F0F8F8041E06D0D24AD3A102
:100D1000204603F03DFC044600E00020054606C8DE
:100D2000B54803F03FFC082004F0E6F8041E06D0A6
:100D3000CC4ACDA1204603F02BFC044600E0002065
:100D4000054606C8AC4803F02DFC0621AA4803F06E
:100D5000BBFC082004F0D0F8041E06D0C74AC8A186
:100D6000204603F015FC044600E00020054606C8B6
:100D7000A14803F017FC02219F4803F0A5FC0820BE
:100D800004F0BAF8041E06D09C4A9DA1204603F048
:100D9000FFFB044600E00020054606C8964803F025
:100DA00001FC082004F0A8F8041E06D0B64AB7A13A
:100DB000204603F0EDFB044600E00020054606C88F
:100DC0008D4803F0EFFB082004F096F8041E06D0CF
:100DD000B04AB1A1204603F0DBFB044600E000204E
:100DE000054606C8844803F0DDFB082004F084F8BB
:100DF000041E06D0AC4AADA1204603F0C9FB044650
:100E000000E00020054606C87B4803F0CBFB082025
:100E100004F072F8041E06D0A74AA8A1204603F0E9
:100E2000B7FB044600E00020054606C8724803F000
:100E3000B9FB082004F060F8041E06D0A24AA3A162
:100E4000204603F0A5FB044600E00020054606C846
:100E5000694803F0A7FB0321674803F035FC08202D
:100E600004F04AF8041E06D06B4A65A1204603F040
:100E70008FFB044600E00020054606C85E4803F0EC
:100E800091FB082004F038F8041E06D0954A96A17C
:100E9000204603F07DFB044600E00020054606C81E
:100EA000554803F07FFB082004F026F8041E06D006
:100EB000924A93A1204603F06BFB044600E0002019
:100EC000054606C84C4803F06DFB09214A4803F06B
:100ED000FBFB0721484803F0F7FB082004F00CF85F
:100EE000041E06D0454A46A1204603F051FB0446A5
:100EF00000E00020054606C83F4803F053FB0820E9
:100F000003F0FAFF041E06D0814A82A1204603F0B6
:100F10003FFB044600E00020054606C8364803F0C3
:100F200041FB082003F0E8FF041E06D07D4A7EA1A5
:100F3000204603F02DFB044600E00020054606C8CD
:100F40002D4803F02FFB08212B4803F0BDFB0820A0
:100F500003F0D2FF041E06D0284A29A1204603F040
:100F600017FB044600E00020054606C8224803F0AF
:100F700019FB082003F0C0FF041E06D06E4A6FA1C3
:100F8000204603F005FB044600E00020054606C8A5
:100F9000194803F007FB082003F0AEFF041E06D03B
:100FA0006A4A6BA1204603F0F3FA044600E00020F1
:100FB000054606C8104803F0F5FA082003F09CFF28
:100FC000041E06D0664A67A1204603F0E1FA0446F3
:100FD00000E00020054606C8074803F0E3FA0421B4
:100FE000054803F071FB0521034803F06DFB012167
:100FF000014803F069FB70BD085A0020D1120008B7
:1010000052657475726E203C2D000000A11200081C
:1010100047616D65000000005515000843616C696B
:1010200062726174696F6E73000000004115000800
:1010300044656275672064617461000025150008CD
:1010400044726962626C657200000000D11300088E
:101050004B69636B65720000491400084261747447
:1010600065727900ED130008536F6D652073686930
:101070007420627920526F6D616E0000BD1100080E
:10108000506C61793A200000FD0B00085A65726FC0
:1010900066590000E90B000843616C696272617473
:1010A0006520494D55000000ED120008436C656154
:1010B0007220504E430000000913000853746172FF
:1010C0007420504E430000007115000843616C69A4
:1010D0006272617465206C696768742073656E73F1
:1010E0002E2E2E0015150008426567696E2063617B
:1010F0006C6962726174696F6E000000C113000850
:10110000456E642063616C6962726174696F6E0020
:101110007112000844726962626C657220696E2007
:101120004F4E00005912000844726962626C657289
:10113000204F4646000000008D1200084B69636B8B
:1011400020737472616967687400000009280008E0
:101150004B69636B20646961676F6E616C2031005D
:10116000F92700084B69636B20646961676F6E61E2
:101170006C20320070B506460C46002506E0284675
:101180006A1CD5B2215C304601F042FC605D00284B
:10119000F5D170BD01460748405C2030064B5B5CD2
:1011A000C01AC2B2D01702EBD0604011A2EB4010BF
:1011B000C0B270470C590020135900200248006843
:1011C000401C014908607047785400200146A1F195
:1011D0002100704700F01F02012191404209920056
:1011E00002F1E022C2F80011704700F01F02012155
:1011F00091404209920002F1E022C2F800117047CA
:101200000246072A11D2DFE802F00E100406080A8F
:101210000C000B490BE00B4909E00B4907E00B49B7
:1012200005E00B4903E00B4901E00A4900BF00BF9C
:10123000088800F0400008B1012070470020FCE75A
:101240000044004000480040004C00400050004076
:1012500000140140001001400020044981F8E0061C
:10126000C1F8D804C1F8DC047047000028590020F8
:101270000120054981F8E0066FF01500C1F8D80497
:10128000C1F8DC0470470000285900200120034900
:1012900081F8C00481F8C10470470000285900207B
:1012A00010B50620084908600621084803F00CFA2A
:1012B00000210648E03880F8881680F8941680F8F7
:1012C000A01602F0A1FD10BD70540020085A0020A5
:1012D00010B50120034908600121034803F0F4F927
:1012E00010BD000070540020085A002010B50448BA
:1012F00002F08AFD00F056F90021024A03C210BD37
:10130000285900208054002070B52DED068B00F088
:1013100049F90021234AD2E90032C41A61EB0201E3
:10132000204605F089FF41EC190B1F4890ED2A2B50
:10133000B0EE420AF0EE620A90ED282BB0EE421AAF
:10134000F0EE621A53EC102B51EC110B06F002FA7E
:1013500053EC192B05F004FD41EC180B124890EDED
:10136000381BB0EE410AF0EE610A53EC102B51EC41
:10137000180B05F039FC0D4A02F59C6203C200F01F
:1013800011F90021094A02F59E6203C200F00AF930
:101390000021044A03C2054802F036FDBDEC068B6D
:1013A00070BD000080540020285D002028590020D6
:1013B00010B50021014803F087F910BD085A00203C
:1013C00000B5024801F0CCFF00BD00002859002004
:1013D00010B50821034803F077F908200249086096
:1013E00010BD0000085A00207054002010B5FFF70F
:1013F000DFFF05200149086010BD00007054002087
:10140000014621B1012904D0022906D103E009488F
:1014100003E0094801E0094800BF00BF028902F06B
:10142000010232B18289064B23F811200122054BBB
:101430005A5470470030014000380040003C0040E2
:10144000025500200655002010B5FFF7B1FF04201B
:101450000149086010BD00007054002030B50546F9
:10146000072D11D2DFE805F00E100406080A0C0063
:10147000204C0BE0204C09E0204C07E0204C05E01C
:10148000204C03E0204C01E01F4C00BF00BF20882F
:1014900000F0200030B3208800F00100A8B92088B7
:1014A00000F0020088B9A088184901EB4511184ADC
:1014B000525D88541649495D481CC11700EBD16143
:1014C0004911A0EB4111124A5155208820F0020029
:1014D0002080208820F001002080208820F020003B
:1014E000208006E0208800F0800010B12846FFF739
:1014F0001BFB30BD0044004000480040004C004051
:10150000005000400014014000100140B460002071
:101510000C59002000B5024801F026FF00BD000074
:101520002859002010B50721034803F0CDF8072003
:101530000249086010BD0000085A002070540020C5
:1015400010B5FFF735FF09200149086010BD000004
:101550007054002010B50221034803F0B5F80220B2
:101560000249086010BD0000085A00207054002095
:1015700010B50321034803F0A7F8032002490860CF
:1015800010BD0000085A00207054002000B501462C
:1015900000F008F8024600BF00F004F8801A884204
:1015A000FAD300BD014800687047000008590020C8
:1015B00010B503460F2B22D2DFE803F021080A0DF5
:1015C0000F112121131517191B1D1F001B4816E0B1
:1015D0004FF0804013E01A4811E01A480FE01A4813
:1015E0000DE01A480BE01A4809E01A4807E01A48CB
:1015F00005E01A4803E01A4801E01A4800BF00BF9E
:10160000194CE45C022C05D1B432B2F5B47F01D997
:101610004FF4B472012906D0022906D0032906D05E
:10162000042908D105E0426305E0826303E0C26358
:1016300001E0026400BF00BF10BD000000000140D7
:101640000004004000080040000C0040000401407D
:1016500000400140004401400048014000180040A3
:10166000001C0040002000407462002010B52AB128
:10167000436901248C402343436104E0436901240E
:101680008C40A343436110BD70B504460E46102C38
:101690000CDA2546E01704EB10700011A4EB0010E3
:1016A00081B232461E48FFF7E1FF38E0202C0CDA09
:1016B0002546E01704EB10700011A4EB001081B276
:1016C00032461848FFF7D2FF29E0302C0CDA2546C5
:1016D000E01704EB10700011A4EB001081B2324649
:1016E0001148FFF7C3FF1AE0402C0CDA2546E0173B
:1016F00004EB10700011A4EB001081B232460B48CD
:10170000FFF7B4FF0BE02546E01704EB1070001163
:10171000A4EB001081B232460548FFF7A7FF70BD69
:10172000000002400004024000080240000C024099
:10173000001002402DE9F84F064689469246984629
:10174000944D6F004FF0000B142000900F2E13D219
:10175000DFE806F09B0813212E3B9B9B48535E69F4
:1017600074818E008C4C8D48006840F001008B49DC
:101770000860BB460120009087E04FF08044874816
:10178000001F006840F001008449091F0860AB4653
:101790000120009079E0824C8048001F006840F0F2
:1017A00002007E49091F0860AB46022000906CE0F1
:1017B0007C4C7A48001F006840F004007749091FFC
:1017C0000860AB46022000905FE0774C7348001F32
:1017D000006840F008007149091F0860AB4602200C
:1017E000009052E0714C6D48006840F002006B4977
:1017F0000860BB460320009047E06D4C67480068D6
:1018000040F4803065490860BB46032000903CE00E
:10181000684C6248006840F4003060490860BB468C
:101820000320009031E0644C5C48006840F4802064
:101830005A490860BB460320009026E05F4C574899
:10184000001F006840F040005449091F0860AB4683
:101850000920009019E05A4C5048001F006840F0E1
:1018600080004E49091F0860AB46092000900CE03B
:10187000544C4A48001F006840F480704749091FD3
:101880000860AB460920009000BF00BF0098C3B2BB
:1018900000220221504600F08FF93F48844202D0D6
:1018A0004248844205D1B4F8440040F40040A4F812
:1018B00044004548844208D14FF47A7042492C31A3
:1018C00008605320091F088024E04048805D08BB61
:1018D00008F1010070B902203C49885532209BFB79
:1018E000F0F04FF4616190FBF1F0401E2085084656
:1018F000E0620BE00120354988559BFBF8F064213C
:1019000090FBF1F0401E20856420E062208840F0CA
:1019100080002080B9F1010F09D0B9F1020F11D078
:10192000B9F1030F19D0B9F1040F2CD120E0002038
:101930006063208B40F060002083208C40F0010029
:10194000208420E00020A063208B40F4C04020834E
:10195000208C40F01000208415E00020E063A08B74
:1019600040F06000A083208C40F4807020840AE066
:1019700000202064A08B40F4C040A083208C40F461
:101980008050208400BF00BF208840F001002080EC
:10199000BDE8F88F00BD0105000001404438024059
:1019A0000004004000080040000C0040000401401A
:1019B0000040014000440140004801400018004040
:1019C000001C004000200040001400407462002011
:1019D0002DE9F0472DED048B04460E461746984638
:1019E000DDF830906C48844206D16C48006840F0C5
:1019F00001006A49086026E06948844206D16748C8
:101A0000006840F00200654908601CE065488442B7
:101A100006D16248006840F004006049086012E0A6
:101A20006148844206D15D48006840F008005B4987
:101A3000086008E05D48844205D15848006840F0DD
:101A4000100056490860304605F0E3FB41EC190BE5
:101A5000B0EE491AF0EE691A9FED550B03F0C8FA83
:101A6000B0EE408AF0EE608A51EC180B05F03CFBBA
:101A70000546062F49D2DFE807F003101D2A37423A
:101A8000206828432060206820EA450020606068C4
:101A90000121B1408843606038E02068284320601D
:101AA000206820EA4500206060680121B1400843B9
:101AB00060602BE02068A8432060206840EA450071
:101AC000206060680121B140884360601EE02068AA
:101AD000A8432060206840EA45002060606801213A
:101AE000B1408843606011E0206805EB4501084380
:101AF0002060E06805EB45018843E06006E020686F
:101B000005EB45018843206000E000BF00BFB8F14D
:101B1000000F17D0042F15D0B8F1010F07D1E068DE
:101B20002843E060E06820EA4500E0600FE0B8F19B
:101B3000020F0CD1E068A843E060E06840EA45008D
:101B4000E06004E0E06805EB45018843E060A068E0
:101B500005EB45010843A060B9F1140F18D03546D4
:101B6000072E00DD083DF11706EB5171CA1004F194
:101B7000200151F82210AA0009FA02F2114330465E
:101B8000F21706EB5272D31004F1200242F8231030
:101B9000BDEC048BBDE8F087000002403038024005
:101BA0000004024000080240000C02400010024005
:101BB00000000000000010402DE9F84304460F46E5
:101BC00090461D46102C0EDA2646E01704EB1070E6
:101BD0000011A4EB001081B243463A462348009519
:101BE000FFF7F6FE40E0202C0EDA2646E01704EB65
:101BF00010700011A4EB001081B243463A461C4815
:101C00000095FFF7E5FE2FE0302C0EDA2646E017B0
:101C100004EB10700011A4EB001081B243463A4669
:101C200014480095FFF7D4FE1EE0402C0EDA26463D
:101C3000E01704EB10700011A4EB001081B24346D2
:101C40003A460D480095FFF7C3FE0DE02646E01723
:101C500004EB10700011A4EB001081B243463A4629
:101C600006480095FFF7B4FEBDE8F8830000024087
:101C70000004024000080240000C02400010024034
:101C80005148006820F003004F490860084600688A
:101C9000086000BF4C48006800F00C000028F9D133
:101CA00049480838006820F08070474908390860C2
:101CB00000BF45480838006800F000700028F8D1DF
:101CC00041480838006840F480303F4908390860CE
:101CD00000BF3D480838006800F400300028F8D004
:101CE0003948006820F0F00037490860084600686D
:101CF00020F4E05008600846006820F46040086066
:101D00000846006808600846006840F4A050086073
:101D10000846006840F400400860081F006820F092
:101D20007060091F08600846006820F440300860B1
:101D30000846006847F6C07188432349091F0860B8
:101D40000846006820F03F0008600846006820F45C
:101D5000800008600846006840F48000086008467B
:101D6000006840F0806008600846006840F00400A9
:101D700008600846006840F428500860084600687B
:101D800020F440300860081F006840F08070091F90
:101D9000086000BF0C480838006800F00070002898
:101DA000F8D00948006820F0030007490860084699
:101DB000006840F00200086000BF0348006800F0BF
:101DC0000C000228F9D07047083802402DE9FF4F77
:101DD00081B081460D469346DDE90EA6DDE9107817
:101DE00000208B4921F819008A4901F809001420C4
:101DF0000090B9F1000F06D0B9F1010F22D0B9F16E
:101E0000020F61D13FE0844C8448006840F4805068
:101E1000824908600AF1010060B9701C50B9781C51
:101E200040B908F1010028B94FF0040A0526062739
:101E30004FF0070805200090012D02D12320FFF765
:101E4000C9F941E0764C7548001F006840F48040B5
:101E50007249091F08600AF1010060B9701C50B98D
:101E6000781C40B908F1010028B94FF01C0A1D2662
:101E70001E274FF01F0805200090012D02D12420BD
:101E8000FFF7A8F920E0674C6448001F006840F4A1
:101E900000406249091F08600AF1010060B9701C26
:101EA00050B9781C40B908F1010028B94FF00F0A69
:101EB0002A262B274FF02C0806200090012D02D156
:101EC0003320FFF787F900BF00BF002D56D12088CF
:101ED00020F038002080049820281ED006DC04283A
:101EE0000CD008280FD010282BD111E0402819D091
:101EF00080281CD0B0F5807F23D11DE0208840F0E1
:101F0000080020801DE0208840F01000208018E0AC
:101F1000208840F01800208013E0208840F0200046
:101F200020800EE0208840F02800208009E02088F2
:101F300040F03000208004E0208840F0380020800D
:101F400000BF00BF208840F400702080208840F44B
:101F500080702080B0B200220221009BFFF72CFE8F
:101F6000B8B200220221009BFFF726FE1FFA88F07C
:101F700000220221009BFFF71FFE19E0B0B20022F1
:101F80000221009BFFF718FEB8B200220221009B3D
:101F9000FFF712FE1FFA88F000220221009BFFF7D4
:101FA0000BFE1FFA8AF000220221009BFFF704FEBD
:101FB000BBF1100F04D1208840F40060208003E0C2
:101FC000208820F400602080208820F002002080FB
:101FD000208820F001002080208820F080002080D0
:101FE000012D03D1A08840F04000A08025B92088B1
:101FF00040F00400208003E0208820F004002080CE
:10200000208840F04000208005B0BDE8F08F00003F
:10201000025500200655002000300140443802409F
:1020200000380040003C00402DE9F84304460F46CC
:1020300090461D46102C0EDA2646E01704EB107071
:102040000011A4EB001081B243463A4623480095A4
:10205000FFF7BEFC40E0202C0EDA2646E01704EB2A
:1020600010700011A4EB001081B243463A461C48A0
:102070000095FFF7ADFC2FE0302C0EDA2646E01776
:1020800004EB10700011A4EB001081B243463A46F5
:1020900014480095FFF79CFC1EE0402C0EDA264603
:1020A000E01704EB10700011A4EB001081B243465E
:1020B0003A460D480095FFF78BFC0DE02646E017E9
:1020C00004EB10700011A4EB001081B243463A46B5
:1020D00006480095FFF77CFCBDE8F883000002404D
:1020E0000004024000080240000C024000100240C0
:1020F0000246106901238B40184008B10120704747
:102100000020FCE72DE9F0470446102C0CDA2546A8
:10211000E01704EB10700011A4EB001081B21D4811
:10212000FFF7E6FFBDE8F087202C0BDA2646E01724
:1021300004EB10700011A4EB001081B21648FFF7F9
:10214000D7FFEFE7302C0BDA2746E01704EB1070CF
:102150000011A4EB001081B21048FFF7C9FFE1E7BE
:10216000402C0BDAA046E01704EB10700011A4EB32
:10217000001081B20A48FFF7BBFFD3E7A146E01782
:1021800004EB10700011A4EB001081B20548FFF7BA
:10219000AFFFC7E700000240000402400008024011
:1021A000000C0240001002402DE9FF4F85B08A4626
:1021B00090461D4605EB450000EBC505ED1C50465D
:1021C000FFF704F807462D4800EBC700D0F804904D
:1021D0002A49781C01EBC000406804904C4643E05B
:1021E000264850F837B0BBF1080F18DCCBF10800D7
:1021F000C6B211E02248005D304100F00103281909
:10220000A0EB090002B208F10800801B01B205989A
:1022100000F048FD701CC6B2082EEBDB23E008F18D
:1022200010000390A4EB090005EB50000290601C25
:102230000190002613E00198A0EBE600104A105C24
:1022400006F00702104100F001030398801B01B261
:10225000029802B2059800F025FD701CC6B2102E3F
:10226000E9DB641C00BF641C04988442B8D30348B3
:1022700050F83700801C09B0BDE8F08F687F000877
:10228000E87A000810B51423002211464F20FFF70A
:1022900093FC1423002211463020FFF78DFC1423F9
:1022A000002211462B20FFF787FC14230022114641
:1022B0004120FFF781FC1423002211464E20FFF736
:1022C0007BFC00212B20FFF7DFF900213020FFF7F6
:1022D000DBF900214F20FFF7D7F900214120FFF75C
:1022E000D3F900214E20FFF7CFF910BD2DE9FF4FA4
:1022F0002DED020B2DED028B81B005460F46B0EEA1
:10230000408A1E46DDF848900020DA494855DA49EF
:102310004855DA494855DA49485500BF09E00021D7
:10232000D84A02EB45121154D74A02EB4512115418
:10233000401C2028F3DB072D05D2DFE805F02B0435
:102340004663809DBA00D14CD148006840F010002F
:10235000CF49086007200123022208210090CD48C0
:10236000FFF736FB07200123022209210090C9480C
:10237000FFF72EFB0720012302220A210090C54807
:10238000FFF726FB208A40F4006020822520FEF71C
:102390002CFFA9E0BD4CBE48006840F01000BC49CD
:1023A000086007200123022209210090B948FFF7A5
:1023B0000FFB0720012302220A210090B548FFF7F6
:1023C00007FB2520FEF711FF8EE0B34CB048001F3D
:1023D000006840F40030AE49091F0860072001235F
:1023E000022211460090AB48FFF7F2FA07200123C2
:1023F000022203210090A748FFF7EAFA2620FEF701
:10240000F4FE71E0A54CA248001F006840F4802053
:102410009F49091F08600720012302220A2100901A
:102420009F48FFF7D5FA0720012302220B210090D5
:102430009B48FFF7CDFA2720FEF7D7FE54E0994CD2
:102440009348001F006840F400209149091F08606C
:10245000082001230222002100908E48FFF7B8FADD
:10246000082001230222194600908A48FFF7B0FA9B
:102470003420FEF7BAFE37E08B4C8548001F006819
:1024800040F480108249091F0860082001230222BD
:102490000C2100908548FFF79BFA082001230222B7
:1024A000114600908248FFF793FA3520FEF79DFE13
:1024B0001AE0804C7648006840F0200074490860BB
:1024C000082001230222062100907848FFF780FAB5
:1024D000082001230222072100907448FFF778FAB0
:1024E0004720FEF782FE00BF00BFA08940F40050E5
:1024F000A0810798092804D1A08940F48050A081C8
:1025000003E0A08920F48050A081B2EE040A28EEF6
:10251000000ABDEEC00A10EE108AB8F1050F0ED009
:10252000B8F10A0F06D0B8F10F0F1AD0B8F1140F96
:102530001CD10DE0208A20F44050208216E0208A31
:1025400020F400502082208A40F4805020820DE048
:10255000208A40F400502082208A20F4805020827B
:1025600004E0208A40F44050208200BF00BF8EB1BA
:10257000A08940F48060A081012E04D1A08920F4BC
:102580000070A0810AE0022E08D1A08940F40070FA
:10259000A08103E0A08920F48060A081A08920F4BC
:1025A0000040A0814FF0000AD346B9F12A0F21D193
:1025B000B7F5165F09D0B7F5164F0BD0B7F5614FD9
:1025C0000DD0B7F5E13F14D10EE040F2111A4FF0F3
:1025D000070B0EE04FF0440A4FF0060B09E04FF0F6
:1025E0002D0A4FF0090B04E04FF0160A4FF00D0BC7
:1025F00000BF24E0B9F1540F21D1B7F5165F09D01F
:10260000B7F5164F0BD0B7F5614F0DD0B7F5E13FD9
:1026100014D10EE040F2222A4FF00E0B0EE04FF0E4
:10262000880A4FF00C0B09E04FF05B0A4FF0020BE9
:1026300004E04FF02D0A4FF0090B00BF00BF00204F
:1026400020810BEB0A102081A08940F00400A081BA
:10265000A08940F00800A081A08940F02000A0815E
:10266000A08940F08000A08101B0BDEC028B06B0D3
:10267000BDE8F08F215900201A590020135900207D
:102680000C590020B460002094610020001001402B
:10269000443802400000024000440040004800402E
:1026A00000040240004C004000500040000802407E
:1026B000000C02400014014010B501460D48405C7A
:1026C0000D4A525C904201D1002010BD0B4800EB36
:1026D0004110084B5B5CC25C064B5B5C581CC3172B
:1026E00000EBD3635B11A0EB4313024C6354104621
:1026F000EBE70000135900200C590020B4600020C3
:1027000010B5FFF7BDFA2648006840F020002449C4
:1027100008605320234908804FF47A70091D08602F
:1027200020482838008840F080001E492839088059
:102730000846008820F0600008800846008820F0E5
:102740001000088017481C38008840F00100154927
:102750001C390880372000F01F02012191404209F6
:10276000920002F1E022C2F8001100BF012100280E
:1027700007DA0A07140E0C4A00F00F031B1FD4548B
:1027800003E00A07130E094A135400BF054828380E
:10279000008840F0010003492839088010BD00007E
:1027A000403802402814004018ED00E000E400E04A
:1027B00002460B4622B1012A04D0022A06D103E0C8
:1027C0000A4903E00A4901E00A4900BF00BF00BF0F
:1027D000088900F002000028FAD08B8100BF088928
:1027E00000F001000028FAD08889704700300140CD
:1027F00000380040003C00400120024981F8C0043C
:1028000070470000285900200120024981F8C104C6
:10281000704700002859002070B52DED088B054643
:10282000B0EE409AF0EE609AB0EE498AF0EE698A16
:102830009FED3D0B53EC102B51EC180B04F042FDB7
:1028400009D22D21284600F0E3F851EC180B04F0D2
:10285000BEF941EC180B51EC180B04F015FC0446C2
:102860002146284600F070F82E21284600F0D0F8C6
:1028700051EC180B04F008FC044604F062FC41EC37
:102880001B0B53EC182B04F08DFE41EC180B9FED45
:10289000280B53EC102B51EC180B04F0A5F941EC6C
:1028A000180B9FED25AB002438E09FED250B53EC72
:1028B000102B51EC1A0B04F041FD41EC1A0B9FED6B
:1028C000200B53EC102B51EC180B04F037FD41ECAE
:1028D000180B51EC180B04F0D7FB0A2190FBF1F216
:1028E00001FB12063146284600F02EF851EC180B79
:1028F00004F0CAFB064604F024FC41EC1B0B53EC2D
:10290000182B04F04FFE41EC180B53EC1A2B51EC32
:10291000180B04F0D7FC00D202E0641C062CC4DBC8
:10292000BDEC088B70BD000000000000000000003E
:1029300048AFBC9AF2D77A3E8DEDB5A0F7C6B03E4F
:10294000000000000000244070B504460D462946F2
:10295000204600F001F870BD70B505460C46002C0D
:1029600004DA2D21284600F053F864422146284617
:1029700000F002F870BD00002DE9F05F2DED068B30
:1029800083460D46284604F044FC41EC180B04F045
:10299000ABFB0446002603E0761C0A20B4FBF0F4EF
:1029A0000A2CF9D22C46002728E09FED178BA6EBC6
:1029B000070A504604F0C5FB41EC1A0BB0EE4A1A68
:1029C000F0EE6A1AB0EE480AF0EE680A02F010FB68
:1029D000B0EE409AF0EE609A51EC190B04F084FBD3
:1029E0008046B4FBF8F000F0FF0909F13000C1B2F5
:1029F000584600F00DF809FB18447F1CB742D4D9A3
:102A0000BDEC068BBDE8F09F0000000000002440F4
:102A100030B504460D460A4800EB44100949095DEB
:102A200045540849095D481CC11700EBD1614911A3
:102A3000A0EB4111034A11552046FEF775F830BD51
:102A4000946100201A59002070B504460D4694F98F
:102A500008002946FFF7ACFE70BD70B504460D4670
:102A6000E0890121FEF710FE60890021FEF70CFECF
:102A7000E0890021FEF708FE29462046FFF7E4FF23
:102A8000E0890121FEF700FE70BD7FB504460D46CA
:102A9000164668B2607100202071608914230022FC
:102AA0001146FFF789F8E089142300221146FFF749
:102AB00083F8A08A4FF0FF33618AE289CDE90113E0
:102AC0000092039094F9080008231A460021FFF7AA
:102AD0007DF9A089142300221146FFF76DF8A08923
:102AE0000121FEF7D1FD0120FEF750FDA089002154
:102AF000FEF7CAFD0A20FEF749FDA0890121FEF775
:102B0000C3FDAE212046FFF7A8FFD5212046FFF7E1
:102B1000A4FF80212046FFF7A0FFA8212046FFF751
:102B20009CFF3F212046FFF798FFD3212046FFF767
:102B300094FF00212046FFF790FF40212046FFF739
:102B40008CFF8D212046FFF788FF012D04D1102135
:102B50002046FFF782FF03E014212046FFF77DFFA8
:102B600020212046FFF779FF00212046FFF775FF5F
:102B7000A1212046FFF771FFC8212046FFF76DFF16
:102B8000DA212046FFF769FF12212046FFF765FF93
:102B900081212046FFF761FF012D04D19F212046AE
:102BA000FFF75BFF03E0CF212046FFF756FFD92157
:102BB0002046FFF752FF012D04D122212046FFF7C6
:102BC0004CFF03E0F1212046FFF747FFDB212046C1
:102BD000FFF743FF40212046FFF73FFFA421204697
:102BE000FFF73BFFA6212046FFF737FF2E212046A7
:102BF000FFF733FFAF212046FFF72FFF7FBD000017
:102C000010B504464FF480610148FDF724FC10BD67
:102C10000855002070B505460C4624B1A72128466A
:102C2000FFF71BFF03E0A6212846FFF716FF70BD44
:102C300070B5044621212046FFF70FFF00212046F2
:102C4000FFF70BFF7F212046FFF707FF22212046D9
:102C5000FFF703FF00212046FFF7FFFE0721204674
:102C6000FFF7FBFEE0890121FEF70EFD60890121DF
:102C7000FEF70AFDE0890021FEF706FD002506E0CB
:102C80000748415D2046FFF7DFFE681C85B2B5F5B9
:102C9000806FF5DBE0890121FEF7F6FC70BD0000D6
:102CA00008550020F0B50446002905DB802903DA29
:102CB000002A01DB402A00DBF0BD2079012804D086
:102CC000022809D0032815D10DE008461146024616
:102CD000C1F17F0001B20EE0C1F17F0001B2C2F18B
:102CE0003F0002B207E0084611460246C2F13F002B
:102CF00002B200E000BF00BFE3B1012B02D0022B03
:102D000047D12EE0D51702EB5575ED1001EBC51537
:102D1000214E755D02F007070126BE403543EEB235
:102D20001046D51702EB5575ED1001EBC5151A4F7E
:102D30007E552EE0D51702EB5575ED1001EBC5154C
:102D4000154E755D02F007070126BE40B5431046DB
:102D5000D61702EB5676F61001EBC6160E4FBD5590
:102D600017E0D51702EB5575ED1001EBC5150A4EAE
:102D7000755D02F007070126BE407540EEB21046B1
:102D8000D51702EB5575ED1001EBC515024F7E55B9
:102D900000BF00BF00BF8FE7085500202DE9F05F9E
:102DA00004460D4616461F46DDE90CABDDE90A98E0
:102DB0000E48206068B220726681A781A4F80E9048
:102DC000A4F812A0A4F814B00120A075A4F81080F3
:102DD0001423002211464046FEF7EEFE0121404634
:102DE000FEF752FC2046BDE8F09F0000208300085B
:102DF00001490160704700002083000870B5044657
:102E000000214A20FEF740FC94F811150020FFF73E
:102E1000CFFCC5B245B194F810156A1ED0B203F0CC
:102E20004CFB84F8100508E00648006840F02000DC
:102E300004490860002084F8100501214A20FEF7AB
:102E400023FC70BD0000002070B504463A480078AD
:102E500000F0010050B9384802F08CF830B1FEF7AC
:102E6000A1FB364908603448AFF30080FEF79AFBB7
:102E700032490968401AFA2800DA70BD94F88006D1
:102E800010B901202E49087094F88006F0B12C4842
:102E90000078D8B104F1E006D6F8B003C0EBC00169
:102EA00001EB001106F1180000EB8105D5E91512C0
:102EB000114405EBC1014868804700BF00BFFEF721
:102EC00071FB1E49086000201D49087040F28C60AB
:102ED000005D10B304F1E001D1F8B023C2EBC203EE
:102EE00003EB021301F1180202EB8300826D521E04
:102EF0008265826D002A05DA826D521C8265426D00
:102F0000521E4265426D002A01DA0022426500BF6E
:102F100000BFFEF747FB094908604FF4D360005D2E
:102F200038B104F1E00001F0A9FBFEF73BFB0349D7
:102F3000086000BFA1E70000F8540020FC54002006
:102F40000055002010B52DED088B0446204600F0FA
:102F500065FDB0EE408AF0EE608A204600F07CFD10
:102F6000B0EE409AF0EE609A204600F093FDB0EE8D
:102F700040AAF0EE60AA204600F0AAFDB0EE40BAEA
:102F8000F0EE60BA04F5806080EDAA8B53EC182B4C
:102F900051EC190B04F0DEFB04F5D562C2E9020125
:102FA00053EC192B51EC1A0B04F0D4FB04F5D56249
:102FB000C2E9040153EC1A2B51EC1B0B04F0CAFBC1
:102FC00004F5D562C2E90601BDEC088B10BD70B5F1
:102FD0000546002408E004EBC40205F5A36101EBFB
:102FE000C20001F067F9641C042CF4DB70BD70B5FD
:102FF00004460D4694F80007A84215D0FEF7D2FA11
:10300000002104F5E16348CBC21A61EB06014B23B2
:1030100000209A1A884107DA84F80057FEF7C2FAAE
:10302000002104F5E16203C270BD70B5044645207D
:10303000FFF768F80546294604F5D06001F08CF8E2
:103040004420FFF75FF80546294604F28C6001F042
:1030500083F84320FFF756F80546294604F5D36068
:1030600001F07AF870BD00002DE9F04F93B00446EE
:103070000026BEE006EBC60204F5A36000EBC20129
:1030800048226846FDF7B5F9ABE09DF80000FFF770
:1030900013FB00F58075E81705EB10600012A5EB37
:1030A0000027BB2F08D15548007828B90120534983
:1030B00008700020524908605048007800287DD0F0
:1030C0004F4801680068401C4D4A10604D4840F868
:1030D000217010460068032801D14B48076048481A
:1030E000006849490968884273D1464890F80490BD
:1030F000D0F81080032103F0C5F900F0FF0A424820
:103100000068411E3F4803F0BDF900F0FF0B3D4849
:10311000C068504507D13C480068401E394951F805
:10312000200058450BD03948006840F0020037496C
:10313000086000203249086013B0BDE8F08F002518
:103140003FE005EBC50104F5A36000EBC10040784A
:10315000484532D1B8F1A60F1BD12B480068811F1A
:10316000002013E0274B821D13F8223005EBC50C1D
:1031700004F5A36202EBCC02921CDFF888C000F1D8
:10318000050E5CF82EC002F80C30801C8842E9DB8A
:1031900000BFB8F1E30F02D0B8F1E60F05D11B482C
:1031A000006840F004001949086005EBC50204F509
:1031B000A36101EBC20001F03BF801E010E008E080
:1031C0006D1C042DBDDB00200C4908700C49086003
:1031D00000BF0B480068102802DB00200749087078
:1031E00000BF9DF80000FDF7D5FF00287FF44DAF2C
:1031F000761C042EFFF63EAF00BF9DE79C540020D6
:1032000094540020486000209854002000000020C2
:1032100070B50446002594F8C004C8B1FEF7C2F9A1
:10322000002104F599620CCA821A61EB03014FF484
:10323000FA7300209A1A88410ADA45F00105002045
:1032400084F8C004FEF7AEF9002104F5996203C2C8
:1032500094F8C104C8B1FEF7A5F9002104F59A62FB
:1032600044CA831A61EB06014FF4FA720020D21AA5
:1032700088410ADA45F08005002084F8C104FEF791
:1032800091F9002104F59A6203C25DB100214B203F
:10329000FEF7FAF929460020FFF78AFA01214B20B0
:1032A000FEF7F2F970BD10B5044694F8000720B19E
:1032B00000212046FFF79BFE03E001212046FFF797
:1032C00096FE10BD2DE9F0412DED068B0446D4F895
:1032D000D854D4F8DC74281E01DB014600E04142DA
:1032E0001E2905DD284603F0A4F8C0EB00104500B8
:1032F000284603F026FF41EC1A0B9FED0E0B53EC12
:10330000102B04F01BF841EC190B9FED0C0B53EC48
:10331000102B03F069FC41EC180B03F0E5FE0646A8
:10332000324603210120FEF743F9BDEC068BBDE8D0
:10333000F0810000CDCCCCCCCCCCEC3F0000000028
:103340000080564010B50446204600F047FBC4F804
:10335000C806204600F052FB40F2CC61085110BD77
:10336000022180F811157047012180F8111570476E
:1033700070B52DED048B044604F5D56090ED022B5D
:10338000B0EE420AF0EE620A04F5806090EDAA2BDE
:10339000B0EE421AF0EE621A53EC102B51EC110B06
:1033A00003F022FC41EC190B04F5D56090ED041BF1
:1033B000B0EE410AF0EE610A53EC102B51EC190B00
:1033C00003F012FC41EC180B04F5D56090ED061BE0
:1033D000B0EE410AF0EE610A53EC102B51EC180BE1
:1033E00003F002FC04F5DD6203C20026002514E0B0
:1033F00004F5D56000EBC50090ED001BB0EE410A6E
:10340000F0EE610A9FED221B53EC112B51EC100BD7
:1034100003F058FF00D201266D1C042DE8DB04F5F3
:10342000806090EDBA1BB0EE410AF0EE610A9FEDAC
:103430001A1B53EC112B51EC100B03F043FF00D37C
:10344000EEB1002028B1FEF7ADF8002104F5DF62EF
:1034500003C2FEF7A7F8002104F5DF620CCA821A46
:1034600061EB030140F2EE2300209A1A88410CDA46
:103470000B48006840F480700949086005E008487E
:10348000006820F4807006490860BDEC048B70BDB4
:103490006666666666660A409A99999999992B407C
:1034A0000000002070B58AB004464FF0FF334D2273
:1034B00003210120FEF73EF94FF0FF334E22042195
:1034C0000120FEF737F9B42203210120FEF770F83E
:1034D000B42204210120FEF76BF8FA20FEF756F81B
:1034E000002203210120FEF763F8002204210120BD
:1034F000FEF75EF8FA20FEF749F85A220321012070
:10350000FEF756F85A2204210120FEF751F84FF435
:103510007A70FEF73BF8002004F598642070607024
:10352000FEF740F80021C4E90201FEF73BF8002154
:10353000C4E90401FEF736F80021C4E90C01A4F542
:1035400098649FEDE90B04F5806080ED380BFEF781
:1035500099FEFDF7D5FA1423002211461C20FEF730
:103560002BFB01211C20FEF78FF80A20FEF70EF836
:1035700038220121204601F00FF96420FEF706F8F9
:10358000204600F041FC2A200023B7EE000A082262
:103590004FF4E13100900420FEF7A8FE2A2000231A
:1035A000B7EE000A08224FF4E13100900520FEF743
:1035B0009DFE54200023B7EE000A08224FF4E131AB
:1035C00000901846FEF792FE54200023B7EE000A42
:1035D00008224FF4E13100900620FEF787FE2A20F2
:1035E00000239FEDC30A08224FF4E131009003202D
:1035F000FEF77CFE2A200023B7EE000A08224FF4D3
:10360000E13100900220FEF771FE4FF49670FDF755
:10361000BDFF4FF0FF3000900190029008231A4642
:10362000002103900846FEF7D1FB14230022114627
:103630004A20FEF7C1FA01214A20FEF725F814239B
:10364000002211464B20FEF7B7FA01214B20FEF76E
:103650001BF804230122002104F5A36000F03CFEC6
:103660000321204600F050F905230322642104F5CC
:10367000AC6000F031FE0321204600F045F9002344
:103680000222C82104F5B56000F026FE0321204681
:1036900000F03AF9062304224FF4967104F5BE6057
:1036A00000F01AFE0321204600F02EF903212046E7
:1036B00000F02AF900260DE006EBC60204F5A3612E
:1036C00001EBC200002100F063FD0521204600F05F
:1036D0001BF9761C042EEFDB0020C4F8D006002175
:1036E00040F2D4600151001D0151001D0151002024
:1036F00084F8E0069FED7C0B04F5806080ED2C0BD8
:103700009FED790B80ED2E0BBB2084F81105152061
:103710002A2116223423CDE90032CDE902103623C6
:103720003522022104A8FFF739FB0122022104A857
:10373000FFF7ABF904A8FFF763FA002104A8FFF72D
:1037400069FA04A80221017100BF04F1E0009DF8AC
:10375000141001719DF8151041719DF816108171BA
:103760009DF81710C1719DF818100172BDF81A105C
:103770004181BDF81C108181BDF81E10C181BDF8CA
:1037800020100182BDF822104182BDF824108182F0
:103790009DF826108175002084F80007FDF702FFD0
:1037A000002104F5E16203C29FED520B04F5806035
:1037B00080EDBA0BFDF7F6FE002104F5DF6203C2CF
:1037C0001423002211464820FEF7F6F90021482074
:1037D000FDF75AFF1423002211460F20FEF7ECF9E3
:1037E00000210F20FDF750FF1423002211460C206A
:1037F000FEF7E2F901210C20FDF746FF1423002219
:1038000011460820FEF7D8F901210820FDF73CFFFA
:103810001423002211460B20FEF7CEF901210B20C4
:10382000FDF732FF1423002211462920FEF7C4F9C8
:1038300001212920FDF728FF0C2001F05DFB054642
:103840002E4900F06FFE054604F590600ECDC0E9EC
:103850001E12C4F80035783000F0E2FD202104F596
:103860009F6000F09FFD212104F59F6000F09AFD0C
:10387000222104F59F6000F095FD232104F59F604F
:1038800000F090FD04F59F6000F03EFE0C2001F07A
:1038900033FB05461A4900F045FE054604F5A060D5
:1038A0000ECD001D0EC00C3800F0BAFD102104F240
:1038B000045000F077FD112104F2045000F072FD75
:1038C00004F2045000F020FE0020C4F8D804C4F82C
:1038D000DC049FED050B04F5806080ED3A0B0020C1
:1038E000084908700AB070BD000000000000000028
:1038F0000000000000000000000024400020014003
:1039000000210140080000202DE9F04107460E4645
:10391000FDF748FE2F4909680844FA21B0FBF1F28F
:1039200001FB1200322807D200202B4908602948E9
:103930000068323027490860FDF734FE0025044650
:1039400000BF3846FFF714FD3846FFF78DFB3846B9
:1039500000F0C4FA384600F021FB3846FFF765FB5B
:103960003846FFF74BFA3846FFF7ECFC3846FFF7CE
:10397000E9FA3846FFF768FA384600F051FA384657
:10398000FFF746FC3846FFF79DFCFDF70BFE0021D4
:10399000021B61EB0500921B8841D2DB0E480068D8
:1039A00020B101214F20FDF76FFE10E0FDF7FAFD79
:1039B000C821B0FBF1F201FB1200642801D2012002
:1039C00000E00020804641464F20FDF75DFEBDE847
:1039D000F0810000A05400200000002010B5044633
:1039E0000122112104F2045000F068FD40F6A431D8
:1039F000884201D9012010BD0020FCE710B5044623
:103A00000122102104F2045000F058FD40F6543118
:103A1000884201D9012010BD0020FCE770B52DEDD2
:103A2000028B04460122222104F59F6000F046FD2E
:103A3000054603F0EEFB41EC180B9FED050B53EC34
:103A4000102B03F07BFC41EC100BBDEC028B70BD26
:103A50003813D38558FD513F70B52DED028B0446C8
:103A60000122212104F59F6000F028FD054603F0A6
:103A7000D0FB41EC180B9FED050B53EC102B03F022
:103A80005DFC41EC100BBDEC028B70BD2D08E57D9B
:103A90001CCD613F70B52DED028B04460122202123
:103AA00004F59F6000F00AFD054603F0B2FB41EC0F
:103AB000180B9FED050B53EC102B03F03FFC41EC72
:103AC000100BBDEC028B70BD08C72C7B12D86C3F6D
:103AD00070B52DED028B04460122232104F59F6071
:103AE00000F0ECFC054603F094FB41EC180B9FED55
:103AF000050B53EC102B03F021FC41EC100BBDEC3B
:103B0000028B70BDC616821C9430733F2DE9F041C4
:103B100004460D4616461F463B463246294604F1EA
:103B2000E000FCF757FFBDE8F0812DE9F0412DEDF5
:103B3000028B0446B0EE408AF0EE608A0D461646CF
:103B40001F4633462A463946B0EE480AF0EE680A68
:103B500004F1E00002F0EAFFBDEC028BBDE8F08169
:103B60002DE9F84304460F4615461E46DDF8208031
:103B70002B464246394604F1E000009602F0F7FF7A
:103B8000BDE8F8832DE9F84304460F4615461E4666
:103B9000DDF820802B464246394604F1E0000096CD
:103BA00002F0FDFFBDE8F883F0B52DED108B81B07C
:103BB000044604F5806090ED2A2BB0EE420AF0EE48
:103BC000620A90ED282BB0EE421AF0EE621A53EC26
:103BD000102B51EC110B03F0BDFD41EC180B09E06B
:103BE0009FED6F0B53EC102B51EC180B02F0FCFF08
:103BF00041EC180B9FED6C0B53EC102B51EC180B98
:103C000003F060FBECD309E09FED650B53EC102B48
:103C100051EC180B03F09EFD41EC180B9FED600B6F
:103C200053EC102B51EC180B03F086FCECD99FEDF4
:103C3000600B53EC102B51EC180B03F07FFB41ECA5
:103C40001A0B9FED570B53EC102B03F089F841EC46
:103C5000190B03F019FAC5B2284603F072FA41ECC9
:103C60001D0B9FED530B53EC102B51EC180B03F075
:103C700065FB41EC1F0B9FED4A0B53EC102B03F03F
:103C80006FF841EC1E0B53EC1D2B03F063FD41EC70
:103C90001C0B9FED470B53EC102B03F04FFB41EC3B
:103CA0001B0B9FED430B53EC102B03F047FB41EC38
:103CB0001A0B9FED3B0B53EC102B03F051F841EC2A
:103CC000190B03F0E1F9C6B23BA10320FDF752FA4C
:103CD00029460320FEF738FE39A10320FDF74AFAF2
:103CE00031460320FEF730FE36A10320FDF742FAED
:103CF000284603F026FA41EC1A0B9FED2D0B53ECEE
:103D0000102B51EC180B03F019FB41EC1C0B9FED31
:103D1000240B53EC102B03F023F841EC1B0B53EC5A
:103D20001A2B03F017FD41EC190BB0EE490AF0EE27
:103D3000690A0320FEF770FD23A10320FDF71AFA9C
:103D400022A0006800908DF801508DF80260204696
:103D500000F084F894F8C81600EB410140F2CC6002
:103D6000005D01EB8000C0B28DF80300002705E084
:103D70001DF807100220FEF74BFE7F1C042FF7DB17
:103D80000421684602F061FB074639460220FEF72F
:103D90003FFE204600F01CF801B0BDEC108BF0BDDA
:103DA00000000000008076400000000000000000DD
:103DB0000000000000007040646174613A2000005F
:103DC00020000000207C20000A000000BB00000052
:103DD000002180F81015704770B504460D46164650
:103DE00004F5DA6050F82500B0420CD004F5DA6032
:103DF00040F8256005EBC50204F5A36101EBC200A4
:103E0000314600F0C5F970BD10B50446204600F0FB
:103E100065F804F5806090ED280B80ED2A0B10BD4D
:103E200038B50446002108E001EBC10304F5A362A4
:103E300002EBC30000F08CFA491C0429F4DB0648AD
:103E4000006840B103200E23002200900248016860
:103E50002046FFF797FE38BD00000020014691F88C
:103E6000000770472DE9F04104460D4617461E46EF
:103E7000DDF818802A4600212046FFF7ADFF3A46BC
:103E800001212046FFF7A8FF324602212046FFF716
:103E9000A3FF424603212046FFF79EFF00BF94F890
:103EA0001805FDF7ADF90028F9D094F86005FDF785
:103EB000A7F90028F3D094F8A805FDF7A1F9002888
:103EC000EDD094F8F005FDF79BF90028E7D002212A
:103ED0002046FFF719FDBDE8F081000010B504464B
:103EE00094ED1A0B04F5806080ED280B12E004F5C8
:103EF000806090ED281BB0EE410AF0EE610A9FED64
:103F0000211B53EC112B51EC100B03F023FC04F597
:103F1000946203C204F5806090ED281BB0EE410A64
:103F2000F0EE610A9FED191B53EC112B51EC100BB5
:103F300003F002FBDBD312E004F5806090ED281B58
:103F4000B0EE410AF0EE610A9FED0E1B53EC112B0F
:103F500051EC100B02F048FE04F5946203C204F524
:103F6000806090ED281BB0EE410AF0EE610A9FEDF3
:103F7000091B53EC112B51EC100B03F0A3F9DBD30D
:103F800010BD00000000000000807640000000002E
:103F90000080664000000000008066C070B50446E6
:103FA0004648007800F0010050B9444800F0E2FFB4
:103FB00030B1FDF7F7FA424908604048AFF300809E
:103FC0000220FDF7E7F8002860D0FDF7EBFA3C4946
:103FD00008600220FEF770FB00F58075E81705EB1E
:103FE00010600012A5EB0026BB2E08D135480078E2
:103FF00028B901203349087000203349086031484E
:104000000078002841D0304801680068401C2E4AE2
:1040100010602E4840F82160104600682C4909685D
:10402000884232D10A21294802F02CFAC5B2274829
:10403000806AA8421DD12548007984F89404234859
:10404000017A40F2954001552048017B40F29640AC
:1040500001551E48017C40F2974001551B48017DE7
:104060004FF4936001551948017E40F29940015583
:1040700005E01848006840F08000164908600020FC
:10408000114908600F49087000BF00BFFDF78AFAA8
:104090000B490968401A642805D90E48006840F0A9
:1040A00040000C490860084800680B2804DB002029
:1040B000044908700449086070BD0000E454002001
:1040C000F4540020F0540020E854002088600020C0
:1040D000EC5400200000002070B5044604F1E00517
:1040E0002846FEF785FE05460A235C22164905F19F
:1040F000180000F02DFFA0F118050020C5F8B0034E
:1041000000BFA5F1E004114905F5836000F00AFA4B
:10411000A0F59F640D490C3000F004FAA0F204549D
:10412000052348220A49143000F012FFA0F5A364C9
:1041300003230C22074900F5B47000F009FFA0F535
:10414000D064204670BD00006D450008002001408D
:1041500053430008854100080278012A01D101B9C2
:104160000272017070470000024621B904480078CD
:1041700008B100207047137A002010721846F9E742
:1041800008000020002101704160017270470000AA
:1041900070B52DED028B05460C4695F8400000B138
:1041A000002400EE104AB8EEC00AF0EE080A80EED5
:1041B000208AB0EE480A00F0E5FEBDEEC00A10EE1F
:1041C000104A40F65430844200DD044617488442C9
:1041D00000DA0446201E01DB014600E04142FF22D6
:1041E00091FBF2F302FB13112976211E01DB0A4633
:1041F00000E04A421012C21700EB5262D211A0EB4B
:10420000C212AA76002C06DA287E40422876A87EC2
:10421000C0F1FF30A8760323042205F117012846D8
:1042200000F05EF8BDEC028B70BD0000ACF4FFFF47
:104230002DE9F0410446FDF7B5F90021C4E90C0170
:10424000A778E578802D09DBC7F58071C5F1FF00FF
:1042500001EB0020A0EB8000E06104E007EB05200B
:1042600000EB4000E06160796062E079A06226794D
:10427000802E02DBC6F1FF0000E0304600EE100A9F
:10428000B8EEC00ADFED040A80EE201ABDEEC10AC6
:1042900084ED080ABDE8F0810AD7A33F10B50446B3
:1042A000062301220249204600F01AF810BD000042
:1042B0008C54002010B5044694F8400040B103230C
:1042C00002220449204600F00BF8002084F8400048
:1042D00010BD00008F540020C1620370427070470F
:1042E0002DE9F0470546884616469946B01DC4B2EA
:1042F000BB2016490870687848700846847003210E
:1043000002F0A3F81149C870084680F80490002014
:1043100006E018F80020411D0C4B5A54411CC8B24D
:10432000B042F6DB611E094802F08FF8611E074AB1
:104330005054002706E0054AD15D2878FEF768FB57
:10434000781CC7B2A742F6DBBDE8F08738600020D2
:1043500070477F2141700021C161416201621021DB
:1043600081624FF0FF328263C2638021C1750022F7
:1043700002768122427600228276002103E0002329
:10438000821C5354491C1529F9DB0021C16280F8B5
:10439000401070470146002000E0401CFF28FCDD73
:1043A0007047000070B504460D4694F901000328DB
:1043B00001DD002070BD4FF0FF36002006E01749F8
:1043C0000956A94201D146B202E0401C1028F6DB92
:1043D000701C08B90020EDE7A8B2142300220421C4
:1043E000FDF722FE6068806B40F4401061688863CE
:1043F0006068806B617801EB810106FA01F1084386
:104400006168886394F9011004F1080045546078EC
:10441000401C40B260700120CCE7000078820008A8
:104420000178012905D12249096841F48071204AA7
:1044300011600178022905D11D49096841F4007114
:104440001B4A11600178032905D11949096841F413
:104450008061174A11601749096841F48031164A92
:10446000C2F804131146D1F8041341F40031114A83
:1044700011604168896841F4702142689160416827
:10448000896841F00201426891604168496821F001
:104490004071426851604168496841F480714268E6
:1044A00051604168496841F48061426851607047D9
:1044B00044380240042301400020014030B5034647
:1044C0000C46154615B11846FFF764FF93F908002E
:1044D000A04202D15868C06B30BD93F90900A042D8
:1044E00002D15868006CF7E793F90A00A04202D1A4
:1044F0005868406CF0E793F90B00A04202D158686D
:10450000806CE9E72A20E7E74168896841F001010A
:10451000426891604168896841F0804142689160D9
:104520007047000010B541600D4A914201D101224F
:1045300002700C4A914201D1022202700A4A914251
:1045400001D1032202700022427000BF04E0FF2468
:1045500000F108039C54521C042AF8DB10BD000033
:1045600000200140002101400022014010B5044616
:104570000A2308220549204600F0EAFC04460020F0
:10458000A06520656065204610BD000099450008C3
:10459000016042607047000001490022426070479C
:1045A0002883000817B582B00346D3F8B013C1EBD7
:1045B000C10202EB011203F1180101EB8200DDE9F7
:1045C0000312CDE90012016D142900D109E0016D3B
:1045D00000EBC101DDE9002414C1016D491C016536
:1045E00000BF05B010BD00002DE9F0410446D4F82D
:1045F000B003C0EBC00202EB001204F1180000EBA4
:104600008200016D042001F05FFF064600251EE0D8
:10461000D4F8B003C0EBC00101EB001104F11800A5
:1046200000EB8101D4F8B003C0EBC00202EB001232
:1046300004F1180000EB8200406D284451F83070FE
:1046400001232A4639462046FCF7C4F96D1CB542C1
:10465000DEDBD4F8B003C0EBC00101EB001104F1C4
:10466000180000EB810000230349826D2046FCF70F
:10467000B1F9BDE8F08100002983000830B501469A
:10468000D1F8B023C2EBC20303EB021301F118020D
:1046900002EB8300826D436D846D641C8465846DC0
:1046A000042C03DB8265446D641C4465056D846DD8
:1046B000AC4201DB82654365D0E91445241FA54265
:1046C00000DD436500BF30BDC0F8B01370472DE971
:1046D000F04107460C4615461E46C4F3C712132187
:1046E000384600F0A7FA6006020E1421384600F0A2
:1046F000A1FAC5F3C7121521384600F09BFA6806E7
:10470000020E1621384600F095FAC6F3C71217219B
:10471000384600F08FFA7006020E1821384600F075
:1047200089FABDE8F0812DE9F04107460C461546AF
:104730001E46C4F307221321384600F07BFAE2B28A
:104740001421384600F076FAC5F3072215213846C1
:1047500000F070FAEAB21621384600F06BFAC6F3A0
:1047600007221721384600F065FAF2B218213846C0
:1047700000F060FABDE8F08110B504460B4642EA4D
:10478000032081B201F4004020B1C1F30E00A0F576
:10479000004010BD0846FCE72DE9FF4104460D46E8
:1047A00016460A20FCF7F2FE9FED850B583484ED87
:1047B0000E0B9FED850B84ED100B256366639FED5B
:1047C000840B84ED120B9FED820B84ED140B9FED97
:1047D000800B84ED160B9FED7E0B84ED180B9FED87
:1047E0007C0B84ED1A0B9FED7A0B84ED1C0B9FED77
:1047F000780B84ED060B9FED760B84ED080B9FED97
:10480000740B84ED0A0B9FED720B04ED160B9FEDFC
:10481000700B04ED140B9FED6E0B04ED120B9FED6E
:104820006C0B04ED100B9FED6A0B04ED0E0B9FED6E
:10483000680B04ED0C0B9FED660B04ED0A0B9FED6E
:10484000640B84ED000B9FED620B84ED020B9FED7A
:10485000600B84ED040B9FED600B04ED080B9FEDE6
:104860005C0B04ED060B9FED5A0B04ED040B9FED62
:10487000580B04ED020B0021A167E16708274FF0F8
:104880001008481E00900190029003907B010822BE
:10489000206BFDF79BFAA18E88B2142300221146EB
:1048A000FDF78AF9A18E583C88B20121FCF7ECFE95
:1048B00080226B21204600F0BDF90120FCF766FE46
:1048C00001226B21204600F0B5F90120FCF75EFEC5
:1048D00000226C21204600F0ADF90120FCF756FEC5
:1048E00003221A21204600F0A5F90120FCF74EFE14
:1048F00042461B21204600F09DF90120FCF746FEB0
:104900003A461C21204600F095F90120FCF73EFEB6
:1049100003221D21204600F08DF90120FCF736FE10
:1049200030223721204600F085F90120FCF72EFEC9
:1049300004226A21204600F07DF90120FCF726FEC2
:1049400040226A21204600F075F90120FCF71EFE86
:1049500078222321204600F06DF90520FCF716FE91
:104960005DB91F48008820F038001D4908800846BE
:10497000008840F0100008801AE0012D0BD1194882
:10498000008820F03800174908800846008840F069
:10499000100008800CE0022D0AD11348008820F096
:1049A0003800114908800846008840F0100008804F
:1049B000FCF7F8FD0021C4E93601BDE8FF810000E5
:1049C000000000000000C040753F6A56DF559D4062
:1049D0000000000000000000000000000000F03FA8
:1049E0000030014000380040003C004030B52DED63
:1049F000048B87B00446062301AA3B21204600F021
:104A000070F80298C2B2019881B22046FFF7B4FE56
:104A1000054602F096FB41EC190B94ED2E1BB0EE0F
:104A2000410AF0EE610A53EC102B02F093FE41ECC8
:104A3000180B94ED241BB0EE410AF0EE610A53EC22
:104A4000102B02F08DF9C4E900010498C2B203985A
:104A500081B22046FFF790FE054602F072FB41EC62
:104A6000190B94ED301BB0EE410AF0EE610A53ECE5
:104A7000102B02F06FFE41EC180B94ED241BB0EEEE
:104A8000410AF0EE610A53EC102B02F069F9C4E917
:104A900002010698C2B2059881B22046FFF76CFE6B
:104AA000054602F04EFB41EC190B94ED321BB0EEC3
:104AB000410AF0EE610A53EC102B02F04BFE41EC80
:104AC000180B94ED241BB0EE410AF0EE610A53EC92
:104AD000102B02F045F9C4E9040107B0BDEC048BCA
:104AE00030BD2DE9F04704460E4617469846B4F807
:104AF0008C1088B20021FCF7C7FDB2B242F08001F1
:104B0000D4F88800FDF754FE002507E00021D4F812
:104B10008800FDF74DFE47F825006D1C4545F5DB87
:104B20000021D4F88800FDF743FE8146B4F88C10CC
:104B300088B20121FCF7A8FD4846BDE8F08730B5F2
:104B40002DED048B87B00446062301AA432120469D
:104B5000FFF7C7FF0298C2B2019881B22046FFF763
:104B60000BFE054602F0EDFA41EC190B94ED281B03
:104B7000B0EE410AF0EE610A53EC102B02F0EAFDB0
:104B800041EC180B94ED261BB0EE410AF0EE610AE1
:104B900053EC102B02F0E4F8C4E906010498C2B209
:104BA000039881B22046FFF7E7FD054602F0C9FAF7
:104BB00041EC190B94ED2A1BB0EE410AF0EE610AAC
:104BC00053EC102B02F0C6FD41EC180B94ED261BA4
:104BD000B0EE410AF0EE610A53EC102B02F0C0F87F
:104BE000C4E908010698C2B2059881B22046FFF7D1
:104BF000C3FD054602F0A5FA41EC190B94ED2C1B00
:104C0000B0EE410AF0EE610A53EC102B02F0A2FD67
:104C100041EC180B94ED261BB0EE410AF0EE610A50
:104C200053EC102B02F09CF8C4E90A0107B0BDEC6C
:104C3000048B30BD70B504460D4616468834A188F5
:104C400088B20021FCF720FDA9B22068FDF7B0FD75
:104C500031462068FDF7ACFDA188883C88B201216F
:104C6000FCF712FD70BD00002DE9F0472DED068B1D
:104C700088B004460D469FED940B84ED280B9FED04
:104C8000920B84ED2A0B9FED900B84ED2C0B9FED86
:104C90008E0B84ED2E0B9FED8C0B84ED300B9FED76
:104CA0008A0B84ED320B9FED8A0B84ED240B9FED74
:104CB000880B84ED260B002007468046002189469C
:104CC0008A46069007900490059002910391009007
:104CD000019000231A4619462046FFF724FD0023C1
:104CE0001A4619462046FFF7F2FC002675E02046DA
:104CF000FFF725FF2046FFF779FE3846414602F0D0
:104D000037FA94ED061BB0EE410AF0EE610A53EC5F
:104D1000102B01F069FF02F00DFE07468846484659
:104D2000514602F025FA94ED081BB0EE410AF0EE70
:104D3000610A53EC102B01F057FF02F0FBFD814696
:104D40008A46DDE9060102F013FA94ED0A1BB0EE83
:104D5000410AF0EE610A53EC102B01F045FF02F01E
:104D6000E9FDCDE90601DDE9040102F001FA94ED67
:104D7000001BB0EE410AF0EE610A53EC102B01F07B
:104D800033FF02F0D7FDCDE90401DDE9020102F0B5
:104D9000EFF994ED021BB0EE410AF0EE610A53EC1C
:104DA000102B01F021FF02F0C5FDCDE90201DDE984
:104DB000000102F0DDF994ED041BB0EE410AF0EEC3
:104DC000610A53EC102B01F00FFF02F0B3FDCDE9A7
:104DD00000010120FCF7DAFB761CAE4287DBFCF712
:104DE000E1FB00219034C4E912019FED3B0B84EDFF
:104DF000000B9FED3B0B84ED020B284602F0A1F95E
:104E000041EC180B3846414602F0B2F953EC182B2E
:104E100001F0A6FFC4E90401284602F092F941EC32
:104E2000180B4846514602F0A3F953EC182B01F039
:104E300097FFC4E90601284602F083F941EC180BFC
:104E4000DDE9060102F094F953EC182B01F088FF1C
:104E5000C4E90801284602F074F941EC180BDDE9B9
:104E6000040102F085F953EC182B01F079FFC4E935
:104E70000A01284602F065F941EC180BDDE9020150
:104E800002F076F953EC182B01F06AFFC4E90C012B
:104E9000284602F056F941EC190BDDE9000102F059
:104EA00067F953EC192B01F05BFF9FED0B0B53ECF3
:104EB000102B02F04FFCC4E90E01903C08B0BDEC91
:104EC000068BBDE8F0870000000000000000000035
:104ED000000000000000F03F000000000000C040A3
:104EE000F8C1631ADCA59C4010B5FBF71EFB10BD92
:104EF00010B500F001F810BD10B5040007D1012471
:104F000005E0FBF7DFFA006800B904488047204657
:104F1000FBF7DCFA0028F4D010BD0000DD05000826
:104F200003B401984100009850EAC12018BF042042
:104F30004A0D18BF40F0010040F2FF72B2EB515F22
:104F400008BF40F00200012808BF052002B07047EA
:104F50002DE9F0411C4617460E00804607D0054655
:104F600002E02846B0473D442046641EF9D2404640
:104F7000BDE8F081016809B100207047012101609E
:104F80000846704710EE100AC0F3C7517F39172941
:104F9000A8BF7047DFED140A002970EE200A0CDA72
:104FA000F5EEC00AF1EE10FA1ADD0028C8BF4FF086
:104FB0007E50B8BF4FF0004012E00C4A22FA01F2D6
:104FC000104208BF7047F5EEC00AF1EE10FA07DD97
:104FD000002804DD4FF4000323FA01F10844904354
:104FE00000EE100A70470000CAF24971FFFF7F000F
:104FF0002DE9F04D2DED040B2DED0E8B96B0DDE976
:105000002550279CDDF890A025F0004624F00048AC
:10501000BAF1000F14BF0121002101EB4502FC4948
:1050200053184A1093422AD3002814BF01230023A7
:1050300003EB44030B44F7498B4220D358EA0001A9
:105040009FEDF59B76D0DFF8D8B35D4503D1BAF17B
:10505000000F05D188E0BAF1000F08BF002100D091
:10506000012101EB450111F5001F08D8002814BFEC
:105070000121002101EB440111F5001F0BD99DED29
:10508000261B9DED240B16B0BDEC0E8B04B0BDE8C5
:10509000F04D00F069BE0027002DBCBFE1498845F6
:1050A00021DAE1498845A8BF02271CDAC3451ADC8A
:1050B000DE4901EB2851142908DDC1F1340220FA40
:1050C00002F101FA02F282420DD108E058B9C1F1B1
:1050D000140228FA02F101FA02F2424503D101F06A
:1050E0000101C1F1020756EA0A0124D1002C22DA9B
:1050F000002D18BF022F01D0012F0AD00220FBF78C
:1051000040FA16B0BDEC0E8B04B0BDE8F04D00F0D7
:1051100013BE0220FBF735FA00F00EFE51EC100B27
:1051200001F055FD41EC100B16B0BDEC0E8B04B038
:10513000BDE8F08D18E09FEDBEAB9FEDBF8B002862
:1051400071D1B848804522D105F1804010F580101A
:1051500008BFBAF1000F07D0B3450ADC002CA8BF86
:105160009DED260BE0DA0DE0B0EE490AF0EE690A9B
:10517000DAE7002C06DA9DED260B51EC100B01F05E
:1051800026FD6FE0AE48784490ED000BCCE7D845A3
:105190004DD1002C48DA2EB186423AD1BAF1000F37
:1051A00042D126E0BAF1000F13D00220FBF7E9F953
:1051B00000F0F6FD8DED020B9DED240B8DED000B47
:1051C00010EE900A039961F31E0003909DED020B0F
:1051D000AAE78DED02AB9DED240B1AEE901A10EEAE
:1051E000900A8DED000B61F31E0003909DED020B04
:1051F0009AE78DED028B9DED240B18EE901A10EEC0
:10520000900A8DED000B61F31E0003909DED020BE3
:105210008AE709DA9DED240B51EC190B53EC102BA6
:1052200001F09EFD1EE020E09DED240B7CE7864210
:105230001BDAB4F1804F0DD0A4F10050B0F1FF5053
:1052400013D1002D11DB9DED240B51EC100B01F05F
:10525000B9F807E09DED240B53EC102B51EC100B2B
:1052600000F0C2BC41EC100B5EE79DED240B51EC4D
:10527000100B00F0C3FDBAF1000FCDE90E0142D1D1
:105280009FED710B46B3A6F1E040B0F17F600CD00A
:105290005E4538D1002D00DAA7B3022F0CBF0120E4
:1052A0004FF0FF3001F04DFFDCE7002D01DD002C59
:1052B0000DDA002D01DD002C1FDB002D16DA002C8D
:1052C00014DB012F08BF9FED620B3FF42DAFB0EE52
:1052D0004A0AF0EE6A0A27E7022F18BF002D0CD009
:1052E000012F0AD1002DFFF61FAF06E0002DB8BF39
:1052F000002C08DA012F3FF417AFB0EE480AF0EEA9
:10530000680A11E71BE0012000EBE57050EA070195
:1053100015D0791EB0EE498AF0EE698A084308BFBD
:105320009FED4D8B4E480025804570DD4D494E4820
:10533000884514DDB0420DDB002C19DB2FE0012085
:10534000FBF71FF916B0BDEC0E8B04B0BDE8F04DB5
:1053500000F016BDB34502DC002C09DC1FE08642DC
:1053600002DA002C1BDA03E05E452BDD002C16DD93
:105370000220FBF706F900F013FD8DED020B53EC54
:105380001A2B51EC180B01F0D9FFCDE9000103995C
:10539000019861F31E0003909DED020BC4E602200C
:1053A000FBF7EFF800F00CFD10EE901A18EE900AE3
:1053B0008DED020B8DED008B61F31E0003909DEDD2
:1053C000020BB1E69DED0E0B53EC192B51EC100BBB
:1053D00002F0C0F99FED260BCDE9080153EC102B2C
:1053E0009DED080B51EC100B01F0A8FF9FED221B67
:1053F00053EC112B02F0D6F89DED081B53EC112B4A
:1054000001F09CFF9FED1E1B53EC112B3CE08CE048
:10541000FFFF1F00FFFF0F00000000000000F03F33
:105420000000F03F0000F07F0000404301FCFFFF60
:10543000000000000000F07F0000000000000000FD
:105440008631000000000000000000000000008025
:10545000000000000000F0FF000000000000F0BFAE
:105460000000E0410000F043FFFFEF3F00000000BC
:10547000000000000000D03F555555555555D53F0B
:10548000000000000000E03F02F08CF89DED080BEA
:1054900041EC1A0B53EC102B51EC100B01F04EFFAA
:1054A00053EC1A2B01F04AFF41EC1A0B9FEDFE0B57
:1054B00053EC102B9DED080B51EC100B01F03EFF4F
:1054C00041EC1B0B9FEDFA0B51EC1A0B53EC102B1C
:1054D00001F034FF41EC1A0B9FEDF70B53EC102B4E
:1054E0009DED080B51EC100B01F028FF53EC1A2B2B
:1054F00002F030F941EC1A0B51EC1B0B53EC1A2B58
:1055000001F072FB0690CDE906519DED060B53ECC0
:105510001B2B51EC100B02F01DF953EC1A2B02F06F
:1055200041F841EC100B00F0A1B90020B6F5801F46
:105530000EDA9FEDE30B53EC102B9DED0E0B51ECAF
:10554000100B01F0FBFECDE90E016FF034000E46AA
:1055500000EB2650A0F2FF37C6F31300DA4940F003
:105560007F6646F040568842D8BF002408DDD74900
:105570008142C8BF012403DC0024A6F580167F1CED
:10558000D348784400EBC4000F9690ED00CB9DED1E
:105590000E0B53EC1C2B51EC100B02F0DBF89DEDC5
:1055A0000E0B41EC1B0B53EC1C2B51EC100B01F0C0
:1055B0001BFB41EC100B51EC190B53EC102B01F0C1
:1055C000CFFB41EC1D0B51EC1B0B53EC1D2B01F0E1
:1055D000B5FE41EC1A0BBF488DED10AB7844109529
:1055E00090ED000B4FF0005040EA660000EB844065
:1055F0008DED080B00F5002009909DED080B53EC94
:105600001C2B51EC100B02F0A5F89DED0E1B53EC7A
:10561000112B01F0C7FF41EC100B53EC102B9DED4B
:10562000100B51EC100B01F089FE9DED080B41ECC5
:105630001C0B53EC102B9DED100B51EC100B01F0DB
:105640007DFE53EC1B2B01F0ADFF53EC1C2B02F045
:1056500081F853EC1D2B01F071FE41EC1C0B53EC57
:105660001A2B51EC1A0B01F069FE41EC1B0B9A4806
:105670000621B0EE4B0AF0EE6B0A784400F0E0FA37
:10568000B0EE401AF0EE601AB0EE41DAF0EE61DAF8
:1056900053EC1B2B51EC1B0B01F050FE53EC1D2B5C
:1056A00001F04CFE9DED100B41EC1B0B53EC1A2B43
:1056B00051EC100B01F098FA53EC1C2B01F03EFE5C
:1056C00053EC1B2B01F090FA9DED100B41EC1B0BE2
:1056D00053EC102B51EC100B01F030FE41EC1D0B84
:1056E0009FED7FEB53EC1E2B01F07EFA53EC1B2B4E
:1056F00001F07AFA0890CDE908519DED080B53ECC2
:105700001E2B51EC100B02F025F853EC1D2B02F070
:1057100021F853EC1B2B01F045FF9DED080B41ECEC
:105720001D0B53EC102B9DED100B51EC100B01F0E9
:1057300005FE41EC1B0B53EC1A2B51EC1D0B01F039
:10574000FDFD9DED080B41EC1A0B53EC102B51ECB9
:105750001C0B01F0F3FD53EC1A2B01F045FA41EC60
:105760001A0B51EC1B0B53EC1A2B01F03DFA0C9069
:10577000CDE90C519DED0C0B53EC1B2B51EC100B98
:1057800001F0E8FF53EC1A2B01F00CFF41EC1B0B6E
:105790009FED550B53EC102B9DED0C0B51EC100BAA
:1057A00001F0CCFD41EC1A0B9FED510B51EC1B0BA2
:1057B00053EC102B01F0C2FD41EC1B0B9FED4E0B87
:1057C00053EC102B9DED0C0B51EC100B01F0B6FDC2
:1057D00053EC1B2B01F008FA41EC100B48487844BD
:1057E00000EBC40090ED001B51EC100B53EC112B9F
:1057F00001F0FAF941EC1B0B384601F0A2FCCDE9AF
:10580000080153EC1B2B51EC1A0B01F0EDF941ECA4
:10581000100B3C48784400EBC40090ED00CB51ECF9
:10582000100B53EC1C2B01F0DFF99DED081B53EC22
:10583000112B01F0D9F90690CDE906519DED080B29
:1058400053EC102B9DED060B51EC100B01F082FF79
:1058500053EC1C2B01F07EFF53EC1A2B01F07AFF66
:1058600053EC1B2B01F09EFE41EC100B9DED261B13
:1058700053EC102B8DED001B00959DED260B51EC8C
:10588000100B01F05BFD9DED000B41EC1A0B53EC8E
:10589000102B9DED260B51EC100B01F05BFF9DEDE5
:1058A000061B53EC112B2FE0000000604715F73F5B
:1058B000FE822B654715F73F44DF5DF80BAE543E83
:1058C00000000000000040438E9803007AB60B00F1
:1058D000022D0000302D00003A2C000000000000D6
:1058E0000000000000000840000000E009C7EE3F93
:1058F000FD033ADC09C7EE3FF5015B14E02F3EBE25
:10590000C62A0000802A000001F018FD53EC1A2B73
:1059100001F06AF99DED060B41EC1A0B53EC102BCC
:105920009DED000B51EC100B01F008FDCDE90C01D1
:105930009DED0C0B51EC1A0B53EC102B01F054F9AC
:10594000CDE902010C46AA498C422FDB611A0843BB
:1059500018D19DED0C0B53EC102B9DED020B51EC6F
:10596000100B01F0F7FE41EC1B0B9FEDA30B51EC6C
:105970001A0B53EC102B01F037F953EC1B2B01F0F1
:10598000DBFD2DD20220FAF7FCFD00F009FA10EE43
:10599000901A18EE900A8DED020B8DED008B61F3DD
:1059A0001E0003909DED020BFFF7BEBB944A24F04E
:1059B0000041914214D39349214408437FF4EFAC52
:1059C0009DED0C0B53EC102B9DED020B51EC100BCD
:1059D00001F0C0FE53EC1A2B01F0AEFD7FF6DFACF8
:1059E00024F000408849894A002601EB2051824278
:1059F0002BDA481C4FF4801121FA00F02044844A2D
:105A0000C0F30A517A44A1F2FF3192ED000B814AB2
:105A10008DED080BCA4020EA0202C0F3130040F4E7
:105A20008010C1F1140120FA01F60992002CB8BFD0
:105A300076429DED080B53EC102B9DED0C0B51ECB9
:105A4000100B01F087FECDE90C019DED0C0B51EC24
:105A50001A0B53EC102B01F0C7F89FED6F0B089059
:105A6000CDE9085153EC102B9DED080B51EC100BB8
:105A700001F064FC41EC1B0B9FED690B53EC102B08
:105A80009DED080B51EC100B01F058FC9DED0C0B3B
:105A900041EC1C0B53EC102B9DED080B51EC100B43
:105AA00001F058FE53EC1A2B01F07CFD9FED5E1BBC
:105AB00053EC112B01F042FC53EC1C2B01F094F839
:105AC00041EC1A0B51EC1B0B53EC1A2B01F08CF828
:105AD000CDE902019DED020B53EC1B2B51EC100B99
