:020000040800F2
:10000000C8160020750200087D0200087F02000863
:100010008102000883020008850200080000000039
:10002000000000000000000000000000870200083F
:1000300089020008000000008B0200088D02000801
:100040008F0200088F0200088F0200088F0200084C
:100050008F0200088F0200088F0200088F0200083C
:100060008F0200088F0200088F0200088F0200082C
:100070008F0200088F0200088F0200088F0200081C
:100080008F0200088F0200088F0200088F0200080C
:100090008F0200088F0200088F0200088F020008FC
:1000A0008F0200088F0200088F0200088F020008EC
:1000B0008F0200088F0200088F0200088F020008DC
:1000C0008F0200088F0200088F020008DF08000876
:1000D000E9080008390A0008430A00084D0A000828
:1000E0008F0200088F0200088F0200088F020008AC
:1000F0008F0200088F0200088F0200088F0200089C
:100100008F0200088F02000865090008F308000844
:10011000250A00082F0A00088F020008F9090008C4
:100120008F0200088F0200088F0200088F0200086B
:100130008F0200088F0200088F0200088F0200085B
:100140008F0200088F0200088F0200088F0200084B
:100150008F0200088F0200088F020008570A00086B
:100160008F0200088F0200088F0200088F0200082B
:100170008F0200088F0200088F0200088F0200081B
:100180008F0200088F02000800F002F800F062F809
:100190000AA090E8000C82448344AAF10107DA45E2
:1001A00001D100F057F8AFF2090EBAE80F0013F0D2
:1001B000010F18BFFB1A43F00103184770910000AC
:1001C000909100000A444FF0000C10F8013B13F02E
:1001D000070408BF10F8014B1D1108BF10F8015BA0
:1001E000641E05D010F8016B641E01F8016BF9D193
:1001F00013F0080F1EBF10F8014BAD1C0C1B09D1EA
:100200006D1E58BF01F801CBFAD505E014F8016B5B
:1002100001F8016B6D1EF9D59142D6D370470000ED
:100220000023002400250026103A28BF78C1FBD8FF
:10023000520728BF30C148BF0B6070471FB508F098
:10024000FAFA9DE8030000F0EBF900F025F91FBD74
:1002500010B510BD00F050FA1146FFF7EFFF06F0A1
:1002600037FD00F08DFA03B4FFF7F2FF03BC00F096
:10027000C1FA00000948804709480047FEE7FEE749
:10028000FEE7FEE7FEE7FEE7FEE7FEE7FEE7FEE746
:1002900004480549054A064B70470000FD08000860
:1002A00089010008C8100020C8160020C8120020CC
:1002B000C812002053EA020C00F069802DE9F04BCF
:1002C0004FF00006002B1FBFB3FA83F503FA05F4C5
:1002D00024FA05F65E4012BF1643B2FA82F502FA1E
:1002E00005F4C5F120051EBF22FA05FC44EA0C0402
:1002F000203556EA044C4FEA144418BF641C4FF0F2
:1003000000084FF00009904271EB030C39D300292B
:1003100019BFB1FA81F701FA07F6B0FA80F700FACF
:1003200007F6C7F120071EBF20FA07FC46EA0C06B5
:100330002037B6FBF4FCA7EB0507103F07F01F0BB7
:10034000CBF120060CFA0BFB2CFA06F644BFB346A1
:100350000026202FA4BF5E464FF0000B5BEA060C80
:1003600008BF4FF0010B19EB0B09ABFB027C48EB0C
:100370000608C01B06FB02CC0BFB03CC71EB0C0187
:10038000C1E70B46024641464846BDE8F08B13B52F
:100390004FF000004FF00001AFF30080BDE81C40BB
:1003A000704710B54C1084EA530404D54042C1F1A3
:1003B000000138BF491E1B4204D55242C3F100035D
:1003C00038BF5B1EFFF776FF14F0804F04D0404229
:1003D000C1F1000138BF491E14F0004F04D0524251
:1003E000C3F1000338BF5B1E10BD10B5203AC0F04A
:1003F0000B80B1E81850203AA0E81850B1E8185026
:10040000A0E81850BFF4F5AF5FEA027C24BFB1E862
:100410001850A0E8185044BF18C918C0BDE81040D3
:100420005FEA827C24BF51F8043B40F8043B08BFDC
:100430007047D20728BF31F8023B48BF11F8012BA3
:1004400028BF20F8023B48BF00F8012B70474FF04F
:1004500000020429C0F0128010F0030C00F0958017
:10046000CCF1040CBCF1020F18BF00F8012BA8BF9F
:1004700020F8022BA1EB0C0100F087B85FEAC17CE9
:1004800024BF00F8012B00F8012B48BF00F8012B16
:10049000704770477047704770B5064C7C44064DF6
:1004A0007D4403E0206820448047241DAC42F9D1FC
:1004B00070BD0000AC8E0000AC8E0000004870479C
:1004C0009810002070B5064600F08AF8056806F11D
:1004D0000B0020F00704B4429CBF002070BD2B46E7
:1004E0006A68BAB11068A04210D304F108018842CA
:1004F0003CBF5068586007D35168101941601168BB
:10050000091B016058601460101D70BD13465268CD
:10051000002AE7D12146284600F06EF80028DED1F7
:1005200070BD70B50446051F00F05AF80068002C35
:1005300014BF446870BD002C18BFAC423CBF2046BD
:100540006468F8D301680A18AA4218BF456003D14D
:100550002A6805461144016028684119A1421CBF60
:100560006C6070BD6168696021680844286070BD76
:1005700010B500F039F8006810BD10B5044600F061
:1005800033F8046010BD4FF0000200B513469446E6
:100590009646203922BFA0E80C50A0E80C50B1F1DB
:1005A0002001BFF4F7AF090728BFA0E80C5048BFEF
:1005B0000CC05DF804EB890028BF40F8042B08BF8D
:1005C000704748BF20F8022B11F0804F18BF00F889
:1005D000012B704700F05AB80048704764100020A3
:1005E000004870476C1000200048704764100020DD
:1005F000704770477047704738B504460A46002078
:100600006946AFF30080002808BF38BD0246009954
:10061000204600F09BF8012038BD012000F0C4B84E
:10062000F8B5AFF30080054600200C46102000BF4F
:100630000646A819A0420DD9324669460020AFF3FC
:100640000080070008BF00F0AFF80098A04218BF74
:100650000546C419FFF7C4FF05600746F01D20F0EA
:1006600007004619284600F00AF8B44208BFF8BD52
:10067000A21B31463868BDE8F84000F067B8002199
:100680000160C0E9011070471020704710B500F0FC
:100690000EF8016919B100220261884701E0806803
:1006A000804700F076F8000010B500F072F870B5E1
:1006B00000F048F804680546A4B92020FFF702FFBF
:1006C000040011D0094900202C60C4E90001084948
:1006D000A1602073206160610649A06109B100F04A
:1006E0006AF8E061204670BD00F053F80000000099
:1006F000A9060008000000007546FFF76DFFAE4632
:1007000005006946534620F00700854618B020B51D
:10071000FFF7BEFDBDE820404FF000064FF0000798
:100720004FF000084FF0000B21F00701AC46ACE899
:10073000C009ACE8C009ACE8C009ACE8C0098D4606
:100740007047000000487047A01000200346406832
:100750008C46002818BF88423CBF03464068F8D347
:1007600018681844884207D00CF1030020F00700F5
:10077000001D411A521A0146081D0A60FFF7D1BE3A
:1007800010B50446AFF300802046BDE81040FFF7E7
:100790006ABD10B5002000F039F8FFF759FDBDE83B
:1007A0001040012000F026B810B500F037F8BDE881
:1007B000104000F026B810B58820FFF783FE00280F
:1007C00001D00021017010BD802902D808B1017844
:1007D00009B100207047012100F8081B704718B1CB
:1007E00000F10802914201D0002070470021017001
:1007F0007047000001491820ABBEFEE7260002004A
:100800007047002801D0FFF7F5BF704710B500F022
:1008100047F8BDE81040FFF7F4BF000010B501280D
:1008200005D0002103A000F021F8012010BD09A18E
:10083000F8E7000053494752544D454D3A204F7553
:1008400074206F662068656170206D656D6F7279C8
:10085000000000003A2048656170206D656D6F7280
:100860007920636F727275707465640070B50546A7
:100870000C460A2000E06D1C00F02AF835B12878FB
:100880000028F8D102E0641C00F022F814B12078AE
:100890000028F8D1BDE870400A2000F019B8000027
:1008A00010B5002102A0FFF7E1FF012010BD0000FC
:1008B000534947414252543A2041626E6F726D6112
:1008C0006C207465726D696E6174696F6E000000F2
:1008D00008B569468DF800000320ABBE08BD00B521
:1008E000002000F053FA00BD00B5012000F04EFAE0
:1008F00000BD00B5022000F049FA00BD10B5154852
:10090000006840F47000134908601348006840F024
:1009100001001149086000200F49083108600E48A5
:1009200000680E4908400C4908600D48091D086020
:10093000081F006820F48020091F08600020064975
:100940000C31086000F0B6F84FF0006001498039C2
:10095000086010BD88ED00E000380240FFFFF6FEA1
:100960001030002470B51F48D0E90030591C40F108
:1009700000001C4A0C46C2E90010014640F68812ED
:1009800000232046FFF796FC16480CC00838D0E933
:10099000001000235940584001430DD11248D0E9BE
:1009A00000305A1C40F100000F49C1E9002001222B
:1009B0000D210E4800F08CFA0A4806C80C48006861
:1009C000414082EAE072114304D100220D21074820
:1009D00000F07EFA0748008820F0010005490880F1
:1009E00070BD000008000020180000200010024028
:1009F00000000020100C00400848008800F00100B2
:100A000050B10648008820F00100044908800448DD
:100A10000068401C02490860704700001014004044
:100A2000A804002000B5042000F0DCF900BD00B5EA
:100A3000052000F0D7F900BD00B5002000F0D2F984
:100A400000BD00B5022000F0CDF900BD00B50320C7
:100A500000F0C8F900BD00B5062000F0C3F900BDE4
:100A600010B500F0B7F903200149086010BD00007F
:100A7000280000202DE9F04781460E46174698468B
:100A8000C8EBC8054FF0000A10E050460AF1010A11
:100A9000345C04B90BE0202C01D16D1D06E03B460F
:100AA0002A462146484600F06DFE0544EDE700BFAA
:100AB000BDE8F0870CB50020019000903448006834
:100AC00040F480303249086000BF3148006800F4CB
:100AD000003000900198401C0190009818B90198CE
:100AE000B0F5A04FF1D12A48006800F4003010B1F1
:100AF0000120009001E0002000900098012846D1DC
:100B000023484030006840F080502149403108605F
:100B10002048006840F440401E4908601C480830E6
:100B200000681B49083108600846006840F400402E
:100B300008600846006840F4A05008601648091F85
:100B40000860081F006840F08070091F086000BF3F
:100B50000F48006800F000700028F9D040F20570DE
:100B60000E4908600A480830006820F00300084970
:100B7000083108600846006840F00200086000BFC5
:100B800003480830006800F00C000828F8D10CBDBC
:100B9000003802400070004019544007003C0240F9
:100BA00010B5142300220521452000F0E9FA142392
:100BB00000220521442000F0E3FA1423002205213D
:100BC000432000F0DDFA10BD10B50146072911D20F
:100BD000DFE801F00E100406080A0C0021480BE0C3
:100BE000214809E0214807E0214805E0214803E0C9
:100BF000214801E0204800BF00BF204A525C204B42
:100C00005B5C9A4204D1828922F08002828110BD0D
:100C100000BF028802F08002002AFAD0194A02EBD3
:100C20004112174B5B5CD25C8280154B5B5C5A1C9B
:100C3000D31702EBD3635B11A2EB4313104C635445
:100C40000E4A525C23465B5C9A4204D1828922F0B0
:100C50008002828103E0828942F08002828100BFAB
:100C6000D5E700000044004000480040004C004030
:100C7000005000400014014000100140BA04002060
:100C8000C1040020840F0020704770B506460C4652
:100C9000002506E028466A1CD5B2215C304601F0EA
:100CA000DBF8605D0028F5D170BD00000146074803
:100CB000405C2030064B5B5CC01AC2B2D01702EB1E
:100CC000D0604011A2EB4010C0B27047AC040020CD
:100CD000B3040020704710B52B2001F06DF810BD53
:100CE00002480068401E0149086070472C0000203F
:100CF00002480068401C0149086070472C00002031
:100D00000146A1F12100704700F01F02012191402E
:100D10004209920002F1E022C2F80011704700F08F
:100D20001F02012191404209920002F1E022C2F823
:100D30000011704710B50321014802F092FC10BD6C
:100D4000A005002010B500200349086000210348D9
:100D500002F087FC10BD000028000020A005002044
:100D600010B50020034908600121034802F079FC16
:100D700010BD000028000020A005002000B502489A
:100D800001F068FC00BD0000C8040020014621B14C
:100D9000012904D0022906D103E0094803E00948EB
:100DA00001E0094800BF00BF028902F0010232B130
:100DB0008289064B23F811200122054B5A547047B3
:100DC0000030014000380040003C0040A2000020FC
:100DD000A600002010B50221014802F042FC10BD1F
:100DE000A005002030B50546072D11D2DFE805F03B
:100DF0000E100406080A0C00204C0BE0204C09E001
:100E0000204C07E0204C05E0204C03E0204C01E0A2
:100E10001F4C00BF00BF208800F0200030B32088A6
:100E200000F00100A8B9208800F0020088B9A0886D
:100E3000184901EB4511184A525D88541649495D1D
:100E4000481CC11700EBD1614911A0EB4111124AB6
:100E50005155208820F002002080208820F00100D9
:100E60002080208820F02000208006E0208800F0EC
:100E7000800010B12846FFF7A7FE30BD00440040B7
:100E800000480040004C0040005000400014014069
:100E900000100140A40E0020AC04002000B5024860
:100EA00001F0DCFB00BD0000C804002000B50146D5
:100EB00000F008F8024600BF00F004F8801A8842EB
:100EC000FAD300BD0148006870470000A804002064
:100ED00010B52AB1436901248C402343436104E0E7
:100EE000436901248C40A343436110BD70B504469F
:100EF0000E46102C0CDA2546E01704EB107000119A
:100F0000A4EB001081B232461E48FFF7E1FF38E043
:100F1000202C0CDA2546E01704EB10700011A4EB2E
:100F2000001081B232461848FFF7D2FF29E0302C7A
:100F30000CDA2546E01704EB10700011A4EB00104A
:100F400081B232461148FFF7C3FF1AE0402C0CDA99
:100F50002546E01704EB10700011A4EB001081B2DD
:100F600032460B48FFF7B4FF0BE02546E01704EBD1
:100F700010700011A4EB001081B232460548FFF753
:100F8000A7FF70BD000002400004024000080240BC
:100F9000000C0240001002402DE9F0472DED048BBB
:100FA00004460E4617469846DDF830906C48844259
:100FB00006D16C48006840F001006A49086026E0EC
:100FC0006948844206D16748006840F002006549DC
:100FD00008601CE06548844206D16248006840F021
:100FE00004006049086012E06148844206D15D480F
:100FF000006840F008005B49086008E05D488442F2
:1010000005D15848006840F0100056490860304645
:1010100007F05BF841EC190BB0EE491AF0EE691AD3
:101020009FED550B04F038FFB0EE408AF0EE608A79
:1010300051EC180B06F0B4FF0546062F49D2DFE845
:1010400007F003101D2A37422068284320602068DB
:1010500020EA4500206060680121B140884360605B
:1010600038E0206828432060206820EA450020609E
:1010700060680121B140084360602BE02068A8430C
:101080002060206840EA4500206060680121B1408E
:10109000884360601EE02068A8432060206840EA22
:1010A0004500206060680121B1408843606011E024
:1010B000206805EB450108432060E06805EB450129
:1010C0008843E06006E0206805EB45018843206026
:1010D00000E000BF00BFB8F1000F17D0042F15D0FB
:1010E000B8F1010F07D1E0682843E060E06820EA2A
:1010F0004500E0600FE0B8F1020F0CD1E068A843B2
:10110000E060E06840EA4500E06004E0E06805EB8C
:1011100045018843E060A06805EB45010843A060F5
:10112000B9F1140F18D03546072E00DD083DF11730
:1011300006EB5171CA1004F1200151F82210AA00E7
:1011400009FA02F211433046F21706EB5272D3103D
:1011500004F1200242F82310BDEC048BBDE8F087B7
:101160000000024030380240000402400008024003
:10117000000C02400010024000000000000010407F
:101180002DE9F84304460F4690461D46102C0EDA12
:101190002646E01704EB10700011A4EB001081B29A
:1011A00043463A4623480095FFF7F6FE40E0202CE0
:1011B0000EDA2646E01704EB10700011A4EB0010C5
:1011C00081B243463A461C480095FFF7E5FE2FE002
:1011D000302C0EDA2646E01704EB10700011A4EB59
:1011E000001081B243463A4614480095FFF7D4FEFA
:1011F0001EE0402C0EDA2646E01704EB10700011BA
:10120000A4EB001081B243463A460D480095FFF723
:10121000C3FE0DE02646E01704EB10700011A4EBAE
:10122000001081B243463A4606480095FFF7B4FEE7
:10123000BDE8F883000002400004024000080240BC
:10124000000C0240001002405148006820F00300EA
:101250004F49086008460068086000BF4C480068B5
:1012600000F00C000028F9D149480838006820F047
:10127000807047490839086000BF45480838006851
:1012800000F000700028F8D141480838006840F4A8
:1012900080303F490839086000BF3D480838006881
:1012A00000F400300028F8D03948006820F0F00041
:1012B000374908600846006820F4E0500860084696
:1012C000006820F46040086008460068086008462E
:1012D000006840F4A05008600846006840F40040F0
:1012E0000860081F006820F07060091F0860084649
:1012F000006820F4403008600846006847F6C07176
:1013000088432349091F08600846006820F03F0011
:1013100008600846006820F48000086008460068FD
:1013200040F4800008600846006840F08060086073
:101330000846006840F0040008600846006840F471
:10134000285008600846006820F440300860081FF4
:10135000006840F08070091F086000BF0C48083822
:10136000006800F000700028F8D00948006820F0FC
:101370000300074908600846006840F00200086062
:1013800000BF0348006800F00C000228F9D0704745
:10139000083802402DE9FF4F81B081460D46934643
:1013A000DDE90EA6DDE9107800208B4921F819004F
:1013B0008A4901F8090014200090B9F1000F06D005
:1013C000B9F1010F22D0B9F1020F61D13FE0844C95
:1013D0008448006840F48050824908600AF10100A6
:1013E00060B9701C50B9781C40B908F1010028B9E7
:1013F0004FF0040A052606274FF007080520009045
:10140000012D02D12320FFF77FFC41E0764C754887
:10141000001F006840F480407249091F08600AF10B
:10142000010060B9701C50B9781C40B908F1010086
:1014300028B94FF01C0A1D261E274FF01F08052053
:101440000090012D02D12420FFF75EFC20E0674CC4
:101450006448001F006840F400406249091F0860AA
:101460000AF1010060B9701C50B9781C40B908F14C
:10147000010028B94FF00F0A2A262B274FF02C081D
:1014800006200090012D02D13320FFF73DFC00BF64
:1014900000BF002D56D1208820F03800208004980D
:1014A00020281ED006DC04280CD008280FD01028D5
:1014B0002BD111E0402819D080281CD0B0F5807FB6
:1014C00023D11DE0208840F0080020801DE0208806
:1014D00040F01000208018E0208840F018002080A4
:1014E00013E0208840F0200020800EE0208840F0AB
:1014F0002800208009E0208840F03000208004E0AF
:10150000208840F03800208000BF00BF208840F4D1
:1015100000702080208840F480702080B0B20022CB
:101520000221009BFFF72CFEB8B200220221009B93
:10153000FFF726FE1FFA88F000220221009BFFF72A
:101540001FFE19E0B0B200220221009BFFF718FE37
:10155000B8B200220221009BFFF712FE1FFA88F0AA
:1015600000220221009BFFF70BFE1FFA8AF00022E7
:101570000221009BFFF704FEBBF1100F04D120886D
:1015800040F40060208003E0208820F40060208088
:10159000208820F002002080208820F00100208098
:1015A000208820F080002080012D03D1A08840F009
:1015B0004000A08025B9208840F00400208003E08E
:1015C000208820F004002080208840F04000208007
:1015D00005B0BDE8F08F0000A2000020A6000020AA
:1015E000003001404438024000380040003C0040D8
:1015F0002DE9F84304460F4690461D46102C0EDA9E
:101600002646E01704EB10700011A4EB001081B225
:1016100043463A4623480095FFF7BEFC40E0202CA5
:101620000EDA2646E01704EB10700011A4EB001050
:1016300081B243463A461C480095FFF7ADFC2FE0C7
:10164000302C0EDA2646E01704EB10700011A4EBE4
:10165000001081B243463A4614480095FFF79CFCBF
:101660001EE0402C0EDA2646E01704EB1070001145
:10167000A4EB001081B243463A460D480095FFF7AF
:101680008BFC0DE02646E01704EB10700011A4EB74
:10169000001081B243463A4606480095FFF77CFCAD
:1016A000BDE8F88300000240000402400008024048
:1016B000000C0240001002400246106901238B40DA
:1016C000184008B1012070470020FCE72DE9F047E1
:1016D0000446102C0CDA2546E01704EB10700011BC
:1016E000A4EB001081B21D48FFF7E6FFBDE8F087CC
:1016F000202C0BDA2646E01704EB10700011A4EB47
:10170000001081B21648FFF7D7FFEFE7302C0BDA55
:101710002746E01704EB10700011A4EB001081B213
:101720001048FFF7C9FFE1E7402C0BDAA046E017AD
:1017300004EB10700011A4EB001081B20A48FFF70F
:10174000BBFFD3E7A146E01704EB10700011A4EB38
:10175000001081B20548FFF7AFFFC7E70000024065
:101760000004024000080240000C02400010024049
:1017700010B5FFF72FFB04200149086010BD0000E1
:10178000280000202DE9FF4F85B08A4690461D466F
:1017900005EB450000EBC505ED1C5046FFF7B0FA20
:1017A00007462D4800EBC700D0F804902A49781C62
:1017B00001EBC000406804904C4643E0264850F8D6
:1017C00037B0BBF1080F18DCCBF10800C6B211E04E
:1017D0002248005D304100F001032819A0EB090008
:1017E00002B208F10800801B01B2059800F07EFCEF
:1017F000701CC6B2082EEBDB23E008F1100003904A
:10180000A4EB090005EB50000290601C019000263B
:1018100013E00198A0EBE600104A105C06F0070206
:10182000104100F001030398801B01B2029802B23C
:10183000059800F05BFC701CC6B2102EE9DB641C3E
:1018400000BF641C04988442B8D3034850F83700A2
:10185000801C09B0BDE8F08F808E0008008A000867
:1018600010B51423002211464F20FFF789FC1423E2
:10187000002211463020FFF783FC1423002211467A
:101880002B20FFF77DFC00212B20FFF72FFB0021F1
:101890003020FFF72BFB00214F20FFF727FB10BD67
:1018A0002DE9FF4F2DED020B2DED028B81B005468A
:1018B0000F46B0EE408A1E46DDF848900020DA4917
:1018C0004855DA494855DA494855DA49485500BF7C
:1018D00009E00021D84A02EB45121154D74A02EB25
:1018E00045121154401C2028F3DB072D05D2DFE8F8
:1018F00005F02B044663809DBA00D14CD1480068A6
:1019000040F01000CF49086007200123022208217F
:101910000090CD48FFF740FB072001230222092158
:101920000090C948FFF738FB0720012302220A2153
:101930000090C548FFF730FB208A40F40060208209
:101940002520FFF7ECF9A9E0BD4CBE48006840F047
:101950001000BC49086007200123022209210090E1
:10196000B948FFF719FB0720012302220A21009042
:10197000B548FFF711FB2520FFF7D1F98EE0B34CF6
:10198000B048001F006840F40030AE49091F0860ED
:1019900007200123022211460090AB48FFF7FCFA12
:1019A00007200123022203210090A748FFF7F4FA41
:1019B0002620FFF7B4F971E0A54CA248001F00688B
:1019C00040F480209F49091F08600720012302225C
:1019D0000A2100909F48FFF7DFFA07200123022227
:1019E0000B2100909B48FFF7D7FA2720FFF797F9C4
:1019F00054E0994C9348001F006840F4002091493E
:101A0000091F0860082001230222002100908E484F
:101A1000FFF7C2FA082001230222194600908A48E3
:101A2000FFF7BAFA3420FFF77AF937E08B4C854894
:101A3000001F006840F480108249091F08600820D8
:101A4000012302220C2100908548FFF7A5FA082007
:101A500001230222114600908248FFF79DFA3520AB
:101A6000FFF75DF91AE0804C7648006840F02000EE
:101A7000744908600820012302220621009078485A
:101A8000FFF78AFA082001230222072100907448F8
:101A9000FFF782FA4720FFF742F900BF00BFA08995
:101AA00040F40050A0810798092804D1A08940F48F
:101AB0008050A08103E0A08920F48050A081B2EE84
:101AC000040A28EE000ABDEEC00A10EE108AB8F132
:101AD000050F0ED0B8F10A0F06D0B8F10F0F1AD0CB
:101AE000B8F1140F1CD10DE0208A20F44050208260
:101AF00016E0208A20F400502082208A40F4805092
:101B000020820DE0208A40F400502082208A20F4B8
:101B10008050208204E0208A40F44050208200BFA0
:101B200000BF8EB1A08940F48060A081012E04D155
:101B3000A08920F40070A0810AE0022E08D1A089BB
:101B400040F40070A08103E0A08920F48060A081AF
:101B5000A08920F40040A0814FF0000AD346B9F1DB
:101B60002A0F21D1B7F5165F09D0B7F5164F0BD064
:101B7000B7F5614F0DD0B7F5E13F14D10EE040F25B
:101B8000111A4FF0070B0EE04FF0440A4FF0060B0E
:101B900009E04FF02D0A4FF0090B04E04FF0160A50
:101BA0004FF00D0B00BF24E0B9F1540F21D1B7F570
:101BB000165F09D0B7F5164F0BD0B7F5614F0DD0B2
:101BC000B7F5E13F14D10EE040F2222A4FF00E0BA0
:101BD0000EE04FF0880A4FF00C0B09E04FF05B0A63
:101BE0004FF0020B04E04FF02D0A4FF0090B00BF3D
:101BF00000BF002020810BEB0A102081A08940F05B
:101C00000400A081A08940F00800A081A08940F0D4
:101C10002000A081A08940F08000A08101B0BDEC2F
:101C2000028B06B0BDE8F08FC1040020BA0400208A
:101C3000B3040020AC040020A40E0020840F002078
:101C400000100140443802400000024000440040BF
:101C50000048004000040240004C0040005000409A
:101C600000080240000C02400014014010B501467B
:101C70000D48405C0D4A525C904201D1002010BDDD
:101C80000B4800EB4110084B5B5CC25C064B5B5C95
:101C9000581CC31700EBD3635B11A0EB4313024C3A
:101CA00063541046EBE70000B3040020AC040020AE
:101CB000A40E002000B5FFF7C7FA1E48006840F0E8
:101CC00020001C49086053201B4908804FF47A709B
:101CD000091D086018482838008840F0800016491F
:101CE000283908800846008820F0600008800846EF
:101CF000008820F0100008800F481C38008840F051
:101D000001000D491C390880372000F01F02012115
:101D100091404209920002F1E022C2F8001100BF96
:101D200005482838008840F0010003492839088018
:101D300000BD0000403802402814004002460B4617
:101D400022B1012A04D0022A06D103E00A4903E0A5
:101D50000A4901E00A4900BF00BF00BF088900F03E
:101D600002000028FAD08B8100BF088900F0010032
:101D70000028FAD0888970470030014000380040C0
:101D8000003C004010B5FFF725F80220014908602B
:101D900010BD00002800002010B5FFF71BF801203F
:101DA0000149086010BD000028000020426901239D
:101DB0008B405A404261704770B50446102C0BDAD4
:101DC0002546E01704EB10700011A4EB001081B25F
:101DD0001C48FFF7EBFF34E0202C0BDA2546E01718
:101DE00004EB10700011A4EB001081B21648FFF74D
:101DF000DDFF26E0302C0BDA2546E01704EB1070EF
:101E00000011A4EB001081B21048FFF7CFFF18E0DB
:101E1000402C0BDA2546E01704EB10700011A4EB00
:101E2000001081B20A48FFF7C1FF0AE02546E0171B
:101E300004EB10700011A4EB001081B20548FFF70D
:101E4000B5FF70BD000002400004024000080240DF
:101E5000000C02400010024030B504460D460A480E
:101E600000EB44100949095D45540849095D481CC7
:101E7000C11700EBD1614911A0EB4111034A115583
:101E80002046FEF7A1FE30BD840F0020BA040020DA
:101E900070B504460D4694F908002946FFF74EFF39
:101EA00070BD70B504460D46E0890121FFF71EF8AC
:101EB00060890021FFF71AF8E0890021FFF716F882
:101EC00029462046FFF7E4FFE0890121FFF70EF8DD
:101ED00070BD7FB504460D46164668B2607100209D
:101EE00020716089142300221146FFF749F9E08927
:101EF000142300221146FFF743F9A08A4FF0FF3365
:101F0000618AE289CDE901130092039094F90800F7
:101F100008231A460021FFF73DFAA0891423002266
:101F20001146FFF72DF9A0890121FEF7DFFF0120FF
:101F3000FEF7BCFFA0890021FEF7D8FF0A20FEF7BC
:101F4000B5FFA0890121FEF7D1FFAE212046FFF7A2
:101F5000A8FFD5212046FFF7A4FF80212046FFF7E8
:101F6000A0FFA8212046FFF79CFF3F212046FFF756
:101F700098FFD3212046FFF794FF00212046FFF76A
:101F800090FF40212046FFF78CFF8D212046FFF770
:101F900088FF012D04D110212046FFF782FF03E0C6
:101FA00014212046FFF77DFF20212046FFF779FF0F
:101FB00000212046FFF775FFA1212046FFF771FFA2
:101FC000C8212046FFF76DFFDA212046FFF769FFA1
:101FD00012212046FFF765FF81212046FFF761FFB0
:101FE000012D04D19F212046FFF75BFF03E0CF21A5
:101FF0002046FFF756FFD9212046FFF752FF012D5B
:1020000004D122212046FFF74CFF03E0F1212046B6
:10201000FFF747FFDB212046FFF743FF4021204623
:10202000FFF73FFFA4212046FFF73BFFA6212046F4
:10203000FFF737FF2E212046FFF733FFAF21204661
:10204000FFF72FFF7FBD000010B504464FF48061FD
:102050000148FEF7FCF910BDA800002070B5054648
:102060000C4624B1A7212846FFF71BFF03E0A62159
:102070002846FFF716FF70BD70B5044621212046A3
:10208000FFF70FFF00212046FFF70BFF7F212046BF
:10209000FFF707FF22212046FFF703FF002120461C
:1020A000FFF7FFFE07212046FFF7FBFEE089012135
:1020B000FEF71CFF60890121FEF718FFE08900216F
:1020C000FEF714FF002506E00748415D2046FFF7B4
:1020D000DFFE681C85B2B5F5806FF5DBE089012174
:1020E000FEF704FF70BD0000A8000020F0B5044614
:1020F000002905DB802903DA002A01DB402A00DB06
:10210000F0BD2079012804D0022809D0032815D178
:102110000DE0084611460246C1F17F0001B20EE013
:10212000C1F17F0001B2C2F13F0002B207E00846F0
:1021300011460246C2F13F0002B200E000BF00BFFC
:10214000E3B1012B02D0022B47D12EE0D51702EBD1
:102150005575ED1001EBC515214E755D02F00707B1
:102160000126BE403543EEB21046D51702EB557539
:10217000ED1001EBC5151A4F7E552EE0D51702EB79
:102180005575ED1001EBC515154E755D02F007078D
:102190000126BE40B5431046D61702EB5676F61020
:1021A00001EBC6160E4FBD5517E0D51702EB55755E
:1021B000ED1001EBC5150A4E755D02F0070701260B
:1021C000BE407540EEB21046D51702EB5575ED10C6
:1021D00001EBC515024F7E5500BF00BF00BF8FE762
:1021E000A80000202DE9F05F04460D4616461F4664
:1021F000DDE90CABDDE90A980E48206068B2207278
:102200006681A781A4F80E90A4F812A0A4F814B0D7
:102210000120A075A4F81080142300221146404626
:10222000FEF7AEFF01214046FEF760FE2046BDE806
:10223000F09F0000209300080149016070470000F2
:102240002093000870B5044600214A20FEF74EFE98
:1022500094F809180020FFF771FDC5B245B194F854
:1022600008186A1ED0B205F053F884F8080808E090
:102270000648006840F0200004490860002084F807
:10228000080801214A20FEF731FE70BD2000002021
:1022900070B504463B48007800F0010050B9394859
:1022A00003F09CF930B1FEF70DFE37490860354860
:1022B000AFF30080FEF706FE33490968401AFA289A
:1022C00000DA70BD94F8100910B901202F49087088
:1022D00094F81009E0B12D480078C8B104F1D8068F
:1022E0002B21D6F8D006484306F1180101EB8005F2
:1022F000D5E92912114405EBC1014868804700BFA8
:1023000000BFFEF7DFFD2049086000201F4908706C
:1023100040F61C10005D30B304F1D8012B23D1F836
:10232000D0265A4301F1180303EB820050F8A82F7E
:10233000521E026050F8A829002A07DAA430426829
:10234000521C42600268521E40F8A429D0F8A42012
:10235000002A02DA0022C0F8A42000BF00BFFEF766
:10236000B1FD0949086040F62810005D38B104F15C
:10237000D80001F049F9FEF7A5FD0349086000BF48
:102380009FE70000980000209C000020A000002093
:1023900070B52DED088B0446204600F085FBB0EEAD
:1023A000408AF0EE608A204600F09CFBB0EE409A36
:1023B000F0EE609A204600F0B3FBB0EE40AAF0EEDB
:1023C00060AA204600F0CAFBB0EE40BAF0EE60BA58
:1023D00004F5006080ED4E8B53EC182B51EC190B7B
:1023E00006F0CEF804F63812C2E9020153EC192BBC
:1023F00051EC1A0B06F0C4F804F63812C2E90401D5
:1024000053EC1A2B51EC1B0B06F0BAF804F63812F9
:10241000C2E90601002519E004F6381000EBC500FA
:1024200090ED001BB0EE410AF0EE610A9FED0A1B31
:1024300053EC112B51EC100B05F05AFE05D2084855
:10244000006840F48070064908606D1C042DE3DBD1
:10245000BDEC088B70BD00006666666666660A4065
:102460002000002070B504464520FFF72FF90546EF
:10247000294604F5116000F0E7FD4420FFF726F936
:102480000546294604F61C1000F0DEFD4320FFF748
:102490001DF90546294604F6281000F0D5FD70BD4B
:1024A0002DE9F04F91B004460026B6E004F5016036
:1024B00000EB861140226846FDF797FFA5E09DF8E6
:1024C0000000FFF7D3FB00F58075E81705EB1060FF
:1024D0000012A5EB0027BB2F08D15248007828B97D
:1024E00001205049087000204F4908604D4800788D
:1024F00000287DD04C4801680068401C4A4A1060A2
:102500004A4840F8217010460068032801D1484825
:102510000760454800684649096888426DD14348CC
:1025200090F80490D0F81080032104F0D6FE00F05B
:10253000FF0A3F480068411E3C4804F0CEFE00F010
:10254000FF0B3A48C068504507D139480068401E23
:10255000364951F8200058450BD03648006840F005
:1025600002003449086000202F49086011B0BDE81E
:10257000F08F002536E004F5016000EB851040780F
:1025800048452ED1B8F1A60F19D129480068811FFE
:10259000002011E0254B821D13F8223004F5016262
:1025A00002EB8512921CDFF884C000F1050E5CF886
:1025B0002EC002F80C30801C8842EBDB00BFB8F163
:1025C000E30F02D0B8F1E60F05D11A48006840F0D9
:1025D00004001849086004F5016101EB851000F062
:1025E0009BFD6D1C042DC6DB00200E49087001E028
:1025F0000AE002E00C49086000BF0B4800681028A0
:1026000002DB00200749087000BF9DF80000FEF7BC
:102610004DFB00287FF453AF761C042EFFF646AF27
:1026200000BFA3E74000002038000020400E00203B
:102630003C0000202000002010B50446204600F099
:1026400021FAC4F85809204600F025FA40F65C113A
:10265000085110BD022180F809187047012180F847
:102660000918704770B58AB00446FFF7F9F8FEF70D
:1026700097FA1423002211461C20FEF781FD012148
:102680001C20FEF733FC1E20FEF710FC2A2000233E
:10269000B7EE000A08224FF4E13100900420FFF762
:1026A000FFF82A200023B7EE000A08224FF4E13198
:1026B00000900520FFF7F4F854200023B7EE000A3D
:1026C00008224FF4E13100901846FFF7E9F8542052
:1026D0000023B7EE000A08224FF4E13100900620F3
:1026E000FFF7DEF82A2000239FEDB10A08224FF4FD
:1026F000E13100900320FFF7D3F82A200023B7EE42
:10270000000A08224FF4E13100900220FFF7C8F8D8
:102710004FF49670FEF7CAFB4FF0FF310091019124
:10272000029108231A46039100210846FEF732FE63
:102730001423002211464A20FEF722FD1423002212
:1027400011464B20FEF71CFD01214A20FEF7CEFB6F
:1027500001214B20FEF7CAFB204600F06BFA042350
:102760000122002104F5016000F018FD032120463C
:1027700000F028F905230322642104F5056000F028
:102780000DFD0321204600F01DF900230222C8217F
:1027900004F5096000F002FD0321204600F012F963
:1027A000062304224FF4967104F50D6000F0F6FC48
:1027B0000321204600F006F900260BE004F5016134
:1027C00001EB8610002100F05BFC0521204600F0A3
:1027D000F9F8761C042EF1DB9FED760B04F5806092
:1027E00080EDF80B9FED730B80EDFA0BBB2084F8A6
:1027F000090815202A2116223423CDE90032CDE91B
:10280000021036233522022104A8FFF7EBFC012237
:10281000022104A8FFF75DFB04A8FFF715FC0123C4
:102820000A22114604A8FFF761FC04A8FFF724FC64
:10283000002104A8FFF712FC04A80221017100BFC7
:1028400004F1D8009DF8141001719DF81510417124
:102850009DF8161081719DF81710C1719DF8181020
:102860000172BDF81A104181BDF81C108181BDF8BC
:102870001E10C181BDF820100182BDF822104182D6
:10288000BDF8241081829DF826108175002084F8FF
:102890006009FEF717FBC4F86409142300221146EF
:1028A0004820FEF76DFC01214820FEF71FFB142392
:1028B000002211460F20FEF763FC01210F20FEF7D6
:1028C00015FB1423002211460C20FEF759FC0121B0
:1028D0000C20FEF70BFB1423002211460820FEF704
:1028E0004FFC01210820FEF701FB142300221146B2
:1028F0000B20FEF745FC01210B20FEF7F7FA14230D
:10290000002211462920FEF73BFC01212920FEF779
:10291000EDFA0C2002F024FE0546284900F0CAFD1D
:10292000054604F5F06095E80E0070300EC00C38D6
:1029300000F03EFD202104F5FE6000F0FBFC2121AB
:1029400004F5FE6000F0F6FC222104F5FE6000F0C4
:10295000F1FC232104F5FE6000F0ECFC04F5FE60C0
:1029600000F09AFD0C2002F0FBFD0546144900F032
:10297000A1FD054604F2FC7095E80E000EC00C386F
:1029800000F016FD102104F2FC7000F0D3FC1121C0
:1029900004F2FC7000F0CEFC04F2FC7000F07CFD50
:1029A00038220121204602F01DFA0AB070BD000055
:1029B00000000000000000000000000000200140B6
:1029C000002101402DE9F04107460E46FEF77AFA54
:1029D0002A4909680844FA21B0FBF1F201FB120010
:1029E000322807D200202649086024480068323087
:1029F00022490860FEF766FA0025044600BF384603
:102A0000FFF74EFD384600F0BDF9384600F0DAF920
:102A10003846FFF727FD3846FFF714FC3846FFF726
:102A20000BFE3846FFF7B4FC3846FFF731FC38465A
:102A300000F00CF9FEF746FA0021021B61EB0500DD
:102A4000921B8841DBDB0E48006820B101214F203A
:102A5000FEF74CFA10E0FEF735FAC821B0FBF1F2B0
:102A600001FB1200642801D2012000E00020804612
:102A700041464F20FEF73AFABDE8F08144000020BD
:102A80002000002010B504460122112104F2FC7040
:102A900000F0DCFC10BD10B504460122102104F248
:102AA000FC7000F0D3FC10BD70B52DED028B044618
:102AB0000122222104F5FE6000F0C8FC054605F065
:102AC00004FB41EC180B9FED050B53EC102B05F0AC
:102AD0004BFB41EC100BBDEC028B70BD3813D38562
:102AE00058FD513F70B52DED028B04460122212186
:102AF00004F5FE6000F0AAFC054605F0E6FA41EC9C
:102B0000180B9FED050B53EC102B05F02DFB41EC42
:102B1000100BBDEC028B70BD2D08E57D1CCD613F17
:102B200070B52DED028B04460122202104F5FE60D4
:102B300000F08CFC054605F0C8FA41EC180B9FED3F
:102B4000050B53EC102B05F00FFB41EC100BBDEC0B
:102B5000028B70BD08C72C7B12D86C3F70B52DED71
:102B6000028B04460122232104F5FE6000F06EFC76
:102B7000054605F0AAFA41EC180B9FED050B53EC46
:102B8000102B05F0F1FA41EC100BBDEC028B70BD7F
:102B9000C616821C9430733F2DE9F04104460D4661
:102BA00016461F463B463246294604F1D800FDF73B
:102BB00061FFBDE8F0812DE9F0412DED028B044667
:102BC000B0EE408AF0EE608A0D4616461F46334648
:102BD0002A463946B0EE480AF0EE680A04F1D800F9
:102BE00004F0CEFEBDEC028BBDE8F0812DE9F84388
:102BF00004460F4615461E46DDF820802B46424609
:102C0000394604F1D800009604F0DBFEBDE8F883F5
:102C10002DE9F84304460F4615461E46DDF8208090
:102C20002B464246394604F1D800009604F0E1FEF6
:102C3000BDE8F88310B50446204600F0A3F804F57B
:102C4000806090EDF40B80EDF60B10BD38B50546B5
:102C5000002406E005F5016101EB841000F0ECFAB8
:102C6000641C042CF6DB2148007800F0080018B141
:102C70001FA10320FEF709F81C48007800F00200AD
:102C800018B120A10320FEF700F81848007800F0E2
:102C9000010018B120A10320FDF7F7FF13480078C9
:102CA00000F0040018B123A10320FDF7EEFF0F4848
:102CB000007800F0100018B124A10320FDF7E5FF13
:102CC0000A48007800F0200018B126A10320FDF783
:102CD000DCFF0648006840B103200E23002200906C
:102CE000024801682846FFF793FF38BD2000002006
:102CF000494D552064617461206572726F720D0ACE
:102D0000000000004472697665722064617461207D
:102D10006572726F720D0A00447269766572206383
:102D20006F6E6E656374696F6E206572726F720D7F
:102D30000A000000447269766572206B6F6B6F6BDE
:102D40006F206572726F720D0A000000494D5520A8
:102D5000636F6E6E656374696F6E206572726F72F9
:102D60000D0A00004C696E6520626F617264206319
:102D70006F6E6E656374696F6E206572726F720D2F
:102D80000A00000010B50446204600F053FF94ED01
:102D90001A1BB0EE410AF0EE610A9FED081B53ECDE
:102DA000112B51EC100B05F08FF805D094ED1A0B98
:102DB00004F5806080EDF40B10BD00000000000001
:102DC0000000000070B52DED068B044671480078B8
:102DD00000F0010050B96F4802F000FC30B1FEF77E
:102DE00071F86D4908606B48AFF300800220FDF771
:102DF0005DFF00287DD0FEF765F867490860022076
:102E0000FEF734FF00F58075E81705EB106000123F
:102E1000A5EB0026BB2E08D16048007828B9012018
:102E20005E49087000205E4908605C480078002810
:102E30007ED05B4801680068401C594A10605948C0
:102E400040F82160104600685749096888426FD1F0
:102E50000821544804F041FAC5B25248006AA84219
:102E600071D15049486805F0C8F841EC180B9FED46
:102E70004F0B53EC102B04F0CFFE04F5F66203C2A7
:102E80004849C86805F0B9F841EC1A0B9FED490BA9
:102E900053EC102B05F068F941EC180B4149886898
:102EA00005F0ABF841EC1A0B9FED440B53EC102BE3
:102EB00005F05AF941EC190B53EC182B04F0F0FD16
:102EC00004F5F662C2E902013649486905F095F851
:102ED00041EC1A0B9FED370B53EC102B05F044F926
:102EE00041EC180B2F49086905F087F841EC1A0BE3
:102EF00000E035E09FED310B53EC102B05F034F979
:102F000041EC190B53EC182B04F0CAFD04F5F662E2
:102F1000C2E904012349886905F06FF804F5F662F7
:102F2000C2E906011F49C86900EBD071491001E0F0
:102F300015E008E0A0EB4101012900D100E00021EB
:102F400084F8601905E01F48006840F080001D49C2
:102F500008600020124908601049087000BF00BFD7
:102F6000FDF7B0FF0C490968401A642805D91548D7
:102F7000006840F0400013490860094800680928CB
:102F800004DB00200549087005490860BDEC068B8C
:102F900070BD0000840000209400002090000020FC
:102FA00088000020800E00208C000020000000001F
:102FB00000004940000000000080763F0000000053
:102FC0000080F63F2000002070B5044604F1D805CB
:102FD0002846FFF731F905460A23AC22164905F1C8
:102FE000180002F0E9FAA0F118050020C5F8D00693
:102FF00000BFA5F1D804114905F5E36000F05AFAC5
:10300000A0F5FE640D490C3000F054FAA0F2FC74F7
:10301000042340220A49143002F0CEFAA0F50164DC
:1030200003230C22074900F5807002F0C5FAA0F5D1
:103030001164204670BD0000FD34000800200140EE
:10304000E93200085D30000802782AB121B9012276
:1030500002724268521C4260017070470021017088
:10306000416001727047000010B50446062301223A
:103070000249204600F096F810BD00003000002004
:1030800070B52DED028B05460C4600EE104AB8EEE9
:10309000C00AF0EE080A80EE208AB0EE480A02F07C
:1030A000C3FEBDEEC00A10EE104A40F65430844212
:1030B00000DD04461748844200DA0446201E01DB86
:1030C000014600E04142FF2291FBF2F302FB1311A3
:1030D0002976211E01DB0A4600E04A421012C2177F
:1030E00000EB5262D211A0EBC212AA76002C06DAD3
:1030F000287E40422876A87EC0F1FF30A8760323C0
:10310000042205F11701284600F04CF8BDEC028BB3
:1031100070BD0000ACF4FFFF2DE9F0410446FDF75F
:10312000D1FE0021C4E90C01A778E578802D09DBE8
:10313000C7F58071C5F1FF0001EB0020A0EB800016
:10314000E06104E007EB052000EB4000E0616079FE
:103150006062E079A0622679802E02DBC6F1FF0072
:1031600000E0304600EE100AB8EEC00ADFED040AB7
:1031700080EE201ABDEEC10A84ED080ABDE8F08198
:103180000AD7A33F10B50446062301220249204670
:1031900000F008F810BD000033000020C162037089
:1031A000427070472DE9F047054688461646994615
:1031B000B01DC4B2BB201649087068784870084634
:1031C0008470032104F06CF81149C870084680F837
:1031D0000490002006E018F80020411D0C4B5A54C2
:1031E000411CC8B2B042F6DB611E094804F058F831
:1031F000611E074A5054002706E0054AD15D287831
:10320000FEF72AFE781CC7B2A742F6DBBDE8F087BE
:10321000300E002010B50446FDF754FE0021D4E91D
:103220000C23821A61EB0301C83A71F1000101D24B
:10323000012010BD0020FCE710B504464FF0FF331D
:10324000D4E90E1059405840014306D1FDF73AFE2B
:10325000E16A08440021C4E90E01E06A10B90020C7
:103260001F490860FDF72EFE0021D4E90E23821AC3
:1032700061EB03014FF4FA7300209A1A88410FDAC8
:10328000FDF720FEE16A08440021C4E90E01022096
:10329000FDF70CFE2046FFF775FF0220FDF706FE46
:1032A000A06A0D2810DCA06A70B10D480068401CAF
:1032B0000B49086008460068042805D109480068E1
:1032C00040F48070074908602046FFF7A3FF28B943
:1032D0000448006840F001000249086010BD000089
:1032E00024000020200000207F2141700021C161C6
:1032F00041620162102181624FF0FF328263C2633A
:103300008021C175002202768122427600228276D7
:10331000002103E00023821C5354491C1529F9DBCA
:103320000021C16270470146002000E0401CFF28D8
:10333000FCDD704770B504460D4694F90100032882
:1033400001DD002070BD4FF0FF36002006E0174978
:103350000956A94201D146B202E0401C1028F6DB12
:10336000701C08B90020EDE7A8B214230022042144
:10337000FEF73EF96068806B40F440106168886336
:103380006068806B617801EB810106FA01F1084306
:103390006168886394F9011004F10800455460786D
:1033A000401C40B260700120CCE700009091000802
:1033B0000178012905D12249096841F48071204A28
:1033C00011600178022905D11D49096841F4007195
:1033D0001B4A11600178032905D11949096841F494
:1033E0008061174A11601749096841F48031164A13
:1033F000C2F804131146D1F8041341F40031114A04
:1034000011604168896841F47021426891604168A7
:10341000896841F00201426891604168496821F081
:103420004071426851604168496841F48071426866
:1034300051604168496841F4806142685160704759
:1034400044380240042301400020014030B50346C7
:103450000C46154615B11846FFF765FF93F90800AD
:10346000A04202D15868C06B30BD93F90900A04258
:1034700002D15868006CF7E793F90A00A04202D124
:103480005868406CF0E793F90B00A04202D15868ED
:10349000806CE9E72A20E7E74168896841F001018B
:1034A000426891604168896841F08041426891605A
:1034B0007047000010B541600D4A914201D10122D0
:1034C00002700C4A914201D1022202700A4A9142D2
:1034D00001D1032202700022427000BF04E0FF24E9
:1034E00000F108039C54521C042AF8DB10BD0000B4
:1034F00000200140002101400022014010B5044697
:10350000142308220649204602F056F804460020FB
:10351000A034A06020606060A03C204610BD000088
:103520002D3500080160426070470000014900220B
:10353000426070472893000817B582B003462B22DB
:10354000D3F8D016514303F1180202EB8100DDE9F4
:103550000312CDE90012D0F8A010142900D10CE01C
:10356000D0F8A01000EBC101DDE9002414C1D0F8AF
:10357000A010491CC0F8A01000BF05B010BD00008D
:103580002DE9F04104462B22D4F8D006504304F133
:10359000180202EB8000D0F8A010042003F0BFFE58
:1035A000064600251BE02B21D4F8D006484304F141
:1035B000180101EB80022B21D4F8D006484304F116
:1035C000180101EB8000D0F8A400284452F83070B4
:1035D00001232A4639462046FDF74CFA6D1CB542B8
:1035E000E1DB2B21D4F8D006484304F1180101EBAC
:1035F000800000230349D0F8A8202046FDF73AFABE
:10360000BDE8F0812993000830B501462B23D1F89D
:10361000D0265A4301F1180303EB8200A43042681C
:1036200003684468641C44604468A438042C05DBC7
:10363000A43042600468641C40F8A449D0F8A0504B
:10364000D0F8A840AC4203DBC0F8A820C0F8A430F2
:10365000D0E92845241FA54201DDC0F8A43000BFF1
:1036600030BDC0F8D016704770B5044600231A4626
:103670007321204601F075FDC5B200231A46722160
:10368000204601F06EFD00F01F062A463146204616
:1036900001F098FB70BD00002DE9F0412DED108B7D
:1036A0000446B0EE408AF0EE608A0D469FEDFD0BB9
:1036B00053EC102B51EC180B04F006FC28D1FDF74D
:1036C00001FC002154F8D02F6368861A61EB0301D6
:1036D000304604F0A9FC9FEDF50B53EC102B04F0E1
:1036E0009BFA41EC180BFDF7EDFB0021C4E900014A
:1036F000D03C9FEDF00B53EC102B51EC180B04F069
:1037000031FE05D29FEDED0BB0EE408AF0EE608AFF
:103710002DB1204601F0AAFC204601F084FEB0EE57
:10372000480AF0EE680A204600F0A0FA94ED102B4B
:10373000B0EE420AF0EE620A94ED142BB0EE421A9B
:10374000F0EE621A53EC102B51EC110B04F00CFD4F
:1037500041EC1B0B94ED122BB0EE420AF0EE620A24
:1037600094ED0E2BB0EE421AF0EE621A53EC102BD1
:1037700051EC110B04F0F8FC41EC1C0B53EC1B2B2F
:1037800004F0FEFE41EC1A0B9FEDCE0B53EC102B18
:1037900004F0EAFC41EC190BB0EE490AF0EE690ABC
:1037A00001F026FF84ED160B94ED122BB0EE420AC9
:1037B000F0EE620A94ED122BB0EE421AF0EE621AAD
:1037C00053EC102B51EC110B04F0CEFC41EC1D0B13
:1037D00094ED102BB0EE420AF0EE620A94ED102B3D
:1037E000B0EE421AF0EE621A53EC102B51EC110BB2
:1037F00004F0BAFC41EC1E0B53EC1D2B04F050F905
:1038000041EC1C0B9FEDAF0B53EC102B04F0ACFC08
:1038100041EC1B0B9FEDA70B53EC102B04F0D8FDD4
:1038200041EC190B94ED142BB0EE420AF0EE620A53
:1038300094ED122BB0EE421AF0EE621A53EC102BFC
:1038400051EC110B04F090FC41EC1C0B94ED102B8F
:10385000B0EE420AF0EE620A94ED0E2BB0EE421A80
:10386000F0EE621A53EC102B51EC110B04F07CFCBF
:1038700041EC1D0B53EC1C2B04F012F941EC1B0B1B
:103880009FED900B53EC102B04F06EFC41EC1A0BE7
:10389000B0EE491AF0EE691AB0EE4A0AF0EE6A0A82
:1038A00002F0C2F984ED180B94ED142BB0EE420A2D
:1038B000F0EE620A94ED142BB0EE421AF0EE621AAA
:1038C00053EC102B51EC110B04F04EFC41EC1E0B91
:1038D00094ED122BB0EE420AF0EE620A94ED122B38
:1038E000B0EE421AF0EE621A53EC102B51EC110BB1
:1038F00004F03AFC41EC1F0B53EC1E2B04F0D0F803
:1039000041EC1D0B9FED6F0B53EC102B04F02CFCC6
:1039100041EC1C0B9FED670B53EC102B04F058FD92
:1039200041EC1A0B94ED122BB0EE420AF0EE620A53
:1039300094ED102BB0EE421AF0EE621A53EC102BFD
:1039400051EC110B04F010FC41EC1D0B94ED142B09
:10395000B0EE420AF0EE620A94ED0E2BB0EE421A7F
:10396000F0EE621A53EC102B51EC110B04F0FCFB3F
:1039700041EC1E0B53EC1D2B04F092F841EC1C0B98
:103980009FED500B53EC102B04F0EEFB41EC1B0BA6
:10399000B0EE4A1AF0EE6A1AB0EE4B0AF0EE6B0A7D
:1039A00002F042F9B0EE409AF0EE609A51EC190B39
:1039B00004F037F8C4E91A0194ED161BB0EE410A81
:1039C000F0EE610A9FED411B53EC112B51EC100BF3
:1039D00004F0CAFB41EC190B94ED1C1BB0EE410A3C
:1039E000F0EE610A53EC102B04F0CAFDC4E9160195
:1039F00094ED181BB0EE410AF0EE610A9FED331B07
:103A000053EC112B51EC100B04F0AEFB41EC190BF5
:103A100094ED1E1BB0EE410AF0EE610A53EC102B40
:103A200004F0AEFDC4E9180194ED1A1BB0EE410A92
:103A3000F0EE610A9FED251B53EC112B51EC100B9E
:103A400004F092FB41EC190B94ED201BB0EE410AFF
:103A5000F0EE610A53EC102B04F092FDC4E91A0158
:103A60000FE094ED161BB0EE410AF0EE610A9FEDF7
:103A7000191B53EC112B51EC100B04F011F8C4E995
:103A8000160194ED161BB0EE410AF0EE610A9FEDAF
:103A9000131B53EC112B51EC100B04F029FBE0D35A
:103AA00030E00000000000000000F0BF0000000057
:103AB00000408F40000000000000F03F00000000C8
:103AC000000000000000000000000040F8C1631A80
:103AD000DCA54C40000000000080764000000000A3
:103AE000008066C094ED161BB0EE410AF0EE610A4C
:103AF0001FED081B53EC112B51EC100B04F040FD93
:103B0000C4E9160194ED161BB0EE410AF0EE610A0D
:103B10009FED461B53EC112B51EC100B04F022FCD3
:103B2000E0D30FE094ED181BB0EE410AF0EE610A0D
:103B30001FED181B53EC112B51EC100B03F0B0FFD1
:103B4000C4E9180194ED181BB0EE410AF0EE610AC9
:103B50001FED1E1B53EC112B51EC100B04F0C8FA97
:103B6000E0D30FE094ED181BB0EE410AF0EE610ACD
:103B70001FED281B53EC112B51EC100B04F000FD32
:103B8000C4E9180194ED181BB0EE410AF0EE610A89
:103B90009FED261B53EC112B51EC100B04F0E2FBB4
:103BA000E0D30FE094ED1A1BB0EE410AF0EE610A8B
:103BB0001FED381B53EC112B51EC100B03F070FF71
:103BC000C4E91A0194ED1A1BB0EE410AF0EE610A45
:103BD0001FED3E1B53EC112B51EC100B04F088FA37
:103BE000E0D30FE094ED1A1BB0EE410AF0EE610A4B
:103BF0001FED481B53EC112B51EC100B04F0C0FCD3
:103C0000C4E91A0194ED1A1BB0EE410AF0EE610A04
:103C10009FED061B53EC112B51EC100B04F0A2FB93
:103C2000E0D3BDEC108BBDE8F08100000000000087
:103C30000080664070B505462846FFF715FD0C214B
:103C400090FBF1F6002409E0284601F0B8FA0121C2
:103C50009FED040B2846FFF71FFD641CB442F3DB05
:103C600070BD0000FCA9F1D24D62503F01B52DEDB1
:103C7000020BB8B03A9890ED0A0B8DED180B90ED51
:103C8000140B8DED160B9DED180B53EC102B9DEDC9
:103C9000160B51EC100B04F067FACDE91C013A98B1
:103CA00090ED080B8DED140B90ED120B8DED120BBA
:103CB0009DED140B53EC102B9DED120B51EC100BE2
:103CC00004F052FACDE918013A9890ED100B8DED01
:103CD000120B9DED120B51EC100B03F0A2FECDE97F
:103CE00014013A9890ED060B8DED120B9DED120B21
:103CF00053EC102B9DED140B51EC100B04F034FA27
:103D0000CDE916019DED180B53EC102B9DED160B14
:103D100051EC100B04F034FCCDE91A019DED1C0BA5
:103D200053EC102B9DED1A0B51EC100B04F028FCFA
:103D30009FEDFD0B53EC102BCDE91E019DED1E0BED
:103D400051EC100B04F010FACDE920019DED200B91
:103D500051EC100B03F072FE32903A9890ED080B84
:103D60008DED180B90ED140B8DED160B9DED180BD2
:103D700053EC102B9DED160B51EC100B04F0F4F9E5
:103D8000CDE91C013A9890ED0A0B8DED140B90EDE6
:103D9000120B8DED120B9DED140B53EC102B9DEDC2
:103DA000120B51EC100B04F0DFF9CDE918013A9831
:103DB00090ED060B8DED140B90ED0E0B8DED120BAF
:103DC0009DED140B53EC102B9DED120B51EC100BD1
:103DD00004F0CAF9CDE916019DED180B53EC102B38
:103DE0009DED160B51EC100B03F05AFECDE91A01B4
:103DF0009DED1C0B53EC102B9DED1A0B51EC100B91
:103E000004F0BEFB9FEDC80B53EC102BCDE91E0157
:103E10009DED1E0B51EC100B04F0A6F9CDE920012D
:103E20009DED200B51EC100B03F008FE31903A98F9
:103E300090ED060B8DED180B90ED140B8DED160B20
:103E40009DED180B53EC102B9DED160B51EC100B48
:103E500004F08AF9CDE91C013A9890ED0A0B8DED3A
:103E6000140B90ED100B8DED120B9DED140B53EC1C
:103E7000102B9DED120B51EC100B04F075F9CDE9F0
:103E800018013A9890ED080B8DED140B90ED0E0B88
:103E90008DED120B9DED140B53EC102B9DED120BC1
:103EA00051EC100B04F060F9CDE916019DED180BF3
:103EB00053EC102B9DED160B51EC100B04F060FB36
:103EC000CDE91A019DED1C0B53EC102B9DED1A0B47
:103ED00051EC100B03F0E4FD9FED930B53EC102B12
:103EE000CDE91E019DED1E0B51EC100B04F03CF9C9
:103EF000CDE920019DED200B51EC100B03F09EFD50
:103F000030903A9890ED060B8DED180B90ED120B5A
:103F10008DED160B9DED180B53EC102B9DED160B34
:103F200051EC100B04F020F9CDE91C013A9890ED0A
:103F3000080B8DED140B90ED100B8DED120B9DED1C
:103F4000140B53EC102B9DED120B51EC100B04F0E5
:103F50000BF9CDE918013A9890ED0A0B8DED140B91
:103F600090ED0E0B8DED120B9DED140B53EC102B01
:103F70009DED120B51EC100B04F0F6F8CDE9160193
:103F80009DED180B53EC102B9DED160B51EC100B07
:103F900003F086FDCDE91A019DED1C0B53EC102BAF
:103FA0009DED1A0B51EC100B04F0EAFA9FED5E0B3D
:103FB00053EC102BCDE91E019DED1E0B51EC100BA7
:103FC00004F0D2F8CDE920019DED200B51EC100B4F
:103FD00003F034FD2F903A9890ED000B8DED200BFF
:103FE0009FED530B53EC102B9DED200B51EC100B60
:103FF00003F06AFF1FD13A9890ED020B8DED200B74
:104000009FED4B0B53EC102B9DED200B51EC100B47
:1040100003F05AFF0FD13A9890ED040B8DED200B71
:104020009FED430B53EC102B9DED200B51EC100B2F
:1040300003F04AFF77D03A9890ED040B8DED180B02
:1040400090ED040B8DED160B9DED180B53EC102B22
:104050009DED160B51EC100B04F086F8CDE91C0118
:104060003A9890ED020B8DED140B90ED020B8DED57
:10407000120B9DED140B53EC102B9DED120B51EC1C
:10408000100B04F071F8CDE918013A9890ED000B8F
:104090008DED140B90ED000B8DED120B9DED140BBF
:1040A00053EC102B9DED120B51EC100B04F05CF84F
:1040B000CDE916019DED180B53EC102B9DED160B61
:1040C00051EC100B03F0ECFCCDE91A019DED1C0B3B
:1040D00053EC102B9DED1A0B51EC100B03F0E0FC90
:1040E000CDE91E019DED1E0B51EC100B03F0A6FC5B
:1040F00021909DED210A3A9800F098FF8DED370A46
:10410000379804F027FBCDE920013A9890ED000B99
:104110008DED1E0B9DED1E0B53EC102B9DED200B1A
:1041200051EC100B08E0FDE3000000000000E03F50
:10413000000000000000000004F016F80A460146E6
:104140003A9806C0379804F005FBCDE920013A986B
:1041500090ED020B8DED1E0B9DED1E0B53EC102B05
:104160009DED200B51EC100B03F0FEFF0A460146BB
:104170003A98C0E90212379804F0ECFACDE9200130
:104180003A9890ED040B8DED1E0B9DED1E0B53EC3C
:10419000102B9DED200B51EC100B03F0E5FF0A46B0
:1041A00001463A98C0E904123A9890ED0E0B8DED55
:1041B0001E0B9DED1E0B53EC102B9FEDFE0B51ECD7
:1041C000100B03F0D1FFCDE920019DED200B51EC48
:1041D000100B03F033FC2E903A9890ED100B8DED00
:1041E0001E0B9DED1E0B53EC102B9FEDF20B51ECB3
:1041F000100B03F0B9FFCDE920019DED200B51EC30
:10420000100B03F01BFC2D903A9890ED120B8DEDE6
:104210001E0B9DED1E0B53EC102B9FEDE60B51EC8E
:10422000100B03F0A1FFCDE920019DED200B51EC17
:10423000100B03F003FC2C903A9890ED140B8DEDCD
:104240001E0B9DED1E0B53EC102B9FEDDA0B51EC6A
:10425000100B03F089FFCDE920019DED200B51ECFF
:10426000100B03F0EBFB2B903A9890ED0E0B8DEDBD
:104270001E0B9DED1E0B53EC102B9FEDD00B51EC44
:10428000100B03F071FFCDE920019DED200B51ECE7
:10429000100B03F0D3FB2A903A9890ED100B8DEDA4
:1042A0001E0B9DED1E0B53EC102B9FEDC40B51EC20
:1042B000100B03F059FFCDE920019DED200B51ECCF
:1042C000100B03F0BBFB29903A9890ED120B8DED8B
:1042D0001E0B9DED1E0B53EC102B9FEDB80B51ECFC
:1042E000100B03F041FFCDE920019DED200B51ECB7
:1042F000100B03F0A3FB28903A9890ED100B8DED76
:104300001E0B9DED1E0B53EC102B9FEDAE0B51ECD5
:10431000100B03F029FFCDE920019DED200B51EC9E
:10432000100B03F08BFB27903A9890ED120B8DED5C
:104330001E0B9DED1E0B53EC102B9FEDA20B51ECB1
:10434000100B03F011FFCDE920019DED200B51EC86
:10435000100B03F073FB26903A9890ED0E0B8DED49
:104360001E0B90ED0E0B8DED1C0B9DED1E0B53ECFB
:10437000102B9DED1C0B51EC100B03F0F5FECDE95D
:1043800020019DED200B51EC100B03F057FB259005
:104390003A9890ED100B8DED1E0B90ED100B8DEDFE
:1043A0001C0B9DED1E0B53EC102B9DED1C0B51ECCB
:1043B000100B03F0D9FECDE920019DED200B51EC4F
:1043C000100B03F03BFB24903A9890ED120B8DED0F
:1043D0001E0B90ED120B8DED1C0B9DED1E0B53EC87
:1043E000102B9DED1C0B51EC100B03F0BDFECDE925
:1043F00020019DED200B51EC100B03F01FFB2390CF
:104400003A9890ED140B8DED1E0B90ED140B8DED85
:104410001C0B9DED1E0B53EC102B9DED1C0B51EC5A
:10442000100B03F0A1FECDE920019DED200B51EC16
:10443000100B03F003FB22902D9804F08BF9CDE9CB
:104440001A013A9890ED020B8DED180B9DED180BAB
:1044500053EC102B9DED1A0B51EC100B03F084FE66
:10446000CDE91E019DED2A0ADDED240A20EE200A89
:104470008DED170A179804F06DF9CDE91A012C9803
:1044800004F068F9CDE912013A9890ED000B8DED3A
:10449000100B9DED100B53EC102B9DED120B51ECFE
:1044A000100B03F061FECDE916019DED2A0ADDED4A
:1044B000230A20EE200A8DED130A139804F04AF91E
:1044C000CDE914019DED160B53EC102B9DED140B53
:1044D00051EC100B03F0E4FACDE918019DED1A0B35
:1044E00053EC102B9DED180B51EC100B03F0D8FA88
:1044F000CDE91C019DED1E0B53EC102B9DED1C0B0B
:1045000051EC100B04F03CF8CDE920019DED200B9F
:1045100051EC100B03F092FA3690299804F01AF936
:10452000CDE91A013A9890ED040B8DED180B9DED35
:10453000180B53EC102B9DED1A0B51EC100B03F0E4
:1045400013FECDE91E019DED270ADDED230A20EEC5
:10455000200A8DED170A179804F0FCF8CDE91A012E
:104560009DED270ADDED240A20EE200A8DED130AC9
:10457000139804F0EFF8CDE91601299804F0EAF851
:10458000CDE912012E9804F0E5F8CDE90A013A9838
:1045900090ED020B8DED080B9DED080B53EC102BED
:1045A0009DED0A0B51EC100B03F0DEFDCDE90E0181
:1045B0000CE00000000000000000004000000000CF
:1045C0000000104000000000000020409DED250A82
:1045D000F1EE000A20EE200A8DED050A059804F0A0
:1045E000B9F8CDE906013A9890ED100B8DED040B6A
:1045F0009DED040B53EC102B9DED060B51EC100BB5
:1046000003F0B2FDCDE90A012B9804F0A3F8CDE93F
:1046100002013A9890ED000B8DED000B9DED000B23
:1046200053EC102B9DED020B51EC100B03F09CFD95
:10463000CDE906019DED290ADDED220A20EE200AD2
:104640008DED030A039804F085F8CDE904019DED92
:10465000060B53EC102B9DED040B51EC100B03F0EB
:104660008FFFCDE908019DED0A0B53EC102B9DED5A
:10467000080B51EC100B03F013FACDE90C019DED82
:104680000E0B53EC102B9DED0C0B51EC100B03F0AB
:1046900077FFCDE910019DED120B53EC102B9DED32
:1046A000100B51EC100B03F06BFFCDE914019DEDE5
:1046B000160B53EC102B9DED140B51EC100B03F06B
:1046C000EFF9CDE918019DED1A0B53EC102B9DED80
:1046D000180B51EC100B03F0E3F9CDE91C019DED33
:1046E0001E0B53EC102B9DED1C0B51EC100B03F02B
:1046F000D7F9CDE920019DED200B51EC100B03F013
:104700009DF93590289804F025F8CDE91A013A98DA
:1047100090ED040B8DED180B9DED180B53EC102B49
:104720009DED1A0B51EC100B03F01EFDCDE91E019F
:104730009DED260ADDED230A20EE200A8DED170AF5
:10474000179804F007F8CDE91A019DED260ADDED72
:10475000240A20EE200A8DED130A139803F0FAFFC5
:10476000CDE91601289803F0F5FFCDE912012B9849
:1047700003F0F0FFCDE90A013A9890ED020B8DEDC0
:10478000080B9DED080B53EC102B9DED0A0B51EC23
:10479000100B03F0E9FCCDE90E019DED280ADDEDDB
:1047A000220A20EE200A8DED070A079803F0D2FFB7
:1047B000CDE90A012E9803F0CDFFCDE902013A9828
:1047C00090ED000B8DED000B9DED000B53EC102BCD
:1047D0009DED020B51EC100B03F0C6FCCDE9060178
:1047E0009DED250AF1EE000A20EE200A8DED010A6A
:1047F000019803F0AFFFCDE902013A9890ED120B5A
:104800008DED000B9DED000B53EC102B9DED020B7D
:1048100051EC100B03F0A8FCCDE904019DED060B53
:1048200053EC102B9DED040B51EC100B03F038F9F9
:10483000CDE908019DED0A0B53EC102B9DED080B03
:1048400051EC100B03F02CF9CDE90C019DED0E0B92
:1048500053EC102B9DED0C0B51EC100B03F090FE64
:10486000CDE910019DED120B53EC102B9DED100BBB
:1048700051EC100B03F084FECDE914019DED160BF5
:1048800053EC102B9DED140B51EC100B03F008F9B9
:10489000CDE918019DED1A0B53EC102B9DED180B73
:1048A00051EC100B03F0FCF8CDE91C019DED1E0B43
:1048B00053EC102B9DED1C0B51EC100B03F0F0F89A
:1048C000CDE920019DED200B51EC100B03F0B6F863
:1048D00034902C9803F03EFFCDE91A013A9890ED00
:1048E000020B8DED180B9DED180B53EC102B9DED6D
:1048F0001A0B51EC100B03F037FCCDE91E019DEDB6
:10490000230AF1EE000A20EE200A8DED150A159813
:1049100003F020FFCDE916013A9890ED140B8DEDD0
:10492000140B00E0CBE09DED140B53EC102B9DED30
:10493000160B51EC100B03F017FCCDE91A012D9862
:1049400003F008FFCDE912013A9890ED000B8DEDD0
:10495000100B9DED100B53EC102B9DED120B51EC39
:10496000100B03F001FCCDE916019DED240AF1EED8
:10497000000A20EE200A8DED110A119803F0EAFEDC
:10498000CDE912013A9890ED140B8DED100B9DEDD1
:10499000100B53EC102B9DED120B51EC100B03F090
:1049A000E3FBCDE914019DED160B53EC102B9DEDAF
:1049B000140B51EC100B03F0E3FDCDE918019DED54
:1049C0001A0B53EC102B9DED180B51EC100B03F050
:1049D00067F8CDE91C019DED1E0B53EC102B9DEDEE
:1049E0001C0B51EC100B03F0CBFDCDE920019DED2C
:1049F000200B51EC100B03F021F833909DED360A9B
:104A000020EE000ADDED350A00EEA00ADDED340AE5
:104A100000EEA00ADDED330A00EEA00A8DED210ABA
:104A20009DED210A3A9800F001FB8DED370A9DEDCE
:104A3000360ADDED370A20EE200A8DED360A9DEDAF
:104A4000350ADDED370A20EE200A8DED350A9DEDA1
:104A5000340ADDED370A20EE200A8DED340A9DED93
:104A6000330ADDED370A20EE200A8DED330A9DED85
:104A7000320ADDED360A9FEDD21A01EE600A8DEDA5
:104A8000320A9DED310ADDED350A9FEDCD1A01EEBA
:104A9000600A8DED310A9DED300ADDED340A9FED9F
:104AA000C81A01EE600A8DED300A9DED2F0ADDED8A
:104AB000330A9FEDC31A01EE600A8DED2F0A32987A
:104AC00003F048FECDE91E019DED380B53EC102B91
:104AD0009DED1E0B51EC100B03F046FBCDE92001C0
:104AE0003A9890ED0E0B8DED1E0B9DED1E0B53ECC9
:104AF000102B9DED200B51EC100B02F0D1FF0A465C
:104B000001463A98C0E90E12319803F023FECDE930
:104B10001E019DED380B53EC102B9DED1E0B51EC3F
:104B2000100B03F021FBCDE920013A9890ED100B1A
:104B30008DED1E0B9DED1E0B53EC102B9DED200BF0
:104B400051EC100B02F0ACFF0A4601463A98C0E95E
:104B50001012309803F0FEFDCDE91E019DED380BDB
:104B600053EC102B9DED1E0B51EC100B03F0FCFAD7
:104B7000CDE920013A9890ED120B8DED1E0B9DEDC5
:104B80001E0B53EC102B9DED200B51EC100B02F083
:104B900087FF0A4601463A98C0E912122F9803F09F
:104BA000D9FDCDE91E019DED380B53EC102B9DED89
:104BB0001E0B51EC100B03F0D7FACDE920013A9807
:104BC00090ED140B8DED1E0B9DED1E0B53EC102B79
:104BD0009DED200B51EC100B02F062FF0A460146DE
:104BE0003A98C0E914123A9890ED140B8DED180B19
:104BF00090ED140B8DED160B9DED180B53EC102B57
:104C00009DED160B51EC100B03F0AEFACDE91C0133
:104C10003A9890ED120B8DED140B90ED120B8DED7B
:104C2000120B9DED140B53EC102B9DED120B51EC60
:104C3000100B03F099FACDE918013A9890ED100B9A
:104C40008DED100B90ED100B8DED0E0B9DED100BFF
:104C500053EC102B9DED0E0B51EC100B03F084FA6E
:104C6000CDE914013A9890ED0E0B8DED100B90EDFF
:104C70000E0B8DED0E0B9DED100B53EC102B9DEDDF
:104C80000E0B51EC100B03F06FFACDE912019DED04
:104C9000140B53EC102B9DED120B51EC100B02F08A
:104CA000FFFECDE916019DED180B53EC102B9DED89
:104CB000160B51EC100B02F0F3FECDE91A019DED3D
:104CC0001C0B53EC102B9DED1A0B51EC100B02F04A
:104CD000E7FECDE91E019DED1E0B51EC100B02F01D
:104CE000ADFE21909DED210A3A9800F09FF98DEDDF
:104CF000370A379803F02EFDCDE920013A9890ED60
:104D00000E0B8DED1E0B9DED1E0B53EC102B9DED30
:104D1000200B51EC100B03F027FA0A4601463A9893
:104D2000C0E90E12379803F015FDCDE920013A983D
:104D300090ED100B8DED1E0B9DED1E0B53EC102B0B
:104D40009DED200B51EC100B03F00EFA0A460146C4
:104D50003A98C0E91012379803F0FCFCCDE9200125
:104D60003A9890ED120B8DED1E0B9DED1E0B53EC42
:104D7000102B9DED200B51EC100B03F0F5F90A46BA
:104D800001463A98C0E91212379803F0E3FCCDE9E6
:104D900020013A9890ED140B8DED1E0B9DED1E0B2E
:104DA00053EC102B9DED200B51EC100B03F0DCF9B4
:104DB0000A4601463A98C0E914123BB000BD000013
:104DC000CDCCCC3D10B504460B4642EA032081B25F
:104DD00001F4004020B1C1F30E00A0F5004010BD69
:104DE0000846FCE72DE9FF4104460D4616460A2019
:104DF000FCF75CF89FED820B583484ED0E0B9FEDB1
:104E0000820B84ED100B256366639FED810B84EDAF
:104E1000120B9FED7F0B84ED140B9FED7D0B84ED4A
:104E2000160B9FED7B0B84ED180B9FED790B84ED3A
:104E30001A0B9FED770B84ED1C0B9FED750B84ED2A
:104E4000060B9FED730B84ED080B9FED710B84ED4A
:104E50000A0B9FED6F0B04ED160B9FED6D0B04ED30
:104E6000140B9FED6B0B04ED120B9FED690B04ED22
:104E7000100B9FED670B04ED0E0B9FED650B04ED22
:104E80000C0B9FED630B04ED0A0B9FED610B84EDA2
:104E9000000B9FED5F0B84ED020B9FED5D0B84ED2E
:104EA000040B9FED5D0B04ED080B9FED590B04ED1A
:104EB000060B9FED570B04ED040B9FED550B04ED16
:104EC000020B0021A167E16708274FF01008481E78
:104ED00000900190029003907B010822206BFCF768
:104EE00059FAA18E88B2142300221146FCF748F922
:104EF000A18E583C88B20121FBF7F8FF80226B217C
:104F0000204600F00BFB0120FBF7D0FF01226B21B4
:104F1000204600F003FB0120FBF7C8FF00226C21B4
:104F2000204600F0FBFA0120FBF7C0FF03221A2104
:104F3000204600F0F3FA0120FBF7B8FF42461B21A0
:104F4000204600F0EBFA0120FBF7B0FF3A461C21A7
:104F5000204600F0E3FA0120FBF7A8FF03221D2101
:104F6000204600F0DBFA0120FBF7A0FF30223721BA
:104F7000204600F0D3FA0120FBF798FF04226A21B3
:104F8000204600F0CBFA0120FBF790FF40226A2177
:104F9000204600F0C3FA0120FBF788FF7822232186
:104FA000204600F0BBFA0520FBF780FF5DB91C48E6
:104FB000008820F038001A4908800846008840F030
:104FC000100008801AE0012D0BD11648008820F04F
:104FD0003800144908800846008840F01000088016
:104FE0000CE0022D0AD11048008820F038000E494C
:104FF00008800846008840F010000880BDE8FF8166
:10500000000000000000C040753F6A56DF559D401B
:105010000000000000000000000000000000F03F61
:105020000030014000380040003C00400146F0EEF6
:10503000400AF6EE001A60EEA11AB0EE611AB0EE68
:10504000600A10EE100A084AA2EB600000EE100A97
:1050500021EE002AF7EE081A42EE401A61EE801A9D
:10506000B0EE610A70470000DF59375F30B52DEDB3
:10507000048B87B00446062301AA3B21204600F09A
:1050800070F80298C2B2019881B22046FFF79AFEEA
:10509000054602F0B2FF41EC190B94ED2E1BB0EE69
:1050A000410AF0EE610A53EC102B03F069FA41EC6F
:1050B000180B94ED241BB0EE410AF0EE610A53EC9C
:1050C000102B02F0A9FDC4E900010498C2B20398B4
:1050D00081B22046FFF776FE054602F08EFF41ECD6
:1050E000190B94ED301BB0EE410AF0EE610A53EC5F
:1050F000102B03F045FA41EC180B94ED241BB0EE95
:10510000410AF0EE610A53EC102B02F085FDC4E970
:1051100002010698C2B2059881B22046FFF752FEFE
:10512000054602F06AFF41EC190B94ED321BB0EE1C
:10513000410AF0EE610A53EC102B03F021FA41EC26
:10514000180B94ED241BB0EE410AF0EE610A53EC0B
:10515000102B02F061FDC4E9040107B0BDEC048B23
:1051600030BD2DE9F04704460E4617469846B4F880
:105170008C1088B20021FBF7B9FEB2B242F0800178
:10518000D4F88800FCF7DAFD002507E00021D4F808
:105190008800FCF7D3FD47F825006D1C4545F5DB7D
:1051A0000021D4F88800FCF7C9FD8146B4F88C10C2
:1051B00088B20121FBF79AFE4846BDE8F0872DE949
:1051C000F04F2DED048B87B0044600231A4674215E
:1051D0002046FFF7C6FF054600231A4674212046E5
:1051E000FFF7BFFF064600231A4674212046FFF74B
:1051F000B8FF074600231A4674212046FFF7B1FF87
:10520000804600231A4674212046FFF7AAFF8146F4
:1052100000231A4674212046FFF7A3FF824600238D
:105220001A4674212046FFF79CFF834600231A4646
:1052300074212046FFF795FF069000231A4674213B
:105240002046FFF78EFF059000231A467421204662
:10525000FFF787FF049000231A4674212046FFF7CA
:1052600080FF039000231A4674212046FFF779FF40
:105270000290F2B2A9B22046FFF7A4FD019002F01D
:10528000BCFE41EC190B94ED2E1BB0EE410AF0EE82
:10529000610A53EC102B03F073F941EC180B94EDF9
:1052A000241BB0EE410AF0EE610A53EC102B02F021
:1052B000B3FCC4E9000108F0FF02B9B22046FFF7D1
:1052C00081FD019002F099FE41EC190B94ED301B29
:1052D000B0EE410AF0EE610A53EC102B03F050F9E6
:1052E00041EC180B94ED241BB0EE410AF0EE610A7C
:1052F00053EC102B02F090FCC4E902010AF0FF020B
:105300001FFA89F12046FFF75DFD019002F075FE5E
:1053100041EC190B94ED321BB0EE410AF0EE610A3C
:1053200053EC102B03F02CF941EC180B94ED241BDB
:10533000B0EE410AF0EE610A53EC102B02F06CFC67
:10534000C4E904010698C2B21FFA8BF12046FFF7A8
:1053500039FD019002F051FE41EC190B94ED281B30
:10536000B0EE410AF0EE610A53EC102B03F008F99D
:1053700041EC180B94ED261BB0EE410AF0EE610AE9
:1053800053EC102B02F048FCC4E906010498C2B2A9
:10539000059881B22046FFF715FD019002F02DFE21
:1053A00041EC190B94ED2A1BB0EE410AF0EE610AB4
:1053B00053EC102B03F0E4F841EC180B94ED261B92
:1053C000B0EE410AF0EE610A53EC102B02F024FC1F
:1053D000C4E908010298C2B2039881B22046FFF7DF
:1053E000F1FC019002F009FE41EC190B94ED2C1B2D
:1053F000B0EE410AF0EE610A53EC102B03F0C0F856
:1054000041EC180B94ED261BB0EE410AF0EE610A58
:1054100053EC102B02F000FCC4E90A0107B0BDEC0C
:10542000048BBDE8F08F30B52DED048B87B00446BA
:10543000062301AA43212046FFF793FE0298C2B239
:10544000019881B22046FFF7BDFC054602F0D5FD6C
:1054500041EC190B94ED281BB0EE410AF0EE610A05
:1054600053EC102B03F08CF841EC180B94ED261B39
:10547000B0EE410AF0EE610A53EC102B02F0CCFBC7
:10548000C4E906010498C2B2039881B22046FFF72E
:1054900099FC054602F0B1FD41EC190B94ED2A1B75
:1054A000B0EE410AF0EE610A53EC102B03F068F8FD
:1054B00041EC180B94ED261BB0EE410AF0EE610AA8
:1054C00053EC102B02F0A8FBC4E908010698C2B205
:1054D000059881B22046FFF775FC054602F08DFD68
:1054E00041EC190B94ED2C1BB0EE410AF0EE610A71
:1054F00053EC102B03F044F841EC180B94ED261BF1
:10550000B0EE410AF0EE610A53EC102B02F084FB7E
:10551000C4E90A0107B0BDEC048B30BD70B5044688
:105520000D4616468834A18888B20021FBF7DEFCC0
:10553000A9B22068FCF702FC31462068FCF7FEFBAC
:10554000A188883C88B20121FBF7D0FC70BD10B562
:10555000FAF7E7FF10BD10B500F002F810BD00002B
:1055600010B5040007D1012405E0FAF7A7FF006891
:1055700000B9044880472046FAF7A4FF0028F4D079
:1055800010BD0000D505000803B401984100009843
:1055900050EAC12018BF04204A0D18BF40F0010096
:1055A00040F2FF72B2EB515F08BF40F002000128E9
:1055B00008BF052002B070472DE9F0411C46174690
:1055C0000E00804607D0054602E02846B0473D441D
:1055D0002046641EF9D24046BDE8F081016809B159
:1055E000002070470121016008467047000000005C
:1055F00070B5C1482DED020B2DED0E8B82B0119DC3
:1056000025F000449FEDBEDB9FEDBFEB84423EDB07
:10561000A4F140511098A1F17F6108430FD0BC481C
:10562000844202DC28D1109830B39DED100B02B0FB
:10563000BDEC0E8B02B0BDE8704001F0E9BA9DED03
:10564000100B53EC1D2B51EC100B02F08DFD9DED5A
:10565000100B41EC180B53EC1E2B51EC100B02F00D
:1056600083FD53EC182B02F01BFA41EC100B02B037
:10567000BDEC0E8B02B070BD0120FAF77EFF02B0C8
:10568000BDEC0E8B02B0BDE8704001F0D5BAA14868
:105690009FEDA18B844256DA9DED100BB4F1795F3A
:1056A0000ADA51EC100BFFF76FFF042808BF01F076
:1056B000E3FA9DED100BDAE753EC102B51EC100BD5
:1056C00002F052FD41EC190B95480621B0EE490A53
:1056D000F0EE690A784401F007FA53EC192B51EC0B
:1056E000100B02F041FD41EC1A0B8E48B0EE490A56
:1056F000F0EE690A0421784401F0F6F953EC192B15
:1057000051EC100B02F030FD53EC182B02F0C8F9ED
:1057100041EC100B51EC1A0B53EC102B02F07CFAFD
:10572000CDE900019DED000B53EC102B9DED100B0E
:1057300051EC100B02F018FD9DED101B53EC112BDA
:1057400002F0AEF9D2E09DED100B51EC100B01F020
:10575000B3FA53EC182B02F03BFE9FED730BCDE92F
:10576000000153EC102B9DED000B51EC100B02F0DF
:10577000FBFC41EC190B6E480621B0EE490AF0EE35
:10578000690A784401F0B0F953EC192B51EC100B75
:1057900002F0EAFC41EC1B0B6648B0EE490AF0EE61
:1057A000690A0421784401F09FF953EC192B51EC5C
:1057B000100B02F0D9FC53EC182B02F071F941ECFC
:1057C0001C0B51EC190B01F034FD41EC180B5A483D
:1057D0009FED5BABA04222DC53EC1C2B51EC1B0B6E
:1057E00002F01AFACDE900019DED000B51EC180B07
:1057F00053EC102B02F0B8FC53EC182B02F050F9CC
:1058000053EC1A2B02F0B0FC53EC1D2B02F0B8FE47
:1058100053EC1E2B02F0DCFD41EC100B5FE08DED34
:10582000008B002000909DED000B51EC180B53EC09
:10583000102B02F035F99DED000B41EC1E0B53ECE3
:10584000102B51EC100B02F08FFC53EC192B02F0D3
:10585000BFFD53EC1E2B02F0DFF941EC190B53ECAA
:105860001C2B51EC1B0B02F0D7F941EC1B0B53EC3A
:105870001A2B51EC190B02F077FC53EC1D2B02F0A4
:10588000A7FD41EC190B53EC1A2B51EC180B02F04D
:105890006BFC53EC1B2B02F067FC53EC192B02F052
:1058A0006FFE9DED000B41EC180B53EC1A2B51ECE5
:1058B000100B02F059FC9FED249B53EC192B02F0C6
:1058C00087FD41EC100B51EC180B53EC102B02F040
:1058D00057FE53EC192B02F07BFD41EC100B002D11
:1058E0003FF7C5AE51EC100B02F09BF841EC100BEA
:1058F000BDE60000000000000000F03F00000000D6
:10590000075C143326A6913C182D4454FB21F93F23
:105910000000F07F0000E03F000000000000F03FCA
:10592000C83A0000D63A0000000000000000E03F46
:105930001A3A0000283A00003333EF3F000000001D
:105940000000000000000040182D4454FB21E93FF6
:1059500070B59B482DED020B2DED068B079D25F0B4
:105960000044A04218DC9748844202DC0AD1069821
:1059700040B19DED060BBDEC068B02B0BDE870405A
:1059800001F046B9002DCCBF9FED8F0B9FED900B22
:10599000BDEC068B02B070BD8F48A04215DD8F486C
:1059A000A042D8BF4FF0FF3458DD9DED060B51ECFF
:1059B000100BFFF7E9FD042808BF01F05DF99DED2C
:1059C000060BBDEC068B02B070BD9DED060B51ECD5
:1059D000100B01F071F9CDE9060181489FED828B32
:1059E000A0423CDD8248A0421FDD00249FED82AB37
:1059F0009DED060B53EC1A2B51EC100B02F050F8F6
:105A00009DED060B41EC190B53EC1A2B51EC100BCE
:105A100002F0AAFB53EC182B02F0B2FD53EC192B49
:105A200002F0FAF8CDE9060149E09DED060B0124EC
:105A300053EC182B51EC100B02F032F89DED060BD5
:105A400041EC190B53EC182B51EC100B02F098FDA4
:105A500053EC192B02F0E0F8CDE906012FE068487D
:105A6000A0421FDD02249FED689B9DED060B53ECC9
:105A7000192B51EC100B02F077FB53EC182B02F0B2
:105A80000FF89DED060B41EC180B53EC192B51EC64
:105A9000100B02F075FD53EC182B02F0BDF8CDE9A8
:105AA00006010CE09DED060B032453EC102B9FED3B
:105AB000580B51EC100B02F0AFF8CDE906019DED4B
:105AC000060B53EC102B51EC100B02F04DFB41EC8C
:105AD000180B53EC182B02F047FB41EC190B4E4806
