:020000040800F2
:1000000038070020890100089101000893010008C9
:100010009501000897010008990100080000000000
:100020000000000000000000000000009B0100082C
:100030009D010008000000009F010008A1010008C8
:10004000A3010008A3010008A3010008A301000800
:10005000A3010008A3010008A3010008A3010008F0
:10006000A3010008A3010008A3010008A3010008E0
:10007000A3010008A3010008A3010008A3010008D0
:10008000A3010008A3010008A3010008A3010008C0
:10009000A3010008A3010008A3010008A3010008B0
:1000A000A3010008B1030008A3010008A301000890
:1000B000A3010008A3010008A3010008A301000890
:1000C000A3010008A3010008A3010008A301000880
:1000D000A3010008E5030008EF030008F903000886
:1000E000A3010008A3010008A301000800F002F822
:1000F00000F03AF80AA090E8000C82448344AAF188
:100100000107DA4501D100F02FF8AFF2090EBAE885
:100110000F0013F0010F18BFFB1A43F0010318473B
:100120003822000058220000103A24BF78C878C155
:10013000FAD8520724BF30C830C144BF04680C60ED
:10014000704700000023002400250026103A28BF35
:1001500078C1FBD8520728BF30C148BF0B60704739
:100160001FB51FBD10B510BD00F0BCF81146FFF75C
:10017000F7FF00F03FFD00F0DAF803B4FFF7F2FFFD
:1001800003BC00F0DDF8000009488047094800473B
:10019000FEE7FEE7FEE7FEE7FEE7FEE7FEE7FEE737
:1001A000FEE7FEE704480549054A064B7047000094
:1001B00051030008ED000008380100203807002036
:1001C000380300203803002053EA020C00F0698055
:1001D0002DE9F04B4FF00006002B1FBFB3FA83F55B
:1001E00003FA05F424FA05F65E4012BF1643B2FA8C
:1001F00082F502FA05F4C5F120051EBF22FA05FCBE
:1002000044EA0C04203556EA044C4FEA144418BF63
:10021000641C4FF000084FF00009904271EB030C92
:1002200039D3002919BFB1FA81F701FA07F6B0FAFC
:1002300080F700FA07F6C7F120071EBF20FA07FC77
:1002400046EA0C062037B6FBF4FCA7EB0507103F87
:1002500007F01F0BCBF120060CFA0BFB2CFA06F66D
:1002600044BFB3460026202FA4BF5E464FF0000BCC
:100270005BEA060C08BF4FF0010B19EB0B09ABFB57
:10028000027C48EB0608C01B06FB02CC0BFB03CC30
:1002900071EB0C01C1E70B46024641464846BDE8FA
:1002A000F08B13B54FF000004FF00001AFF300806A
:1002B000BDE81C40704770477047704710B500F0AC
:1002C00009F8006810BD10B5044600F003F804609A
:1002D00010BD000000487047D4000020004870475F
:1002E000D40000207546FFF7F9FFAE4605006946C9
:1002F000534620F00700854618B020B5FFF752FF9F
:10030000BDE820404FF000064FF000074FF0000816
:100310004FF0000B21F00701AC46ACE8C009ACE897
:10032000C009ACE8C009ACE8C0098D46704710B5FB
:100330000446AFF300802046BDE81040FFF71DBF24
:1003400001491820ABBEFEE72600020070470000FE
:1003500010B51348006840F00100114908600846D4
:100360004068104908400E494860084600680E4938
:1003700008400B4908600846006820F480200860A7
:100380000846406820F4FE0048604FF41F00886073
:1003900000F037F84FF000600449086010BD00001D
:1003A000001002400000FFF8FFFFF6FE08ED00E03D
:1003B0000A48008800F0010070B10848008820F069
:1003C0000100064908800648D0E90020521C40F18F
:1003D00000000349C1E9002070470000102C0140D3
:1003E0000000002000B5002000F0C2F800BD00B5FC
:1003F000012000F0BDF800BD00B5022000F0B8F803
:1004000000BD10B500F044F810BD000010B5014665
:10041000012903D0022903D0174803E0174801E05F
:10042000174800BF00BF00BF028802F08002002A08
:10043000FAD0144A02EB4112134B5B5CD25C82800F
:10044000114B5B5C5A1CD31702EBD3635B11A2EB1D
:1004500043130D4C63540D4A525C23465B5C9A4235
:1004600004D1828922F08002828103E0828942F0F5
:100470008002828110BD000000380140004400402D
:100480000048004074000020110000200E000020F1
:100490000CB50020019000903348006840F4803093
:1004A0003149086000BF3048006800F40030009017
:1004B0000198401C0190009818B90198B0F5A06F00
:1004C000F1D12948006800F4003010B101200090FB
:1004D00001E0002000900098012843D123480068E3
:1004E00040F01000214908600846006820F0030031
:1004F00008600846006840F0020008601A4840683A
:10050000194948600846406848600846406840F419
:10051000806048600846406820F47C1048600846C7
:10052000406840F4E81048600846006840F0807079
:10053000086000BF0C48006800F000700028F9D087
:100540000948406820F003000749486008464068B1
:1005500040F00200486000BF0348406800F00C0013
:100560000828F9D10CBD0000001002400020024014
:1005700030B50546012D03D0022D03D01C4C03E0FD
:100580001C4C01E01C4C00BF00BF208800F0200084
:1005900030B3208800F00100A8B9208800F00200E4
:1005A00088B9A088154901EB4511154A525D885458
:1005B0001349495D481CC11700EBD1614911A0EBFB
:1005C00041110F4A5155208820F0020020802088D8
:1005D00020F001002080208820F02000208006E00C
:1005E000208800F0800010B12846FFF70FFF30BDD3
:1005F0000038014000440040004800401400002042
:100600000800002070B5044600F008F8054600BF59
:1006100000F004F8401BA042FAD370BD10B54FF0B3
:10062000FF320023024903C9FFF7CEFD104610BD7B
:100630000000002010B52AB1C36801248C40234378
:10064000C36004E0C36801248C40A343C36010BDB1
:100650002DE9F05F04468A469346B448844206D1A9
:10066000B348806940F00400B14988611CE0B1489A
:10067000844206D1AE48806940F00800AC498861E8
:1006800012E0AD48844206D1A948806940F01000CC
:10069000A749886108E0A948844205D1A448806937
:1006A00040F02000A2498861D146B9F1070F72D904
:1006B000A9F10809484601F02DFA07463A460B46CB
:1006C00000209F4900F0BCFA054601F0DFF98146A1
:1006D000BBF1080F74D2DFE80BF004101E32445057
:1006E0005F74606809EB490120EA8100606060681E
:1006F00009EB49010843606078E0606820EAC900BE
:100700006060606840EA89006060606809EB4901E8
:10071000084360606AE08648806940F001008449CF
:100720008861606840EAC9006060606820EA89000A
:100730006060606809EB49010843606056E07C48EE
:10074000806940F001007A498861606809EB4901DD
:1007500040EA81006060606809EB4901084360601D
:1007600044E0606809EB490120EA8100606060684C
:1007700009EB49018843606038E0606820EAC900FD
:100780006060606840EA89006060606809EB490168
:10079000884360602AE02AE0606840EAC90060603F
:1007A000606820EA89006060606809EB490188435D
:1007B0006060E068012101FA0AF18843E06015E019
:1007C00013E0606840EAC9006060606820EA890060
:1007D0006060606809EB490188436060E06801215E
:1007E00001FA0AF10843E06000E000BF9BE04846E0
:1007F00001F090F905462A460B460020504900F0CA
:100800001FFA074601F042F98146BBF1080F73D287
:10081000DFE80BF004101E3244505E73206809EBD1
:10082000490120EA81002060206809EB4901084362
:10083000206077E0206820EAC9002060206840EA54
:1008400089002060206809EB49010843206069E0C5
:100850003748806940F0010035498861206840EAE6
:10086000C9002060206820EA89002060206809EB28
:1008700049010843206055E02D48806940F001009F
:100880002B498861206809EB490140EA810020601A
:10089000206809EB49010843206043E0206809EB28
:1008A000490120EA81002060206809EB4901884362
:1008B000206037E0206820EAC9002060206840EA14
:1008C00089002060206809EB49018843206029E005
:1008D000206840EAC9002060206820EA8900206082
:1008E000206809EB490188432060E068012101FA92
:1008F0000AF18843E06015E013E0206840EAC9008F
:100900002060206820EA89002060206809EB490106
:1009100088432060E068012101FA0AF10843E060A1
:1009200000E000BF00BFBDE8F09F000000080140EC
:1009300000100240000C0140001001400014014072
:10094000000030404348406820F0030041494860BF
:1009500008464068486000BF3E48406800F00C0010
:100960000028F9D13B48006880F080703949086060
:1009700000BF3848006800F000700028F9D1354801
:10098000006880F48030334908600846006840F40D
:100990008030086000BF2F48006800F40030002855
:1009A000F9D013202C4908602A48406820F0F00054
:1009B000284948600846406820F4E06048600846DE
:1009C000406820F460504860084640684860084627
:1009D000406840F4806048600846406848600846C7
:1009E000406820F4701048600846406820F4803069
:1009F00048600846406820F4003048600846406877
:100A000040F48030486008464068486008464068C6
:100A100040F4E01048600846006840F080700860CC
:100A200000BF0C48006800F000700028F9D00948A9
:100A3000406820F00300074948600846406840F0DD
:100A40000200486000BF0348406800F00C0008281E
:100A5000F9D17047001002400020024000B5FFF7B6
:100A600071FF1D48806940F400601B498861472080
:100A70001A4908804FF47A70091D088017482838F1
:100A8000008840F080001549283908800846008811
:100A900020F0600008800846008820F010000880E0
:100AA0000E481C38008840F001000C491C390880B1
:100AB0001920012181404209920002F1E022C2F88E
:100AC000001100BF05482838008840F001000349A4
:100AD0002839088000BD000000100240282C014089
:100AE000490050EAC12018BF04204A0D18BF40F049
:100AF000010040F2FF72B2EB515F08BF40F002000C
:100B0000012808BF052070472DE9F0414F1E00EB7A
:100B1000C7010446D1E9000115461E4637F006021A
:100B20000DD02A46334601F045F87F1E04EBC7037B
:100B3000D3E9002300F096FD37F00602F1D1022F31
:100B400025D0042F13D0062F18BFBDE8F0812A4608
:100B5000334601F02FF8D4E90A2300F083FD2A463A
:100B6000334601F027F8D4E9082300F07BFD2A463C
:100B7000334601F01FF8D4E9062300F073FD2A463E
:100B8000334601F017F8D4E9042300F06BFD2A4640
:100B9000334601F00FF8D4E9022300F063FD2A4642
:100BA000334601F007F8D4E90023BDE8F04100F036
:100BB00059BD0000002213461046014900F00EBE48
:100BC0000000F03F00F04EBD0022134610461146D3
:100BD00000F004BE40F2013200204FF0E04101F08D
:100BE0002BBB0000024A0020110701F025BB0000CA
:100BF00001FDFFFFFFF732FF00220C210F48FFF736
:100C000027FD00220D210D48FFF722FD01220D21B5
:100C10000A48FFF70FFD6420FFF7F4FC0CE0FFF734
:100C2000FDFC4FF4FA71B0FBF1F000F00104224634
:100C30000C210248FFF7FEFCF1E70000000C014028
:100C40002DE9F04D1D460C4698B0174621F00041A5
:100C500023F00043002814BF4FF0010C4FF0000CAC
:100C60000CEB440CFE4A0CEB02064FEA620C6645A4
:100C70002BD33E0018BF012606EB45061644F94A61
:100C8000964222D3F84A53EA070C02D0944205D187
:100C900048B918B000201146BDE8F08D002808BF03
:100CA0004FF0000C01D04FF0010C0CEB440212F598
:100CB000001F0AD8002F14BF4FF0010C4FF0000C9A
:100CC0000CEB450212F5001F07D918B03A462B4627
:100CD0002146BDE8F04DFFF775BF0022DFF88CA379
:100CE000002CB8BF534526DADFF884C36345A8BF9C
:100CF000022220DADFF870C39C451CDCDFF874C3E5
:100D00000CEB235CBCF1140F08DDCCF1340627FAA0
:100D100006FC0CFA06F6BE420DD108E05FB9CCF134
:100D2000140623FA06FC0CFA06F69E4203D10CF0D8
:100D30000102C2F1020251EA000C19D1002D17DAAA
:100D4000002C18BF022A01D0012A07D00220FFF789
:100D5000BAFA18B0BDE8F04DFFF72CBF0220FFF73C
:100D6000B2FAFFF727FF18B081F00041BDE8F08D1F
:100D7000B7F1000C6CD1534525D104F1804212F536
:100D8000801201BF00280020B74918B008BFBDE895
:100D9000F08DB548884207DC002DA1BF604629468A
:100DA00018B0BDE8F08D07E0281E05DA80F000419C
:100DB00018B06046BDE8F08DAF497944D1E9000133
:100DC00018B0BDE8F08DDFF8A0C2634525D1002D35
:100DD0001FDA19B1514512D1D8B909E0002840F005
:100DE000EC82A24A214618B062F31E01BDE8F08DE4
:100DF0000020214618B060F31E01BDE8F08D08DA2E
:100E000018B02346BDE8F04D02460020614600F0D0
:100E1000E5BC18B02146BDE8F08D514518DAB5F1B2
:100E2000804F0DD0A5F1005CBCF1FF5C10D1B4F196
:100E3000000C0DDB18B06146BDE8F04D00F0ECBBD6
:100E4000234618B00246BDE8F04D194600F0B2BE88
:100E5000060024F0004C3BD1D9B1514533D1002CD0
:100E600006DD002DA1BF0020514618B0BDE8F08D71
:100E7000002C01DD002D1BDB002C13DA002D11DB13
:100E8000012A4FF0000014BF78497C4918B0BDE832
:100E9000F08D022A18BF002C0AD0012A08D1002C9C
:100EA00006DA0AE0002CB8BF002D11DA012A04D0BE
:100EB000002018B00146BDE8F08D18B000204FF0BA
:100EC0000041BDE8F08DA1F14050B0F17F601AD033
:100ED000012000EBE47050EA020421D0624C521E63
:100EE0004FF0000B104304BF4FF0000B644C6548FB
:100EF00083427CDD644A654893421FDD884217DBEC
:100F0000002D25DB37E0002C00DA4AB1022A0CBFA5
:100F100001204FF0FF3018B0BDE8F04D00F0E3BD08
:100F20000120FFF7D0F918B0BDE8F04DFFF74CBE37
:100F30004D4A8A4202DC002D0ADC1CE0814202DAC2
:100F4000002D18DA04E0484B994220DD002D12DD17
:100F50000220FFF7B8F9FFF73DFE05460E460022D6
:100F600053465846214600F025FE18B066F31E0190
:100F70002846BDE8F08D0220FFF7A5F9FFF732FE05
:100F80000A46214618B062F31E01BDE8F08D00222A
:100F90003046614601F034F880460E466FF001029B
:100FA00001F04AF94FF05532394B00F037FF424615
:100FB000334600F0FFFD0022364B00F02FFF824643
:100FC0004246334604911046194600F0F3FD52465E
:100FD000049B00F0EFFD8A4600904FF0C0422E4B7C
:100FE0004046314600F0E6FD2C4A2B4B00E027E05E
:100FF000CDE906015146009800F0DCFD82460191E2
:10100000274A284B4046314600F0D4FD5246019B0A
:1010100000F0F6FF82460B4602460591DDE9060127
:1010200000F020FBDDE9062300268846304600F06C
:10103000E7FF5246059B00F0F1FE024600F07EB944
:101040000020B1F5801F07DA35223046614601F0F5
:10105000F3F806466FF0340000EB215024E0000066
:10106000FFFF1F00FFFF0F000000F03F0000F07FB8
:101070000000404301FCFFFF921500000000F0FF5C
:101080000000F0BF0000E0410000F043FFFFEF3F31
:101090005555D53F0000E03F4715F73FFE822B65D1
:1010A00044DF5DF80BAE543EA0F2FF300190C1F377
:1010B000130040F07F6141F040510291FE498842A7
:1010C000D8BF002004DDFD498142C8BF012001DDF9
:1010D0000D9008E000200D900198401C01900298AE
:1010E000A0F5801002900299F54878440B910D9973
:1010F00000EBC100D0E900230F9330460A920B9910
:1011000000F07EFFCDE90601DDE90A2130460F9BA4
:1011100000F0A8FA02460B460020EA4900F05EFB08
:10112000059102460B460090DDE9060100F042FD04
:101130001490E5488A464FF0000878440299006808
:1011400012904FF0005040EA61010D980F9B01EBA7
:10115000804000F5002109910A9A129800F050FF92
:1011600032460B9B00F05AFE4246534600F022FDE9
:101170000646029140465146099B129A00F01AFD1C
:10118000DDE9062300F04AFE3246029B00F038FFFC
:10119000059B009A00F00EFD0091149A04905346AE
:1011A0001046194600F006FD06460246C7480B46A3
:1011B000029106217844FFF7A7FCCDE90510029BB8
:1011C00032461046194600F0F5FCDDE9053200F024
:1011D000F1FC05910646534640461946149A00F024
:1011E00041FA009B049A00F0E5FC3246059B00F0B2
:1011F00039FACDE90510424653461046194600F02B
:10120000D9FC0022B24B02910A9000F02BFADDE9E2
:10121000053200F027FA0E464246AD4B404600F03C
:10122000EFFE029B0A9A00F0EBFEDDE9053200F0CA
:10123000F5FD424602910A9033461046514600F0B1
:10124000B9FCCDE906015346149A02990A9800F0B8
:10125000B1FC8A460290334642460099049800F059
:10126000A9FC5346029A00F0FDF982460B4602465D
:101270000591DDE9060100F0F5F9DDE9062300201E
:101280008846064600F0BCFE5246059B00F0C6FDAF
:10129000824609914FF060428E4B3046414600F045
:1012A00089FC049006918C4A8A4B5046099900F0BB
:1012B00081FC82460291894A894B3046414600F0C2
:1012C00079FC5246029B00F0CDF9864B7B440D9A87
:1012D00003EBC203D3E9002300F0C4F90E90079199
:1012E000019800F000FC0591DDE9061382460E9A94
:1012F000049800F0B7F97C4A7A440D9B02EBC303D3
:10130000D3E900230093029200F0ACF95246059B0A
:1013100000F0A8F90026884652463046059B00F0AA
:101320006FFE009B029A00F06BFE069B049A00F091
:1013300067FE079B0E9A00F071FD024600200B46E7
:1013400002903846294600F035FC824601912B4632
:1013500038461946029A00F053FE3246434600F0E2
:1013600029FC5246019B00F07DF907468A46324629
:1013700043462946029800F01DFC05460E463A46B3
:10138000534600F06FF9594A8846914221DBA8EB99
:10139000020353EA000210D12A46334600F030FE21
:1013A000CDE90401524A534B3846514600F05AF9F0
:1013B000DDE9042300F0FCFC21D20220FEF783FFCC
:1013C000FFF708FC0A46214618B062F31E01BDE88B
:1013D000F08D494B28F000429A4210D3474A08EB5F
:1013E000020353EA00027FF4C6AD2A46334600F0FA
:1013F00007FE3A46534600F0DBFC7FF6BCAD002208
:10140000019228F000403E493E4A01EB20518242C1
:1014100023DA481C4FF4801121FA00F040443A4A84
:10142000C0F30A517A44394BA1F2FF31CB4020EA94
:101430000303C0F3130040F48010C1F11401C8404D
:1014400012680190B8F1000FBCBF404201902846DD
:10145000314600F0D5FD05460E462A46334638464D
:10146000514600F0FFF84FF000084246284B404636
:10147000059100F09FFBCDE90601264A264B404628
:10148000059900F097FB009102902A4633464046AA
:10149000059900F0B5FD3A46534600F0BFFC1F4ADF
:1014A0001F4B00F087FB009B029A00F0DBF8074619
:1014B000884602460B4635E08E9803007AB60B004C
:1014C000DA1100000000F03F12120000401100008D
:1014D0000000084009C7EE3FFD033ADCF5015B144C
:1014E000E02F3EBE18100000DC0F0000000090400E
:1014F000FE822B654715973C00CC904000346F3F2F
:1015000001FCFFFF0000E03F280F0000FFFF0F007D
:10151000432EE63F396CA80C615C20BEEF39FAFE21
:10152000422EE63FDDE9060100F09CF8DDE90623E6
:1015300005460E4600F064FD3A46434600F06EFC58
:101540000F462A46334600901046194600F032FBFB
:10155000824602462E4888460B4605217844FFF70E
:10156000D3FA5246434600F025FB2A46334600F0A4
:1015700055FC80468A463B4628463146009A00F094
:1015800019FB3B46009A00F06DF80691009000228E
:101590004FF080434046514600F032FD0F460C901C
:1015A000424653462846314600F004FB3B460C9A1F
:1015B00000F014F9069B009A00F022FD2A463346FB
:1015C00000F01EFD0022134B00F028FC0546019898
:1015D0000E4601EB00510815002810DC2846314664
:1015E000019A00F029FEFFF77BFA042808BFFFF7F5
:1015F000F9FA28463146019A00F01EFE05460B46D0
:1016000018B02A4658462146BDE8F04D00F0D2BA3F
:10161000C80D00000000F03F2DE9F04106460F46DE
:1016200000F008FC041E0D4618BF0120284320F0DE
:101630000040C0F17F6000F1E040C00F0ED0301CD0
:1016400018BF0120384320F00040C0F17F6000F156
:10165000E040C00F04BF0120FEF735FE20462946BA
:10166000BDE8F08110B591EA030F48BF83F0004355
:1016700000F1CE84841A71EB030C05D2121943EBEE
:101680000C03001B61EB0C01DFF824E14FEA11545D
:10169000A4EB135C1EEA430F18BF9EEA445F73D0AD
:1016A00023EA0E03DCF1200E21EA045143F48013F7
:1016B00032D322FA0CFE10EB0E0023FA0CFE41EBA3
:1016C0000E01CCF1200E03FA0EFE10EB0E0051F1CC
:1016D0000001B1F5801FCCF1200E32D201EB045194
:1016E00012FA0EF2BDE8104058BF7047401C38BFD8
:1016F0005FEA420218BF7047002814BF20F00100C3
:1017000041F100014FEA410313F5001F38BF704754
:10171000A1F1C04100F046BB012A43EB0302ACF14A
:10172000200CDCF11F0E32BF4FF0000E23FA0CF339
:1017300010EB030041EB0451B4EB115FD0D0A1EBEF
:10174000045101F5801149085FEA300001EB0451B2
:101750000ED350F1000038BF12FA0EFE08D1BDE8DA
:101760001040C9E7401C38BF5FEA4202CAD1C3E754
:10177000BDE810404FEA410313F5001F38BF704722
:10178000A1F1C04100F00EBB9EEA445F08D011EA0F
:101790005E0FBDE8104004BF01F00041002070471B
:1017A000BDE8104070B500F0AFFA00BF64FBBE3E6C
:1017B0000000E0FF02494FF0000000F00BBD00BF49
:1017C0000000F87F491058BFC1F140415B1058BF7D
:1017D000C3F140438B42EFF3008070472DE9C041D5
:1017E00030B4DFF8A0C23CEA111418BF3CEA13146D
:1017F00000F0EC8081EA03051CEA111444EAD57478
:1018000018BF1CEA131500F0C780A4EB05044FF0C5
:10181000004545EAC12145EAC32341EA505143EA64
:10182000525304F17F74994204F500344FEAC0200A
:101830004FEAC22208BF904200F09C804FEA136535
:101840000FF24016765D4FEA134506FB05F7C7F128
:10185000807706FB07F74FEAD737A7FB0368764286
:10186000C8F58038A7FB06CE38BFA8F1010807FBF2
:1018700008E64FF0000EA6FB028CE6FB03CEDCF17F
:10188000000CCEF1004E38BFAEF1010EA6FB0C5895
:101890004FF000074FF00005E6FB0E87A1FB08C6DE
:1018A000A0FB07CE16EB0E0645F10005E1FB076530
:1018B00015F1E04E7EBFA4F580345FEA46066D4127
:1018C00016F1800745F100054FEA17274FEA066633
:1018D00047EA0567A6F1DE46B6F1805F4FEA1525B7
:1018E0001FD9384624F0010C05EBC471BCF1FE6F22
:1018F00001EB0C1102D8F0BCBDE8008124425CBFB2
:1019000001F5801E9EEAC47F02D4F0BCBDE80081D0
:10191000244238D4F0BCA1F1C041BDE8004100F040
:1019200041BA4FEAD22242EA43524FEAD323A7FBFD
:1019300002864FEAD02040EA415007FB03661EEAC8
:101940000E0F4FEAD12105FB026658BFA6EB0056E9
:10195000B6EB00564FEA520E4EEAC37E18EB0E0E5F
:1019600056EB530EBDD518EB02085E417F1C55F1B6
:101970000005B6E74FF480154FF000074FF0000662
:101980004FF00008ADE7F0BC4FF0000001F1C0419E
:1019900001F00041BDE8008111EA0C1F0CEA1315AB
:1019A00000D00CE013EA0C1F00F025804FF000007F
:1019B000F0BC81EA030101F00041BDE80081F0BC08
:1019C000BDE8004181EA030100F0ECB9F0BCBDE8DC
:1019D000004170B500F098F9097EFC3E00F007B8B0
:1019E00081EA03014FF0000001F00041704781EAF5
:1019F000030100F0D7B9F0BCBDE800414FF0000092
:101A000021497047FFFDFBF9F7F5F4F2F0EEEDEB3D
:101A1000E9E8E6E4E3E1E0DEDDDBDAD8D7D5D4D3EC
:101A2000D1D0CFCDCCCBCAC8C7C6C5C4C2C1C0BF38
:101A3000BEBDBCBBBAB9B8B7B6B5B4B3B2B1B0AF3E
:101A4000AEADACABAAA9A8A8A7A6A5A4A3A3A2A122
:101A5000A09F9F9E9D9C9C9B9A99999897979695DD
:101A600095949393929191908F8F8E8E8D8C8C8B79
:101A70008B8A898988888787868585848483838201
:101A8000828181800000FF070000F87F4FEA115338
:101A9000A3F58063D3F11E03A8BFD3F1200C08DBAC
:101AA0004FF0004242EAC12252EA505232FA03F0A9
:101AB000704709420BD4102BC4BF0020704703F5B8
:101AC000787CBCF1FF3F05D04FF0FF3070474FF0FE
:101AD0000000704770B500F017F900BF49922480EC
:101AE00000207047F0E710F0004248BF4042B0FAD3
:101AF00080F310FA03F10AD0C3F11D0303F58063EC
:101B00004FEA415002EB035202EBD12170474FF0F4
:101B100000007047B0FA80F310FA03F10AD0C3F165
:101B20001D0303F580634FEA41504FEA035202EB75
:101B3000D12170474FF000007047000051EA030CBC
:101B400017D41CF5801F58BFBCF5801F00F106801C
:101B5000994218BF704708BF9042704707D711F5E8
:101B6000801F58BF13F5801F19D4994270478942CE
:101B700070471CF5801F08D5BCF5801FF7D58B4238
:101B800018BF704708BF824270474FF4001C1CEB1F
:101B9000410F38BF1CEB430F01D28B42704770B529
:101BA00000F0B2F8922449004FF000514FF08053FA
:101BB000FFF708BEDFF848C170B51CEA111E1EBF52
:101BC0001CEA13159EEA0C0F95EA0C0F00F06F80CB
:101BD00081EA030423EA4C134EEAD47E21EA4C1135
:101BE00041F4801143F48013AE44A1FB024CA0FBEE
:101BF0000365AEF17F7E361955EB0C05A1FB034C56
:101C00004CF10003A0FB021C16EB0C06654153F1DE
:101C10000003094218BF46F0010613F4007F0BD100
:101C20004FEA03314FEA0530340341EA155140EAE7
:101C300016506FF003020AE04FEAC3214FEAC520B5
:101C4000F40241EA555140EA56506FF0020202EBAD
:101C50002E4201EB025585EACE710AD05FEA440CB0
:101C600018BF24F0004450F1000041F1000120EAC7
:101C7000D47040F2FE7C624500D270BDA84214BF11
:101C80004FF080444FF04044002E08BF0024BEF1C6
:101C9000806FA8BFA1F1C041BDE8704080F2828092
:101CA0004FF0000001F1C04101F0004170479EEA91
:101CB0000C0F0CEA131518BF95EA0C0F06D04FF065
:101CC000000081EA030E0EF0004170BD00F01CF828
:101CD0008900013E00F007B800F009B84FEA430C54
:101CE0005FEA5C5C08D081EA030100F05BB84FEA70
:101CF000410C5FEA5C5CF6D14FF00000014970478F
:101D00000000FF070000F87F0EF1020E2EF0030E18
:101D10005EF8046B364205D4012A43EB030515F542
:101D2000001F12D8012841EB010C1CF5001F0CD834
:101D30000ED14FEAD17C15F5001F0CEB4C0C0CF1C9
:101D4000020C08BF4CEBD37C04E04FF0080C01E020
:101D50004FEAD37C0CEB4C0526FA05F606F0070695
:101D6000B6F1040C06D20EEB860CBDE870404CF0C8
:101D7000010C6047DFE80CF0090B02024FF0004154
:101D80004FF00000A1F5002170BD19461046012852
:101D900051EB010418BFD4F5001484BF002001F0FA
:101DA000004170BD0808A0F500114FEA31017047ED
:101DB00053EA010C17D41CF5801F58BFBCF5801FD7
:101DC00000F106808B4218BF704708BF82427047FF
:101DD00007D713F5801F58BF11F5801F19D48B4208
:101DE00070479B4270471CF5801F08D5BCF5801FCB
:101DF000F7D5994218BF704708BF904270474FF41B
:101E0000001C1CEB430F38BF1CEB410F01D2994261
:101E100070470FB40CBC03BCFFF7C1BE91EA030FBF
:101E200010B581F000413FF525AC83F0004300F090
:101E3000EFB800002DE9F04101F5801CBCF5001F52
:101E4000C0F2C3804FEA115C21EA0C510CF1FD0C89
:101E500041F480115FEA5C0C0CF5C07C01D34000BA
:101E600049413DA4890241EA905187028E0E0A0C35
:101E7000A45D04FB04F602FB06F6C6F14046A4FB93
:101E80000662F60D46EA422606FB06F4A4FB012391
:101E90005242C3F1404338BF5B1EA6FB02420024FE
:101EA000E6FB0324D20B42EA4446A6FB0623A1FB31
:101EB00002E2A3FB07E4A4184FF0000252F1000273
:101EC000E3FB01426442C2F1404E38BFAEF1010E65
:101ED000A6FB04234FF00002E6FB0E32A2FB0346F2
:101EE0004FF00004B61954F10004E2FB0264A1FBB8
:101EF00006E6A4FB07E816EB08064FF0000858F1C9
:101F00000008E4FB01687642C8F1405838BFA8F1E8
:101F10000108A2FB06E4A3FB08E52D194FF000041D
:101F200054F10004E2FB0854A1FB05E6A7FB04E81A
:101F300018EB06084FF0000656F10006E1FB048698
:101F400018F1200556F10006A809A8F11B08B109EF
:101F500008F03F08B8F10A0F40EA86601CD901EB8F
:101F60000C51BDE8F08100BFFCF5EEE8E2DDD8D30E
:101F7000CFCBC7C3C0BDB9B6B4B1AEACA9A7A5A3FA
:101F8000A19F9D9B9A9896959392908F8D8C8B890B
:101F90008887868584838281A0FB006800FB01F22C
:101FA00008EB4208B8EB872807D5341858EB010432
:101FB000D5D5401C51F10001D1E7341A78EB01046A
:101FC000CDD4401E71F10001C9E75FEA4C0C5FEA15
:101FD0009C5C0DD105D34FF0000001F00041BDE83D
:101FE000F081BDE8F04170B5FFF78EFE6DDBFFBEFE
:101FF000BDE8F0414FF00000004970470000F87F55
:1020000010B591EA030F48BF83F000433FF532ABB0
:10201000841A71EB030C07D212198CF0004C43EBBD
:102020000C03001B61EB0C01DFF8A4E14FEA115433
:10203000A4EB135C1EEA430F18BF9EEA445F00F056
:10204000B08023EA6E03524221EA0451C3EB6E03CF
:1020500038BF5B1EDCF1200E25D322FA0CFE10EBFC
:102060000E0043FA0CFE41EB0E01CCF1200E03FAF8
:102070000EFE10EB0E0051F10001CCF1200E29D420
:1020800012FA0EF201EB0451BDE8104058BF704740
:10209000401C1CBFB2F1004F704700280CBF491C08
:1020A00020F00100704712EB020E43EB030218BF51
:1020B0004FF0010E4EEA4202ACF1200CDCF11E0E94
:1020C00054D943FA0CFE10EB0E0051F1FF31CCF164
:1020D0001E0ED5D50EF1010E12FA0EFE404141EB57
:1020E000010101EB445C5FEA5C5C10D910EBDE702F
:1020F00001EB045138BFBEF1004FBDE8104018BFDE
:10210000704700280CBF491C20F00100704730D2F6
:102110004FEAD42C11F5001124F400641BD0B1FA5D
:1021200081F20B3AA41AA41ED2F12003914030FA96
:1021300003F31943904001EBCC71002C01EB0451E7
:10214000BDE81040A8BF704701F1C0414FF000004A
:1021500001F000417047B0FA80F310FA03F100D1AA
:1021600010BDE41A173C4805C90AE4E701EB045125
:1021700010BD491001EB0451BDE810404FEA30009A
:1021800002E04FF0000170474A0008BF0042F8D05B
:10219000B2F5001F28BF704701F000414FF000006A
:1021A00070479EEA445F07D011EA5E0FBDE8104019
:1021B00004BF002100207047BDE8104070B5FFF754
:1021C000A3FD00BF40DFF63E83F00041104670479C
:1021D0000000E0FF0CF00F03092B08BF082000F0FF
:1021E00059800A2B0BD0082B18BF704708BF1CF072
:1021F000400F0AD04FF000004FF0000170471CF074
:10220000400F18BF4FF0004070471CF0100F08D06F
:1022100020F0704300F07F4242EAD3014FEA43705E
:10222000704700F0604021F07F4242EA000201F076
:102230007F4040EA727070474FF0FF0C4CF4E06C46
:102240001CEA11531CBF9CEA030C9445C2BFDA423E
:1022500001EB02517047002B0DD0BCF1000F0FD0E5
:10226000002A01F00041A4BF41F0E04141F07F614C
:102270004FF00000704701F000414FF00000704740
:1022800050EA01334FF09B0C18BF4CF0806C7FF488
:1022900091AA70471CF4801F11D01CF4E02F03D0CA
:1022A0006FEACC31490070474FF04050EFF30082A5
:1022B00022F0704242EA000282F3008870474FF039
:1022C0000000704700000000000000000000F03F28
:1022D000000000000000F83F0000000000000000C7
:1022E0000000004003B8E23F0000000000000000D2
:1022F00006D0CF43EBFD4C3E033333333333E33F60
:10230000FFAB6FDBB66DDB3F4D268F515555D53F8B
:1023100001411DA96074D13F65DBC9934A86CD3F59
:10232000EF4E454A287ECA3F3E5555555555C53F47
:1023300093BDBE166CC166BF2CDE25AF6A56113F39
:10234000F16BD2C541BDBBBED0A4BE726937663E3B
:1023500000000000000000007823000800000020BA
:1023600014000000280100088C230008140000203D
:1023700024070000440100080000000000000000E5
:0C23800000000000000000000000000051
:040000050800018965
:00000001FF
