:020000040800F2
:1000000068140020750200087D0200087F020008C5
:100010008102000883020008850200080000000039
:10002000000000000000000000000000870200083F
:1000300089020008000000008B0200088D02000801
:100040008F0200088F0200088F0200088F0200084C
:100050008F0200088F0200088F0200088F0200083C
:100060008F0200088F0200088F0200088F0200082C
:100070008F0200088F0200088F0200088F0200081C
:100080008F0200088F0200088F0200088F0200080C
:100090008F0200088F0200088F0200088F020008FC
:1000A0008F0200088F0200088F0200088F020008EC
:1000B0008F0200088F0200088F0200088F020008DC
:1000C0008F0200088F0200088F020008DF08000876
:1000D000E9080008A5090008AF090008B9090008E7
:1000E0008F0200088F0200088F0200088F020008AC
:1000F0008F0200088F0200088F0200088F0200089C
:100100008F0200088F0200088F020008F308000821
:10011000910900089B0900088F0200086509000882
:100120008F0200088F0200088F0200088F0200086B
:100130008F0200088F0200088F0200088F0200085B
:100140008F0200088F0200088F0200088F0200084B
:100150008F0200088F0200088F020008C309000800
:100160008F0200088F0200088F0200088F0200082B
:100170008F0200088F0200088F0200088F0200081B
:100180008F0200088F02000800F002F800F062F809
:100190000AA090E8000C82448344AAF10107DA45E2
:1001A00001D100F057F8AFF2090EBAE80F0013F0D2
:1001B000010F18BFFB1A43F00103184758BF000096
:1001C00078BF00000A444FF0000C10F8013B13F018
:1001D000070408BF10F8014B1D1108BF10F8015BA0
:1001E000641E05D010F8016B641E01F8016BF9D193
:1001F00013F0080F1EBF10F8014BAD1C0C1B09D1EA
:100200006D1E58BF01F801CBFAD505E014F8016B5B
:1002100001F8016B6D1EF9D59142D6D370470000ED
:100220000023002400250026103A28BF78C1FBD8FF
:10023000520728BF30C148BF0B6070471FB50BF095
:100240005EF99DE8030000F0EBF900F025F91FBD11
:1002500010B510BD00F050FA1146FFF7EFFF08F09F
:1002600063FF00F08DFA03B4FFF7F2FF03BC00F068
:10027000C1FA00000948804709480047FEE7FEE749
:10028000FEE7FEE7FEE7FEE7FEE7FEE7FEE7FEE746
:1002900004480549054A064B70470000FD08000860
:1002A00089010008680E00206814002068100020F2
:1002B0006810002053EA020C00F069802DE9F04B31
:1002C0004FF00006002B1FBFB3FA83F503FA05F4C5
:1002D00024FA05F65E4012BF1643B2FA82F502FA1E
:1002E00005F4C5F120051EBF22FA05FC44EA0C0402
:1002F000203556EA044C4FEA144418BF641C4FF0F2
:1003000000084FF00009904271EB030C39D300292B
:1003100019BFB1FA81F701FA07F6B0FA80F700FACF
:1003200007F6C7F120071EBF20FA07FC46EA0C06B5
:100330002037B6FBF4FCA7EB0507103F07F01F0BB7
:10034000CBF120060CFA0BFB2CFA06F644BFB346A1
:100350000026202FA4BF5E464FF0000B5BEA060C80
:1003600008BF4FF0010B19EB0B09ABFB027C48EB0C
:100370000608C01B06FB02CC0BFB03CC71EB0C0187
:10038000C1E70B46024641464846BDE8F08B13B52F
:100390004FF000004FF00001AFF30080BDE81C40BB
:1003A000704710B54C1084EA530404D54042C1F1A3
:1003B000000138BF491E1B4204D55242C3F100035D
:1003C00038BF5B1EFFF776FF14F0804F04D0404229
:1003D000C1F1000138BF491E14F0004F04D0524251
:1003E000C3F1000338BF5B1E10BD10B5203AC0F04A
:1003F0000B80B1E81850203AA0E81850B1E8185026
:10040000A0E81850BFF4F5AF5FEA027C24BFB1E862
:100410001850A0E8185044BF18C918C0BDE81040D3
:100420005FEA827C24BF51F8043B40F8043B08BFDC
:100430007047D20728BF31F8023B48BF11F8012BA3
:1004400028BF20F8023B48BF00F8012B70474FF04F
:1004500000020429C0F0128010F0030C00F0958017
:10046000CCF1040CBCF1020F18BF00F8012BA8BF9F
:1004700020F8022BA1EB0C0100F087B85FEAC17CE9
:1004800024BF00F8012B00F8012B48BF00F8012B16
:10049000704770477047704770B5064C7C44064DF6
:1004A0007D4403E0206820448047241DAC42F9D1FC
:1004B00070BD000094BC000094BC00000048704770
:1004C0003C0E002070B5064600F08AF8056806F17B
:1004D0000B0020F00704B4429CBF002070BD2B46E7
:1004E0006A68BAB11068A04210D304F108018842CA
:1004F0003CBF5068586007D35168101941601168BB
:10050000091B016058601460101D70BD13465268CD
:10051000002AE7D12146284600F06EF80028DED1F7
:1005200070BD70B50446051F00F05AF80068002C35
:1005300014BF446870BD002C18BFAC423CBF2046BD
:100540006468F8D301680A18AA4218BF456003D14D
:100550002A6805461144016028684119A1421CBF60
:100560006C6070BD6168696021680844286070BD76
:1005700010B500F039F8006810BD10B5044600F061
:1005800033F8046010BD4FF0000200B513469446E6
:100590009646203922BFA0E80C50A0E80C50B1F1DB
:1005A0002001BFF4F7AF090728BFA0E80C5048BFEF
:1005B0000CC05DF804EB890028BF40F8042B08BF8D
:1005C000704748BF20F8022B11F0804F18BF00F889
:1005D000012B704700F05AB800487047080E002001
:1005E00000487047100E002000487047080E002099
:1005F000704770477047704738B504460A46002078
:100600006946AFF30080002808BF38BD0246009954
:10061000204600F09BF8012038BD012000F0C4B84E
:10062000F8B5AFF30080054600200C46102000BF4F
:100630000646A819A0420DD9324669460020AFF3FC
:100640000080070008BF00F0AFF80098A04218BF74
:100650000546C419FFF7C4FF05600746F01D20F0EA
:1006600007004619284600F00AF8B44208BFF8BD52
:10067000A21B31463868BDE8F84000F067B8002199
:100680000160C0E9011070471020704710B500F0FC
:100690000EF8016919B100220261884701E0806803
:1006A000804700F076F8000010B500F072F870B5E1
:1006B00000F048F804680546A4B92020FFF702FFBF
:1006C000040011D0094900202C60C4E90001084948
:1006D000A1602073206160610649A06109B100F04A
:1006E0006AF8E061204670BD00F053F80000000099
:1006F000A9060008000000007546FFF76DFFAE4632
:1007000005006946534620F00700854618B020B51D
:10071000FFF7BEFDBDE820404FF000064FF0000798
:100720004FF000084FF0000B21F00701AC46ACE899
:10073000C009ACE8C009ACE8C009ACE8C0098D4606
:100740007047000000487047440E00200346406890
:100750008C46002818BF88423CBF03464068F8D347
:1007600018681844884207D00CF1030020F00700F5
:10077000001D411A521A0146081D0A60FFF7D1BE3A
:1007800010B50446AFF300802046BDE81040FFF7E7
:100790006ABD10B5002000F039F8FFF759FDBDE83B
:1007A0001040012000F026B810B500F037F8BDE881
:1007B000104000F026B810B58820FFF783FE00280F
:1007C00001D00021017010BD802902D808B1017844
:1007D00009B100207047012100F8081B704718B1CB
:1007E00000F10802914201D0002070470021017001
:1007F0007047000001491820ABBEFEE7260002004A
:100800007047002801D0FFF7F5BF704710B500F022
:1008100047F8BDE81040FFF7F4BF000010B501280D
:1008200005D0002103A000F021F8012010BD09A18E
:10083000F8E7000053494752544D454D3A204F7553
:1008400074206F662068656170206D656D6F7279C8
:10085000000000003A2048656170206D656D6F7280
:100860007920636F727275707465640070B50546A7
:100870000C460A2000E06D1C00F02AF835B12878FB
:100880000028F8D102E0641C00F022F814B12078AE
:100890000028F8D1BDE870400A2000F019B8000027
:1008A00010B5002102A0FFF7E1FF012010BD0000FC
:1008B000534947414252543A2041626E6F726D6112
:1008C0006C207465726D696E6174696F6E000000F2
:1008D00008B569468DF800000320ABBE08BD00B521
:1008E000002000F051FB00BD00B5012000F04CFBE2
:1008F00000BD00B5022000F047FB00BD10B5154853
:10090000006840F47000134908601348006840F024
:1009100001001149086000200F49083108600E48A5
:1009200000680E4908400C4908600D48091D086020
:10093000081F006820F48020091F08600020064975
:100940000C31086000F062F84FF000600149803916
:10095000086010BD88ED00E000380240FFFFF6FEA1
:10096000103000240848008800F0010050B106480B
:10097000008820F001000449088004480068401CF9
:10098000024908607047000010140040BC040020B9
:1009900000B5042000F026FB00BD00B5052000F0E6
:1009A00021FB00BD00B5002000F01CFB00BD00B520
:1009B000022000F017FB00BD00B5032000F012FB81
:1009C00000BD00B5062000F00DFB00BD2DE9F0478D
:1009D00081460E4617469846C8EBC8054FF0000AF8
:1009E00010E050460AF1010A345C04B90BE0202CF7
:1009F00001D16D1D06E03B462A462146484601F0DE
:100A0000A1F90544EDE700BFBDE8F0870CB5002073
:100A1000019000903448006840F48030324908600A
:100A200000BF3148006800F4003000900198401C7D
:100A30000190009818B90198B0F5A04FF1D12A485B
:100A4000006800F4003010B10120009001E00020A7
:100A500000900098012846D123484030006840F0BB
:100A600080502149403108602048006840F44040EF
:100A70001E4908601C48083000681B49083108609E
:100A80000846006840F4004008600846006840F4EA
:100A9000A05008601648091F0860081F006840F051
:100AA0008070091F086000BF0F48006800F00070E8
:100AB0000028F9D040F205700E4908600A48083055
:100AC000006820F003000849083108600846006803
:100AD00040F00200086000BF03480830006800F0E2
:100AE0000C000828F8D10CBD00380240007000400E
:100AF00019544007003C024010B514230022052180
:100B0000452000F027FE142300220521442000F098
:100B100021FE142300220521432000F01BFE10BDFE
:100B200010B50146072911D2DFE801F00E100406C6
:100B3000080A0C0021480BE0214809E0214807E0A1
:100B4000214805E0214803E0214801E0204800BF9A
:100B500000BF204A525C204B5B5C9A4204D18289E0
:100B600022F08002828110BD00BF028802F0800264
:100B7000002AFAD0194A02EB4112174B5B5CD25C97
:100B80008280154B5B5C5A1CD31702EBD3635B115D
:100B9000A2EB4313104C63540E4A525C23465B5C39
:100BA0009A4204D1828922F08002828103E0828904
:100BB00042F08002828100BFD5E70000004400407F
:100BC00000480040004C004000500040001401402C
:100BD00000100140CE040020D5040020180D002094
:100BE00070B52DED068B0446B0EE408AF0EE608ABB
:100BF000B0EE480AF0EE680A06F046FAB0EE409A07
:100C0000F0EE609A9FED2B0B53EC102B51EC190B6F
:100C10000AF00CFA13D2B0EE480AF0EE680A09F0B6
:100C20000FF9B0EE409AF0EE609A9FED220B53EC74
:100C3000102B51EC190B0AF0FBF841EC180B012CAE
:100C400019D19FED1E0B53EC102B51EC180B0AF031
:100C5000EFF841EC1A0B9FED1B0B53EC102B09F036
:100C60003DFD41EC190B09F0B9FF05462A46032169
:100C7000012000F06BFA022C19D19FED100B53EC00
:100C8000102B51EC180B0AF0D3F841EC1A0B9FED26
:100C90000D0B53EC102B09F021FD41EC190B09F061
:100CA0009DFF05462A460421012000F04FFABDECC5
:100CB000068B70BD0000000000003E40CDCCCCCCC7
:100CC000CCCCEC3F000000000080564010B544F64C
:100CD0002061024806F098F810BD0000E0040020F2
:100CE00010B500F02DFA0021034A02F5A06203C2FC
:100CF000014803F0BFFB10BDE004002070B50646BC
:100D00000C46002506E028466A1CD5B2215C304618
:100D100001F038FC605D0028F5D170BD0146074840
:100D2000405C2030064B5B5CC01AC2B2D01702EBAD
:100D3000D0604011A2EB4010C0B27047C004002048
:100D4000C704002002480068401C01490860704741
:100D5000140000200146A1F12100704700F01F029D
:100D6000012191404209920002F1E022C2F80011F3
:100D7000704700F01F02012191404209920002F1E8
:100D8000E022C2F8001170470246072A11D2DFE8BC
:100D900002F00E100406080A0C000B490BE00B4988
:100DA00009E00B4907E00B4905E00B4903E00B495B
:100DB00001E00A4900BF00BF088800F0400008B108
:100DC000012070470020FCE700440040004800403C
:100DD000004C004000500040001401400010014051
:100DE0000020044981F8B406C1F8E804C1F8EC0415
:100DF00070470000E00400200120014908607047AE
:100E0000000000200120054981F8B4066FF01500AC
:100E1000C1F8E804C1F8EC0470470000E0040020C9
:100E200010B50620084908600621084804F01AF8A1
:100E300000210648E03880F8501680F85C1680F8EB
:100E4000681603F017FB10BD10000020C00500203D
:100E500010B50120054908600121054804F002F899
:100E600000200349E03981F8980610BD10000020E9
:100E7000C005002010B5044803F0FCFA00F060F94A
:100E80000021024A03C210BDE00400201800002027
:100E900070B52DED068B00F053F90021234AD2E9FD
:100EA0000032C41A61EB0201204609F03FFF41EC19
:100EB000190B1F4890ED302BB0EE420AF0EE620A9B
:100EC00090ED2E2BB0EE421AF0EE621A53EC102B7E
:100ED00051EC110B0AF0B8F953EC192B09F0BAFCDC
:100EE00041EC180B124890ED3C1BB0EE410AF0EEBD
:100EF000610A53EC102B51EC180B09F0EFFB0D4A73
:100F000002F59E6203C200F01BF90021094A02F5B6
:100F1000A06203C200F014F90021044A03C205488C
:100F200003F0A8FABDEC068B70BD0000180000208D
:100F3000E0080020E004002010B50021014803F083
:100F400091FF10BDC005002000B5024801F045FF2B
:100F500000BD0000E004002010B50821034803F0A4
:100F600081FF08200249086010BD0000C005002074
:100F70001000002010B5FFF7DFFF052001490860D1
:100F800010BD000010000020014621B1012904D04D
:100F9000022906D103E0094803E0094801E00948B5
:100FA00000BF00BF028902F0010232B18289064B04
:100FB00023F811200122054B5A547047003001409C
:100FC00000380040003C0040B6000020BA0000207D
:100FD00010B5FFF7B1FF04200149086010BD000003
:100FE0001000002030B50546072D11D2DFE805F0CE
:100FF0000E100406080A0C00204C0BE0204C09E0FF
:10100000204C07E0204C05E0204C03E0204C01E0A0
:101010001F4C00BF00BF208800F0200030B32088A4
:1010200000F00100A8B9208800F0020088B9A0886B
:10103000184901EB4511184A525D88541649495D1B
:10104000481CC11700EBD1614911A0EB4111124AB4
:101050005155208820F002002080208820F00100D7
:101060002080208820F02000208006E0208800F0EA
:10107000800010B12846FFF753FD30BD004400400A
:1010800000480040004C0040005000400014014067
:1010900000100140380C0020C004002000B50248B8
:1010A00001F098FF00BD0000E004002010B507210A
:1010B000034803F0D7FE07200249086010BD000076
:1010C000C00500201000002010B5FFF735FF0920F3
:1010D0000149086010BD00001000002010B5022179
:1010E000034803F0BFFE02200249086010BD000063
:1010F000C00500201000002010B50321034803F0B4
:10110000B1FE03200249086010BD0000C0050020A8
:101110001000002000B5014600F012F8024600BFA2
:1011200000F00EF8801A8842FAD300BD10B50120F5
:1011300002490860FFF78CFE10BD0000000000208F
:101140000148006870470000BC04002010B5034649
:101150000F2B22D2DFE803F021080A0D0F11212105
:10116000131517191B1D1F001B4816E04FF0804078
:1011700013E01A4811E01A480FE01A480DE01A4827
:101180000BE01A4809E01A4807E01A4805E01A4837
:1011900003E01A4801E01A4800BF00BF194CE45CA4
:1011A000022C05D1B432B2F5B47F01D94FF4B47238
:1011B000012906D0022906D0032906D0042908D126
:1011C00005E0426305E0826303E0C26301E002647C
:1011D00000BF00BF10BD000000000140000400403F
:1011E00000080040000C00400004014000400140A5
:1011F000004401400048014000180040001C00402D
:1012000000200040F80D002010B52AB143690124E8
:101210008C402343436104E0436901248C40A34391
:10122000436110BD70B504460E46102C0CDA2546FD
:10123000E01704EB10700011A4EB001081B23246ED
:101240001E48FFF7E1FF38E0202C0CDA2546E017B6
:1012500004EB10700011A4EB001081B23246184864
:10126000FFF7D2FF29E0302C0CDA2546E01704EB1B
:1012700010700011A4EB001081B232461148FFF744
:10128000C3FF1AE0402C0CDA2546E01704EB10707F
:101290000011A4EB001081B232460B48FFF7B4FFF7
:1012A0000BE02546E01704EB10700011A4EB0010D2
:1012B00081B232460548FFF7A7FF70BD000002402B
:1012C0000004024000080240000C024000100240EE
:1012D0002DE9F84F0646894692469846944D6F0090
:1012E0004FF0000B142000900F2E13D2DFE806F011
:1012F0009B0813212E3B9B9B48535E6974818E0093
:101300008C4C8D48006840F001008B490860BB465A
:101310000120009087E04FF080448748001F00685C
:1013200040F001008449091F0860AB46012000908D
:1013300079E0824C8048001F006840F002007E493E
:10134000091F0860AB46022000906CE07C4C7A4894
:10135000001F006840F004007749091F0860AB4691
:10136000022000905FE0774C7348001F006840F057
:1013700008007149091F0860AB460220009052E046
:10138000714C6D48006840F002006B490860BB4634
:101390000320009047E06D4C6748006840F48030BF
:1013A00065490860BB46032000903CE0684C6248F9
:1013B000006840F4003060490860BB46032000909C
:1013C00031E0644C5C48006840F480205A49086071
:1013D000BB460320009026E05F4C5748001F006882
:1013E00040F040005449091F0860AB4609200090B6
:1013F00019E05A4C5048001F006840F080004E49E8
:10140000091F0860AB46092000900CE0544C4A4884
:10141000001F006840F480704749091F0860AB4610
:101420000920009000BF00BF0098C3B20022022133
:10143000504600F08FF93F48844202D0424884422F
:1014400005D1B4F8440040F40040A4F844004548F5
:10145000844208D14FF47A7042492C3108605320FD
:10146000091F088024E04048805D08BB08F10100A6
:1014700070B902203C49885532209BFBF0F04FF4B4
:10148000616190FBF1F0401E20850846E0620BE0B0
:101490000120354988559BFBF8F0642190FBF1F061
:1014A000401E20856420E062208840F0800020807B
:1014B000B9F1010F09D0B9F1020F11D0B9F1030F41
:1014C00019D0B9F1040F2CD120E000206063208BEB
:1014D00040F060002083208C40F00100208420E058
:1014E0000020A063208B40F4C0402083208C40F07B
:1014F0001000208415E00020E063A08B40F0600025
:10150000A083208C40F4807020840AE000202064B6
:10151000A08B40F4C040A083208C40F480502084F5
:1015200000BF00BF208840F001002080BDE8F88F98
:1015300000BD0105000001404438024000040040A5
:1015400000080040000C0040000401400040014041
:10155000004401400048014000180040001C0040C9
:101560000020004000140040F80D00202DE9F04755
:101570002DED048B04460E4617469846DDF8309054
:101580006C48844206D16C48006840F001006A490A
:10159000086026E06948844206D16748006840F048
:1015A0000200654908601CE06548844206D1624833
:1015B000006840F004006049086012E0614884421D
:1015C00006D15D48006840F008005B49086008E00B
:1015D0005D48844205D15848006840F010005649E3
:1015E0000860304609F08FFB41EC190BB0EE491A48
:1015F000F0EE691A9FED550B06F06AFAB0EE408ADC
:10160000F0EE608A51EC180B09F0E8FA0546062F57
:1016100049D2DFE807F003101D2A3742206828432B
:101620002060206820EA4500206060680121B14008
:101630008843606038E0206828432060206820EA02
:101640004500206060680121B140084360602BE0E4
:101650002068A8432060206840EA45002060606858
:101660000121B140884360601EE02068A8432060EB
:10167000206840EA4500206060680121B14088434D
:10168000606011E0206805EB450108432060E068D8
:1016900005EB45018843E06006E0206805EB450165
:1016A0008843206000E000BF00BFB8F1000F17D0F2
:1016B000042F15D0B8F1010F07D1E0682843E0608E
:1016C000E06820EA4500E0600FE0B8F1020F0CD1BD
:1016D000E068A843E060E06840EA4500E06004E0BC
:1016E000E06805EB45018843E060A06805EB450133
:1016F0000843A060B9F1140F18D03546072E00DD5D
:10170000083DF11706EB5171CA1004F1200151F8A0
:101710002210AA0009FA02F211433046F21706EB32
:101720005272D31004F1200242F82310BDEC048B56
:10173000BDE8F0870000024030380240000402405B
:1017400000080240000C02400010024000000000AF
:10175000000010402DE9F84304460F4690461D4610
:10176000102C0EDA2646E01704EB10700011A4EBE3
:10177000001081B243463A4623480095FFF7F6FE33
:1017800040E0202C0EDA2646E01704EB1070001122
:10179000A4EB001081B243463A461C480095FFF77F
:1017A000E5FE2FE0302C0EDA2646E01704EB107031
:1017B0000011A4EB001081B243463A46144800954C
:1017C000FFF7D4FE1EE0402C0EDA2646E01704EBAD
:1017D00010700011A4EB001081B243463A460D4848
:1017E0000095FFF7C3FE0DE02646E01704EB1070EE
:1017F0000011A4EB001081B243463A46064800951A
:10180000FFF7B4FEBDE8F883000002400004024088
:1018100000080240000C02400010024051480068DD
:1018200020F003004F49086008460068086000BFC8
:101830004C48006800F00C000028F9D149480838ED
:10184000006820F0807047490839086000BF4548AB
:101850000838006800F000700028F8D141480838C6
:10186000006840F480303F490839086000BF3D48B7
:101870000838006800F400300028F8D039480068C3
:1018800020F0F000374908600846006820F4E05076
:1018900008600846006820F4604008600846006858
:1018A00008600846006840F4A050086008460068D8
:1018B00040F400400860081F006820F07060091FB5
:1018C00008600846006820F4403008600846006858
:1018D00047F6C07188432349091F0860084600681D
:1018E00020F03F0008600846006820F4800008608F
:1018F0000846006840F4800008600846006840F030
:10190000806008600846006840F0040008600846EF
:10191000006840F4285008600846006820F4403011
:101920000860081F006840F08070091F086000BF51
:101930000C480838006800F000700028F8D009480A
:10194000006820F00300074908600846006840F07E
:101950000200086000BF0348006800F00C00022885
:10196000F9D07047083802402DE9FF4F81B0814619
:101970000D469346DDE90EA6DDE9107800208B497F
:1019800021F819008A4901F8090014200090B9F1E2
:10199000000F06D0B9F1010F22D0B9F1020F61D1C9
:1019A0003FE0844C8448006840F4805082490860DD
:1019B0000AF1010060B9701C50B9781C40B908F1F7
:1019C000010028B94FF0040A052606274FF0070842
:1019D00005200090012D02D12320FFF7BFF941E03F
:1019E000764C7548001F006840F480407249091F1A
:1019F00008600AF1010060B9701C50B9781C40B948
:101A000008F1010028B94FF01C0A1D261E274FF0CF
:101A10001F0805200090012D02D12420FFF79EF918
:101A200020E0674C6448001F006840F400406249B1
:101A3000091F08600AF1010060B9701C50B9781CD8
:101A400040B908F1010028B94FF00F0A2A262B27C8
:101A50004FF02C0806200090012D02D13320FFF713
:101A60007DF900BF00BF002D56D1208820F038003E
:101A70002080049820281ED006DC04280CD00828DA
:101A80000FD010282BD111E0402819D080281CD06D
:101A9000B0F5807F23D11DE0208840F00800208031
:101AA0001DE0208840F01000208018E0208840F0E1
:101AB0001800208013E0208840F0200020800EE0F5
:101AC000208840F02800208009E0208840F0300085
:101AD000208004E0208840F03800208000BF00BF54
:101AE000208840F400702080208840F4807020809E
:101AF000B0B200220221009BFFF72CFEB8B20022F8
:101B00000221009BFFF726FE1FFA88F00022022127
:101B1000009BFFF71FFE19E0B0B200220221009BDC
:101B2000FFF718FEB8B200220221009BFFF712FE59
:101B30001FFA88F000220221009BFFF70BFE1FFA1C
:101B40008AF000220221009BFFF704FEBBF1100F78
:101B500004D1208840F40060208003E0208820F435
:101B600000602080208820F002002080208820F063
:101B700001002080208820F080002080012D03D1EA
:101B8000A08840F04000A08025B9208840F00400E3
:101B9000208003E0208820F004002080208840F08E
:101BA0004000208005B0BDE8F08F0000B6000020A6
:101BB000BA000020003001404438024000380040A4
:101BC000003C00402DE9F84304460F4690461D4670
:101BD000102C0EDA2646E01704EB10700011A4EB6F
:101BE000001081B243463A4623480095FFF7BEFCF9
:101BF00040E0202C0EDA2646E01704EB10700011AE
:101C0000A4EB001081B243463A461C480095FFF70A
:101C1000ADFC2FE0302C0EDA2646E01704EB1070F6
:101C20000011A4EB001081B243463A4614480095D7
:101C3000FFF79CFC1EE0402C0EDA2646E01704EB72
:101C400010700011A4EB001081B243463A460D48D3
:101C50000095FFF78BFC0DE02646E01704EB1070B3
:101C60000011A4EB001081B243463A4606480095A5
:101C7000FFF77CFCBDE8F88300000240000402404E
:101C800000080240000C02400010024002461069A9
:101C900001238B40184008B1012070470020FCE769
:101CA0002DE9F0470446102C0CDA2546E01704EB2A
:101CB00010700011A4EB001081B21D48FFF7E6FF81
:101CC000BDE8F087202C0BDA2646E01704EB1070F5
:101CD0000011A4EB001081B21648FFF7D7FFEFE721
:101CE000302C0BDA2746E01704EB10700011A4EB40
:101CF000001081B21048FFF7C9FFE1E7402C0BDA72
:101D0000A046E01704EB10700011A4EB001081B2A4
:101D10000A48FFF7BBFFD3E7A146E01704EB1070BA
:101D20000011A4EB001081B20548FFF7AFFFC7E731
:101D3000000002400004024000080240000C024083
:101D4000001002402DE9FF4F85B08A4690461D469F
:101D500005EB450000EBC505ED1C5046FEF7FAFF0C
:101D600007462D4800EBC700D0F804902A49781C9C
:101D700001EBC000406804904C4643E0264850F810
:101D800037B0BBF1080F18DCCBF10800C6B211E088
:101D90002248005D304100F001032819A0EB090042
:101DA00002B208F10800801B01B2059800F034FD72
:101DB000701CC6B2082EEBDB23E008F11000039084
:101DC000A4EB090005EB50000290601C0190002676
:101DD00013E00198A0EBE600104A105C06F0070241
:101DE000104100F001030398801B01B2029802B277
:101DF000059800F011FD701CC6B2102EE9DB641CC2
:101E000000BF641C04988442B8D3034850F83700DC
:101E1000801C09B0BDE8F08F48BB0008C8B60008B8
:101E200010B51423002211464F20FFF793FC142312
:101E3000002211463020FFF78DFC142300221146AA
:101E40002B20FFF787FC00212B20FFF7EBF9002167
:101E50003020FFF7E7F900214F20FFF7E3F910BD2D
:101E60002DE9FF4F2DED020B2DED028B81B00546C4
:101E70000F46B0EE408A1E46DDF848900020DA4951
:101E80004855DA494855DA494855DA49485500BFB6
:101E900009E00021D84A02EB45121154D74A02EB5F
:101EA00045121154401C2028F3DB072D05D2DFE832
:101EB00005F02B044663809DBA00D14CD1480068E0
:101EC00040F01000CF4908600720012302220821BA
:101ED0000090CD48FFF74AFB072001230222092189
:101EE0000090C948FFF742FB0720012302220A2184
:101EF0000090C548FFF73AFB208A40F4006020823A
:101F00002520FEF736FFA9E0BD4CBE48006840F032
:101F10001000BC490860072001230222092100901B
:101F2000B948FFF723FB0720012302220A21009072
:101F3000B548FFF71BFB2520FEF71BFF8EE0B34CD7
:101F4000B048001F006840F40030AE49091F086027
:101F500007200123022211460090AB48FFF706FB41
:101F600007200123022203210090A748FFF7FEFA71
:101F70002620FEF7FEFE71E0A54CA248001F006877
:101F800040F480209F49091F086007200123022296
:101F90000A2100909F48FFF7E9FA07200123022257
:101FA0000B2100909B48FFF7E1FA2720FEF7E1FEA6
:101FB00054E0994C9348001F006840F40020914978
:101FC000091F0860082001230222002100908E488A
:101FD000FFF7CCFA082001230222194600908A4814
:101FE000FFF7C4FA3420FEF7C4FE37E08B4C854877
:101FF000001F006840F480108249091F0860082013
:10200000012302220C2100908548FFF7AFFA082037
:1020100001230222114600908248FFF7A7FA3520DB
:10202000FEF7A7FE1AE0804C7648006840F02000DA
:102030007449086008200123022206210090784894
:10204000FFF794FA08200123022207210090744828
:10205000FFF78CFA4720FEF78CFE00BF00BFA08977
:1020600040F40050A0810798092804D1A08940F4C9
:102070008050A08103E0A08920F48050A081B2EEBE
:10208000040A28EE000ABDEEC00A10EE108AB8F16C
:10209000050F0ED0B8F10A0F06D0B8F10F0F1AD005
:1020A000B8F1140F1CD10DE0208A20F4405020829A
:1020B00016E0208A20F400502082208A40F48050CC
:1020C00020820DE0208A40F400502082208A20F4F3
:1020D0008050208204E0208A40F44050208200BFDB
:1020E00000BF8EB1A08940F48060A081012E04D190
:1020F000A08920F40070A0810AE0022E08D1A089F6
:1021000040F40070A08103E0A08920F48060A081E9
:10211000A08920F40040A0814FF0000AD346B9F115
:102120002A0F21D1B7F5165F09D0B7F5164F0BD09E
:10213000B7F5614F0DD0B7F5E13F14D10EE040F295
:10214000111A4FF0070B0EE04FF0440A4FF0060B48
:1021500009E04FF02D0A4FF0090B04E04FF0160A8A
:102160004FF00D0B00BF24E0B9F1540F21D1B7F5AA
:10217000165F09D0B7F5164F0BD0B7F5614F0DD0EC
:10218000B7F5E13F14D10EE040F2222A4FF00E0BDA
:102190000EE04FF0880A4FF00C0B09E04FF05B0A9D
:1021A0004FF0020B04E04FF02D0A4FF0090B00BF77
:1021B00000BF002020810BEB0A102081A08940F095
:1021C0000400A081A08940F00800A081A08940F00F
:1021D0002000A081A08940F08000A08101B0BDEC6A
:1021E000028B06B0BDE8F08FD5040020CE0400209D
:1021F000C7040020C0040020380C0020180D002067
:1022000000100140443802400000024000440040F9
:102210000048004000040240004C004000500040D4
:1022200000080240000C02400014014010B50146B5
:102230000D48405C0D4A525C904201D1002010BD17
:102240000B4800EB4110084B5B5CC25C064B5B5CCF
:10225000581CC31700EBD3635B11A0EB4313024C74
:1022600063541046EBE70000C7040020C0040020C0
:10227000380C002010B5FFF7D1FA2648006840F06E
:102280002000244908605320234908804FF47A70C5
:10229000091D086020482838008840F080001E4949
:1022A000283908800846008820F060000880084629
:1022B000008820F01000088017481C38008840F083
:1022C000010015491C390880372000F01F02012148
:1022D00091404209920002F1E022C2F8001100BFD1
:1022E0000121002807DA0A07140E0C4A00F00F0338
:1022F0001B1FD45403E00A07130E094A135400BFEE
:1023000005482838008840F0010003492839088032
:1023100010BD0000403802402814004018ED00E0D5
:1023200000E400E002460B4622B1012A04D0022A52
:1023300006D103E00A4903E00A4901E00A4900BF67
:1023400000BF00BF088900F002000028FAD08B818E
:1023500000BF088900F001000028FAD08889704782
:102360000030014000380040003C004010B50248F9
:1023700001F0ECFE10BD0000E004002010B50248A2
:1023800001F0EDFE10BD0000E004002070B52DED61
:10239000088B0546B0EE409AF0EE609AB0EE498A9E
:1023A000F0EE698A9FED3D0B53EC102B51EC180BAE
:1023B00008F002FD09D22D21284600F0E3F851EC87
:1023C000180B08F04CF941EC180B51EC180B08F005
:1023D000D5FB04462146284600F070F82E212846F9
:1023E00000F0D0F851EC180B08F0C8FB044608F0D8
:1023F00022FC41EC1B0B53EC182B08F04DFE41EC7A
:10240000180B9FED280B53EC102B51EC180B08F018
:1024100065F941EC180B9FED25AB002438E09FEDEA
:10242000250B53EC102B51EC1A0B08F001FD41EC7D
:102430001A0B9FED200B53EC102B51EC180B08F0EE
:10244000F7FC41EC180B51EC180B08F097FB0A2134
:1024500090FBF1F201FB12063146284600F02EF8FF
:1024600051EC180B08F08AFB064608F0E4FB41EC3F
:102470001B0B53EC182B08F00FFE41EC180B53EC20
:102480001A2B51EC180B08F097FC00D202E0641CE8
:10249000062CC4DBBDEC088B70BD00000000000002
:1024A0000000000048AFBC9AF2D77A3E8DEDB5A08F
:1024B000F7C6B03E000000000000244070B504469E
:1024C0000D462946204600F001F870BD70B505465E
:1024D0000C46002C04DA2D21284600F053F8644203
:1024E0002146284600F002F870BD00002DE9F05F9B
:1024F0002DED068B83460D46284608F004FC41EC82
:10250000180B08F06BFB0446002603E0761C0A203B
:10251000B4FBF0F40A2CF9D22C46002728E09FEDFA
:10252000178BA6EB070A504608F085FB41EC1A0B07
:10253000B0EE4A1AF0EE6A1AB0EE480AF0EE680AF7
:1025400005F0C6FAB0EE409AF0EE609A51EC190B25
:1025500008F044FB8046B4FBF8F000F0FF0909F1F5
:102560003000C1B2584600F00DF809FB18447F1C3A
:10257000B742D4D9BDEC068BBDE8F09F0000000047
:102580000000244030B504460D460A4800EB4410D4
:102590000949095D45540849095D481CC11700EB0C
:1025A000D1614911A0EB4111034A11552046FEF7B4
:1025B000B7FA30BD180D0020CE04002070B50446D7
:1025C0000D4694F908002946FFF7ACFE70BD70B5C2
:1025D00004460D46E0890121FEF724FE60890021B2
:1025E000FEF720FEE0890021FEF71CFE294620466A
:1025F000FFF7E4FFE0890121FEF714FE70BD7FB50F
:1026000004460D46164668B260710020207160894C
:10261000142300221146FFF79DF8E08914230022BD
:102620001146FFF797F8A08A4FF0FF33618AE289DD
:10263000CDE901130092039094F9080008231A468B
:102640000021FFF791F9A089142300221146FFF71A
:1026500081F8A0890121FEF7E5FD0120FEF75AFD72
:10266000A0890021FEF7DEFD0A20FEF753FDA089B8
:102670000121FEF7D7FDAE212046FFF7A8FFD521A7
:102680002046FFF7A4FF80212046FFF7A0FFA821E6
:102690002046FFF79CFF3F212046FFF798FFD321FC
:1026A0002046FFF794FF00212046FFF790FF4021CE
:1026B0002046FFF78CFF8D212046FFF788FF012D74
:1026C00004D110212046FFF782FF03E014212046A9
:1026D000FFF77DFF20212046FFF779FF00212046EC
:1026E000FFF775FFA1212046FFF771FFC8212046A3
:1026F000FFF76DFFDA212046FFF769FF1221204620
:10270000FFF765FF81212046FFF761FF012D04D10E
:102710009F212046FFF75BFF03E0CF212046FFF714
:1027200056FFD9212046FFF752FF012D04D1222167
:102730002046FFF74CFF03E0F1212046FFF747FF5B
:10274000DB212046FFF743FF40212046FFF73FFFF4
:10275000A4212046FFF73BFFA6212046FFF737FFC5
:102760002E212046FFF733FFAF212046FFF72FFF32
:102770007FBD000010B504464FF480610148FDF7AD
:1027800066FE10BDBC00002070B505460C4624B1A5
:10279000A7212846FFF71BFF03E0A6212846FFF7E5
:1027A00016FF70BD70B5044621212046FFF70FFFCC
:1027B00000212046FFF70BFF7F212046FFF707FF90
:1027C00022212046FFF703FF00212046FFF7FFFEEE
:1027D00007212046FFF7FBFEE0890121FEF722FDDD
:1027E00060890121FEF71EFDE0890021FEF71AFD38
:1027F000002506E00748415D2046FFF7DFFE681C24
:1028000085B2B5F5806FF5DBE0890121FEF70AFDA1
:1028100070BD0000BC000020F0B50446002905DBB7
:10282000802903DA002A01DB402A00DBF0BD207991
:10283000012804D0022809D0032815D10DE008464C
:1028400011460246C1F17F0001B20EE0C1F17F00E6
:1028500001B2C2F13F0002B207E00846114602464B
:10286000C2F13F0002B200E000BF00BFE3B1012BA4
:1028700002D0022B47D12EE0D51702EB5575ED1093
:1028800001EBC515214E755D02F007070126BE401C
:102890003543EEB21046D51702EB5575ED1001EB3E
:1028A000C5151A4F7E552EE0D51702EB5575ED1064
:1028B00001EBC515154E755D02F007070126BE40F8
:1028C000B5431046D61702EB5676F61001EBC61646
:1028D0000E4FBD5517E0D51702EB5575ED1001EB06
:1028E000C5150A4E755D02F007070126BE4075400A
:1028F000EEB21046D51702EB5575ED1001EBC5157C
:10290000024F7E5500BF00BF00BF8FE7BC00002014
:102910002DE9F05F04460D4616461F46DDE90CAB77
:10292000DDE90A980E48206068B220726681A781AE
:10293000A4F80E90A4F812A0A4F814B00120A07579
:10294000A4F810801423002211464046FEF702FF2F
:1029500001214046FEF766FC2046BDE8F09F0000DE
:1029600008C10008014901607047000008C1000863
:1029700070B5044600214A20FEF754FC94F8211556
:102980000020FFF7CFFCC5B245B194F820156A1EB0
:10299000D0B207F0BDFA84F8200508E006480068C8
:1029A00040F0200004490860002084F8200501213F
:1029B0004A20FEF737FC70BD0400002070B50446C5
:1029C0003A48007800F0010050B9384804F0B2FBF2
:1029D00030B1FEF7B5FB364908603448AFF30080EC
:1029E000FEF7AEFB32490968401AFA2800DA70BDDA
:1029F00094F8480610B901202E49087094F848064A
:102A0000F0B12C480078D8B104F1E006D6F8B00354
:102A1000C0EBC00101EB001106F1180000EB8105CD
:102A2000D5E91512114405EBC1014868804700BF84
:102A300000BFFEF785FB1E49086000201D49087095
:102A400040F25460005D10B304F1E001D1F8B0230E
:102A5000C2EBC20303EB021301F1180202EB830085
:102A6000826D521E8265826D002A05DA826D521CCB
:102A70008265426D521E4265426D002A01DA0022D3
:102A8000426500BF00BFFEF75BFB094908604FF4D9
:102A9000CC60005D38B104F1E00002F0BDF9FEF752
:102AA0004FFB0349086000BFA1E70000A000002021
:102AB000A4000020A800002070B52DED088B04466E
:102AC000204601F0CBFAB0EE408AF0EE608A204654
:102AD00001F0E2FAB0EE409AF0EE609A204601F082
:102AE000F9FAB0EE40AAF0EE60AA204601F010FB21
:102AF000B0EE40BAF0EE60BA04F5806080ED9C8BD9
:102B000053EC182B51EC190B08F09EFB04F5CE6228
:102B1000C2E9020153EC192B51EC1A0B08F094FB9B
:102B200004F5CE62C2E9040153EC1A2B51EC1B0BE5
:102B300008F08AFB04F5CE62C2E90601002519E01F
:102B400004F5CE6000EBC50090ED001BB0EE410A2D
:102B5000F0EE610A9FED0A1B53EC112B51EC100BA8
:102B600008F02AF905D20848006840F48070064948
:102B700008606D1C042DE3DBBDEC088B70BD00000C
:102B80006666666666660A400400002070B5054603
:102B9000002408E004EBC40205F5A56101EBC200C6
:102BA00001F05AFF641C042CF4DB70BD70B50546BF
:102BB000002408E004EBC40205F5A56101EBC200A6
:102BC00001F03CFF641C042CF4DB70BD70B50446BE
:102BD0004520FFF765F80546294604F5C96001F070
:102BE00083FE4420FFF75CF80546294604F2546052
:102BF00001F07AFE4320FFF753F80546294604F515
:102C0000CC6001F071FE70BD2DE9F04F93B0044629
:102C10000026BEE006EBC60204F5A56000EBC2018B
:102C200048226846FDF7E1FBABE09DF80000FFF7A6
:102C3000FDFA00F58075E81705EB10600012A5EBB2
:102C40000027BB2F08D15548007828B901205349E7
:102C500008700020524908605048007800287DD054
:102C60004F4801680068401C4D4A10604D4840F8CC
:102C7000217010460068032801D14B48076048487E
:102C8000006849490968884273D1464890F8049021
:102C9000D0F81080032107F020F900F0FF0A424825
:102CA0000068411E3F4807F018F900F0FF0B3D484F
:102CB000C068504507D13C480068401E394951F86A
:102CC000200058450BD03948006840F002003749D1
:102CD000086000203249086013B0BDE8F08F00257D
:102CE0003FE005EBC50104F5A56000EBC1004078AD
:102CF000484532D1B8F1A60F1BD12B480068811F7F
:102D0000002013E0274B821D13F8223005EBC50C81
:102D100004F5A56202EBCC02921CDFF888C000F13A
:102D2000050E5CF82EC002F80C30801C8842E9DBEE
:102D300000BFB8F1E30F02D0B8F1E60F05D11B4890
:102D4000006840F004001949086005EBC50204F56D
:102D5000A56101EBC20001F02FFE01E010E008E0E8
:102D60006D1C042DBDDB00200C4908700C49086067
:102D700000BF0B480068102802DB002007490870DC
:102D800000BF9DF80000FDF7C9FF00287FF44DAF9C
:102D9000761C042EFFF63EAF00BF9DE748000020E2
:102DA00040000020A80B0020440000200400002068
:102DB00010B50446FEF7C4F9FEF7C2F910BD10B510
:102DC0000446204601F028F9C4F89006204601F098
:102DD00033F940F29461085110BD022180F82115A9
:102DE0007047000070B52DED068B044601206C493C
:102DF00008700320FDF792FF00287CD00320FFF726
:102E000015FA00F58075E81705EB10600012A5EBC8
:102E10000026BB2E08D16348007828B901206149FB
:102E200008700020604908605E48007800287CD067
:102E30005D4801680068401C5B4A10605B4840F8D0
:102E40002160104600685A49096888426DD1012006
:102E5000534908700821554807F03FF8C5B2534858
:102E6000006AA8427DD15149486807F0E4FE41EC70
:102E7000180B9FED500B53EC102B07F0EBFC04F5F7
:102E8000936203C24949C86807F0D5FE41EC1A0BAA
:102E90009FED4A0B53EC102B07F0CAFF41EC180BC7
:102EA0004249886807F0C7FE41EC1A0B9FED450BBD
:102EB00053EC102B07F0BCFF41EC190B53EC182B13
:102EC00007F00CFC04F59362C2E902013749486936
:102ED00007F0B1FE41EC1A0B9FED380B53EC102BB1
:102EE00007F0A6FF41EC180B3049086907F0A3FE74
:102EF00041EC1A0B00E045E09FED320B53EC102B38
:102F000007F096FF41EC190B53EC182B07F0E6FB8A
:102F100004F59362C2E9040124498969A1F16400BE
:102F200007F089FE41EC190B00E02AE09FED270B2A
:102F300053EC102B07F07CFF41EC180B07F01EFE42
:102F4000C4F8E8041949C969A1F1640007F073FEE7
:102F500041EC190B9FED1D0B53EC102B07F068FF94
:102F600000E008E041EC180B07F008FEC4F8EC04A0
:102F700000200B49087000200B49086009490870BF
:102F800000BF00BF08480068092804DB002005498D
:102F900008700549086002480078BDEC068B70BDDA
:102FA000B5000020B4000020AC000020140C00206C
:102FB000B0000020000000000000494000000000B8
:102FC0000080763F000000000080F63FCDCCCCCCE6
:102FD000CCCCEC3F012180F82115704770B58AB048
:102FE0000446FEF7ADF8002104F59B64C4E9000136
:102FF000FEF7A6F80021C4E90201FEF7A1F80021BE
:10300000C4E90A01A4F59B649FEDE30B04F580601D
:1030100080ED3C0BFEF704FFFDF76EFD142300224C
:1030200011461C20FEF796FB01211C20FEF7FAF842
:103030000A20FEF76FF838220121204603F028FB12
:103040003220FEF767F8204601F014FA1E20FEF742
:1030500061F82A200023B7EE000A08224FF4E1317C
:1030600000900420FEF7FCFE2A200023B7EE000AA1
:1030700008224FF4E13100900520FEF7F1FE5420C4
:103080000023B7EE000A08224FF4E1310090184601
:10309000FEF7E6FE54200023B7EE000A08224FF4A4
:1030A000E13100900620FEF7DBFE2A2000239FED91
:1030B000BC0A08224FF4E13100900320FEF7D0FE55
:1030C0002A200023B7EE000A08224FF4E1310090D5
:1030D0000220FEF7C5FE4FF49670FEF71BF84FF086
:1030E000FF3000900190029008231A4600210390BF
:1030F0000846FEF739FC1423002211464A20FEF749
:1031000029FB1423002211464B20FEF723FB042346
:103110000122002104F5A56001F0ACFC032120464A
:1031200000F016FF05230322642104F5AE6001F0D0
:10313000A1FC0321204600F00BFF00230222C8213E
:1031400004F5B76001F096FC0321204600F000FF73
:10315000062304224FF4967104F5C06001F08AFC46
:103160000321204600F0F4FE00260DE006EBC60227
:1031700004F5A56101EBC200002101F0D1FB05219E
:10318000204600F0E5FE761C042EEFDB0020C4F89C
:10319000A40600214FF4D5600151001D0151001D0E
:1031A0000151002084F8B4069FED7B0B04F580608C
:1031B00080ED320B9FED780B80ED340BBB2084F853
:1031C000210515202A2116223423CDE90032CDE92C
:1031D000021036233522022104A8FFF799FB0122B1
:1031E000022104A8FFF70BFA04A8FFF7C3FA012392
:1031F0000A22114604A8FFF70FFB04A8FFF7D2FA32
:10320000002104A8FFF7C0FA04A80221017100BF41
:1032100004F1E0009DF8141001719DF81510417142
:103220009DF8161081719DF81710C1719DF8181046
:103230000172BDF81A104181BDF81C108181BDF8E2
:103240001E10C181BDF820100182BDF822104182FC
:10325000BDF8241081829DF826108175002084F825
:103260009806FDF76DFFC4F89C0614230022114652
:103270004820FEF76FFA01214820FDF7D3FF142301
:10328000002211460F20FEF765FA01210F20FDF7FD
:10329000C9FF1423002211460C20FEF75BFA01211E
:1032A0000C20FDF7BFFF1423002211460820FEF773
:1032B00051FA01210820FDF7B5FF14230022114621
:1032C0000B20FEF747FA01210B20FDF7ABFF14237B
:1032D000002211462920FEF73DFA01212920FDF7A1
:1032E000A1FF0C2003F0E8FE05462E4901F0E8FCA2
:1032F000054604F5A06095E80E0008300EC00C38B5
:1033000001F05CFC202104F5A16001F019FC2121F1
:1033100004F5A16001F014FC222104F5A16001F084
:103320000FFC232104F5A16001F00AFC04F5A16063
:1033300001F0B8FC0C2003F0BFFE05461A4901F06D
:10334000BFFC054604F5A06095E80E0014300EC0E1
:103350000C3801F033FC102104F2145001F0F0FBA2
:10336000112104F2145001F0EBFB04F2145001F0AF
:1033700099FC0020C4F8E804C4F8EC04C4F8A006E2
:103380009FED050B04F5806080ED3E0B00200749A2
:1033900008700AB070BD00000000000000000000CE
:1033A0000000000000200140002101400C0000202E
:1033B00001B52DED0A0BAAB09DED2C0B03F064FEB8
:1033C0008DED280B0BE09FEDFE0B53EC102B9DEDCC
:1033D000280B51EC100B07F037FFCDE928019FEDCA
:1033E000F80B53EC102B9DED280B51EC100B07F054
:1033F0001DFEE8D39DED280B53EC102B9FEDF00B39
:1034000051EC100B07F020FFCDE908019DED081BE2
:103410009DED280B06F083FD8DED280B9FEDEA0B4B
:1034200053EC102B9DED280B51EC100B07F000FD19
:10343000CDE906019DED060B04F0DAFA8DED080BDF
:103440009DED080B53EC102B9FEDE10B51EC100B95
:1034500007F000FACDE926019DED260B53EC102B69
:103460009FEDDD0B51EC100B07F0E2FCCDE90801FC
:103470009DED2A0B53EC102B9DED080B51EC100B1E
:1034800007F0D6FCCDE92A01349800F5806090ED74
:10349000300B8DED080B349800F5806090ED2E0B0D
:1034A0008DED060B9DED080B53EC102B9DED060BDF
:1034B00051EC100B07F0C8FECDE924010BE09FEDA5
:1034C000C80B53EC102B9DED240B51EC100B07F0A7
:1034D000BBFECDE924019FEDC40B53EC102B9DEDF9
:1034E000240B51EC100B07F0A1FDE8D30BE09FED8E
:1034F000BC0B53EC102B9DED240B51EC100B07F083
:10350000EDF8CDE924019FEDBA0B53EC102B9DEDA6
:10351000240B51EC100B07F04FFCE8D3B6480078B1
:1035200000F0010090B9B44803F004FE70B19DEDC5
:103530002E0B53EC102B9DED240B51EC100B07F0D0
:10354000CDF8AE4A03C2AC48AFF30080AC48007877
:1035500000F0010050B9AA4803F0ECFD30B1FDF7CE
:10356000EFFDA8490860A648AFF30080FDF7E8FD2D
:10357000A4490968401A099007F0C5FBCDE922016A
:10358000FDF7DEFD9F4908609DED2E0B53EC102BDF
:103590009DED240B51EC100B07F0A0F89A4A03C2E2
:1035A0000CE09FED8F0B53EC102B974890ED000B28
:1035B00051EC100B07F048FE934A03C29FED8A0BB3
:1035C00053EC102B904890ED000B51EC100B07F0D2
:1035D0002DFDE6D30CE09FED820B53EC102B8A48B7
:1035E00090ED000B51EC100B07F078F8864A03C2FF
:1035F0009FED7F0B53EC102B834890ED000B51ECAB
:10360000100B07F0D9FBE6D39FED800B53EC102B8A
:103610007D4890ED000B51EC100B07F009FC7D4A42
:1036200003C29FED7D0B7E4880ED000B734890ED4B
:10363000000B53EC102B744890ED000B51EC100B69
:1036400007F002FE9FED770B53EC102BCDE906013E
:103650009DED060B51EC100B07F0EAFBCDE90801DC
:103660009DED220B53EC102B9DED080B51EC100B34
:1036700007F0F0F86D4A03C26C4890ED000B03F0C0
:1036800003FD8DED080B9FED6A0B53EC102B9DEDA8
:10369000080B51EC100B07F0C9FC12D2634890EDF7
:1036A000000B06F0CDFB8DED080B9FED610B53EC8D
:1036B000102B9DED080B51EC100B07F0B9FB5B4A8A
:1036C00003C25A4890ED000B53EC102B514890ED7B
:1036D000000B51EC100B07F001F8CDE90601504842
:1036E00090ED000B53EC102B9DED060B51EC100BE5
:1036F00006F0F4FF9FED500B53EC102BCDE90801C1
:103700009DED080B51EC100B07F092FBCDE9200169
:103710009DED200B03F0B8FC8DED080B9FED480BE1
:1037200053EC102B9DED080B51EC100B07F07EFCB9
:1037300011D29DED200B06F083FB8DED080B9FED64
:10374000400B53EC102B9DED080B51EC100B07F0C8
:103750006FFBCDE920019FED1C0B53EC102B9DED71
:103760002C0B51EC100B07F063FBCDE906019DED2E
:10377000060B04F03DF98DED080B9DED2A0B53EC83
:10378000102B9DED080B51EC100B07F051FBCDE910
:103790001E019FED0D0B53EC102B9DED2C0B51ECEE
:1037A000100B07F045FBCDE906019DED060B04F07B
:1037B000B7FF8DED080B9DED2A0B53EC102B43E06A
:1037C0000000000000805640000000A046DF913F4E
:1037D000000000000000F03F00000000006874409E
:1037E000000000000080764000000000008066407D
:1037F00000000000008066C0540000205800002037
:103800005000002088000020780000200000000008
:1038100000000040600000200000000000000000E8
:10382000700000200000000000002440680000201C
:103830000000000000805140000000000000F0BFC8
:1038400000000000000079409DED080B51EC100BCA
:1038500007F0EEFACDE91C019DED220B53EC102B85
:103860009FEDFE0B51EC100B07F0E2FA9FEDFD0B04
:1038700053EC102BCDE906019DED060B51EC100B1E
:1038800006F0E8FFCDE908019DED300B53EC102B5D
:103890009DED080B51EC100B07F0CAFACDE9300191
:1038A000349800F5806090ED320B8DED080B9DEDA6
:1038B000080B53EC102B9DED1E0B51EC100B07F079
:1038C000C3FCCDE91A01349800F5806090ED340B0B
:1038D0008DED080B9DED080B53EC102B9DED1C0B93
:1038E00051EC100B07F0B0FCCDE918019DED1A1B4F
:1038F0009DED180B03F044FF8DED160B9DED160B9F
:1039000004F076F88DED140B9DED160B04F008FF16
:103910008DED120B9DED1A0B03F0B6FB8DED060B32
:103920009DED300B53EC102B9DED140B51EC100B57
:1039300007F07EFACDE904019DED060B53EC102B48
:103940009DED040B51EC100B07F070FB04D29DEDC4
:103950001A0B03F099FB3FE09DED1A0B03F094FB6B
:103960008DED020B9DED020B51EC100B06F077FE76
:10397000CDE906019DED300B53EC102B9DED140BA2
:1039800051EC100B07F054FACDE904019DED060B44
:1039900053EC102B9DED040B51EC100B07F00CFABF
:1039A0000ED29DED1A0B03F06FFB8DED060B9DED16
:1039B000060B51EC100B06F052FE41EC100B0BE025
:1039C0009DED300B53EC102B9DED140B51EC100BB7
:1039D00007F02EFA41EC100B8DED080B349800F532
:1039E000806090ED320B8DED060B9DED060B53ECD8
:1039F000102B9DED080B51EC100B06F06FFE0A46E4
:103A00000146349800F5996006C09DED180B03F04F
:103A10003BFB8DED060B9DED300B53EC102B9DED1C
:103A2000120B51EC100B07F003FACDE904019DEDE8
:103A3000060B53EC102B9DED040B51EC100B07F013
:103A4000F5FA04D29DED180B03F01EFB3FE09DED4F
:103A5000180B03F019FB8DED020B9DED020B51ECE1
:103A6000100B06F0FCFDCDE906019DED300B53EC8B
:103A7000102B9DED120B51EC100B07F0D9F9CDE98D
:103A800004019DED060B53EC102B9DED040B51EC46
:103A9000100B07F091F90ED29DED180B03F0F4FA1C
:103AA0008DED060B9DED060B51EC100B06F0D7FDCE
:103AB00041EC100B0BE09DED300B53EC102B9DED0A
:103AC000120B51EC100B07F0B3F941EC100B8DED1C
:103AD000080B349800F5806090ED340B8DED060BEB
:103AE0009DED060B53EC102B9DED080B51EC100BCC
:103AF00006F0F4FD0A460146349800F59A6006C0C7
:103B0000349800F5806090ED340B8DED020B349805
:103B100000F5806090ED340B8DED000B9DED020BF8
:103B200053EC102B9DED000B51EC100B07F080F9BE
:103B3000CDE90601349800F5806090ED320B8DEDF3
:103B4000020B349800F5806090ED320B8DED000B88
:103B50009DED020B53EC102B9DED000B51EC100B67
:103B600007F066F9CDE904019DED060B53EC102B2F
:103B70009DED040B51EC100B06F0B0FDCDE90801F2
:103B80009DED080B04F030FE8DED100B349800F520
:103B9000806090ED320B8DED060B349800F580605F
:103BA00090ED340B8DED040B9DED061B9DED040B8C
:103BB00003F0E6FD8DED080B9FED2C0B53EC102B65
:103BC0009DED080B51EC100B07F032F9CDE90E0119
:103BD0009DED240B53EC102B9DED0E0B51EC100BB7
:103BE00006F07CFD9FED230B53EC102BCDE900017B
:103BF0009DED000B51EC100B07F026FB9FED1F0B0A
:103C000053EC102BCDE902019DED020B51EC100B92
:103C100007F00EF9CDE904019DED040B04F080FDE1
:103C20008DED060B9DED100B53EC102B9DED060B4F
:103C300051EC100B07F0FCF8CDE908019DED080BE5
:103C400051EC100B06F09AFF0D909DED240B53ECF8
:103C5000102B9DED0E0B51EC100B13E0000000003B
:103C60000000144000000000000008400000002098
:103C7000DCA54C400000000000004440000000A013
:103C800046DF913F06F02AFD9FEDAA0B53EC102B67
:103C9000CDE900019DED000B51EC100B07F0D4FABB
:103CA0001FED0A0B53EC102BCDE902019DED020B29
:103CB00051EC100B07F0BCF8CDE904019DED040BAD
:103CC00004F02EFD8DED060B9DED100B53EC102B2B
:103CD0009DED060B51EC100B07F0AAF8CDE9080199
:103CE0009DED080B51EC100B06F048FF0C909DED7C
:103CF000240B53EC102B9DED0E0B51EC100B06F02A
:103D0000EDFC9FED8C0B53EC102BCDE900019DEDEC
:103D1000000B51EC100B06F0E1FC1FED280B53ECEF
:103D2000102BCDE902019DED020B51EC100B07F0B9
:103D30007FF8CDE904019DED040B04F0F1FC8DED5D
:103D4000060B9DED100B53EC102B9DED060B51EC6B
:103D5000100B07F06DF8CDE908019DED080B51EC53
:103D6000100B06F00BFF0B909DED240B53EC102B6A
:103D70009DED0E0B51EC100B06F0B0FC1FED430B4C
:103D800053EC102BCDE900019DED000B51EC100B15
:103D900006F0A4FC1FED470B53EC102BCDE90201FC
:103DA0009DED020B51EC100B07F042F8CDE9040138
:103DB0009DED040B04F0B4FC8DED060B9DED100B96
:103DC00053EC102B9DED060B51EC100B07F030F867
:103DD000CDE908019DED080B51EC100B06F0CEFE6D
:103DE0000A909FED560B574880ED000B0D9806F09A
:103DF00022FFCDE90401534890ED000B53EC102B4A
:103E00009DED040B51EC100B07F012F8CDE9060103
:103E10009DED200B53EC102B9DED060B51EC100B80
:103E200006F05CFCCDE908019DED080B51EC100B90
:103E300006F0A4FE0D900C9806F0FDFECDE90401FD
:103E4000404890ED000B53EC102B9DED040B51EC12
:103E5000100B06F0EDFFCDE906019DED200B53ECB4
:103E6000102B9DED060B51EC100B06F037FCCDE945
:103E700008019DED080B51EC100B06F07FFE0C9035
:103E80000B9806F0D8FECDE904012E4890ED000B0A
:103E900053EC102B9DED040B51EC100B06F0C8FFFA
:103EA000CDE906019DED200B53EC102B9DED060B8B
:103EB00051EC100B06F012FCCDE908019DED080B4A
:103EC00051EC100B06F05AFE0B900A9806F0B3FE68
:103ED000CDE904011B4890ED000B53EC102B9DED38
:103EE000040B51EC100B06F0A3FFCDE906019DED8C
:103EF000200B53EC102B9DED060B51EC100B06F034
:103F0000EDFBCDE908019DED080B51EC100B06F01F
:103F100035FE0A900A980090DDE90B320D9934982D
:103F200000F0D2FA084890ED000B084880ED000B35
:103F300035B000BD000000000080614000000000BE
:103F40000000F03F80000020780000205800002092
:103F50002DE9F04107460E46FDF7F2F82C490968B5
:103F60000844FA21B0FBF1F201FB1200322807D21B
:103F7000002028490860264800683230244908603B
:103F8000FDF7DEF80025044600BF3846FEF73CFE8C
:103F9000384600F0D5FA384600F032FB3846FEF7D6
:103FA00015FE3846FEF7E4FC3846FEF708FF3846B3
:103FB000FEF782FD3846FEF701FD384600F066FA4E
:103FC0003846FEF7F5FEFDF7BBF80021021B61EB5A
:103FD0000500921B8841D8DB0E48006820B1012102
:103FE0004F20FDF71FF910E0FDF7AAF8C821B0FB3C
:103FF000F1F201FB1200642801D2012000E0002050
:10400000804641464F20FDF70DF9BDE8F0810000E4
:104010004C0000200400002010B5044601221121AC
:1040200004F2145000F018FE40F6A431884201D981
:10403000012010BD0020FCE710B50446012210212C
:1040400004F2145000F008FE40F65931B1FBF0F0D4
:1040500008B9012010BD0020FCE7000070B52DED6F
:10406000028B04460122222104F5A16000F0F4FD38
:10407000054606F048FE41EC180B9FED050B53EC8E
:10408000102B06F0D5FE41EC100BBDEC028B70BD81
:104090003813D38558FD513F70B52DED028B044682
:1040A0000122212104F5A16000F0D6FD054606F0AD
:1040B0002AFE41EC180B9FED050B53EC102B06F07C
:1040C000B7FE41EC100BBDEC028B70BD2D08E57DF9
:1040D0001CCD613F70B52DED028B044601222021DD
:1040E00004F5A16000F0B8FD054606F00CFE41ECB9
:1040F000180B9FED050B53EC102B06F099FE41ECCD
:10410000100BBDEC028B70BD08C72C7B12D86C3F26
:1041100070B52DED028B04460122232104F5A16028
:1041200000F09AFD054606F0EEFD41EC180B9FED00
:10413000050B53EC102B06F07BFE41EC100BBDEC95
:10414000028B70BDC616821C9430733F10B50446B6
:10415000FCF7F6FF002104F59B6203C210BD10B509
:104160000446FCF7EDFF002104F59C6203C210BD7C
:104170002DE9F04104460D4616461F463B463246A1
:10418000294604F1E000FCF721FCBDE8F0812DE9AF
:10419000F0412DED028B0446B0EE408AF0EE608ACD
:1041A0000D4616461F4633462A463946B0EE480AA3
:1041B000F0EE680A04F1E00006F000FABDEC028BB4
:1041C000BDE8F0812DE9F84304460F4615461E462A
:1041D000DDF820802B464246394604F1E000009687
:1041E00006F00DFABDE8F8832DE9F84304460F46C2
:1041F00015461E46DDF820802B464246394604F11E
:10420000E000009606F013FABDE8F883F0B52DED56
:10421000108B81B0044604F5806090ED302BB0EE39
:10422000420AF0EE620A90ED2E2BB0EE421AF0EE4A
:10423000621A53EC102B51EC110B07F005F841EC0E
:10424000180B09E09FED700B53EC102B51EC180B81
:1042500006F044FA41EC180B9FED6D0B53EC102B5C
:1042600051EC180B06F0A8FDECD309E09FED660BAE
:1042700053EC102B51EC180B06F0E6FF41EC180B39
:104280009FED610B53EC102B51EC180B06F0CEFE9A
:10429000ECD99FED610B53EC102B51EC180B06F091
:1042A000C7FD41EC1A0B9FED580B53EC102B06F099
:1042B000D1FA41EC190B06F061FCC5B2284606F0B4
:1042C000BAFC41EC1D0B9FED540B53EC102B51EC41
:1042D000180B06F0ADFD41EC1F0B9FED4B0B53ECA3
:1042E000102B06F0B7FA41EC1E0B53EC1D2B06F019
:1042F000ABFF41EC1C0B9FED480B53EC102B06F071
:1043000097FD41EC1B0B9FED440B53EC102B06F07B
:104310008FFD41EC1A0B9FED3C0B53EC102B06F07C
:1043200099FA41EC190B06F029FCC6B23CA1032016
:10433000FCF7E4FC29460320FEF7C0F83AA103206D
:10434000FCF7DCFC31460320FEF7B8F837A1032068
:10435000FCF7D4FC284606F06EFC41EC1A0B9FEDEE
:104360002E0B53EC102B51EC180B06F061FD41ECB9
:104370001C0B9FED250B53EC102B06F06BFA41EC58
:104380001B0B53EC1A2B06F05FFF41EC190BB0EE40
:10439000490AF0EE690A0320FDF7F8FF24A1032083
:1043A000FCF7ACFC23A0006800908DF801508DF85C
:1043B000026094F890062049097801EB400140F230
:1043C0009460005D01EB8000C0B28DF80300002016
:1043D00019490860002705E01DF807100220FEF7C4
:1043E000D1F87F1C042FF7DB0421684605F058FD47
:1043F000074639460220FEF7C5F8204600F01EF8B1
:1044000001B0BDEC108BF0BD0000000000807640D4
:1044100000000000000000000000000000007040EC
:10442000646174613A20000020000000207C2000BC
:104430000A000000BB00000000000020002180F8FE
:104440002015704770B504460D46164604F2A46068
:1044500050F82500B0420CD004F2A46040F825606A
:1044600005EBC50204F5A56101EBC200314600F081
:1044700057FA70BD10B50446204600F061F804F507
:10448000806090ED2E0B80ED300B10BD38B50446EA
:10449000002108E001EBC10304F5A56202EBC300B3
:1044A00000F024FB491C0429F4DB0648006840B1F5
:1044B00003200E2300220090024801682046FFF7E7
:1044C00093FE38BD040000202DE9F04104460D465E
:1044D00017461E46DDF818802A4600212046FFF7C1
:1044E000B1FF3A4601212046FFF7ACFF32460221D8
:1044F0002046FFF7A7FF424603212046FFF7A2FF11
:1045000000BF94F82805FCF73FFC0028F9D094F888
:104510007005FCF739FC0028F3D094F8B805FCF7D7
:1045200033FC0028EDD094F80006FCF72DFC0028A1
:10453000E7D002212046FFF70BFDBDE8F081000027
:1045400010B5044694ED1A0B04F5806080ED2E0B37
:1045500012E004F5806090ED2E1BB0EE410AF0EE03
:10456000610A9FED211B53EC112B51EC100B06F04F
:104570006BFE04F5976203C204F5806090ED2E1B7C
:10458000B0EE410AF0EE610A9FED191B53EC112BBE
:1045900051EC100B06F04AFDDBD312E004F580600D
:1045A00090ED2E1BB0EE410AF0EE610A9FED0E1B5E
:1045B00053EC112B51EC100B06F090F804F59762B8
:1045C00003C204F5806090ED2E1BB0EE410AF0EEC0
:1045D000610A9FED091B53EC112B51EC100B06F0F7
:1045E000EBFBDBD310BD0000000000000080764034
:1045F000000000000080664000000000008066C0EF
:1046000070B52DED068B04468848007800F0010057
:1046100050B9864802F08EFD30B1FCF791FD844917
:1046200008608248AFF300800220FCF777FB002887
:104630007DD0FCF785FD7E4908600220FDF7F6FD80
:1046400000F58075E81705EB10600012A5EB002659
:10465000BB2E08D17748007828B901207549087029
:104660000020754908607348007800287DD07248A2
:1046700001680068401C704A1060704840F8216072
:10468000104600686E49096888426ED10A216B485D
:1046900005F023FCC5B26948806AA84266D1674923
:1046A000486806F0C8FA41EC180B9FED660B53EC16
:1046B000102B06F0CFF804F5936203C25F49C86877
:1046C00006F0B9FA41EC1A0B9FED600B53EC102B7E
:1046D00006F0AEFB41EC180B5849886806F0ABFABF
:1046E00041EC1A0B9FED5B0B53EC102B06F0A0FB7B
:1046F00041EC190B53EC182B05F0F0FF04F5936215
:10470000C2E902014D49486906F095FA41EC1A0BDD
:104710009FED4E0B53EC102B06F08AFB41EC180B6F
:104720004649086906F087FA41EC1A0B00E063E09D
:104730009FED480B53EC102B06F07AFB41EC190B64
:1047400053EC182B05F0CAFF04F59362C2E904018B
:104750009FED3C0B104680ED060B3848806940B158
:104760002046FFF7F3FC204601E044E037E0FFF786
:10477000F6FC3249C86900EBD0714910A0EB410149
:10478000012900D100E0002184F898162B49096A1C
:10479000A1F1640006F04FFA41EC190B9FED2F0BCD
:1047A00053EC102B06F044FB41EC180B06F0E6F935
:1047B000C4F8E8042149496AA1F1640006F03BFA13
:1047C00041EC190B9FED250B53EC102B06F030FB41
:1047D00041EC180B06F0D2F9C4F8EC0405E02148CE
:1047E000006840F080001F490860002012490860FE
:1047F0001049087000BF00BFFCF7A2FC0C49096813
:10480000401A642805D91748006840F0400015494F
:104810000860094800680B2804DB0020054908707F
:1048200005490860BDEC068B70BD00008C000020BF
:104830009C0000209800002090000020E80B002041
:10484000940000200000000000004940000000002B
:104850000080763F000000000080F63FCDCCCCCC3D
:10486000CCCCEC3F0400002070B5044604F1E00518
:104870002846FEF777F805460A235C22164905F11B
:10488000180002F045FCA0F118050020C5F8B0039F
:1048900000BFA5F1E004114905F5856000F010FAAC
:1048A000A0F5A1640D490C3000F00AFAA0F21454EE
:1048B000042348220A49143002F02AFCA0F5A5641A
:1048C00003230C22074900F5907002F021FCA0F5AB
:1048D000C964204670BD0000094D00080020014059
:1048E000EF4A0008154900080278012A01D101B9F0
:1048F0000272017070470000024621B90448007836
:1049000008B100207047137A002010721846F9E7AA
:104910000C0000200021017041600172704700000E
:1049200070B52DED028B05460C4600EE104AB8EE30
:10493000C00AF0EE080A80EE208AB0EE480A03F0C2
:104940001FF8BDEEC00A10EE104A40F65430844203
:1049500000DD04461748844200DA0446201E01DBCD
:10496000014600E04142FF2291FBF2F302FB1311EA
:104970002976211E01DB0A4600E04A421012C217C6
:1049800000EB5262D211A0EBC212AA76002C06DA1A
:10499000287E40422876A87EC0F1FF30A876032307
:1049A000042205F11701284600F068F8BDEC028BDF
:1049B00070BD0000ACF4FFFF2DE9F0410446FCF7A8
:1049C000BFFB0021C4E90C01A778E578802D09DB45
:1049D000C7F58071C5F1FF0001EB0020A0EB80005E
:1049E000E06104E007EB052000EB4000E061607946
:1049F0006062E079A0622679802E02DBC6F1FF00BA
:104A000000E0304600EE100AB8EEC00ADFED040AFE
:104A100080EE201ABDEEC10A84ED080ABDE8F081DF
:104A20000AD7A33F10B504460623012202492046B7
:104A300000F024F810BD00003800002010B5044636
:104A4000032302220349204600F018F8012084F8CD
:104A5000400010BD3900002010B504460323022297
:104A60000349204600F00AF8002084F8400010BDF9
:104A70003B000020C1620370427070472DE9F0478F
:104A80000546884616469946B01DC4B2BB20164955
:104A900008706878487008468470032105F000FAB1
:104AA0001149C870084680F80490002006E018F804
:104AB0000020411D0C4B5A54411CC8B2B042F6DBD9
:104AC000611E094805F0ECF9611E074A50540027A1
:104AD00006E0054AD15D2878FDF754FD781CC7B281
:104AE000A742F6DBBDE8F087980B002070477F21D6
:104AF00041700021C16141620162102181624FF069
:104B0000FF328263C2638021C17500220276812256
:104B1000427600228276002103E00023821C535457
:104B2000491C1529F9DB0021C16280F8401070474B
:104B30000146002000E0401CFF28FCDD704700001B
:104B400070B504460D4694F90100032801DD0020EC
:104B500070BD4FF0FF36002006E017490956A94204
:104B600001D146B202E0401C1028F6DB701C08B9E7
:104B70000020EDE7A8B2142300220421FDF722F85B
:104B80006068806B40F44010616888636068806B87
:104B9000617801EB810106FA01F1084361688863DD
:104BA00094F9011004F1080045546078401C40B2AB
:104BB00060700120CCE7000058BE00080178012990
:104BC00005D12249096841F48071204A11600178B9
:104BD000022905D11D49096841F400711B4A116081
:104BE0000178032905D11949096841F48061174A00
:104BF00011601749096841F48031164AC2F804135C
:104C00001146D1F8041341F40031114A1160416892
:104C1000896841F47021426891604168896841F077
:104C20000201426891604168496821F04071426820
:104C300051604168496841F480714268516041683F
:104C4000496841F4806142685160704744380240CD
:104C5000042301400020014030B503460C461546B0
:104C600015B11846FFF764FF93F90800A04202D17E
:104C70005868C06B30BD93F90900A04202D1586852
:104C8000006CF7E793F90A00A04202D15868406C23
:104C9000F0E793F90B00A04202D15868806CE9E775
:104CA0002A20E7E74168896841F001014268916084
:104CB0004168896841F08041426891607047000016
:104CC00010B541600D4A914201D1012202700C4A97
:104CD000914201D1022202700A4A914201D103227B
:104CE00002700022427000BF04E0FF2400F10803BC
:104CF0009C54521C042AF8DB10BD00000020014027
:104D0000002101400022014010B504460A23082278
:104D10000549204602F0FCF904460020A065206504
:104D20006065204610BD0000354D000801604260FE
:104D300070470000014900224260704710C100081E
:104D400017B582B00346D3F8B013C1EBC10202EB32
:104D5000011203F1180101EB8200DDE90312CDE934
:104D60000012016D142900D109E0016D00EBC101B1
:104D7000DDE9002414C1016D491C016500BF05B0C7
:104D800010BD00002DE9F0410446D4F8B003C0EB9B
:104D9000C00202EB001204F1180000EB8200016D6A
:104DA000042005F0DAF8064600251EE0D4F8B0032A
:104DB000C0EBC00101EB001104F1180000EB810110
:104DC000D4F8B003C0EBC00202EB001204F11800EB
:104DD00000EB8200406D284451F8307001232A46D0
:104DE00039462046FBF7F2FD6D1CB542DEDBD4F8F8
:104DF000B003C0EBC00101EB001104F1180000EB9F
:104E0000810000230349826D2046FBF7DFFDBDE8EA
:104E1000F081000011C1000830B50146D1F8B0237F
:104E2000C2EBC20303EB021301F1180202EB830091
:104E3000826D436D846D641C8465846D042C03DB7A
:104E40008265446D641C4465056D846DAC4201DB74
:104E500082654365D0E91445241FA54200DD436502
:104E600000BF30BDC0F8B013704770B504460023D2
:104E70001A467321204601F0D0FDC5B200231A4620
:104E80007221204601F0C9FD00F01F062A46314676
:104E9000204601F0EDFB70BD2DE9F04107460C46C0
:104EA00015461E46C4F3C7121321384601F092FF7F
:104EB0006006020E1421384601F08CFFC5F3C712BC
:104EC0001521384601F086FF6806020E1621384685
:104ED00001F080FFC6F3C7121721384601F07AFFB0
:104EE0007006020E1821384601F074FFBDE8F0810B
:104EF0002DE9F0412DED108B0446B0EE408AF0EE26
:104F0000608A0D469FEDFD0B53EC102B51EC180BF6
:104F100005F0F8FD28D1FCF713F9002154F8D02F43
:104F20006368861A61EB0301304605F09BFE9FED36
:104F3000F50B53EC102B05F08DFC41EC180BFCF736
:104F4000FFF80021C4E90001D03C9FEDF00B53ECC9
:104F5000102B51EC180B06F069F805D29FEDED0B04
:104F6000B0EE408AF0EE608A2DB1204601F0DAFC06
:104F7000204601F0B4FEB0EE480AF0EE680A204682
:104F800000F0CAFA94ED102BB0EE420AF0EE620A7D
:104F900094ED142BB0EE421AF0EE621A53EC102B83
:104FA00051EC110B05F044FF41EC1B0B94ED122B5F
:104FB000B0EE420AF0EE620A94ED0E2BB0EE421A09
:104FC000F0EE621A53EC102B51EC110B05F030FF90
:104FD00041EC1C0B53EC1B2B06F036F941EC1A0B81
:104FE0009FEDCE0B53EC102B05F022FF41EC190B7B
:104FF000B0EE490AF0EE690A02F0A6F884ED160B4D
:1050000094ED122BB0EE420AF0EE620A94ED122BF0
:10501000B0EE421AF0EE621A53EC102B51EC110B69
:1050200005F006FF41EC1D0B94ED102BB0EE420A8B
:10503000F0EE620A94ED102BB0EE421AF0EE621A16
:1050400053EC102B51EC110B05F0F2FE41EC1E0B52
:1050500053EC1D2B05F042FB41EC1C0B9FEDAF0BFD
:1050600053EC102B05F0E4FE41EC1B0B9FEDA70B5E
:1050700053EC102B06F010F841EC190B94ED142BA7
:10508000B0EE420AF0EE620A94ED122BB0EE421A34
:10509000F0EE621A53EC102B51EC110B05F0C8FE28
:1050A00041EC1C0B94ED102BB0EE420AF0EE620ABC
:1050B00094ED0E2BB0EE421AF0EE621A53EC102B68
:1050C00051EC110B05F0B4FE41EC1D0B53EC1C2B05
:1050D00005F004FB41EC1B0B9FED900B53EC102BE8
:1050E00005F0A6FE41EC1A0BB0EE491AF0EE691A73
:1050F000B0EE4A0AF0EE6A0A02F042FB84ED180BA9
:1051000094ED142BB0EE420AF0EE620A94ED142BEB
:10511000B0EE421AF0EE621A53EC102B51EC110B68
:1051200005F086FE41EC1E0B94ED122BB0EE420A08
:10513000F0EE620A94ED122BB0EE421AF0EE621A13
:1051400053EC102B51EC110B05F072FE41EC1F0BD0
:1051500053EC1E2B05F0C2FA41EC1D0B9FED6F0BBB
:1051600053EC102B05F064FE41EC1C0B9FED670B1C
:1051700053EC102B05F090FF41EC1A0B94ED122B21
:10518000B0EE420AF0EE620A94ED102BB0EE421A35
:10519000F0EE621A53EC102B51EC110B05F048FEA7
:1051A00041EC1D0B94ED142BB0EE420AF0EE620AB6
:1051B00094ED0E2BB0EE421AF0EE621A53EC102B67
:1051C00051EC110B05F034FE41EC1E0B53EC1D2B82
:1051D00005F084FA41EC1C0B9FED500B53EC102BA7
:1051E00005F026FE41EC1B0BB0EE4A1AF0EE6A1AEF
:1051F000B0EE4B0AF0EE6B0A02F0C2FAB0EE409A43
:10520000F0EE609A51EC190B05F029FAC4E91A0185
:1052100094ED161BB0EE410AF0EE610A9FED411BC2
:1052200053EC112B51EC100B05F002FE41EC190B65
:1052300094ED1C1BB0EE410AF0EE610A53EC102B0A
:1052400006F002F8C4E9160194ED181BB0EE410A0D
:10525000F0EE610A9FED331B53EC112B51EC100B58
:1052600005F0E6FD41EC190B94ED1E1BB0EE410A72
:10527000F0EE610A53EC102B05F0E6FFC4E91801CB
:1052800094ED1A1BB0EE410AF0EE610A9FED251B6A
:1052900053EC112B51EC100B05F0CAFD41EC190B2E
:1052A00094ED201BB0EE410AF0EE610A53EC102B96
:1052B00005F0CAFFC4E91A010FE094ED161BB0EE29
:1052C000410AF0EE610A9FED191B53EC112B51ECD2
:1052D000100B05F003FAC4E9160194ED161BB0EEAD
:1052E000410AF0EE610A9FED131B53EC112B51ECB8
:1052F000100B05F061FDE0D330E00000000000007D
:105300000000F0BF0000000000408F4000000000DF
:105310000000F03F0000000000000000000000005E
:1053200000000040F8C1631ADCA54C4000000000FA
:105330000080764000000000008066C094ED161BDF
:10534000B0EE410AF0EE610A1FED081B53EC112B81
:1053500051EC100B05F078FFC4E9160194ED161B13
:10536000B0EE410AF0EE610A9FED461B53EC112BA3
:1053700051EC100B05F05AFEE0D30FE094ED181B32
:10538000B0EE410AF0EE610A1FED181B53EC112B31
:1053900051EC100B05F0A2F9C4E9180194ED181BAB
:1053A000B0EE410AF0EE610A1FED1E1B53EC112B0B
:1053B00051EC100B05F000FDE0D30FE094ED181B4D
:1053C000B0EE410AF0EE610A1FED281B53EC112BE1
:1053D00051EC100B05F038FFC4E9180194ED181BCF
:1053E000B0EE410AF0EE610A9FED261B53EC112B43
:1053F00051EC100B05F01AFEE0D30FE094ED1A1BF0
:10540000B0EE410AF0EE610A1FED381B53EC112B90
:1054100051EC100B05F062F9C4E91A0194ED1A1B66
:10542000B0EE410AF0EE610A1FED3E1B53EC112B6A
:1054300051EC100B05F0C0FCE0D30FE094ED1A1B0B
:10544000B0EE410AF0EE610A1FED481B53EC112B40
:1054500051EC100B05F0F8FEC4E91A0194ED1A1B8B
:10546000B0EE410AF0EE610A9FED061B53EC112BE2
:1054700051EC100B05F0DAFDE0D3BDEC108BBDE86C
:10548000F081000000000000008066402DE9F0413E
:1054900007460C4615461E46C4F30722132138461C
:1054A00001F098FCE2B21421384601F093FCC5F3F8
:1054B00007221521384601F08DFCEAB21621384644
:1054C00001F088FCC6F307221721384601F082FC60
:1054D000F2B21821384601F07DFCBDE8F0810000F1
:1054E00070B505462846FFF7C0FC0C2190FBF1F68D
:1054F000002409E0284601F0BEFA01219FED040BCB
:105500002846FFF7F5FC641CB442F3DB70BD0000D5
:10551000FCA9F1D24D62503F01B52DED020BB8B0A0
:105520003A9890ED0A0B8DED180B90ED140B8DED64
:10553000160B9DED180B53EC102B9DED160B51EC3B
:10554000100B05F075FCCDE91C013A9890ED080BA5
:105550008DED140B90ED120B8DED120B9DED140BD8
:1055600053EC102B9DED120B51EC100B05F060FC71
:10557000CDE918013A9890ED100B8DED120B9DEDD1
:10558000120B51EC100B05F06AF8CDE914013A98B2
:1055900090ED060B8DED120B9DED120B53EC102BC5
:1055A0009DED140B51EC100B05F042FCCDE91601FA
:1055B0009DED180B53EC102B9DED160B51EC100BC1
:1055C00005F042FECDE91A019DED1C0B53EC102BAA
:1055D0009DED1A0B51EC100B05F036FE9FEDFD0B07
:1055E00053EC102BCDE91E019DED1E0B51EC100B61
:1055F00005F01EFCCDE920019DED200B51EC100BB8
:1056000005F03AF832903A9890ED080B8DED180BB2
:1056100090ED140B8DED160B9DED180B53EC102B2C
:105620009DED160B51EC100B05F002FCCDE91C01B1
:105630003A9890ED0A0B8DED140B90ED120B8DED59
:10564000120B9DED140B53EC102B9DED120B51EC36
:10565000100B05F0EDFBCDE918013A9890ED060B23
:105660008DED140B90ED0E0B8DED120B9DED140BCB
:1056700053EC102B9DED120B51EC100B05F0D8FBE9
:10568000CDE916019DED180B53EC102B9DED160B7B
:1056900051EC100B05F022F8CDE91A019DED1C0B21
:1056A00053EC102B9DED1A0B51EC100B05F0CCFDBB
:1056B0009FEDC80B53EC102BCDE91E019DED1E0B89
:1056C00051EC100B05F0B4FBCDE920019DED200B52
:1056D00051EC100B04F0D0FF31903A9890ED060B8E
:1056E0008DED180B90ED140B8DED160B9DED180B39
:1056F00053EC102B9DED160B51EC100B05F098FBA5
:10570000CDE91C013A9890ED0A0B8DED140B90ED4C
:10571000100B8DED120B9DED140B53EC102B9DED2A
:10572000120B51EC100B05F083FBCDE918013A98F0
:1057300090ED080B8DED140B90ED0E0B8DED120B13
:105740009DED140B53EC102B9DED120B51EC100B37
:1057500005F06EFBCDE916019DED180B53EC102BF7
:105760009DED160B51EC100B05F06EFDCDE91A0105
:105770009DED1C0B53EC102B9DED1A0B51EC100BF7
:1057800004F0ACFF9FED930B53EC102BCDE91E0101
:105790009DED1E0B51EC100B05F04AFBCDE92001ED
:1057A0009DED200B51EC100B04F066FF30903A9801
:1057B00090ED060B8DED180B90ED120B8DED160B89
:1057C0009DED180B53EC102B9DED160B51EC100BAF
:1057D00005F02EFBCDE91C013A9890ED080B8DEDFC
:1057E000140B90ED100B8DED120B9DED140B53EC83
:1057F000102B9DED120B51EC100B05F019FBCDE9B0
:1058000018013A9890ED0A0B8DED140B90ED0E0BEC
:105810008DED120B9DED140B53EC102B9DED120B27
:1058200051EC100B05F004FBCDE916019DED180BB2
:1058300053EC102B9DED160B51EC100B04F04EFFAA
:10584000CDE91A019DED1C0B53EC102B9DED1A0BAD
:1058500051EC100B05F0F8FC9FED5E0B53EC102B98
:10586000CDE91E019DED1E0B51EC100B05F0E0FA89
:10587000CDE920019DED200B51EC100B04F0FCFE56
:105880002F903A9890ED000B8DED200B9FED530B70
:1058900053EC102B9DED200B51EC100B05F032F961
:1058A0001FD13A9890ED020B8DED200B9FED4B0B25
:1058B00053EC102B9DED200B51EC100B05F022F951
:1058C0000FD13A9890ED040B8DED200B9FED430B1B
:1058D00053EC102B9DED200B51EC100B05F012F941
:1058E00077D03A9890ED040B8DED180B90ED040BEA
:1058F0008DED160B9DED180B53EC102B9DED160B3B
:1059000051EC100B05F094FACDE91C013A9890ED9A
:10591000020B8DED140B90ED020B8DED120B9DED36
:10592000140B53EC102B9DED120B51EC100B05F0EA
:105930007FFACDE918013A9890ED000B8DED140B2C
:1059400090ED000B8DED120B9DED140B53EC102B15
:105950009DED120B51EC100B05F06AFACDE9160122
:105960009DED180B53EC102B9DED160B51EC100B0D
:1059700004F0B4FECDE91A019DED1C0B53EC102B85
:105980009DED1A0B51EC100B04F0A8FECDE91E01A1
:105990009DED1E0B51EC100B04F06EFE21909DED61
:1059A000210A3A9800F09EFF8DED370A379805F0EE
:1059B00035FDCDE920013A9890ED000B8DED1E0BE1
:1059C0009DED1E0B53EC102B9DED200B51EC100B9D
:1059D00008E0FDE3000000000000E03F00000000E0
:1059E0000000000005F024FA0A4601463A9806C075
:1059F000379805F013FDCDE920013A9890ED020BA0
:105A00008DED1E0B9DED1E0B53EC102B9DED200B11
:105A100051EC100B05F00CFA0A4601463A98C0E921
:105A20000212379805F0FAFCCDE920013A9890ED82
:105A3000040B8DED1E0B9DED1E0B53EC102B9DEDFD
:105A4000200B51EC100B05F0F3F90A4601463A9889
:105A5000C0E904123A9890ED0E0B8DED1E0B9DEDF2
:105A60001E0B53EC102B9FEDFE0B51EC100B05F0B1
:105A7000DFF9CDE920019DED200B51EC100B04F076
:105A8000FBFD2E903A9890ED100B8DED1E0B9DEDC9
:105A90001E0B53EC102B9FEDF20B51EC100B05F08D
:105AA000C7F9CDE920019DED200B51EC100B04F05E
:105AB000E3FD2D903A9890ED120B8DED1E0B9DEDB0
:105AC0001E0B53EC102B9FEDE60B51EC100B05F069
:105AD000AFF9CDE920019DED200B51EC100B04F046
