:020000040800F2
:100000004008002031020008390200083B020008C5
:100010003D0200083F020008410200080000000005
:100020000000000000000000000000004302000883
:1000300045020008000000004702000849020008CD
:100040004B0200084B0200084B0200084B0200085C
:100050004B0200084B0200084B0200084B0200084C
:100060004B0200084B0200084B0200084B0200083C
:100070004B0200084B0200084B0200084B0200082C
:100080004B0200084B0200084B0200084B0200081C
:100090004B0200084B0200084B0200084B0200080C
:1000A0004B0200084B0200084B0200084B020008FC
:1000B0004B0200084B0200084B0200084B020008EC
:1000C0004B0200084B0200084B0200084B020008DC
:1000D0004B020008F1060008FB06000805070008AF
:1000E0004B0200084B0200084B0200084B020008BC
:1000F0004B0200084B0200084B0200084B020008AC
:100100004B0200084B0200084B0200084B0200089B
:10011000DD060008E70600084B020008B1060008EB
:100120004B0200084B0200084B0200084B0200087B
:100130004B0200084B0200084B0200084B0200086B
:100140004B0200084B0200084B0200084B0200085B
:100150004B0200084B0200084B0200080F07000882
:100160004B0200084B0200084B0200084B0200083B
:100170004B0200084B0200084B0200084B0200082B
:100180004B0200084B02000800F002F800F040F8B3
:100190000AA090E8000C82448344AAF10107DA45E2
:1001A00001D100F035F8AFF2090EBAE80F0013F0F4
:1001B000010F18BFFB1A43F001031847EC3500008C
:1001C0000C360000103A24BF78C878C1FAD852071C
:1001D00024BF30C830C144BF04680C6070470000C1
:1001E0000023002400250026103A28BF78C1FBD840
:1001F000520728BF30C148BF0B6070471FB503F0DE
:1002000005FA9DE8030000F09BF81FBD10B510BD76
:1002100000F000F91146FFF7F1FF02F009FA00F0D3
:1002200038F903B4FFF7F2FF03BC00F075F90000E2
:100230000948804709480047FEE7FEE7FEE7FEE77A
:10024000FEE7FEE7FEE7FEE7FEE7FEE704480549B6
:10025000054A064B7047000049060008890100085E
:1002600040020020400800204004002040040020FC
:100270007047704770470000004870471402002024
:1002800070B5064600F03CF8056806F10B0020F05A
:100290000704B4429CBF002070BD2B466A68BAB107
:1002A0001068A04210D304F1080188423CBF506896
:1002B000586007D35168101941601168091B01602B
:1002C00058601460101D70BD13465268002AE7D1B3
:1002D0002146284600F020F80028DED170BD10B578
:1002E00000F012F8006810BD10B5044600F00CF8DC
:1002F000046010BD00F081B800487047E0010020A4
:1003000000487047E801002000487047E0010020E5
:10031000704770477047704738B504460A4600205A
:100320006946AFF30080002808BF38BD0246009937
:10033000204600F094F8012038BD012000F0BDB83F
:10034000F8B5AFF30080054600200C46102000BF32
:100350000646A819A0420DD9324669460020AFF3DF
:100360000080070008BF00F0A8F80098A04218BF5E
:100370000546C419FFF7C4FF05600746F01D20F0CD
:1003800007004619284600F00AF8B44208BFF8BD35
:10039000A21B31463868BDE8F84000F060B8002183
:1003A0000160C0E9011070471020704770B5044625
:1003B000051FFFF7A5FF0068002C14BF446870BD3F
:1003C000002C18BFAC423CBF20466468F8D30168DB
:1003D0000A18AA4218BF456003D12A68054611448D
:1003E000016028684119A1421CBF6C6070BD616842
:1003F000696021680844286070BD10B500F067F896
:10040000016919B100220261884701E080688047D4
:1004100000F048F87546FFF76FFFAE4605006946E5
:10042000534620F00700854618B020B5FFF70EFFB1
:10043000BDE820404FF000064FF000074FF00008E5
:100440004FF0000B21F00701AC46ACE8C009ACE866
:10045000C009ACE8C009ACE8C0098D467047034646
:1004600040688C46002818BF88423CBF034640685D
:10047000F8D318681844884207D00CF1030020F024
:100480000700001D411A521A0146081D0A60FFF7B5
:100490008DBF10B50446AFF300802046BDE8104084
:1004A000FFF7BFBE10B5002000F047F8FFF7AEFE23
:1004B000BDE81040012000F02FB810B500F044F85E
:1004C000BDE8104000F034B810B5FFF7EBFF70B591
:1004D00000F02AF804680546A4B92020FFF7D0FEF2
:1004E000040011D0094900202C60C4E9000108492A
:1004F000A1602073206160610649A06109B100F02C
:100500004BF8E061204670BDFFF7CCFF0000000013
:10051000C90400080000000001491820ABBEFEE736
:100520002600020070470000004870471C020020AF
:10053000002801D0FFF7F0BF704710B500F064F855
:10054000BDE81040FFF7F4BF10B5012805D0002129
:1005500003A000F03FF8012010BD09A1F8E700005A
:1005600053494752544D454D3A204F7574206F669C
:100570002068656170206D656D6F72790000000004
:100580003A2048656170206D656D6F727920636FE8
:10059000727275707465640010B58820FFF770FE84
:1005A000002801D00021017010BD802902D808B1B7
:1005B000017809B100207047012100F8081B70473D
:1005C00018B100F10802914201D0002070470021CB
:1005D0000170704770B505460C460A2000E06D1C9E
:1005E00000F02AF835B128780028F8D102E0641C20
:1005F00000F022F814B120780028F8D1BDE870404E
:100600000A2000F019B8000010B5002102A0FFF781
:10061000E1FF012010BD0000534947414252543AC6
:100620002041626E6F726D616C207465726D696ECF
:100630006174696F6E00000008B569468DF80000AE
:100640000320ABBE08BD000010B51548006840F49B
:100650007000134908601348006840F00100114918
:10066000086000200F49083108600E4800680E49F4
:1006700008400C4908600D48091D0860081F006803
:1006800020F48020091F0860002006490C31086012
:1006900000F042F84FF0006001498039086010BD59
:1006A00088ED00E000380240FFFFF6FE1030002425
:1006B0000848008800F0010050B10648008820F08A
:1006C00001000449088004480068401C0249086091
:1006D00070470000101400400000002000B5042006
:1006E00000F00CF900BD00B5052000F007F900BDD1
:1006F00000B5002000F002F900BD00B5022000F0B6
:10070000FDF800BD00B5032000F0F8F800BD00B50D
:10071000062000F0F3F800BD0CB500200190009019
:100720003448006840F480303249086000BF3148E6
:10073000006800F4003000900198401C019000987F
:1007400018B90198B0F5A04FF1D12A48006800F41B
:10075000003010B10120009001E0002000900098CE
:10076000012846D123484030006840F0805021499C
:10077000403108602048006840F440401E4908604D
:100780001C48083000681B490831086008460068AA
:1007900040F4004008600846006840F4A05008603B
:1007A0001648091F0860081F006840F08070091F84
:1007B000086000BF0F48006800F000700028F9D002
:1007C00040F205700E4908600A480830006820F0C1
:1007D00003000849083108600846006840F002003C
:1007E000086000BF03480830006800F00C000828CB
:1007F000F8D10CBD00380240007000401954400789
:10080000003C024010B50146072911D2DFE801F093
:100810000E100406080A0C0021480BE0214809E0EC
:10082000214807E0214805E0214803E0214801E094
:10083000204800BF00BF204A525C204B5B5C9A42BC
:1008400004D1828922F08002828110BD00BF02881B
:1008500002F08002002AFAD0194A02EB4112174B2B
:100860005B5CD25C8280154B5B5C5A1CD31702EB3D
:10087000D3635B11A2EB4313104C63540E4A525CDA
:1008800023465B5C9A4204D1828922F080028281F5
:1008900003E0828942F08002828100BFD5E7000038
:1008A0000044004000480040004C00400050004020
:1008B0000014014000100140120000201900002027
:1008C0000001002070B506460C46002506E02846CB
:1008D0006A1CD5B2215C304600F072FE605D0028D3
:1008E000F5D170BD00F01F02012191404209920034
:1008F00002F1E022C2F800117047000030B5054651
:10090000072D11D2DFE805F00E100406080A0C00CE
:10091000204C0BE0204C09E0204C07E0204C05E087
:10092000204C03E0204C01E01F4C00BF00BF20889A
:1009300000F0200030B3208800F00100A8B9208822
:1009400000F0020088B9A088184901EB4511184A47
:10095000525D88541649495D481CC11700EBD161AE
:100960004911A0EB4111124A5155208820F0020094
:100970002080208820F001002080208820F02000A6
:10098000208006E0208800F0800010B12846FFF7A4
:1009900039FF30BD0044004000480040004C00409A
:1009A00000500040001401400010014020000020D1
:1009B0000400002000B5014600F008F8024600BF20
:1009C00000F004F8801A8842FAD300BD014800689C
:1009D000704700000000002010B52AB143690124CF
:1009E0008C402343436104E0436901248C40A343CA
:1009F000436110BD70B504460E46102C0CDA254636
:100A0000E01704EB10700011A4EB001081B2324625
:100A10001E48FFF7E1FF38E0202C0CDA2546E017EE
:100A200004EB10700011A4EB001081B2324618489C
:100A3000FFF7D2FF29E0302C0CDA2546E01704EB53
:100A400010700011A4EB001081B232461148FFF77C
:100A5000C3FF1AE0402C0CDA2546E01704EB1070B7
:100A60000011A4EB001081B232460B48FFF7B4FF2F
:100A70000BE02546E01704EB10700011A4EB00100A
:100A800081B232460548FFF7A7FF70BD0000024063
:100A90000004024000080240000C02400010024026
:100AA0002DE9F0472DED048B04460E461746984677
:100AB000DDF830906C48844206D16C48006840F004
:100AC00001006A49086026E06948844206D1674807
:100AD000006840F00200654908601CE065488442F7
:100AE00006D16248006840F004006049086012E0E6
:100AF0006148844206D15D48006840F008005B49C7
:100B0000086008E05D48844205D15848006840F01C
:100B1000100056490860304602F032FA41EC190BD9
:100B2000B0EE491AF0EE691A9FED550B00F07CFE0D
:100B3000B0EE408AF0EE608A51EC180B02F0DCF95E
:100B40000546062F49D2DFE807F003101D2A374279
:100B5000206828432060206820EA45002060606803
:100B60000121B1408843606038E02068284320605C
:100B7000206820EA4500206060680121B1400843F8
:100B800060602BE02068A8432060206840EA4500B0
:100B9000206060680121B140884360601EE02068E9
:100BA000A8432060206840EA450020606068012179
:100BB000B1408843606011E0206805EB45010843BF
:100BC0002060E06805EB45018843E06006E02068AE
:100BD00005EB45018843206000E000BF00BFB8F18D
:100BE000000F17D0042F15D0B8F1010F07D1E0681E
:100BF0002843E060E06820EA4500E0600FE0B8F1DB
:100C0000020F0CD1E068A843E060E06840EA4500CC
:100C1000E06004E0E06805EB45018843E060A0681F
:100C200005EB45010843A060B9F1140F18D0354613
:100C3000072E00DD083DF11706EB5171CA1004F1D3
:100C4000200151F82210AA0009FA02F2114330469D
:100C5000F21706EB5272D31004F1200242F823106F
:100C6000BDEC048BBDE8F087000002403038024044
:100C70000004024000080240000C02400010024044
:100C800000000000000010402DE9F84304460F4624
:100C900090461D46102C0EDA2646E01704EB107025
:100CA0000011A4EB001081B243463A462348009558
:100CB000FFF7F6FE40E0202C0EDA2646E01704EBA4
:100CC00010700011A4EB001081B243463A461C4854
:100CD0000095FFF7E5FE2FE0302C0EDA2646E017F0
:100CE00004EB10700011A4EB001081B243463A46A9
:100CF00014480095FFF7D4FE1EE0402C0EDA26467D
:100D0000E01704EB10700011A4EB001081B2434611
:100D10003A460D480095FFF7C3FE0DE02646E01762
:100D200004EB10700011A4EB001081B243463A4668
:100D300006480095FFF7B4FEBDE8F88300000240C6
:100D40000004024000080240000C02400010024073
:100D50005148006820F003004F49086008460068C9
:100D6000086000BF4C48006800F00C000028F9D172
:100D700049480838006820F0807047490839086001
:100D800000BF45480838006800F000700028F8D11E
:100D900041480838006840F480303F49083908600D
:100DA00000BF3D480838006800F400300028F8D043
:100DB0003948006820F0F0003749086008460068AC
:100DC00020F4E05008600846006820F460400860A5
:100DD0000846006808600846006840F4A0500860B3
:100DE0000846006840F400400860081F006820F0D2
:100DF0007060091F08600846006820F440300860F1
:100E00000846006847F6C07188432349091F0860F7
:100E10000846006820F03F0008600846006820F49B
:100E2000800008600846006840F4800008600846BA
:100E3000006840F0806008600846006840F00400E8
:100E400008600846006840F42850086008460068BA
:100E500020F440300860081F006840F08070091FCF
:100E6000086000BF0C480838006800F000700028D7
:100E7000F8D00948006820F00300074908600846D8
:100E8000006840F00200086000BF0348006800F0FE
:100E90000C000228F9D07047083802402DE9F843C9
:100EA00004460F4690461D46102C0EDA2646E017E3
:100EB00004EB10700011A4EB001081B243463A46D7
:100EC00023480095FFF7ECFD40E0202C0EDA264683
:100ED000E01704EB10700011A4EB001081B2434640
:100EE0003A461C480095FFF7DBFD2FE0302C0EDA68
:100EF0002646E01704EB10700011A4EB001081B23D
:100F000043463A4614480095FFF7CAFD1EE0402CC0
:100F10000EDA2646E01704EB10700011A4EB001067
:100F200081B243463A460D480095FFF7B9FD0DE002
:100F30002646E01704EB10700011A4EB001081B2FC
:100F400043463A4606480095FFF7AAFDBDE8F883F8
:100F5000000002400004024000080240000C024071
:100F6000001002402DE9FF4F2DED020B2DED028BFD
:100F700081B005460F46B0EE408A1E46DDF8489027
:100F80000020DA494855DA494855DA494855DA49DE
:100F9000485500BF09E00021D84A02EB4512115420
:100FA000D74A02EB45121154401C2028F3DB072DD1
:100FB00005D2DFE805F02B044663809DBA00D14CD2
:100FC000D148006840F01000CF4908600720012395
:100FD000022208210090CD48FFF762FD072001237F
:100FE000022209210090C948FFF75AFD072001237A
:100FF00002220A210090C548FFF752FD208A40F4E2
:10100000006020822520FFF76DFCA9E0BD4CBE48A2
:10101000006840F01000BC4908600720012302224C
:1010200009210090B948FFF73BFD07200123022268
:101030000A210090B548FFF733FD2520FFF752FC49
:101040008EE0B34CB048001F006840F40030AE4959
:10105000091F086007200123022211460090AB48B7
:10106000FFF71EFD07200123022203210090A7485D
:10107000FFF716FD2620FFF735FC71E0A54CA248CE
:10108000001F006840F480209F49091F0860072066
:10109000012302220A2100909F48FFF701FD07204B
:1010A000012302220B2100909B48FFF7F9FC272027
:1010B000FFF718FC54E0994C9348001F006840F477
:1010C00000209149091F0860082001230222002105
:1010D00000908E48FFF7E4FC082001230222194605
:1010E00000908A48FFF7DCFC3420FFF7FBFB37E079
:1010F0008B4C8548001F006840F480108249091F0E
:1011000008600820012302220C2100908548FFF787
:10111000C7FC082001230222114600908248FFF7F5
:10112000BFFC3520FFF7DEFB1AE0804C76480068F4
:1011300040F02000744908600820012302220621A3
:1011400000907848FFF7ACFC082001230222072119
:1011500000907448FFF7A4FC4720FFF7C3FB00BFD3
:1011600000BFA08940F40050A0810798092804D14D
:10117000A08940F48050A08103E0A08920F4805031
:10118000A081B2EE040A28EE000ABDEEC00A10EEFD
:10119000108AB8F1050F0ED0B8F10A0F06D0B8F1D9
:1011A0000F0F1AD0B8F1140F1CD10DE0208A20F4D3
:1011B0004050208216E0208A20F400502082208AAD
:1011C00040F4805020820DE0208A40F400502082BC
:1011D000208A20F48050208204E0208A40F440508D
:1011E000208200BF00BF8EB1A08940F48060A08142
:1011F000012E04D1A08920F40070A0810AE0022E03
:1012000008D1A08940F40070A08103E0A08920F4F7
:101210008060A081A08920F40040A0814FF0000AE6
:10122000D346B9F12A0F21D1B7F5165F09D0B7F52A
:10123000164F0BD0B7F5614F0DD0B7F5E13F14D184
:101240000EE040F2111A4FF0070B0EE04FF0440A87
:101250004FF0060B09E04FF02D0A4FF0090B04E0A8
:101260004FF0160A4FF00D0B00BF24E0B9F1540FF8
:1012700021D1B7F5165F09D0B7F5164F0BD0B7F5EA
:10128000614F0DD0B7F5E13F14D10EE040F2222AB4
:101290004FF00E0B0EE04FF0880A4FF00C0B09E0F8
:1012A0004FF05B0A4FF0020B04E04FF02D0A4FF0B5
:1012B000090B00BF00BF002020810BEB0A1020812A
:1012C000A08940F00400A081A08940F00800A0811E
:1012D000A08940F02000A081A08940F08000A0817A
:1012E00001B0BDEC028B06B0BDE8F08F1900002004
:1012F000120000200B00002004000020200000202D
:10130000000100200010014044380240000002406B
:10131000004400400048004000040240004C0040EF
:101320000050004000080240000C02400014014040
:1013300000B5FFF70DFD1E48006840F020001C4975
:10134000086053201B4908804FF47A70091D08601B
:1013500018482838008840F080001649283908804D
:101360000846008820F0600008800846008820F0C9
:10137000100008800F481C38008840F001000D491B
:101380001C390880372000F01F02012191404209DA
:10139000920002F1E022C2F8001100BF054828388F
:1013A000008840F0010003492839088000BD000092
:1013B000403802402814004070B52DED088B0546DA
:1013C000B0EE409AF0EE609AB0EE498AF0EE698A8B
:1013D0009FED3D0B53EC102B51EC180B01F0E4FD8D
:1013E00009D22D21284600F0EBF851EC180B01F042
:1013F00032FB41EC180B51EC180B01F04DFD04468B
:101400002146284600F070F82E21284600F0D8F832
:1014100051EC180B01F040FD044601F09AFD41EC3F
:101420001B0B53EC182B01F02FFF41EC180B9FED19
:10143000280B53EC102B51EC180B01F019FB41EC6D
:10144000180B9FED25AB002438E09FED250B53ECE6
:10145000102B51EC1A0B01F0E3FD41EC1A0B9FED40
:10146000200B53EC102B51EC180B01F0D9FD41EC83
:10147000180B51EC180B01F00FFD0A2190FBF1F253
:1014800001FB12063146284600F02EF851EC180BED
:1014900001F002FD064601F05CFD41EC1B0B53EC34
:1014A000182B01F0F1FE41EC180B53EC1A2B51EC08
:1014B000180B01F079FD00D202E0641C062CC4DB9D
:1014C000BDEC088B70BD00000000000000000000B3
:1014D00048AFBC9AF2D77A3E8DEDB5A0F7C6B03EC4
:1014E000000000000000244070B504460D46294667
:1014F000204600F009F870BD70B504460D46294637
:10150000204600F011F870BD70B505460C46002C61
:1015100004DA2D21284600F053F86442214628467B
:1015200000F002F870BD00002DE9F05F2DED068B94
:1015300083460D46284601F023FD41EC180B01F0CF
:10154000DBFC0446002603E0761C0A20B4FBF0F422
:101550000A2CF9D22C46002728E09FED178BA6EB2A
:10156000070A504601F0F5FC41EC1A0BB0EE4A1A9E
:10157000F0EE6A1AB0EE480AF0EE680A00F054F98C
:10158000B0EE409AF0EE609A51EC190B01F0B4FC09
:101590008046B4FBF8F000F0FF0909F13000C1B259
:1015A000584600F00DF809FB18447F1CB742D4D907
:1015B000BDEC068BBDE8F09F000000000000244059
:1015C00030B504460D460A4800EB44100949095D50
:1015D00045540849095D481CC11700EBD161491108
:1015E000A0EB4111034A11552046FFF70BF930BD1E
:1015F00000010020120000200146002000E0401CF5
:10160000FF28FCDD7047000070B504460D4694F9D4
:101610000100032801DD002070BD4FF0FF360020DF
:1016200006E017490956A94201D146B202E0401C22
:101630001028F6DB701C08B90020EDE7A8B21423CF
:1016400000220421FFF72AFC6068806B40F4401000
:10165000616888636068806B617801EB810106FADC
:1016600001F108436168886394F9011004F10800EE
:1016700045546078401C40B260700120CCE7000007
:10168000063700080178012905D12249096841F48B
:101690008071204A11600178022905D11D4909682D
:1016A00041F400711B4A11600178032905D11949E1
:1016B000096841F48061174A11601749096841F4CB
:1016C0008031164AC2F804131146D1F8041341F4CC
:1016D0000031114A11604168896841F47021426803
:1016E00091604168896841F00201426891604168F7
:1016F000496821F04071426851604168496841F48D
:101700008071426851604168496841F48061426873
:1017100051607047443802400423014000200140DA
:1017200030B503460C46154615B11846FFF764FF61
:1017300093F90800A04202D15868C06B30BD93F9FC
:101740000900A04202D15868006CF7E793F90A003B
:10175000A04202D15868406CF0E793F90B00A04218
:1017600002D15868806CE9E72A20E7E74168896878
:1017700041F00101426891604168896841F080410F
:10178000426891607047000010B541600D4A914277
:1017900001D1012202700C4A914201D10222027051
:1017A0000A4A914201D1032202700022427000BF16
:1017B00004E0FF2400F108039C54521C042AF8DBC7
:1017C00010BD000000200140002101400022014026
:1017D00010B5040007D1012405E0FEF74DFD0068B7
:1017E00000B9044880472046FEF74AFD0028F4D09F
:1017F00010BD0000F502000803B4019841000098F4
:1018000050EAC12018BF04204A0D18BF40F0010063
:1018100040F2FF72B2EB515F08BF40F002000128B6
:1018200008BF052002B070472DE9F04D2DED040BE7
:101830002DED0E8B96B0DDE92550279CDDF890A0AC
:1018400025F0004624F00048BAF1000F14BF012132
:10185000002101EB4502FC4953184A1093422AD358
:10186000002814BF0123002303EB44030B44F74972
:101870008B4220D358EA00019FEDF59B76D0DFF82C
:10188000D8B35D4503D1BAF1000F05D188E0BAF1B4
:10189000000F08BF002100D0012101EB450111F527
:1018A000001F08D8002814BF0121002101EB4401CA
:1018B00011F5001F0BD99DED261B9DED240B16B0D5
:1018C000BDEC0E8B04B0BDE8F04D00F069BE002702
:1018D000002DBCBFE149884521DAE1498845A8BF10
:1018E00002271CDAC3451ADCDE4901EB2851142912
:1018F00008DDC1F1340220FA02F101FA02F282425B
:101900000DD108E058B9C1F1140228FA02F101FA28
:1019100002F2424503D101F00101C1F1020756EA8A
:101920000A0124D1002C22DA002D18BF022F01D089
:10193000012F0AD00220FEF7D7FC16B0BDEC0E8BAB
:1019400004B0BDE8F04D00F013BE0220FEF7CCFC61
:1019500000F00EFE51EC100B01F07DF841EC100B85
:1019600016B0BDEC0E8B04B0BDE8F08D18E09FED15
:10197000BEAB9FEDBF8B002871D1B848804522D106
:1019800005F1804010F5801008BFBAF1000F07D0B4
:10199000B3450ADC002CA8BF9DED260BE0DA0DE074
:1019A000B0EE490AF0EE690ADAE7002C06DA9DED9E
:1019B000260B51EC100B01F04EF86FE0AE48784466
:1019C00090ED000BCCE7D8454DD1002C48DA2EB174
:1019D00086423AD1BAF1000F42D126E0BAF1000FA7
:1019E00013D00220FEF780FC00F0F6FD8DED020B17
:1019F0009DED240B8DED000B10EE900A039961F321
:101A00001E0003909DED020BAAE78DED02AB9DED4C
:101A1000240B1AEE901A10EE900A8DED000B61F374
:101A20001E0003909DED020B9AE78DED028B9DED5C
:101A3000240B18EE901A10EE900A8DED000B61F356
:101A40001E0003909DED020B8AE709DA9DED240B41
:101A500051EC190B53EC102B01F0C6F81EE020E0FE
:101A60009DED240B7CE786421BDAB4F1804F0DD04C
:101A7000A4F10050B0F1FF5013D1002D11DB9DED0A
:101A8000240B51EC100B00F0AFFF07E09DED240B91
:101A900053EC102B51EC100B00F0C2BC41EC100BBE
:101AA0005EE79DED240B51EC100B00F0B5FDBAF193
:101AB000000FCDE90E0142D19FED710B46B3A6F1A7
:101AC000E040B0F17F600CD05E4538D1002D00DAE7
:101AD000A7B3022F0CBF01204FF0FF3001F039FAFD
:101AE000DCE7002D01DD002C0DDA002D01DD002CDE
:101AF0001FDB002D16DA002C14DB012F08BF9FED31
:101B0000620B3FF42DAFB0EE4A0AF0EE6A0A27E707
:101B1000022F18BF002D0CD0012F0AD1002DFFF687
:101B20001FAF06E0002DB8BF002C08DA012F3FF4EC
:101B300017AFB0EE480AF0EE680A11E71BE001208B
:101B400000EBE57050EA070115D0791EB0EE498A26
:101B5000F0EE698A084308BF9FED4D8B4E48002583
:101B6000804570DD4D494E48884514DDB0420DDB9F
:101B7000002C19DB2FE00120FEF7B6FB16B0BDEC00
:101B80000E8B04B0BDE8F04D00F016BDB34502DC8D
:101B9000002C09DC1FE0864202DA002C1BDA03E08D
:101BA0005E452BDD002C16DD0220FEF79DFB00F0CC
:101BB00013FD8DED020B53EC1A2B51EC180B01F0B9
:101BC0002FFACDE900010399019861F31E000390FB
:101BD0009DED020BC4E60220FEF786FB00F00CFD33
:101BE00010EE901A18EE900A8DED020B8DED008B21
:101BF00061F31E0003909DED020BB1E69DED0E0B0F
:101C000053EC192B51EC100B01F016FC9FED260B39
:101C1000CDE9080153EC102B9DED080B51EC100B96
:101C200001F0FEF99FED221B53EC112B01F02CFB70
:101C30009DED081B53EC112B01F0F2F99FED1E1BDB
:101C400053EC112B3CE08CE0FFFF1F00FFFF0F0067
:101C5000000000000000F03F0000F03F0000F07FB7
:101C60000000404301FCFFFF000000000000F07F87
:101C70000000000000000000DE1D00000000000069
:101C80000000000000000080000000000000F0FFE5
:101C9000000000000000F0BF0000E0410000F04341
:101CA000FFFFEF3F00000000000000000000D03FF9
:101CB000555555555555D53F000000000000E03FF3
:101CC00001F0E2FA9DED080B41EC1A0B53EC102BDE
:101CD00051EC100B01F0A4F953EC1A2B01F0A0F910
:101CE00041EC1A0B9FEDFE0B53EC102B9DED080BF6
:101CF00051EC100B01F094F941EC1B0B9FEDFA0B2A
:101D000051EC1A0B53EC102B01F08AF941EC1A0B31
:101D10009FEDF70B53EC102B9DED080B51EC100BC6
:101D200001F07EF953EC1A2B01F086FB41EC1A0B03
:101D300051EC1B0B53EC1A2B00F09AFE0690CDE9E8
:101D400006519DED060B53EC1B2B51EC100B01F0D3
:101D500073FB53EC1A2B01F097FA41EC100B00F0D7
:101D6000A1B90020B6F5801F0EDA9FEDE30B53EC0E
:101D7000102B9DED0E0B51EC100B01F051F9CDE93C
:101D80000E016FF034000E4600EB2650A0F2FF3734
:101D9000C6F31300DA4940F07F6646F040568842A9
:101DA000D8BF002408DDD7498142C8BF012403DC25
:101DB0000024A6F580167F1CD348784400EBC400AD
:101DC0000F9690ED00CB9DED0E0B53EC1C2B51ECC0
:101DD000100B01F031FB9DED0E0B41EC1B0B53EC96
:101DE0001C2B51EC100B00F043FE41EC100B51EC9E
:101DF000190B53EC102B00F0F7FE41EC1D0B51ECCE
:101E00001B0B53EC1D2B01F00BF941EC1A0BBF48D7
:101E10008DED10AB7844109590ED000B4FF0005015
:101E200040EA660000EB84408DED080B00F50020D1
:101E300009909DED080B53EC1C2B51EC100B01F09D
:101E4000FBFA9DED0E1B53EC112B01F01DFA41EC3A
:101E5000100B53EC102B9DED100B51EC100B01F0FF
:101E6000DFF89DED080B41EC1C0B53EC102B9DEDA6
:101E7000100B51EC100B01F0D3F853EC1B2B01F0BD
:101E800003FA53EC1C2B01F0D7FA53EC1D2B01F095
:101E9000C7F841EC1C0B53EC1A2B51EC1A0B01F058
:101EA000BFF841EC1B0B9A480621B0EE4B0AF0EE4E
:101EB0006B0A784400F0E0FAB0EE401AF0EE601AD7
:101EC000B0EE41DAF0EE61DA53EC1B2B51EC1B0B58
:101ED00001F0A6F853EC1D2B01F0A2F89DED100BBC
:101EE00041EC1B0B53EC1A2B51EC100B00F0C0FD16
:101EF00053EC1C2B01F094F853EC1B2B00F0B8FDB5
:101F00009DED100B41EC1B0B53EC102B51EC100B07
:101F100001F086F841EC1D0B9FED7FEB53EC1E2B7F
:101F200000F0A6FD53EC1B2B00F0A2FD0890CDE9BC
:101F300008519DED080B53EC1E2B51EC100B01F0DA
:101F40007BFA53EC1D2B01F077FA53EC1B2B01F0BD
:101F50009BF99DED080B41EC1D0B53EC102B9DEDF7
:101F6000100B51EC100B01F05BF841EC1B0B53EC28
:101F70001A2B51EC1D0B01F053F89DED080B41ECB1
:101F80001A0B53EC102B51EC1C0B01F049F853ECDD
:101F90001A2B00F06DFD41EC1A0B51EC1B0B53ECAE
:101FA0001A2B00F065FD0C90CDE90C519DED0C0B4A
:101FB00053EC1B2B51EC100B01F03EFA53EC1A2B97
:101FC00001F062F941EC1B0B9FED550B53EC102B0C
:101FD0009DED0C0B51EC100B01F022F841EC1A0BAB
:101FE0009FED510B51EC1B0B53EC102B01F018F82B
:101FF00041EC1B0B9FED4E0B53EC102B9DED0C0B8E
:1020000051EC100B01F00CF853EC1B2B00F030FDE1
:1020100041EC100B4848784400EBC40090ED001BE5
:1020200051EC100B53EC112B00F022FD41EC1B0B7B
:10203000384600F08EFFCDE9080153EC1B2B51EC24
:102040001A0B00F015FD41EC100B3C48784400EBF6
:10205000C40090ED00CB51EC100B53EC1C2B00F0A6
:1020600007FD9DED081B53EC112B00F001FD0690C0
:10207000CDE906519DED080B53EC102B9DED060BA1
:1020800051EC100B01F0D8F953EC1C2B01F0D4F9F2
:1020900053EC1A2B01F0D0F953EC1B2B01F0F4F8A0
:1020A00041EC100B9DED261B53EC102B8DED001B0E
:1020B00000959DED260B51EC100B00F0B1FF9DED4E
:1020C000000B41EC1A0B53EC102B9DED260B51EC41
:1020D000100B01F0B1F99DED061B53EC112B2FE015
:1020E000000000604715F73FFE822B654715F73F5C
:1020F00044DF5DF80BAE543E00000000000040439A
:102100008E9803007AB60B005A1900008819000057
:1021100092180000000000000000000000000840CD
:10212000000000E009C7EE3FFD033ADC09C7EE3FBF
:10213000F5015B14E02F3EBE1E170000D81600000C
:1021400000F06EFF53EC1A2B00F092FC9DED060B95
:1021500041EC1A0B53EC102B9DED000B51EC100BC6
:1021600000F05EFFCDE90C019DED0C0B51EC1A0B5C
:1021700053EC102B00F07CFCCDE902010C46AA497F
:102180008C422FDB611A084318D19DED0C0B53ECE8
:10219000102B9DED020B51EC100B01F04DF941ECB1
:1021A0001B0B9FEDA30B51EC1A0B53EC102B00F003
:1021B0005FFC53EC1B2B01F031F82DD20220FEF70F
:1021C00093F800F009FA10EE901A18EE900A8DEDCF
:1021D000020B8DED008B61F31E0003909DED020B51
:1021E000FFF7BEBB944A24F00041914214D39349B7
:1021F000214408437FF4EFAC9DED0C0B53EC102B06
:102200009DED020B51EC100B01F016F953EC1A2B5B
:1022100001F004F87FF6DFAC24F000408849894AD9
:10222000002601EB205182422BDA481C4FF480112A
:1022300021FA00F02044844AC0F30A517A44A1F202
:10224000FF3192ED000B814A8DED080BCA4020EA68
:102250000202C0F3130040F48010C1F1140120FA0F
:1022600001F60992002CB8BF76429DED080B53ECA5
:10227000102B9DED0C0B51EC100B01F0DDF8CDE9AE
:102280000C019DED0C0B51EC1A0B53EC102B00F0D4
:10229000EFFB9FED6F0B0890CDE9085153EC102B2D
:1022A0009DED080B51EC100B00F0BAFE41EC1B0B3E
:1022B0009FED690B53EC102B9DED080B51EC100BAF
:1022C00000F0AEFE9DED0C0B41EC1C0B53EC102B03
:1022D0009DED080B51EC100B01F0AEF853EC1A2BEE
:1022E00000F0D2FF9FED5E1B53EC112B00F098FE27
:1022F00053EC1C2B00F0BCFB41EC1A0B51EC1B0BFC
:1023000053EC1A2B00F0B4FBCDE902019DED020B5A
:1023100053EC1B2B51EC100B01F08EF853EC1A2BE5
:1023200000F0B2FF9DED020B41EC1A0B53EC102BA9
:1023300051EC100B00F074FECDE908014A489DED08
:10234000080B0521784400F097F89DED081B51EC2F
:10235000100B53EC112B00F063FE9DED021B53ECB0
:10236000112B00F091FFCDE906019DED020B53EC1E
:102370001A2B51EC100B00F053FE53EC1A2B00F00B
:1023800077FB9FED3B0B41EC1A0B53EC102B9DEDB3
:10239000060B51EC100B01F04FF89DED060B41ECD4
:1023A0001B0B53EC102B9DED020B51EC100B00F0AE
:1023B00037FE53EC1B2B00F017FC53EC1A2B01F0EB
:1023C0003BF89DED021B53EC112B01F035F853EC5B
:1023D000192B00F059FFCDE9020101EB0650011560
:1023E0000029C8BF039015DC9DED020B324651EC6D
:1023F000100B01F042F9FFF7FFF9042808BF00F0C5
:10240000FBF832469DED020B51EC100B01F035F953
:10241000CDE902019DED020B51EC180B53EC102B92
:1024200000F0FEFDFFF73ABB000090400000000006
:10243000FE822B654715973C00CC904000346F3FDF
:1024400001FCFFFF0000E03F60150000FFFF0F00F0
:1024500000000000432EE63F396CA80C615C20BEF2
:10246000EF39FAFE422EE63F301400000000000073
:10247000000000000000004070B504462DED028B06
:102480004D1E00EBC500B0EE408AF0EE608A90ED84
:10249000000B35F0060017D053EC182B51EC100B45
:1024A00000F0BEFD41EC100B6D1E04EBC50090ED7D
:1024B000001B51EC100B53EC112B00F0D9FA41EC3E
:1024C000100B35F00600E7D1022D36D0042D1CD0BC
:1024D000062D1CBFBDEC028B70BD53EC182B51ECCC
:1024E000100B00F09DFD94ED0A1B53EC112B00F036
:1024F000BFFA53EC182B00F093FD94ED081B53EC3E
:10250000112B00F0B5FA41EC100B53EC182B51ECE9
:10251000100B00F085FD94ED061B53EC112B00F021
:10252000A7FA53EC182B00F07BFD94ED040B53EC51
:10253000102B00F09DFA41EC100B53EC182B51ECD2
:10254000100B00F06DFD94ED021B53EC112B00F00D
:102550008FFA53EC182B00F063FD94ED001B53EC45
:10256000112B00F085FABDEC028B41EC100B70BD15
:102570009FED070B10B553EC102B9FED070B51ECA3
:10258000100B00F031FB41EC100B10BD00000000FF
:102590000000000000000000000000000000F03F0C
:1025A00010B553EC112B51EC100B00F061FA41EC1B
:1025B000100B10BD000000009FED050B10B553EC93
:1025C000102B51EC100B00F00FFB41EC100B10BD69
:1025D00000000000000000009FED050B10B553EC5B
:1025E000102B51EC100B00F01BFD41EC100B10BD3B
:1025F00000000000000000709FED050B10B553ECCB
:10260000102B51EC100B00F00BFD41EC100B10BD2A
:10261000000000000000001082B0CDE9000121F0B0
:10262000004001909DED000B02B051EC100B704783
:102630002DED088B88B0FEF77BFE2A2000239FED4E
:10264000BE0A08224FF4E13100900320FEF78AFC15
:102650004FF47A70FEF7AEF9B8A10320FEF732F915
:102660001423002211464820FEF70EFB01214820CA
:10267000FEF7C0F91423002211460F20FEF704FBD9
:1026800001210F20FEF7B6F91423002211460C2079
:10269000FEF7FAFA01210C20FEF7ACF91423002210
:1026A00011460820FEF7F0FA01210820FEF7A2F9F2
:1026B0001423002211460B20FEF7E6FA01210B201D
:1026C000FEF798F91423002211462920FEF7DCFAC0
:1026D00001212920FEF78EF90A20FEF76BF90C2064
:1026E000FFF776F804469849FFF74EF8044600686D
:1026F000D4E9011205AB07C305A8FEF7C3FF1021FB
:1027000005A8FEF781FF112105A8FEF77DFF202116
:1027100005A8FEF779FF212105A8FEF775FF05A89A
:10272000FFF724F80C20FFF753F804468749FFF71A
:102730002BF804460068D4E9011202AB07C302A8D3
:10274000FEF7A0FF222102A8FEF75EFF232102A8C8
:10275000FEF75AFF02A8FFF709F87DA10320FEF754
:10276000B1F8E8E07FA10320FEF7ACF801221121C7
:1027700005A8FEF7D5FF054629460320FEF7BCFE57
:102780000120FEF717F97AA10320FEF79BF801223A
:10279000102105A8FEF7C4FF054629460320FEF7D1
:1027A000ABFE0120FEF706F974A10320FEF78AF8BC
:1027B0000122222102A8FEF7B3FF054600F0E0FB4C
:1027C00041EC1B0B9FED700B53EC102B00F028FC21
:1027D00041EC1A0B9FED6E0B53EC102B00F020FC1C
:1027E00041EC190B9FED6C0B53EC102B00F0FCF936
:1027F00041EC180BB0EE480AF0EE680A0320FEF731
:10280000DBFD0120FEF7D6F865A10320FEF75AF89C
:102810000122212105A8FEF783FF054600F0B0FB49
:1028200041EC1B0B9FED580B53EC102B00F0F8FB09
:1028300041EC1A0B9FED5D0B53EC102B00F0F0FBFD
:1028400041EC190B9FED540B53EC102B00F0CCF91D
:1028500041EC180BB0EE480AF0EE680A0320FEF7D0
:10286000ABFD0120FEF7A6F852A10320FEF72AF8DF
:102870000122202105A8FEF753FF054600F080FB4A
:1028800041EC1B0B9FED400B53EC102B00F0C8FBF1
:1028900041EC1A0B9FED4A0B53EC102B00F0C0FBE0
:1028A00041EC190B9FED480B53EC102B00F09CF9F9
:1028B00041EC180BB0EE480AF0EE680A0320FEF770
:1028C0007BFD0120FEF776F841A10320FDF7FAFF1A
:1028D0000122232102A8FEF723FF054600F050FB4A
:1028E00041EC1B0B9FED280B53EC102B00F098FBD9
:1028F00041EC1A0B9FED390B53EC102B00F090FBC1
:1029000041EC190B9FED300B53EC102B00F06CF9E0
:1029100041EC180BB0EE480AF0EE680A0320FEF70F
:102920004BFD0120FEF746F82EA10320FDF7CAFF5C
:102930003220FEF73FF815E7000000000D0A53743F
:102940006172740D0A000000002001400021014066
:102950000D0A4144437320636F6E66696765640DB9
:102960000A00000062616C6C20313A200000000017
:10297000092062616C6C20323A20000009206365F6
:102980006C6C20313A2000006666666666660A4016
:10299000000000000094B1400000000000C8694140
:1029A000092063656C6C20323A20000000000000B2
:1029B0000062C140092063656C6C20333A2000003E
:1029C00000000000000CC740000000000018654136
:1029D000092063656C6C20343A2000000000000080
:1029E00000AACE400D0A000000B52DED048B83B087
:1029F00041EC190B00F054FC41EC180B18EE100AD6
:102A000018EE901A8DED008B002818BF01200843A6
:102A100020F00040C0F17F6000F1E040C00F14D012
:102A200019EE101A19EE900A8DED009B002918BFBF
:102A30000121084320F00040C0F17F6000F1E04038
:102A4000C00F04BF0120FDF74FFC51EC180B03B081
:102A5000BDEC048B00BD81F00041704780F0004068
:102A6000704721F00041704720F00040704700009F
:102A700010B591EA030F48BF83F0004300F1E484EE
:102A8000841A71EB030C05D2121943EB0C03001BE3
:102A900061EB0C01DFF824E14FEA1154A4EB135C65
:102AA0001EEA430F18BF9EEA445F73D023EA0E0369
:102AB000DCF1200E21EA045143F4801332D322FAD0
:102AC0000CFE10EB0E0023FA0CFE41EB0E01CCF1D4
:102AD000200E03FA0EFE10EB0E0051F10001B1F5CD
:102AE000801FCCF1200E32D201EB045112FA0EF20B
:102AF000BDE8104058BF7047401C38BF5FEA420233
:102B000018BF7047002814BF20F0010041F10001F8
:102B10004FEA410313F5001F38BF7047A1F1C041D0
:102B200000F076BB012A43EB0302ACF1200CDCF190
:102B30001F0E32BF4FF0000E23FA0CF310EB030010
:102B400041EB0451B4EB115FD0D0A1EB045101F57E
:102B5000801149085FEA300001EB04510ED350F1B7
:102B6000000038BF12FA0EFE08D1BDE81040C9E7D8
:102B7000401C38BF5FEA4202CAD1C3E7BDE810403B
:102B80004FEA410313F5001F38BF7047A1F1C04160
:102B900000F03EBB9EEA445F08D011EA5E0FBDE83C
:102BA000104004BF01F0004100207047BDE8104014
:102BB00070B500F0DFFA00BF64FBBE3E0000E0FF2E
:102BC00002494FF0000000F026BD00BF0000F87F72
:102BD000491058BFC1F140415B1058BFC3F1404399
:102BE0008B42EFF3008070472DE9C04130B4DFF82D
:102BF000A0C23CEA111418BF3CEA131400F0EC80A8
:102C000081EA03051CEA111444EAD57418BF1CEAD2
:102C1000131500F0C780A4EB05044FF0004545EA0A
:102C2000C12145EAC32341EA505143EA525304F11A
:102C30007F74994204F500344FEAC0204FEAC22263
:102C400008BF904200F09C804FEA13650FF24016D7
:102C5000765D4FEA134506FB05F7C7F1807706FB63
:102C600007F74FEAD737A7FB03687642C8F58038E5
:102C7000A7FB06CE38BFA8F1010807FB08E64FF016
:102C8000000EA6FB028CE6FB03CEDCF1000CCEF1BD
:102C9000004E38BFAEF1010EA6FB0C584FF00007F6
:102CA0004FF00005E6FB0E87A1FB08C6A0FB07CE90
:102CB00016EB0E0645F10005E1FB076515F1E04E48
:102CC0007EBFA4F580345FEA46066D4116F18007A9
:102CD00045F100054FEA17274FEA066647EA056700
:102CE000A6F1DE46B6F1805F4FEA15251FD93846BA
:102CF00024F0010C05EBC471BCF1FE6F01EB0C116B
:102D000002D8F0BCBDE8008124425CBF01F5801E02
:102D10009EEAC47F02D4F0BCBDE80081244238D4CE
:102D2000F0BCA1F1C041BDE8004100F071BA4FEA2A
:102D3000D22242EA43524FEAD323A7FB02864FEA4C
:102D4000D02040EA415007FB03661EEA0E0F4FEA0F
:102D5000D12105FB026658BFA6EB0056B6EB005624
:102D60004FEA520E4EEAC37E18EB0E0E56EB530E90
:102D7000BDD518EB02085E417F1C55F10005B6E792
:102D80004FF480154FF000074FF000064FF0000899
:102D9000ADE7F0BC4FF0000001F1C04101F000418F
:102DA000BDE8008111EA0C1F0CEA131500D00CE0FD
:102DB00013EA0C1F00F025804FF00000F0BC81EA00
:102DC000030101F00041BDE80081F0BCBDE8004115
:102DD00081EA030100F01CBAF0BCBDE8004170B507
:102DE00000F0C8F9097EFC3E00F007B881EA030153
:102DF0004FF0000001F00041704781EA030100F04C
:102E000007BAF0BCBDE800414FF00000214970470F
:102E1000FFFDFBF9F7F5F4F2F0EEEDEBE9E8E6E49F
:102E2000E3E1E0DEDDDBDAD8D7D5D4D3D1D0CFCD26
:102E3000CCCBCAC8C7C6C5C4C2C1C0BFBEBDBCBB5F
:102E4000BAB9B8B7B6B5B4B3B2B1B0AFAEADACAB5A
:102E5000AAA9A8A8A7A6A5A4A3A3A2A1A09F9F9E34
:102E60009D9C9C9B9A9999989797969595949393E6
:102E7000929191908F8F8E8E8D8C8C8B8B8A89897D
:102E80008888878786858584848383828281818000
:102E90000000FF070000F87F4FEA41034FEA535359
:102EA000A3F58063D3F11E03C8BFD3F1210C0CDD61
:102EB0004FF0004242EAC12242EA505232FA03FC89
:102EC0008CEAE17CACEBE1707047102BC4BF0020B2
:102ED000704703F5787CBCF1FF3F04D06FF00042EF
:102EE00082EA2100704770B500F044F949922480CD
:102EF00000207047F2E700004FEA1153A3F580630A
:102F0000D3F11E03A8BFD3F1200C08DB4FF0004221
:102F100042EAC12252EA505232FA03F070470942A3
:102F20000BD4102BC4BF0020704703F5787CBCF194
:102F3000FF3F05D04FF0FF3070474FF00000704763
:102F400070B500F017F900BF499224800020704747
:102F5000F0E710F0004248BF4042B0FA80F310FAA8
:102F600003F10AD0C3F11D0303F580634FEA41501A
:102F700002EB035202EBD12170474FF00000704783
:102F8000B0FA80F310FA03F10AD0C3F11D0303F580
:102F900080634FEA41504FEA035202EBD121704760
:102FA0004FF000007047000051EA030C17D41CF5E5
:102FB000801F58BFBCF5801F00F10680994218BFE2
:102FC000704708BF9042704707D711F5801F58BF60
:102FD00013F5801F19D499427047894270471CF538
:102FE000801F08D5BCF5801FF7D58B4218BF7047EE
:102FF00008BF824270474FF4001C1CEB410F38BFE2
:103000001CEB430F01D28B42704770B500F0B2F851
:10301000922449004FF000514FF08053FFF7D8BD84
:10302000DFF848C170B51CEA111E1EBF1CEA13155B
:103030009EEA0C0F95EA0C0F00F06F8081EA030402
:1030400023EA4C134EEAD47E21EA4C1141F480115C
:1030500043F48013AE44A1FB024CA0FB0365AEF128
:103060007F7E361955EB0C05A1FB034C4CF1000398
:10307000A0FB021C16EB0C06654153F1000309424C
:1030800018BF46F0010613F4007F0BD14FEA03315D
:103090004FEA0530340341EA155140EA16506FF00B
:1030A00003020AE04FEAC3214FEAC520F40241EAD5
:1030B000555140EA56506FF0020202EB2E4201EBEE
:1030C000025585EACE710AD05FEA440C18BF24F09D
:1030D000004450F1000041F1000120EAD47040F2B8
:1030E000FE7C624500D270BDA84214BF4FF0804400
:1030F0004FF04044002E08BF0024BEF1806FA8BFEF
:10310000A1F1C041BDE8704080F282804FF0000024
:1031100001F1C04101F0004170479EEA0C0F0CEA3A
:10312000131518BF95EA0C0F06D04FF0000081EA86
:10313000030E0EF0004170BD00F01CF88900013E46
:1031400000F007B800F009B84FEA430C5FEA5C5C96
:1031500008D081EA030100F05BB84FEA410C5FEA56
:103160005C5CF6D14FF00000014970470000FF079A
:103170000000F87F0EF1020E2EF0030E5EF8046BD5
:10318000364205D4012A43EB030515F5001F12D87A
:10319000012841EB010C1CF5001F0CD80ED14FEAA1
:1031A000D17C15F5001F0CEB4C0C0CF1020C08BF88
:1031B0004CEBD37C04E04FF0080C01E04FEAD37CE9
:1031C0000CEB4C0526FA05F606F00706B6F1040CE2
:1031D00006D20EEB860CBDE870404CF0010C604747
:1031E000DFE80CF0090B02024FF000414FF0000045
:1031F000A1F5002170BD19461046012851EB0104CC
:1032000018BFD4F5001484BF002001F0004170BD48
:103210000808A0F500114FEA3101704753EA010C8C
:1032200017D41CF5801F58BFBCF5801F00F1068025
:103230008B4218BF704708BF8242704707D713F50B
:10324000801F58BF11F5801F19D48B4270479B42D5
:1032500070471CF5801F08D5BCF5801FF7D5994233
:1032600018BF704708BF904270474FF4001C1CEB1A
:10327000430F38BF1CEB410F01D2994270470FB486
:103280000CBC03BCFFF7C1BE91EA030F10B581F07F
:1032900000413FF5F5AB83F0004300F0D5B80000E6
:1032A0002DE9F04101F5801CBCF5001FC0F2A9809A
:1032B0004FEA115C21EA0C510CF1FD0C41F4801134
:1032C0005FEA5C0C0CF5C07C01D34000494130A49E
:1032D000890241EA905187028E0E0A0CA45D04FB1C
:1032E00004F602FB06F6C6F14046A4FB0662F60DA4
:1032F00046EA422606FB06F4A4FB01235242C3F130
:10330000404338BF5B1EA6FB02420024E6FB0324B9
:10331000D20B42EA4446A6FB0623A1FB02E2A3FB32
:1033200007E4E3FB61426442C2F1404E38BFAEF1B4
:10333000010EA6FB04234FF00002E6FB0E32A2FBB7
:1033400003463400E2FB6264A1FB06E6A4FB07E847
:10335000E4FB61687642C8F1405838BFA8F1010823
:10336000A2FB06E4A3FB08E5E2FB6854A1FB05E62B
:10337000A7FB04E8E1FB648618F1200556F100067E
:10338000A809A8F11B08B10908F03F08B8F10A0F15
:1033900040EA86601CD901EB0C51BDE8F08100BF0A
:1033A000FCF5EEE8E2DDD8D3CFCBC7C3C0BDB9B6DC
:1033B000B4B1AEACA9A7A5A3A19F9D9B9A989695E1
:1033C0009392908F8D8C8B89888786858483828168
:1033D000A0FB006800FB01F208EB4208B8EB87286D
:1033E00007D5341858EB0104D5D5401C51F1000124
:1033F000D1E7341A78EB0104CDD4401E71F10001FD
:10340000C9E75FEA4C0C5FEA9C5C0DD105D34FF035
:10341000000001F00041BDE8F081BDE8F04170B569
:10342000FFF7A8FE6DDBFFBEBDE8F0414FF00000E6
:10343000004970470000F87F10B591EA030F48BFBC
:1034400083F000433FF51CAB841A71EB030C07D2E9
:1034500012198CF0004C43EB0C03001B61EB0C01C8
:10346000DFF8A4E14FEA1154A4EB135C1EEA430F0A
:1034700018BF9EEA445F00F0B08023EA6E03524218
:1034800021EA0451C3EB6E0338BF5B1EDCF1200E52
:1034900025D322FA0CFE10EB0E0043FA0CFE41EB92
:1034A0000E01CCF1200E03FA0EFE10EB0E0051F1CE
:1034B0000001CCF1200E29D412FA0EF201EB0451D6
:1034C000BDE8104058BF7047401C1CBFB2F1004F10
:1034D000704700280CBF491C20F00100704712EB18
:1034E000020E43EB030218BF4FF0010E4EEA4202F8
:1034F000ACF1200CDCF11E0E54D943FA0CFE10EB9B
:103500000E0051F1FF31CCF11E0ED5D50EF1010E9A
:1035100012FA0EFE404141EB010101EB445C5FEA0F
:103520005C5C10D910EBDE7001EB045138BFBEF1CA
:10353000004FBDE8104018BF704700280CBF491C61
:1035400020F00100704730D24FEAD42C11F5001161
:1035500024F400641BD0B1FA81F20B3AA41AA41E21
:10356000D2F12003914030FA03F31943904001EB6C
:10357000CC71002C01EB0451BDE81040A8BF70478E
:1035800001F1C0414FF0000001F000417047B0FA76
:1035900080F310FA03F100D110BDE41A173C48057E
:1035A000C90AE4E701EB045110BD491001EB0451D5
:1035B000BDE810404FEA300002E04FF000017047D4
:1035C0004A0008BF0042F8D0B2F5001F28BF70477C
:1035D00001F000414FF0000070479EEA445F07D0C1
:1035E00011EA5E0FBDE8104004BF002100207047C3
:1035F000BDE8104070B5FFF7BDFD00BF40DFF63EEF
:1036000083F00041104670470000E0FF4FF040702B
:10361000E1EE100A70470CF00F03092B08BF0820D9
:1036200000F059800A2B0BD0082B18BF704708BF39
:103630001CF0400F0AD04FF000004FF0000170471F
:103640001CF0400F18BF4FF0004070471CF0100FE7
:1036500008D020F0704300F07F4242EAD3014FEAE5
:103660004370704700F0604021F07F4242EA000260
:1036700001F07F4040EA727070474FF0FF0C4CF44D
:10368000E06C1CEA11531CBF9CEA030C9445C2BFBA
:10369000DA4201EB02517047002B0DD0BCF1000F54
:1036A0000FD0002A01F00041A4BF41F0E04141F0F9
:1036B0007F614FF00000704701F000414FF00000C3
:1036C000704750EA01334FF09B0C18BF4CF0806CF0
:1036D0007FF476AA70471CF4801F11D01CF4E02FF1
:1036E00003D06FEACC31490070474FF04050EFF300
:1036F000008222F0704242EA000282F300887047A2
:103700004FF0000070470001020304050607101186
:103710002021222324250000000000000000F03FAB
:10372000000000000000F83F000000000000000062
:103730000000004003B8E23F00000000000000006D
:1037400006D0CF43EBFD4C3E033333333333E33FFB
:10375000FFAB6FDBB66DDB3F4D268F515555D53F27
:1037600001411DA96074D13F65DBC9934A86CD3FF5
:10377000EF4E454A287ECA3F3E5555555555C53FE3
:1037800093BDBE166CC166BF2CDE25AF6A56113FD5
:10379000F16BD2C541BDBBBED0A4BE726937663ED7
:1037A0000000000000000000C837000800000020F2
:1037B00020000000C4010008E837000820000020B5
:1037C00020080000E00100080000000000000000E8
:1037D00000000000000000000000000000000000E9
:0837E0000000000000000000E1
:0400000508000231BC
:00000001FF
